{"contracts/test/MockPyth.sol":{"MockPyth":{"abi":[{"inputs":[{"internalType":"uint256","name":"_validTimePeriod","type":"uint256"},{"internalType":"uint256","name":"_singleUpdateFee","type":"uint256"}],"stateMutability":"nonpayable","type":"constructor"},{"anonymous":false,"inputs":[{"indexed":true,"internalType":"bytes32","name":"id","type":"bytes32"},{"indexed":false,"internalType":"uint64","name":"publishTime","type":"uint64"},{"indexed":false,"internalType":"int64","name":"price","type":"int64"},{"indexed":false,"internalType":"uint64","name":"conf","type":"uint64"}],"name":"PriceFeedUpdate","type":"event"},{"inputs":[{"internalType":"bytes32","name":"id","type":"bytes32"},{"internalType":"uint256","name":"age","type":"uint256"}],"name":"getEmaPriceNoOlderThan","outputs":[{"components":[{"internalType":"int64","name":"price","type":"int64"},{"internalType":"uint64","name":"conf","type":"uint64"},{"internalType":"int32","name":"expo","type":"int32"},{"internalType":"uint256","name":"publishTime","type":"uint256"}],"internalType":"struct IPyth.Price","name":"","type":"tuple"}],"stateMutability":"view","type":"function"},{"inputs":[{"internalType":"bytes32","name":"id","type":"bytes32"}],"name":"getEmaPriceUnsafe","outputs":[{"components":[{"internalType":"int64","name":"price","type":"int64"},{"internalType":"uint64","name":"conf","type":"uint64"},{"internalType":"int32","name":"expo","type":"int32"},{"internalType":"uint256","name":"publishTime","type":"uint256"}],"internalType":"struct IPyth.Price","name":"","type":"tuple"}],"stateMutability":"view","type":"function"},{"inputs":[{"internalType":"bytes32[]","name":"ids","type":"bytes32[]"}],"name":"getPriceFeeds","outputs":[{"components":[{"internalType":"bytes32","name":"id","type":"bytes32"},{"components":[{"internalType":"int64","name":"price","type":"int64"},{"internalType":"uint64","name":"conf","type":"uint64"},{"internalType":"int32","name":"expo","type":"int32"},{"internalType":"uint256","name":"publishTime","type":"uint256"}],"internalType":"struct IPyth.Price","name":"price","type":"tuple"},{"components":[{"internalType":"int64","name":"price","type":"int64"},{"internalType":"uint64","name":"conf","type":"uint64"},{"internalType":"int32","name":"expo","type":"int32"},{"internalType":"uint256","name":"publishTime","type":"uint256"}],"internalType":"struct IPyth.Price","name":"emaPrice","type":"tuple"}],"internalType":"struct IPyth.PriceFeed[]","name":"feeds","type":"tuple[]"}],"stateMutability":"view","type":"function"},{"inputs":[{"internalType":"bytes32","name":"id","type":"bytes32"},{"internalType":"uint256","name":"age","type":"uint256"}],"name":"getPriceNoOlderThan","outputs":[{"components":[{"internalType":"int64","name":"price","type":"int64"},{"internalType":"uint64","name":"conf","type":"uint64"},{"internalType":"int32","name":"expo","type":"int32"},{"internalType":"uint256","name":"publishTime","type":"uint256"}],"internalType":"struct IPyth.Price","name":"","type":"tuple"}],"stateMutability":"view","type":"function"},{"inputs":[{"internalType":"bytes32","name":"id","type":"bytes32"}],"name":"getPriceUnsafe","outputs":[{"components":[{"internalType":"int64","name":"price","type":"int64"},{"internalType":"uint64","name":"conf","type":"uint64"},{"internalType":"int32","name":"expo","type":"int32"},{"internalType":"uint256","name":"publishTime","type":"uint256"}],"internalType":"struct IPyth.Price","name":"","type":"tuple"}],"stateMutability":"view","type":"function"},{"inputs":[{"internalType":"bytes[]","name":"updateData","type":"bytes[]"}],"name":"getUpdateFee","outputs":[{"internalType":"uint256","name":"feeAmount","type":"uint256"}],"stateMutability":"view","type":"function"},{"inputs":[{"internalType":"bytes32","name":"id","type":"bytes32"}],"name":"priceFeedExists","outputs":[{"internalType":"bool","name":"","type":"bool"}],"stateMutability":"view","type":"function"},{"inputs":[{"internalType":"bytes32","name":"feedId","type":"bytes32"},{"internalType":"int64","name":"price","type":"int64"},{"internalType":"uint64","name":"conf","type":"uint64"},{"internalType":"int32","name":"expo","type":"int32"},{"internalType":"uint256","name":"publishTime","type":"uint256"}],"name":"setPrice","outputs":[],"stateMutability":"nonpayable","type":"function"},{"inputs":[],"name":"singleUpdateFeeInWei","outputs":[{"internalType":"uint256","name":"","type":"uint256"}],"stateMutability":"view","type":"function"},{"inputs":[{"internalType":"bytes[]","name":"updateData","type":"bytes[]"}],"name":"updatePriceFeeds","outputs":[],"stateMutability":"payable","type":"function"},{"inputs":[{"internalType":"bytes[]","name":"","type":"bytes[]"},{"internalType":"bytes32[]","name":"","type":"bytes32[]"},{"internalType":"uint64[]","name":"","type":"uint64[]"}],"name":"updatePriceFeedsIfNecessary","outputs":[],"stateMutability":"payable","type":"function"},{"inputs":[],"name":"validTimePeriod","outputs":[{"internalType":"uint256","name":"","type":"uint256"}],"stateMutability":"view","type":"function"}],"evm":{"bytecode":{"linkReferences":{},"object":"60c034607057601f610af338819003918201601f19168301916001600160401b038311848410176075578084926040948552833981010312607057602081519101519060805260a052604051610a67908161008c82396080518161056e015260a05181818161028d015261087d0152f35b600080fd5b634e487b7160e01b600052604160045260246000fdfe608080604052600436101561001357600080fd5b60003560e01c90816348b6404d1461086757508063711a2e28146107ba5780639474f45b1461076c57806396834ad31461071e578063a4ae35e014610634578063b5ec026114610603578063b9256d2814610591578063cbdaeaba14610556578063d47eed4514610518578063d727e660146102fe578063ef9e5e281461025a5763fe02dfd6146100a357600080fd5b346102555760a0366003190112610255576004356024358060070b809103610255576044359067ffffffffffffffff8216809203610255576064358060030b809103610255577fd06a6b7f4918494b3719217d1802786c1f5112a6c1d88fe2cfec00b4584f6aec926060926084359261011a610907565b8281526001602082018581526040830190848252888401918883528b6000526000602052604060002094519173ffffffffffffffffffffffffffffffffffffffff1967ffffffffffffffff6fffffffffffffffff00000000000000008854935160401b16935160801b63ffffffff60801b169416911617171783555191015560016101a3610907565b918383526020830185815260408401918252878401918783528a60005283602052604060002094519173ffffffffffffffffffffffffffffffffffffffff1967ffffffffffffffff6fffffffffffffffff00000000000000008854935160401b16935160801b63ffffffff60801b16941691161717178355519101558560005260026020526040600020600160ff1982541617905567ffffffffffffffff6040519316835260208301526040820152a2005b600080fd5b60203660031901126102555760043567ffffffffffffffff8111610255576102896102b19136906004016108b6565b90507f00000000000000000000000000000000000000000000000000000000000000006109f5565b34106102b957005b60405162461bcd60e51b815260206004820152601a60248201527f4d6f636b507974683a20696e73756666696369656e74206665650000000000006044820152606490fd5b346102555760203660031901126102555760043567ffffffffffffffff81116102555761032f9036906004016108b6565b9061033982610a08565b6040519290601f01601f1916830167ffffffffffffffff81118482101761050257604052808352601f1961036c82610a08565b0160005b8181106104ce57505060005b81811061044c578360405180916020820160208352815180915260206040840192019060005b8181106103b0575050500390f35b91935091602061012060019261043e6040885180518452610405868201518786019060608091805160070b845267ffffffffffffffff6020820151166020850152604081015160030b60408501520151910152565b0151805160070b60a0840152602081015167ffffffffffffffff1660c0840152604081015160030b60e084015260600151610100830152565b0194019101918493926103a2565b8061045a6001928486610a20565b35610466828587610a20565b3560005260006020526104ad6040600020610482848789610a20565b35600052846020526104a360406000209161049b6108e7565b9485526109ba565b60208401526109ba565b60408201526104bc8287610a46565b526104c78186610a46565b500161037c565b6020906104d96108e7565b600081526104e5610927565b838201526104f1610927565b604082015282828801015201610370565b634e487b7160e01b600052604160045260246000fd5b346102555760203660031901126102555760043567ffffffffffffffff81116102555761054e61028960209236906004016108b6565b604051908152f35b346102555760003660031901126102555760206040517f00000000000000000000000000000000000000000000000000000000000000008152f35b60603660031901126102555760043567ffffffffffffffff8111610255576105bd9036906004016108b6565b505060243567ffffffffffffffff8111610255576105df9036906004016108b6565b505060443567ffffffffffffffff8111610255576106019036906004016108b6565b005b34610255576020366003190112610255576004356000526002602052602060ff604060002054166040519015158152f35b3461025557610642366108a0565b61064a610927565b5081600052600260205261066560ff6040600020541661094b565b81600052600060205261068060016040600020015442610997565b116106d9576000526000602052608061069c60406000206109ba565b6106d7604051809260608091805160070b845267ffffffffffffffff6020820151166020850152604081015160030b60408501520151910152565bf35b60405162461bcd60e51b815260206004820152601560248201527f4d6f636b507974683a207374616c6520707269636500000000000000000000006044820152606490fd5b346102555760203660031901126102555760043561073a610927565b5080600052600260205261075560ff6040600020541661094b565b6000526000602052608061069c60406000206109ba565b3461025557602036600319011261025557600435610788610927565b508060005260026020526107a360ff6040600020541661094b565b6000526001602052608061069c60406000206109ba565b34610255576107c8366108a0565b6107d0610927565b508160005260026020526107eb60ff6040600020541661094b565b81600052600160205261080660016040600020015442610997565b11610822576000526001602052608061069c60406000206109ba565b60405162461bcd60e51b815260206004820152601960248201527f4d6f636b507974683a207374616c6520454d41207072696365000000000000006044820152606490fd5b34610255576000366003190112610255576020907f00000000000000000000000000000000000000000000000000000000000000008152f35b6040906003190112610255576004359060243590565b9181601f840112156102555782359167ffffffffffffffff8311610255576020808501948460051b01011161025557565b604051906060820182811067ffffffffffffffff82111761050257604052565b604051906080820182811067ffffffffffffffff82111761050257604052565b61092f610907565b9060008252600060208301526000604083015260006060830152565b1561095257565b60405162461bcd60e51b815260206004820152601860248201527f4d6f636b507974683a2066656564206e6f7420666f756e6400000000000000006044820152606490fd5b919082039182116109a457565b634e487b7160e01b600052601160045260246000fd5b9060016109c5610907565b9280548060070b855267ffffffffffffffff8160401c16602086015260801c60030b604085015201546060830152565b818102929181159184041417156109a457565b67ffffffffffffffff81116105025760051b60200190565b9190811015610a305760051b0190565b634e487b7160e01b600052603260045260246000fd5b8051821015610a305760209160051b01019056fea164736f6c634300081a000a","opcodes":"PUSH1 0xC0 CALLVALUE PUSH1 0x70 JUMPI PUSH1 0x1F PUSH2 0xAF3 CODESIZE DUP2 SWAP1 SUB SWAP2 DUP3 ADD PUSH1 0x1F NOT AND DUP4 ADD SWAP2 PUSH1 0x1 PUSH1 0x1 PUSH1 0x40 SHL SUB DUP4 GT DUP5 DUP5 LT OR PUSH1 0x75 JUMPI DUP1 DUP5 SWAP3 PUSH1 0x40 SWAP5 DUP6 MSTORE DUP4 CODECOPY DUP2 ADD SUB SLT PUSH1 0x70 JUMPI PUSH1 0x20 DUP2 MLOAD SWAP2 ADD MLOAD SWAP1 PUSH1 0x80 MSTORE PUSH1 0xA0 MSTORE PUSH1 0x40 MLOAD PUSH2 0xA67 SWAP1 DUP2 PUSH2 0x8C DUP3 CODECOPY PUSH1 0x80 MLOAD DUP2 PUSH2 0x56E ADD MSTORE PUSH1 0xA0 MLOAD DUP2 DUP2 DUP2 PUSH2 0x28D ADD MSTORE PUSH2 0x87D ADD MSTORE RETURN JUMPDEST PUSH1 0x0 DUP1 REVERT JUMPDEST PUSH4 0x4E487B71 PUSH1 0xE0 SHL PUSH1 0x0 MSTORE PUSH1 0x41 PUSH1 0x4 MSTORE PUSH1 0x24 PUSH1 0x0 REVERT INVALID PUSH1 0x80 DUP1 PUSH1 0x40 MSTORE PUSH1 0x4 CALLDATASIZE LT ISZERO PUSH2 0x13 JUMPI PUSH1 0x0 DUP1 REVERT JUMPDEST PUSH1 0x0 CALLDATALOAD PUSH1 0xE0 SHR SWAP1 DUP2 PUSH4 0x48B6404D EQ PUSH2 0x867 JUMPI POP DUP1 PUSH4 0x711A2E28 EQ PUSH2 0x7BA JUMPI DUP1 PUSH4 0x9474F45B EQ PUSH2 0x76C JUMPI DUP1 PUSH4 0x96834AD3 EQ PUSH2 0x71E JUMPI DUP1 PUSH4 0xA4AE35E0 EQ PUSH2 0x634 JUMPI DUP1 PUSH4 0xB5EC0261 EQ PUSH2 0x603 JUMPI DUP1 PUSH4 0xB9256D28 EQ PUSH2 0x591 JUMPI DUP1 PUSH4 0xCBDAEABA EQ PUSH2 0x556 JUMPI DUP1 PUSH4 0xD47EED45 EQ PUSH2 0x518 JUMPI DUP1 PUSH4 0xD727E660 EQ PUSH2 0x2FE JUMPI DUP1 PUSH4 0xEF9E5E28 EQ PUSH2 0x25A JUMPI PUSH4 0xFE02DFD6 EQ PUSH2 0xA3 JUMPI PUSH1 0x0 DUP1 REVERT JUMPDEST CALLVALUE PUSH2 0x255 JUMPI PUSH1 0xA0 CALLDATASIZE PUSH1 0x3 NOT ADD SLT PUSH2 0x255 JUMPI PUSH1 0x4 CALLDATALOAD PUSH1 0x24 CALLDATALOAD DUP1 PUSH1 0x7 SIGNEXTEND DUP1 SWAP2 SUB PUSH2 0x255 JUMPI PUSH1 0x44 CALLDATALOAD SWAP1 PUSH8 0xFFFFFFFFFFFFFFFF DUP3 AND DUP1 SWAP3 SUB PUSH2 0x255 JUMPI PUSH1 0x64 CALLDATALOAD DUP1 PUSH1 0x3 SIGNEXTEND DUP1 SWAP2 SUB PUSH2 0x255 JUMPI PUSH32 0xD06A6B7F4918494B3719217D1802786C1F5112A6C1D88FE2CFEC00B4584F6AEC SWAP3 PUSH1 0x60 SWAP3 PUSH1 0x84 CALLDATALOAD SWAP3 PUSH2 0x11A PUSH2 0x907 JUMP JUMPDEST DUP3 DUP2 MSTORE PUSH1 0x1 PUSH1 0x20 DUP3 ADD DUP6 DUP2 MSTORE PUSH1 0x40 DUP4 ADD SWAP1 DUP5 DUP3 MSTORE DUP9 DUP5 ADD SWAP2 DUP9 DUP4 MSTORE DUP12 PUSH1 0x0 MSTORE PUSH1 0x0 PUSH1 0x20 MSTORE PUSH1 0x40 PUSH1 0x0 KECCAK256 SWAP5 MLOAD SWAP2 PUSH20 0xFFFFFFFFFFFFFFFFFFFFFFFFFFFFFFFFFFFFFFFF NOT PUSH8 0xFFFFFFFFFFFFFFFF PUSH16 0xFFFFFFFFFFFFFFFF0000000000000000 DUP9 SLOAD SWAP4 MLOAD PUSH1 0x40 SHL AND SWAP4 MLOAD PUSH1 0x80 SHL PUSH4 0xFFFFFFFF PUSH1 0x80 SHL AND SWAP5 AND SWAP2 AND OR OR OR DUP4 SSTORE MLOAD SWAP2 ADD SSTORE PUSH1 0x1 PUSH2 0x1A3 PUSH2 0x907 JUMP JUMPDEST SWAP2 DUP4 DUP4 MSTORE PUSH1 0x20 DUP4 ADD DUP6 DUP2 MSTORE PUSH1 0x40 DUP5 ADD SWAP2 DUP3 MSTORE DUP8 DUP5 ADD SWAP2 DUP8 DUP4 MSTORE DUP11 PUSH1 0x0 MSTORE DUP4 PUSH1 0x20 MSTORE PUSH1 0x40 PUSH1 0x0 KECCAK256 SWAP5 MLOAD SWAP2 PUSH20 0xFFFFFFFFFFFFFFFFFFFFFFFFFFFFFFFFFFFFFFFF NOT PUSH8 0xFFFFFFFFFFFFFFFF PUSH16 0xFFFFFFFFFFFFFFFF0000000000000000 DUP9 SLOAD SWAP4 MLOAD PUSH1 0x40 SHL AND SWAP4 MLOAD PUSH1 0x80 SHL PUSH4 0xFFFFFFFF PUSH1 0x80 SHL AND SWAP5 AND SWAP2 AND OR OR OR DUP4 SSTORE MLOAD SWAP2 ADD SSTORE DUP6 PUSH1 0x0 MSTORE PUSH1 0x2 PUSH1 0x20 MSTORE PUSH1 0x40 PUSH1 0x0 KECCAK256 PUSH1 0x1 PUSH1 0xFF NOT DUP3 SLOAD AND OR SWAP1 SSTORE PUSH8 0xFFFFFFFFFFFFFFFF PUSH1 0x40 MLOAD SWAP4 AND DUP4 MSTORE PUSH1 0x20 DUP4 ADD MSTORE PUSH1 0x40 DUP3 ADD MSTORE LOG2 STOP JUMPDEST PUSH1 0x0 DUP1 REVERT JUMPDEST PUSH1 0x20 CALLDATASIZE PUSH1 0x3 NOT ADD SLT PUSH2 0x255 JUMPI PUSH1 0x4 CALLDATALOAD PUSH8 0xFFFFFFFFFFFFFFFF DUP2 GT PUSH2 0x255 JUMPI PUSH2 0x289 PUSH2 0x2B1 SWAP2 CALLDATASIZE SWAP1 PUSH1 0x4 ADD PUSH2 0x8B6 JUMP JUMPDEST SWAP1 POP PUSH32 0x0 PUSH2 0x9F5 JUMP JUMPDEST CALLVALUE LT PUSH2 0x2B9 JUMPI STOP JUMPDEST PUSH1 0x40 MLOAD PUSH3 0x461BCD PUSH1 0xE5 SHL DUP2 MSTORE PUSH1 0x20 PUSH1 0x4 DUP3 ADD MSTORE PUSH1 0x1A PUSH1 0x24 DUP3 ADD MSTORE PUSH32 0x4D6F636B507974683A20696E73756666696369656E7420666565000000000000 PUSH1 0x44 DUP3 ADD MSTORE PUSH1 0x64 SWAP1 REVERT JUMPDEST CALLVALUE PUSH2 0x255 JUMPI PUSH1 0x20 CALLDATASIZE PUSH1 0x3 NOT ADD SLT PUSH2 0x255 JUMPI PUSH1 0x4 CALLDATALOAD PUSH8 0xFFFFFFFFFFFFFFFF DUP2 GT PUSH2 0x255 JUMPI PUSH2 0x32F SWAP1 CALLDATASIZE SWAP1 PUSH1 0x4 ADD PUSH2 0x8B6 JUMP JUMPDEST SWAP1 PUSH2 0x339 DUP3 PUSH2 0xA08 JUMP JUMPDEST PUSH1 0x40 MLOAD SWAP3 SWAP1 PUSH1 0x1F ADD PUSH1 0x1F NOT AND DUP4 ADD PUSH8 0xFFFFFFFFFFFFFFFF DUP2 GT DUP5 DUP3 LT OR PUSH2 0x502 JUMPI PUSH1 0x40 MSTORE DUP1 DUP4 MSTORE PUSH1 0x1F NOT PUSH2 0x36C DUP3 PUSH2 0xA08 JUMP JUMPDEST ADD PUSH1 0x0 JUMPDEST DUP2 DUP2 LT PUSH2 0x4CE JUMPI POP POP PUSH1 0x0 JUMPDEST DUP2 DUP2 LT PUSH2 0x44C JUMPI DUP4 PUSH1 0x40 MLOAD DUP1 SWAP2 PUSH1 0x20 DUP3 ADD PUSH1 0x20 DUP4 MSTORE DUP2 MLOAD DUP1 SWAP2 MSTORE PUSH1 0x20 PUSH1 0x40 DUP5 ADD SWAP3 ADD SWAP1 PUSH1 0x0 JUMPDEST DUP2 DUP2 LT PUSH2 0x3B0 JUMPI POP POP POP SUB SWAP1 RETURN JUMPDEST SWAP2 SWAP4 POP SWAP2 PUSH1 0x20 PUSH2 0x120 PUSH1 0x1 SWAP3 PUSH2 0x43E PUSH1 0x40 DUP9 MLOAD DUP1 MLOAD DUP5 MSTORE PUSH2 0x405 DUP7 DUP3 ADD MLOAD DUP8 DUP7 ADD SWAP1 PUSH1 0x60 DUP1 SWAP2 DUP1 MLOAD PUSH1 0x7 SIGNEXTEND DUP5 MSTORE PUSH8 0xFFFFFFFFFFFFFFFF PUSH1 0x20 DUP3 ADD MLOAD AND PUSH1 0x20 DUP6 ADD MSTORE PUSH1 0x40 DUP2 ADD MLOAD PUSH1 0x3 SIGNEXTEND PUSH1 0x40 DUP6 ADD MSTORE ADD MLOAD SWAP2 ADD MSTORE JUMP JUMPDEST ADD MLOAD DUP1 MLOAD PUSH1 0x7 SIGNEXTEND PUSH1 0xA0 DUP5 ADD MSTORE PUSH1 0x20 DUP2 ADD MLOAD PUSH8 0xFFFFFFFFFFFFFFFF AND PUSH1 0xC0 DUP5 ADD MSTORE PUSH1 0x40 DUP2 ADD MLOAD PUSH1 0x3 SIGNEXTEND PUSH1 0xE0 DUP5 ADD MSTORE PUSH1 0x60 ADD MLOAD PUSH2 0x100 DUP4 ADD MSTORE JUMP JUMPDEST ADD SWAP5 ADD SWAP2 ADD SWAP2 DUP5 SWAP4 SWAP3 PUSH2 0x3A2 JUMP JUMPDEST DUP1 PUSH2 0x45A PUSH1 0x1 SWAP3 DUP5 DUP7 PUSH2 0xA20 JUMP JUMPDEST CALLDATALOAD PUSH2 0x466 DUP3 DUP6 DUP8 PUSH2 0xA20 JUMP JUMPDEST CALLDATALOAD PUSH1 0x0 MSTORE PUSH1 0x0 PUSH1 0x20 MSTORE PUSH2 0x4AD PUSH1 0x40 PUSH1 0x0 KECCAK256 PUSH2 0x482 DUP5 DUP8 DUP10 PUSH2 0xA20 JUMP JUMPDEST CALLDATALOAD PUSH1 0x0 MSTORE DUP5 PUSH1 0x20 MSTORE PUSH2 0x4A3 PUSH1 0x40 PUSH1 0x0 KECCAK256 SWAP2 PUSH2 0x49B PUSH2 0x8E7 JUMP JUMPDEST SWAP5 DUP6 MSTORE PUSH2 0x9BA JUMP JUMPDEST PUSH1 0x20 DUP5 ADD MSTORE PUSH2 0x9BA JUMP JUMPDEST PUSH1 0x40 DUP3 ADD MSTORE PUSH2 0x4BC DUP3 DUP8 PUSH2 0xA46 JUMP JUMPDEST MSTORE PUSH2 0x4C7 DUP2 DUP7 PUSH2 0xA46 JUMP JUMPDEST POP ADD PUSH2 0x37C JUMP JUMPDEST PUSH1 0x20 SWAP1 PUSH2 0x4D9 PUSH2 0x8E7 JUMP JUMPDEST PUSH1 0x0 DUP2 MSTORE PUSH2 0x4E5 PUSH2 0x927 JUMP JUMPDEST DUP4 DUP3 ADD MSTORE PUSH2 0x4F1 PUSH2 0x927 JUMP JUMPDEST PUSH1 0x40 DUP3 ADD MSTORE DUP3 DUP3 DUP9 ADD ADD MSTORE ADD PUSH2 0x370 JUMP JUMPDEST PUSH4 0x4E487B71 PUSH1 0xE0 SHL PUSH1 0x0 MSTORE PUSH1 0x41 PUSH1 0x4 MSTORE PUSH1 0x24 PUSH1 0x0 REVERT JUMPDEST CALLVALUE PUSH2 0x255 JUMPI PUSH1 0x20 CALLDATASIZE PUSH1 0x3 NOT ADD SLT PUSH2 0x255 JUMPI PUSH1 0x4 CALLDATALOAD PUSH8 0xFFFFFFFFFFFFFFFF DUP2 GT PUSH2 0x255 JUMPI PUSH2 0x54E PUSH2 0x289 PUSH1 0x20 SWAP3 CALLDATASIZE SWAP1 PUSH1 0x4 ADD PUSH2 0x8B6 JUMP JUMPDEST PUSH1 0x40 MLOAD SWAP1 DUP2 MSTORE RETURN JUMPDEST CALLVALUE PUSH2 0x255 JUMPI PUSH1 0x0 CALLDATASIZE PUSH1 0x3 NOT ADD SLT PUSH2 0x255 JUMPI PUSH1 0x20 PUSH1 0x40 MLOAD PUSH32 0x0 DUP2 MSTORE RETURN JUMPDEST PUSH1 0x60 CALLDATASIZE PUSH1 0x3 NOT ADD SLT PUSH2 0x255 JUMPI PUSH1 0x4 CALLDATALOAD PUSH8 0xFFFFFFFFFFFFFFFF DUP2 GT PUSH2 0x255 JUMPI PUSH2 0x5BD SWAP1 CALLDATASIZE SWAP1 PUSH1 0x4 ADD PUSH2 0x8B6 JUMP JUMPDEST POP POP PUSH1 0x24 CALLDATALOAD PUSH8 0xFFFFFFFFFFFFFFFF DUP2 GT PUSH2 0x255 JUMPI PUSH2 0x5DF SWAP1 CALLDATASIZE SWAP1 PUSH1 0x4 ADD PUSH2 0x8B6 JUMP JUMPDEST POP POP PUSH1 0x44 CALLDATALOAD PUSH8 0xFFFFFFFFFFFFFFFF DUP2 GT PUSH2 0x255 JUMPI PUSH2 0x601 SWAP1 CALLDATASIZE SWAP1 PUSH1 0x4 ADD PUSH2 0x8B6 JUMP JUMPDEST STOP JUMPDEST CALLVALUE PUSH2 0x255 JUMPI PUSH1 0x20 CALLDATASIZE PUSH1 0x3 NOT ADD SLT PUSH2 0x255 JUMPI PUSH1 0x4 CALLDATALOAD PUSH1 0x0 MSTORE PUSH1 0x2 PUSH1 0x20 MSTORE PUSH1 0x20 PUSH1 0xFF PUSH1 0x40 PUSH1 0x0 KECCAK256 SLOAD AND PUSH1 0x40 MLOAD SWAP1 ISZERO ISZERO DUP2 MSTORE RETURN JUMPDEST CALLVALUE PUSH2 0x255 JUMPI PUSH2 0x642 CALLDATASIZE PUSH2 0x8A0 JUMP JUMPDEST PUSH2 0x64A PUSH2 0x927 JUMP JUMPDEST POP DUP2 PUSH1 0x0 MSTORE PUSH1 0x2 PUSH1 0x20 MSTORE PUSH2 0x665 PUSH1 0xFF PUSH1 0x40 PUSH1 0x0 KECCAK256 SLOAD AND PUSH2 0x94B JUMP JUMPDEST DUP2 PUSH1 0x0 MSTORE PUSH1 0x0 PUSH1 0x20 MSTORE PUSH2 0x680 PUSH1 0x1 PUSH1 0x40 PUSH1 0x0 KECCAK256 ADD SLOAD TIMESTAMP PUSH2 0x997 JUMP JUMPDEST GT PUSH2 0x6D9 JUMPI PUSH1 0x0 MSTORE PUSH1 0x0 PUSH1 0x20 MSTORE PUSH1 0x80 PUSH2 0x69C PUSH1 0x40 PUSH1 0x0 KECCAK256 PUSH2 0x9BA JUMP JUMPDEST PUSH2 0x6D7 PUSH1 0x40 MLOAD DUP1 SWAP3 PUSH1 0x60 DUP1 SWAP2 DUP1 MLOAD PUSH1 0x7 SIGNEXTEND DUP5 MSTORE PUSH8 0xFFFFFFFFFFFFFFFF PUSH1 0x20 DUP3 ADD MLOAD AND PUSH1 0x20 DUP6 ADD MSTORE PUSH1 0x40 DUP2 ADD MLOAD PUSH1 0x3 SIGNEXTEND PUSH1 0x40 DUP6 ADD MSTORE ADD MLOAD SWAP2 ADD MSTORE JUMP JUMPDEST RETURN JUMPDEST PUSH1 0x40 MLOAD PUSH3 0x461BCD PUSH1 0xE5 SHL DUP2 MSTORE PUSH1 0x20 PUSH1 0x4 DUP3 ADD MSTORE PUSH1 0x15 PUSH1 0x24 DUP3 ADD MSTORE PUSH32 0x4D6F636B507974683A207374616C652070726963650000000000000000000000 PUSH1 0x44 DUP3 ADD MSTORE PUSH1 0x64 SWAP1 REVERT JUMPDEST CALLVALUE PUSH2 0x255 JUMPI PUSH1 0x20 CALLDATASIZE PUSH1 0x3 NOT ADD SLT PUSH2 0x255 JUMPI PUSH1 0x4 CALLDATALOAD PUSH2 0x73A PUSH2 0x927 JUMP JUMPDEST POP DUP1 PUSH1 0x0 MSTORE PUSH1 0x2 PUSH1 0x20 MSTORE PUSH2 0x755 PUSH1 0xFF PUSH1 0x40 PUSH1 0x0 KECCAK256 SLOAD AND PUSH2 0x94B JUMP JUMPDEST PUSH1 0x0 MSTORE PUSH1 0x0 PUSH1 0x20 MSTORE PUSH1 0x80 PUSH2 0x69C PUSH1 0x40 PUSH1 0x0 KECCAK256 PUSH2 0x9BA JUMP JUMPDEST CALLVALUE PUSH2 0x255 JUMPI PUSH1 0x20 CALLDATASIZE PUSH1 0x3 NOT ADD SLT PUSH2 0x255 JUMPI PUSH1 0x4 CALLDATALOAD PUSH2 0x788 PUSH2 0x927 JUMP JUMPDEST POP DUP1 PUSH1 0x0 MSTORE PUSH1 0x2 PUSH1 0x20 MSTORE PUSH2 0x7A3 PUSH1 0xFF PUSH1 0x40 PUSH1 0x0 KECCAK256 SLOAD AND PUSH2 0x94B JUMP JUMPDEST PUSH1 0x0 MSTORE PUSH1 0x1 PUSH1 0x20 MSTORE PUSH1 0x80 PUSH2 0x69C PUSH1 0x40 PUSH1 0x0 KECCAK256 PUSH2 0x9BA JUMP JUMPDEST CALLVALUE PUSH2 0x255 JUMPI PUSH2 0x7C8 CALLDATASIZE PUSH2 0x8A0 JUMP JUMPDEST PUSH2 0x7D0 PUSH2 0x927 JUMP JUMPDEST POP DUP2 PUSH1 0x0 MSTORE PUSH1 0x2 PUSH1 0x20 MSTORE PUSH2 0x7EB PUSH1 0xFF PUSH1 0x40 PUSH1 0x0 KECCAK256 SLOAD AND PUSH2 0x94B JUMP JUMPDEST DUP2 PUSH1 0x0 MSTORE PUSH1 0x1 PUSH1 0x20 MSTORE PUSH2 0x806 PUSH1 0x1 PUSH1 0x40 PUSH1 0x0 KECCAK256 ADD SLOAD TIMESTAMP PUSH2 0x997 JUMP JUMPDEST GT PUSH2 0x822 JUMPI PUSH1 0x0 MSTORE PUSH1 0x1 PUSH1 0x20 MSTORE PUSH1 0x80 PUSH2 0x69C PUSH1 0x40 PUSH1 0x0 KECCAK256 PUSH2 0x9BA JUMP JUMPDEST PUSH1 0x40 MLOAD PUSH3 0x461BCD PUSH1 0xE5 SHL DUP2 MSTORE PUSH1 0x20 PUSH1 0x4 DUP3 ADD MSTORE PUSH1 0x19 PUSH1 0x24 DUP3 ADD MSTORE PUSH32 0x4D6F636B507974683A207374616C6520454D4120707269636500000000000000 PUSH1 0x44 DUP3 ADD MSTORE PUSH1 0x64 SWAP1 REVERT JUMPDEST CALLVALUE PUSH2 0x255 JUMPI PUSH1 0x0 CALLDATASIZE PUSH1 0x3 NOT ADD SLT PUSH2 0x255 JUMPI PUSH1 0x20 SWAP1 PUSH32 0x0 DUP2 MSTORE RETURN JUMPDEST PUSH1 0x40 SWAP1 PUSH1 0x3 NOT ADD SLT PUSH2 0x255 JUMPI PUSH1 0x4 CALLDATALOAD SWAP1 PUSH1 0x24 CALLDATALOAD SWAP1 JUMP JUMPDEST SWAP2 DUP2 PUSH1 0x1F DUP5 ADD SLT ISZERO PUSH2 0x255 JUMPI DUP3 CALLDATALOAD SWAP2 PUSH8 0xFFFFFFFFFFFFFFFF DUP4 GT PUSH2 0x255 JUMPI PUSH1 0x20 DUP1 DUP6 ADD SWAP5 DUP5 PUSH1 0x5 SHL ADD ADD GT PUSH2 0x255 JUMPI JUMP JUMPDEST PUSH1 0x40 MLOAD SWAP1 PUSH1 0x60 DUP3 ADD DUP3 DUP2 LT PUSH8 0xFFFFFFFFFFFFFFFF DUP3 GT OR PUSH2 0x502 JUMPI PUSH1 0x40 MSTORE JUMP JUMPDEST PUSH1 0x40 MLOAD SWAP1 PUSH1 0x80 DUP3 ADD DUP3 DUP2 LT PUSH8 0xFFFFFFFFFFFFFFFF DUP3 GT OR PUSH2 0x502 JUMPI PUSH1 0x40 MSTORE JUMP JUMPDEST PUSH2 0x92F PUSH2 0x907 JUMP JUMPDEST SWAP1 PUSH1 0x0 DUP3 MSTORE PUSH1 0x0 PUSH1 0x20 DUP4 ADD MSTORE PUSH1 0x0 PUSH1 0x40 DUP4 ADD MSTORE PUSH1 0x0 PUSH1 0x60 DUP4 ADD MSTORE JUMP JUMPDEST ISZERO PUSH2 0x952 JUMPI JUMP JUMPDEST PUSH1 0x40 MLOAD PUSH3 0x461BCD PUSH1 0xE5 SHL DUP2 MSTORE PUSH1 0x20 PUSH1 0x4 DUP3 ADD MSTORE PUSH1 0x18 PUSH1 0x24 DUP3 ADD MSTORE PUSH32 0x4D6F636B507974683A2066656564206E6F7420666F756E640000000000000000 PUSH1 0x44 DUP3 ADD MSTORE PUSH1 0x64 SWAP1 REVERT JUMPDEST SWAP2 SWAP1 DUP3 SUB SWAP2 DUP3 GT PUSH2 0x9A4 JUMPI JUMP JUMPDEST PUSH4 0x4E487B71 PUSH1 0xE0 SHL PUSH1 0x0 MSTORE PUSH1 0x11 PUSH1 0x4 MSTORE PUSH1 0x24 PUSH1 0x0 REVERT JUMPDEST SWAP1 PUSH1 0x1 PUSH2 0x9C5 PUSH2 0x907 JUMP JUMPDEST SWAP3 DUP1 SLOAD DUP1 PUSH1 0x7 SIGNEXTEND DUP6 MSTORE PUSH8 0xFFFFFFFFFFFFFFFF DUP2 PUSH1 0x40 SHR AND PUSH1 0x20 DUP7 ADD MSTORE PUSH1 0x80 SHR PUSH1 0x3 SIGNEXTEND PUSH1 0x40 DUP6 ADD MSTORE ADD SLOAD PUSH1 0x60 DUP4 ADD MSTORE JUMP JUMPDEST DUP2 DUP2 MUL SWAP3 SWAP2 DUP2 ISZERO SWAP2 DUP5 DIV EQ OR ISZERO PUSH2 0x9A4 JUMPI JUMP JUMPDEST PUSH8 0xFFFFFFFFFFFFFFFF DUP2 GT PUSH2 0x502 JUMPI PUSH1 0x5 SHL PUSH1 0x20 ADD SWAP1 JUMP JUMPDEST SWAP2 SWAP1 DUP2 LT ISZERO PUSH2 0xA30 JUMPI PUSH1 0x5 SHL ADD SWAP1 JUMP JUMPDEST PUSH4 0x4E487B71 PUSH1 0xE0 SHL PUSH1 0x0 MSTORE PUSH1 0x32 PUSH1 0x4 MSTORE PUSH1 0x24 PUSH1 0x0 REVERT JUMPDEST DUP1 MLOAD DUP3 LT ISZERO PUSH2 0xA30 JUMPI PUSH1 0x20 SWAP2 PUSH1 0x5 SHL ADD ADD SWAP1 JUMP INVALID LOG1 PUSH5 0x736F6C6343 STOP ADDMOD BYTE STOP EXP "},"methodIdentifiers":{"getEmaPriceNoOlderThan(bytes32,uint256)":"711a2e28","getEmaPriceUnsafe(bytes32)":"9474f45b","getPriceFeeds(bytes32[])":"d727e660","getPriceNoOlderThan(bytes32,uint256)":"a4ae35e0","getPriceUnsafe(bytes32)":"96834ad3","getUpdateFee(bytes[])":"d47eed45","priceFeedExists(bytes32)":"b5ec0261","setPrice(bytes32,int64,uint64,int32,uint256)":"fe02dfd6","singleUpdateFeeInWei()":"48b6404d","updatePriceFeeds(bytes[])":"ef9e5e28","updatePriceFeedsIfNecessary(bytes[],bytes32[],uint64[])":"b9256d28","validTimePeriod()":"cbdaeaba"}}}}}