{"contracts/OptionsVault.sol":{"OptionsVault":{"abi":[{"inputs":[{"internalType":"address","name":"_pyth","type":"address"},{"internalType":"address","name":"_owner","type":"address"},{"internalType":"uint256","name":"_riskFreeRateWad","type":"uint256"}],"stateMutability":"nonpayable","type":"constructor"},{"inputs":[{"internalType":"uint256","name":"expiry","type":"uint256"},{"internalType":"uint256","name":"maxExpiry","type":"uint256"}],"name":"ExpiryTooFar","type":"error"},{"inputs":[{"internalType":"uint256","name":"expiry","type":"uint256"}],"name":"ExpiryTooSoon","type":"error"},{"inputs":[{"internalType":"uint256","name":"required","type":"uint256"},{"internalType":"uint256","name":"available","type":"uint256"}],"name":"InsufficientCollateral","type":"error"},{"inputs":[],"name":"InvalidSize","type":"error"},{"inputs":[],"name":"InvalidStrike","type":"error"},{"inputs":[{"internalType":"uint256","name":"tokenId","type":"uint256"},{"internalType":"address","name":"caller","type":"address"}],"name":"NotOptionOwner","type":"error"},{"inputs":[{"internalType":"uint256","name":"tokenId","type":"uint256"}],"name":"OptionAlreadySettled","type":"error"},{"inputs":[{"internalType":"uint256","name":"tokenId","type":"uint256"},{"internalType":"uint256","name":"expiry","type":"uint256"}],"name":"OptionExpiredAlready","type":"error"},{"inputs":[{"internalType":"uint256","name":"tokenId","type":"uint256"},{"internalType":"uint256","name":"expiry","type":"uint256"}],"name":"OptionNotExpired","type":"error"},{"inputs":[{"internalType":"uint256","name":"premium","type":"uint256"},{"internalType":"uint256","name":"maxAccepted","type":"uint256"}],"name":"PremiumTooHigh","type":"error"},{"inputs":[{"internalType":"bytes32","name":"feedId","type":"bytes32"},{"internalType":"uint256","name":"publishTime","type":"uint256"}],"name":"StalePrice","type":"error"},{"inputs":[{"internalType":"string","name":"symbol","type":"string"}],"name":"UnknownSymbol","type":"error"},{"inputs":[{"internalType":"address","name":"token","type":"address"}],"name":"UnsupportedCollateral","type":"error"},{"anonymous":false,"inputs":[{"indexed":true,"internalType":"address","name":"writer","type":"address"},{"indexed":true,"internalType":"address","name":"token","type":"address"},{"indexed":false,"internalType":"uint256","name":"amount","type":"uint256"}],"name":"CollateralDeposited","type":"event"},{"anonymous":false,"inputs":[{"indexed":true,"internalType":"address","name":"writer","type":"address"},{"indexed":true,"internalType":"address","name":"token","type":"address"},{"indexed":false,"internalType":"uint256","name":"amount","type":"uint256"}],"name":"CollateralWithdrawn","type":"event"},{"anonymous":false,"inputs":[{"indexed":true,"internalType":"address","name":"token","type":"address"},{"indexed":false,"internalType":"uint256","name":"amount","type":"uint256"}],"name":"FeeCollected","type":"event"},{"anonymous":false,"inputs":[{"indexed":false,"internalType":"string","name":"symbol","type":"string"},{"indexed":false,"internalType":"bytes32","name":"feedId","type":"bytes32"}],"name":"FeedRegistered","type":"event"},{"anonymous":false,"inputs":[{"indexed":true,"internalType":"uint256","name":"tokenId","type":"uint256"},{"indexed":true,"internalType":"address","name":"exerciser","type":"address"},{"indexed":false,"internalType":"uint256","name":"spotWad","type":"uint256"},{"indexed":false,"internalType":"uint256","name":"payoutWad","type":"uint256"}],"name":"OptionExercised","type":"event"},{"anonymous":false,"inputs":[{"indexed":true,"internalType":"uint256","name":"tokenId","type":"uint256"},{"indexed":false,"internalType":"bool","name":"automated","type":"bool"}],"name":"OptionExpired","type":"event"},{"anonymous":false,"inputs":[{"indexed":true,"internalType":"uint256","name":"tokenId","type":"uint256"},{"indexed":true,"internalType":"address","name":"writer","type":"address"},{"indexed":true,"internalType":"address","name":"buyer","type":"address"},{"indexed":false,"internalType":"string","name":"symbol","type":"string"},{"indexed":false,"internalType":"enum OptionsVault.OptionType","name":"optionType","type":"uint8"},{"indexed":false,"internalType":"uint256","name":"strikeWad","type":"uint256"},{"indexed":false,"internalType":"uint256","name":"sizeWad","type":"uint256"},{"indexed":false,"internalType":"uint256","name":"expiry","type":"uint256"},{"indexed":false,"internalType":"uint256","name":"premiumWad","type":"uint256"},{"indexed":false,"internalType":"address","name":"scheduleId","type":"address"}],"name":"OptionWritten","type":"event"},{"anonymous":false,"inputs":[{"indexed":true,"internalType":"address","name":"previousOwner","type":"address"},{"indexed":true,"internalType":"address","name":"newOwner","type":"address"}],"name":"OwnershipTransferred","type":"event"},{"anonymous":false,"inputs":[{"indexed":false,"internalType":"address","name":"account","type":"address"}],"name":"Paused","type":"event"},{"anonymous":false,"inputs":[{"indexed":false,"internalType":"uint256","name":"newRateWad","type":"uint256"}],"name":"RiskFreeRateUpdated","type":"event"},{"anonymous":false,"inputs":[{"indexed":false,"internalType":"address","name":"account","type":"address"}],"name":"Unpaused","type":"event"},{"inputs":[],"name":"MAX_EXPIRY_DAYS","outputs":[{"internalType":"uint256","name":"","type":"uint256"}],"stateMutability":"view","type":"function"},{"inputs":[],"name":"MIN_EXPIRY_SECS","outputs":[{"internalType":"uint256","name":"","type":"uint256"}],"stateMutability":"view","type":"function"},{"inputs":[],"name":"PROTOCOL_FEE_WAD","outputs":[{"internalType":"uint256","name":"","type":"uint256"}],"stateMutability":"view","type":"function"},{"inputs":[],"name":"PYTH_MAX_AGE","outputs":[{"internalType":"uint256","name":"","type":"uint256"}],"stateMutability":"view","type":"function"},{"inputs":[],"name":"WAD","outputs":[{"internalType":"uint256","name":"","type":"uint256"}],"stateMutability":"view","type":"function"},{"inputs":[{"internalType":"address","name":"","type":"address"}],"name":"accruedFees","outputs":[{"internalType":"uint256","name":"","type":"uint256"}],"stateMutability":"view","type":"function"},{"inputs":[{"internalType":"address","name":"token","type":"address"}],"name":"addCollateralToken","outputs":[],"stateMutability":"nonpayable","type":"function"},{"inputs":[{"internalType":"address","name":"writer","type":"address"},{"internalType":"address","name":"token","type":"address"}],"name":"availableCollateral","outputs":[{"internalType":"uint256","name":"","type":"uint256"}],"stateMutability":"view","type":"function"},{"inputs":[{"internalType":"uint256","name":"","type":"uint256"}],"name":"collateralTokens","outputs":[{"internalType":"address","name":"","type":"address"}],"stateMutability":"view","type":"function"},{"inputs":[{"internalType":"address","name":"token","type":"address"},{"internalType":"uint256","name":"amount","type":"uint256"}],"name":"depositERC20","outputs":[],"stateMutability":"nonpayable","type":"function"},{"inputs":[],"name":"depositHBAR","outputs":[],"stateMutability":"payable","type":"function"},{"inputs":[{"internalType":"uint256","name":"tokenId","type":"uint256"},{"internalType":"bytes[]","name":"pythUpdateData","type":"bytes[]"}],"name":"exercise","outputs":[],"stateMutability":"payable","type":"function"},{"inputs":[{"internalType":"uint256","name":"tokenId","type":"uint256"}],"name":"expireOption","outputs":[],"stateMutability":"nonpayable","type":"function"},{"inputs":[{"internalType":"string","name":"","type":"string"}],"name":"feedIds","outputs":[{"internalType":"bytes32","name":"","type":"bytes32"}],"stateMutability":"view","type":"function"},{"inputs":[],"name":"getCollateralTokens","outputs":[{"internalType":"address[]","name":"","type":"address[]"}],"stateMutability":"view","type":"function"},{"inputs":[{"internalType":"uint256","name":"tokenId","type":"uint256"}],"name":"getPosition","outputs":[{"components":[{"internalType":"uint256","name":"tokenId","type":"uint256"},{"internalType":"bytes32","name":"feedId","type":"bytes32"},{"internalType":"string","name":"symbol","type":"string"},{"internalType":"enum OptionsVault.OptionType","name":"optionType","type":"uint8"},{"internalType":"uint256","name":"strikeWad","type":"uint256"},{"internalType":"uint256","name":"expiry","type":"uint256"},{"internalType":"uint256","name":"sizeWad","type":"uint256"},{"internalType":"uint256","name":"premiumWad","type":"uint256"},{"internalType":"address","name":"writer","type":"address"},{"internalType":"address","name":"buyer","type":"address"},{"internalType":"address","name":"collateralToken","type":"address"},{"internalType":"uint256","name":"collateralWad","type":"uint256"},{"internalType":"address","name":"scheduleId","type":"address"},{"internalType":"bool","name":"settled","type":"bool"}],"internalType":"struct OptionsVault.Position","name":"","type":"tuple"}],"stateMutability":"view","type":"function"},{"inputs":[],"name":"getSupportedSymbols","outputs":[{"internalType":"string[]","name":"","type":"string[]"}],"stateMutability":"view","type":"function"},{"inputs":[],"name":"hss","outputs":[{"internalType":"contract IHederaScheduleService","name":"","type":"address"}],"stateMutability":"view","type":"function"},{"inputs":[{"internalType":"uint256","name":"tokenId","type":"uint256"},{"internalType":"uint256","name":"spotWad","type":"uint256"}],"name":"intrinsicValue","outputs":[{"internalType":"uint256","name":"","type":"uint256"}],"stateMutability":"view","type":"function"},{"inputs":[{"internalType":"address","name":"","type":"address"}],"name":"isCollateralToken","outputs":[{"internalType":"bool","name":"","type":"bool"}],"stateMutability":"view","type":"function"},{"inputs":[],"name":"optionToken","outputs":[{"internalType":"contract OptionToken","name":"","type":"address"}],"stateMutability":"view","type":"function"},{"inputs":[],"name":"owner","outputs":[{"internalType":"address","name":"","type":"address"}],"stateMutability":"view","type":"function"},{"inputs":[],"name":"pause","outputs":[],"stateMutability":"nonpayable","type":"function"},{"inputs":[],"name":"paused","outputs":[{"internalType":"bool","name":"","type":"bool"}],"stateMutability":"view","type":"function"},{"inputs":[{"internalType":"uint256","name":"","type":"uint256"}],"name":"positions","outputs":[{"internalType":"uint256","name":"tokenId","type":"uint256"},{"internalType":"bytes32","name":"feedId","type":"bytes32"},{"internalType":"string","name":"symbol","type":"string"},{"internalType":"enum OptionsVault.OptionType","name":"optionType","type":"uint8"},{"internalType":"uint256","name":"strikeWad","type":"uint256"},{"internalType":"uint256","name":"expiry","type":"uint256"},{"internalType":"uint256","name":"sizeWad","type":"uint256"},{"internalType":"uint256","name":"premiumWad","type":"uint256"},{"internalType":"address","name":"writer","type":"address"},{"internalType":"address","name":"buyer","type":"address"},{"internalType":"address","name":"collateralToken","type":"address"},{"internalType":"uint256","name":"collateralWad","type":"uint256"},{"internalType":"address","name":"scheduleId","type":"address"},{"internalType":"bool","name":"settled","type":"bool"}],"stateMutability":"view","type":"function"},{"inputs":[],"name":"pyth","outputs":[{"internalType":"contract IPyth","name":"","type":"address"}],"stateMutability":"view","type":"function"},{"inputs":[{"components":[{"internalType":"string","name":"symbol","type":"string"},{"internalType":"enum OptionsVault.OptionType","name":"optionType","type":"uint8"},{"internalType":"uint256","name":"strikeWad","type":"uint256"},{"internalType":"uint256","name":"expiry","type":"uint256"},{"internalType":"uint256","name":"sizeWad","type":"uint256"},{"internalType":"uint256","name":"sigmaWad","type":"uint256"}],"internalType":"struct OptionsVault.QuoteParams","name":"q","type":"tuple"}],"name":"quotePremium","outputs":[{"internalType":"uint256","name":"premiumWad","type":"uint256"},{"components":[{"internalType":"uint256","name":"premium","type":"uint256"},{"internalType":"int256","name":"delta","type":"int256"},{"internalType":"uint256","name":"gamma","type":"uint256"},{"internalType":"uint256","name":"vega","type":"uint256"},{"internalType":"int256","name":"theta","type":"int256"},{"internalType":"int256","name":"rho","type":"int256"}],"internalType":"struct BlackScholes.BSMResult","name":"greeks","type":"tuple"}],"stateMutability":"view","type":"function"},{"inputs":[{"internalType":"string","name":"symbol","type":"string"},{"internalType":"bytes32","name":"feedId","type":"bytes32"}],"name":"registerFeed","outputs":[],"stateMutability":"nonpayable","type":"function"},{"inputs":[],"name":"renounceOwnership","outputs":[],"stateMutability":"nonpayable","type":"function"},{"inputs":[],"name":"riskFreeRateWad","outputs":[{"internalType":"uint256","name":"","type":"uint256"}],"stateMutability":"view","type":"function"},{"inputs":[{"internalType":"uint256","name":"rateWad","type":"uint256"}],"name":"setRiskFreeRate","outputs":[],"stateMutability":"nonpayable","type":"function"},{"inputs":[{"internalType":"uint256","name":"","type":"uint256"}],"name":"supportedSymbols","outputs":[{"internalType":"string","name":"","type":"string"}],"stateMutability":"view","type":"function"},{"inputs":[{"internalType":"address","name":"newOwner","type":"address"}],"name":"transferOwnership","outputs":[],"stateMutability":"nonpayable","type":"function"},{"inputs":[],"name":"unpause","outputs":[],"stateMutability":"nonpayable","type":"function"},{"inputs":[{"internalType":"address","name":"token","type":"address"},{"internalType":"uint256","name":"amount","type":"uint256"}],"name":"withdrawCollateral","outputs":[],"stateMutability":"nonpayable","type":"function"},{"inputs":[{"internalType":"address","name":"token","type":"address"},{"internalType":"address","name":"to","type":"address"}],"name":"withdrawFees","outputs":[],"stateMutability":"nonpayable","type":"function"},{"inputs":[{"components":[{"internalType":"string","name":"symbol","type":"string"},{"internalType":"enum OptionsVault.OptionType","name":"optionType","type":"uint8"},{"internalType":"uint256","name":"strikeWad","type":"uint256"},{"internalType":"uint256","name":"expiry","type":"uint256"},{"internalType":"uint256","name":"sizeWad","type":"uint256"},{"internalType":"uint256","name":"sigmaWad","type":"uint256"},{"internalType":"address","name":"collateralToken","type":"address"},{"internalType":"bytes[]","name":"pythUpdateData","type":"bytes[]"}],"internalType":"struct OptionsVault.WriteParams","name":"wp","type":"tuple"},{"internalType":"uint256","name":"maxPremium","type":"uint256"}],"name":"writeOption","outputs":[{"internalType":"uint256","name":"tokenId","type":"uint256"},{"internalType":"uint256","name":"premiumWad","type":"uint256"}],"stateMutability":"payable","type":"function"},{"inputs":[{"internalType":"address","name":"","type":"address"},{"internalType":"address","name":"","type":"address"}],"name":"writerCollateral","outputs":[{"internalType":"uint256","name":"","type":"uint256"}],"stateMutability":"view","type":"function"},{"stateMutability":"payable","type":"receive"}],"evm":{"bytecode":{"linkReferences":{},"object":"60e03461020157601f617ccf38819003918201601f19168301916001600160401b038311848410176101df578084926060946040528339810103126102015761004781610206565b90604061005660208301610206565b9101519160016000556100683361021a565b6001805460ff60a01b191690556001600160a01b031660805261016960a052604051613246808201906001600160401b038211838310176101df576020918391614a8983393081520301906000f09182156101f5576100cc9260c05260025561021a565b6000805260086020527f5eff886ea0ce6ca488a3d6e336d6c0f75f46d19b42c06ce5ee98e42c96d256c7805460ff19166001179055600954680100000000000000008110156101df5760018101806009558110156101c95760096000527f6e1540171b6c0c960b71a7020d9f60077f6af931a8bbf590da0223dacf75c7af0180546001600160a01b0319169055604051614825908161026482396080518181816101e801528181610f7001528181611f1d015281816128a70152612dce015260a0518181816118000152612328015260c0518181816114700152818161188b015281816118e501528181611eb2015281816126f40152612e4f0152f35b634e487b7160e01b600052603260045260246000fd5b634e487b7160e01b600052604160045260246000fd5b6040513d6000823e3d90fd5b600080fd5b51906001600160a01b038216820361020157565b600180546001600160a01b039283166001600160a01b0319821681179092559091167f8be0079c531659141344cd1fd0a4f28419497f9722a3daafe3b4186f6b6457e0600080a356fe6080604052600436101561001b575b361561001957600080fd5b005b6000803560e01c806302f126e814612a485780630731128314612a10578063172c48c7146129cd5780632418cfbb14612835578063299188991461273a5780632a83ee3a146127185780632bab754b146126d4578063332821f5146126b6578063350c35e91461257d5780633f4ba83a146124d95780634766162c1461249c57806356a8299c1461246757806358a2180a1461244b5780635c975abb146124255780636049ea901461236f5780636a1460241461234c5780636e1978f114612308578063715018a6146122ad578063759b1d7b14611e2d5780638456cb5914611dcc5780638678d23f14610e655780638da5cb5b14610e3e578063932d68a614610dd757806397feb92614610d1a57806399fbab8814610c10578063b58eb63f14610b48578063b82112fe1461020f578063c57470f714610b2b578063ce1c0e4d14610a28578063d751a44f146109ba578063e1ea1cf514610917578063e2b93b84146108fa578063eb02c301146106d5578063eef07b9514610450578063f25552781461033e578063f2fde38b1461025f578063f4c704071461020f5763f98d06f0146101c9575061000e565b3461020c578060031936011261020c5760206040516001600160a01b037f0000000000000000000000000000000000000000000000000000000000000000168152f35b80fd5b503461020c57604036600319011261020c576001600160a01b036040610233612a6d565b928261023d612a83565b9416815260046020522091166000526020526020604060002054604051908152f35b503461020c57602036600319011261020c576001600160a01b03610281612a6d565b61028961409b565b1680156102d3576001600160a01b03600154826001600160a01b0319821617600155167f8be0079c531659141344cd1fd0a4f28419497f9722a3daafe3b4186f6b6457e08380a380f35b60405162461bcd60e51b815260206004820152602660248201527f4f776e61626c653a206e6577206f776e657220697320746865207a65726f206160448201527f64647265737300000000000000000000000000000000000000000000000000006064820152608490fd5b503461020c57604036600319011261020c57610358612a6d565b6001600160a01b03610368612a83565b9161037161409b565b16908183526003602052604083205490811561040b578284938452600360205283604081205580156000146103fe575082809281925af16103b0613142565b50156103b95780f35b60405162461bcd60e51b815260206004820152601f60248201527f5661756c743a204842415220666565207472616e73666572206661696c6564006044820152606490fd5b61040893506140f3565b80f35b60405162461bcd60e51b815260206004820152600e60248201527f5661756c743a206e6f20666565730000000000000000000000000000000000006044820152606490fd5b503461020c57604036600319011261020c576004359067ffffffffffffffff821161020c573660238301121561020c57816004013567ffffffffffffffff81116106d157602483019036602482860101116106cd576024356104b061409b565b8015610688576040518284823760208184810160068152030190205415610530575b7f09b7659089786673db414515809f3cf8f9c448294adeac6b94a4a3cff3da807e939450806040518385823760208185810160068152030190205561052460405193849360408552604085019161317f565b9060208301520390a180f35b60075468010000000000000000811015610674578060016105549201600755612aca565b6106605761056c836105668354612ae5565b8361328a565b84601f84116001146105d65783806105bd9288997f09b7659089786673db414515809f3cf8f9c448294adeac6b94a4a3cff3da807e99926105c8575b50508160011b916000199060031b1c19161790565b90555b8493506104d2565b6024925001013538806105a8565b601f198416968287526020872091875b8981106106455750857f09b7659089786673db414515809f3cf8f9c448294adeac6b94a4a3cff3da807e989910610628575b505050600183811b0190556105c0565b0160240135600019600386901b60f8161c19169055388080610618565b909260206001819260248787010135815501940191016105e6565b634e487b7160e01b85526004859052602485fd5b634e487b7160e01b85526041600452602485fd5b60405162461bcd60e51b815260206004820152601260248201527f5661756c743a207a65726f2066656564496400000000000000000000000000006044820152606490fd5b8280fd5b5080fd5b503461020c57602036600319011261020c57806040516106f481612b51565b81815281602082015260408101606090528160608201528160808201528160a08201528160c08201528160e082015281610100820152816101208201528161014082015281610160820152816101808201526101a00152600435815260056020526040902060405161076581612b51565b815481526001820154602082019081529161078260028201612b90565b9060408301918252600381015460ff169160608401926107a181612c7c565b835260048201549160808501928352600581015460a08601908152600682015460c08701908152600783015460e0880190815260088401546001600160a01b031690610100890191825260098501546001600160a01b0316926101208a01938452600a8601546001600160a01b0316946101408b01958652600b870154966101608c01978852600c0154986101808c01986001600160a01b038b168a526101a08d019a60a01c60ff1615158b52604051809e819e602083525160208301525190604001525160608d016101c090526101e08d0161087d91612c57565b9a5161088881612c7c565b60808d01525160a08c01525160c08b01525160e08a015251610100890152516001600160a01b0316610120880152516001600160a01b0316610140870152516001600160a01b031661016086015251610180850152516001600160a01b03166101a08401525115156101c08301520390f35b503461020c578060031936011261020c57602060405161016d8152f35b503461020c57602036600319011261020c5760043561093461409b565b6706f05b59d3b200008111610975576020817fe354ae042550a3c46f95e816e18e02cc106e9507ca5ce4a2f41a4a9ee9d9e8e992600255604051908152a180f35b60405162461bcd60e51b815260206004820152601160248201527f5661756c743a2072617465203e203530250000000000000000000000000000006044820152606490fd5b503461020c57602036600319011261020c576004359067ffffffffffffffff821161020c573660238301121561020c576020610a1581610a0236600487013560248801612cb8565b8160405193828580945193849201612c34565b8101600681520301902054604051908152f35b503461020c578060031936011261020c5760075467ffffffffffffffff8111610b1757604051610a5e60208360051b0182612b6e565b818152600783526020810191837fa66cc928b5edb82af9bd49922954155ab7b0942694bea4ce44661d9a8736c688845b838310610afa57868587604051928392602084019060208552518091526040840160408260051b8601019392905b828210610acb57505050500390f35b91936001919395506020610aea8192603f198a82030186528851612c57565b9601920192018594939192610abc565b600160208192610b0985612b90565b815201920192019190610a8e565b634e487b7160e01b82526041600452602482fd5b503461020c578060031936011261020c576020604051610e108152f35b503461020c578060031936011261020c5760405180602060095491828152018091600985527f6e1540171b6c0c960b71a7020d9f60077f6af931a8bbf590da0223dacf75c7af90855b818110610bf15750505082610ba7910383612b6e565b604051928392602084019060208552518091526040840192915b818110610bcf575050500390f35b82516001600160a01b0316845285945060209384019390920191600101610bc1565b82546001600160a01b0316845260209093019260019283019201610b91565b503461020c57602036600319011261020c5760043581526005602052604090208054600182015491610c4460028201612b90565b600382015460ff1691600481015460058201546006830154600784015460088501546001600160a01b03169160098601546001600160a01b031693600a8701546001600160a01b031695600b88015497600c0154986040519c8d9c8d5260208d015260408c016101c090526101c08c01610cbd91612c57565b99610cc781612c7c565b60608c015260808b015260a08a015260c089015260e08801526101008701526101208601526101408501526101608401526001600160a01b03811661018084015260a01c60ff1615156101a08301520390f35b503461020c57604036600319011261020c57610d34612a6d565b6001600160a01b0360243591610d486132dc565b1690818352600860205260ff60408420541615610dc357610d6b813033856141b5565b338352600460205260408320826000526020526040600020610d8e828254613172565b90556040519081527ff1c0dd7e9b98bbff859029005ef89b127af049cd18df1a8d79f0b7e019911e5660203392a36001815580f35b632762993f60e11b83526004829052602483fd5b503461020c57602036600319011261020c576004356007548110156106d157610dff90612aca565b919091610e2a57610e26610e1283612b90565b604051918291602083526020830190612c57565b0390f35b634e487b7160e01b81526004819052602490fd5b503461020c578060031936011261020c5760206001600160a01b0360015416604051908152f35b50604036600319011261020c576004359067ffffffffffffffff821161020c57610100600319833603011261020c57602435610e9f6132dc565b610ea761412f565b6020610eb660048501806130b9565b9190826040519384928337810160068152030190205415611d97576001600160a01b03610ee560c48501613269565b168252600860205260ff60408320541615611d7057608483013515611d6157604483013515611d5257610e104201804211611d3e576301e13380420190814211611d2a57606485013510611d135780606485013511611cf8575082610f66610f61610f5a610fc09596600401846004016130b9565b3691612cb8565b6134c4565b6001600160a01b037f0000000000000000000000000000000000000000000000000000000000000000168560e484016020610fa48287600401613233565b60405163d47eed4560e01b8152998a92839290600484016131a0565b0381865afa968715611cb4578297611cbf575b50610fe19085600401613233565b90833b156106cd57604051631df3cbc560e31b81529183918391829161100b9190600484016131a0565b03818a875af18015611cb457611c9b575b505060806044916040519283809263052571af60e51b8252866004830152603c60248301525afa80156119cf57611068918791611c6c575b506040815160070b91015160030b90613340565b60025461108161107c4260648701356130ec565b613514565b600260248601351015611c6857670de0b6b3a764000091611118916110a96024880135612c7c565b6110b960ff602489013516612c7c565b604051916110c683612b1f565b8583526044880135602084015260a48801356040840152606083015260808201526110f760ff602488013516612c7c565b60ff60248701351660a0820152611112608487013591613707565b5161310f565b0493808511611c5157506111479061113260c48501613269565b50608484013560448501356024860135614183565b933386526004602052604086206001600160a01b0361116860c48601613269565b16600052602052604060002054858110611c3a57503386526004602052604086206001600160a01b0361119d60c48601613269565b1660005260205260406000206111b48682546130ec565b9055660aa87bee5380008402848104660aa87bee5380001485151715611c2657670de0b6b3a76400009004906111ea82866130ec565b906001600160a01b036111ff60c48701613269565b16611b985761120e8682613172565b3410611b53578581611221828b94613172565b3411611adf575b505050338752600460205261124d604080892060009081805260205220918254613172565b9055858052600360205260408620611266828254613172565b90555b7f06c5efeff5c320943d265dc4e5f1af95ad523555ce0c1957e367dda5514572df60206001600160a01b036112a060c48701613269565b1692604051908152a26112b660048301806130b9565b94906112c56024850135612c7c565b6112d560ff602486013516612c7c565b6112e160c48501613269565b90604051968761018081011067ffffffffffffffff6101808a011117611acb576001600160a01b039291611321916101808a01604052868a523691612cb8565b602088015261133660ff602487013516612c7c565b60ff60248601351660408801526044850135606088015260648501356080880152608485013560a08801528560c08801523360e08801521661010086015285610120860152856101408601524261016086015260206040518080976325d4a65b60e01b825233600483015260406024830152805160448301526101606113cc8583015161018060648601526101c4850190612c57565b9160408101516113db81612c7c565b6084850152606081015160a4850152608081015160c485015260a081015160e485015260c08101516101048501526001600160a01b0360e0820151166101248501526001600160a01b03610100820151166101448501526001600160a01b036101208201511661016485015261145b61014082015161018486019061327d565b01516101a48301520381896001600160a01b037f0000000000000000000000000000000000000000000000000000000000000000165af19485156119cf578695611a92575b506001600160a01b036114e46114b960048601806130b9565b91906114c760c48801613269565b92604051966114d588612b51565b8a885260208801523691612cb8565b60408501526114f66024860135612c7c565b6024850135606085015260448501356080850152606485013560a0850152608485013560c08501528560e085015233610100850152336101208501521661014083015261016082015284610180820152846101a08201528385526005602052604085208151815560208201516001820155604082015180519067ffffffffffffffff8211611a7e576115988261158f6002860154612ae5565b6002860161328a565b602090601f8311600114611a0c5782600c936101a095936115ce938c92611a015750508160011b916000199060031b1c19161790565b60028201555b6003810160608501516115e681612c7c565b6115ef81612c7c565b60ff801983541691161790556080840151600482015560a0840151600582015560c0840151600682015560e084015160078201556001600160a01b03610100850151166001600160a01b036008830191166001600160a01b03198254161790556001600160a01b03610120850151166001600160a01b036009830191166001600160a01b03198254161790556001600160a01b03610140850151166001600160a01b03600a830191166001600160a01b0319825416179055610160840151600b82015501916001600160a01b038061018083015116166001600160a01b03198454161783550151151560ff60a01b1974ff000000000000000000000000000000000000000083549260a01b169116179055604051625e24dd60e31b602082015283602482015260248152611724604482612b6e565b6040519060e0820182811067ffffffffffffffff8211176119ed57916117c46117f38894938594604052308452602084019081526040840160648801358152896001600160a01b0360608701620493e081526080880189815260a089019130835260c08a019485526040519889978560208a019c8d631029677560e21b9052602060248c0152511660448a01525160e060648a0152610124890190612c57565b955160848801525160a48701525160c4860152511660e48401525161010483015203601f198101835282612b6e565b5190826001600160a01b037f0000000000000000000000000000000000000000000000000000000000000000165af161182a613142565b90806119e1575b156119da576020818051810103126119cb57602001516001600160a01b0381168091036119cb575b8385526005602052600c60408620016001600160a01b0382166001600160a01b03198254161790556001600160a01b037f0000000000000000000000000000000000000000000000000000000000000000163b156119cb576001600160a01b036040519163710b7c2f60e01b835285600484015216908160248201528581604481836001600160a01b037f0000000000000000000000000000000000000000000000000000000000000000165af180156119cf576119b6575b509361194282604096606461192f600196600401846004016130b9565b94908a519560e0875260e087019161317f565b926119506024820135612c7c565b6024810135602086015260448101358a86015260848101356060860152013560808401528560a084015260c0830152857ff71390c9ff0d8745cbbe26f8658f1259edfc5405bafb12e4bcdc3718492ab00a33938033940390a45582519182526020820152f35b6119c1868092612b6e565b6119cb5738611912565b8480fd5b6040513d88823e3d90fd5b5083611859565b50602081511015611831565b634e487b7160e01b87526041600452602487fd5b0151905038806105a8565b9060028401895280892091895b601f1985168110611a665750926101a09492600192600c9583601f19811610611a4d575b505050811b0160028201556115d4565b015160001960f88460031b161c19169055388080611a3d565b91926020600181928685015181550194019201611a19565b634e487b7160e01b88526041600452602488fd5b9094506020813d602011611ac3575b81611aae60209383612b6e565b81010312611abe575193386114a0565b600080fd5b3d9150611aa1565b634e487b7160e01b89526041600452602489fd5b82611af58193611af08394346130ec565b6130ec565b335af1611b00613142565b5015611b0e57868538611228565b60405162461bcd60e51b815260206004820152601960248201527f5661756c743a204842415220726566756e64206661696c6564000000000000006044820152606490fd5b60405162461bcd60e51b815260206004820152601860248201527f5661756c743a20696e73756666696369656e74204842415200000000000000006044820152606490fd5b50611bbb856001600160a01b03611bb160c48801613269565b16309033906141b5565b3387526004602052604087206001600160a01b03611bdb60c48701613269565b16600052602052611bf26040600020918254613172565b90556001600160a01b03611c0860c48501613269565b168652600360205260408620611c1f828254613172565b9055611269565b634e487b7160e01b87526011600452602487fd5b632c1f8ef160e21b87526004869052602452604486fd5b632f06628b60e01b87526004859052602452604486fd5b8780fd5b611c8e915060803d608011611c94575b611c868183612b6e565b810190612cef565b38611054565b503d611c7c565b81611ca591612b6e565b611cb057853861101c565b8580fd5b6040513d84823e3d90fd5b915095506020813d602011611cf0575b81611cdc60209383612b6e565b81010312611abe5751948690610fe1610fd3565b3d9150611ccf565b90506064604493632368fc7760e11b84520135600452602452fd5b63ef855aef60e01b83526064840135600452602483fd5b634e487b7160e01b84526011600452602484fd5b634e487b7160e01b83526011600452602483fd5b63134b031b60e31b8252600482fd5b630ffd11ad60e01b8252600482fd5b506001600160a01b03611d8760c460249401613269565b632762993f60e11b835216600452fd5b611da460048401806130b9565b611dc86040519283926306fad28d60e31b845260206004850152602484019161317f565b0390fd5b503461020c578060031936011261020c57611de561409b565b611ded61412f565b600160a01b60ff60a01b1960015416176001557f62e78cea01bee320cd4e420270b5ea74000d11b0c9f74754ebdbfc544b05a2586020604051338152a180f35b50604036600319011261020c5760243560043567ffffffffffffffff82116106cd57366023830112156106cd57816004013567ffffffffffffffff81116122a9576024830192602436918360051b0101116122a957611e8a6132dc565b81845260056020526040842092600c84019160ff835460a01c16612295576001600160a01b037f000000000000000000000000000000000000000000000000000000000000000016916040516331a9108f60e11b8152856004820152602081602481875afa90811561228a578891612248575b506001600160a01b03339116036122305760405163d47eed4560e01b81527f00000000000000000000000000000000000000000000000000000000000000006001600160a01b031692889160208180611f5a8588600484016131a0565b0381885afa9081156122255783916121f3575b50843b156106cd57604051631df3cbc560e31b815293849283918291611f9691600484016131a0565b0391865af180156121e8576121d4575b506080600186015460446040518094819363052571af60e51b83526004830152603c60248301525afa80156119cf57611ff3918791611c6c57506040815160070b91015160030b90613340565b93611ffe858261341c565b835460ff60a01b1916600160a01b17909355821580159287916121cd5760015b813b156106cd5761204f60448492836040519586948593633625b75960e21b85528d6004860152602485019061327d565b5af18015611cb4576121b8575b50508161206d84600b8401546130ec565b80612171575b506120ea575b50156120b85760405192835260208301527f0d6bb44fa70c7c0ae5c2c12bd210c4a9d4f91e262e7fee1bff7efb4896d3b4d660403393a35b6001815580f35b5090507f04c168839fc9657badb834a2ffa05b1fd2183137d236eca931aab0710c8b33fe6020604051848152a26120b1565b600a01546001600160a01b031682816121615786808093508092335af161210f613142565b501561211c575b38612079565b60405162461bcd60e51b815260206004820152601960248201527f5661756c743a2048424152207061796f7574206661696c6564000000000000006044820152606490fd5b61216c9133906140f3565b612116565b6001600160a01b0360088401541688526004602052604088206001600160a01b0380600a86015416166000526020526121b06040600020918254613172565b905538612073565b816121c291612b6e565b611cb057853861205c565b600261201e565b866121e191979297612b6e565b9438611fa6565b6040513d89823e3d90fd5b90506020813d60201161221d575b8161220e60209383612b6e565b810103126106cd575138611f6d565b3d9150612201565b6040513d85823e3d90fd5b63f73513f160e01b8752600485905233602452604487fd5b90506020813d602011612282575b8161226360209383612b6e565b81010312611c6857516001600160a01b0381168103611c685738611efd565b3d9150612256565b6040513d8a823e3d90fd5b634734d18760e01b86526004849052602486fd5b8380fd5b503461020c578060031936011261020c576122c661409b565b806001600160a01b036001546001600160a01b03198116600155167f8be0079c531659141344cd1fd0a4f28419497f9722a3daafe3b4186f6b6457e08280a380f35b503461020c578060031936011261020c5760206040516001600160a01b037f0000000000000000000000000000000000000000000000000000000000000000168152f35b503461020c578060031936011261020c576020604051670de0b6b3a76400008152f35b508060031936011261020c576123836132dc565b34156123e057338152600460205260408120818052602052604081206123aa348254613172565b9055806040513481527ff1c0dd7e9b98bbff859029005ef89b127af049cd18df1a8d79f0b7e019911e5660203392a36001815580f35b60405162461bcd60e51b815260206004820152601360248201527f5661756c743a207a65726f206465706f736974000000000000000000000000006044820152606490fd5b503461020c578060031936011261020c57602060ff60015460a01c166040519015158152f35b503461020c578060031936011261020c576020604051603c8152f35b503461020c57604036600319011261020c576124946020916004358152600583526040602435912061341c565b604051908152f35b503461020c57602036600319011261020c5760ff60406020926001600160a01b036124c5612a6d565b168152600884522054166040519015158152f35b503461020c578060031936011261020c576124f261409b565b60015460ff8160a01c16156125385760ff60a01b19166001557f5db9ee0a495bf2e6ff9c91a7834c1ba4fdd244a5e8aa4e537bd38aeae4b073aa6020604051338152a180f35b60405162461bcd60e51b815260206004820152601460248201527f5061757361626c653a206e6f74207061757365640000000000000000000000006044820152606490fd5b503461020c57604036600319011261020c57612597612a6d565b602435906125a36132dc565b3383526004602052604083206001600160a01b0382168452602052604083205482811061269f57506001600160a01b03903384526004602052604084208282168552602052604084206125f78482546130ec565b905516908161268f578280808084335af1612610613142565b501561264a575b6040519081527f45892a46e6cef329bb642da6d69846d324db43d19008edc141ed82382eda1bee60203392a36001815580f35b60405162461bcd60e51b815260206004820152601b60248201527f5661756c743a2048424152207472616e73666572206661696c656400000000006044820152606490fd5b61269a8133846140f3565b612617565b632c1f8ef160e21b84526004839052602452604483fd5b503461020c578060031936011261020c576020600254604051908152f35b503461020c578060031936011261020c5760206040516001600160a01b037f0000000000000000000000000000000000000000000000000000000000000000168152f35b503461020c578060031936011261020c576020604051660aa87bee5380008152f35b503461020c57602036600319011261020c576001600160a01b0361275c612a6d565b61276461409b565b1680156127f057808252600860205260ff60408320541615612784575080f35b808252600860205260408220805460ff19166001179055600954680100000000000000008110156127dc578060016127bf9201600955612a99565b6001600160a01b03829392549160031b92831b921b191617905580f35b634e487b7160e01b83526041600452602483fd5b60405162461bcd60e51b815260206004820152601e60248201527f5661756c743a20757365206164647265737328302920666f72204842415200006044820152606490fd5b503461020c57602036600319011261020c5760043567ffffffffffffffff81116106d1578060040160c060031983360301126106cd57610f61610f5a6128849261287d613088565b50806130b9565b604051906396834ad360e01b825260048201526080816024816001600160a01b037f0000000000000000000000000000000000000000000000000000000000000000165afa8015612225576128ed918491611c6c57506040815160070b91015160030b90613340565b916002549061290361107c4260648601356130ec565b90602484013590600282101561020c575061298060e09560a094670de0b6b3a76400009460ff8561293661298e97612c7c565b169161294183612c7c565b6040519361294e85612b1f565b84526044890135602085015260a489013560408501526060840152608083015261297781612c7c565b85820152613707565b93608485519101359061310f565b049160405192835280516020840152602081015160408401526040810151606084015260608101516080840152608081015182840152015160c0820152f35b503461020c57602036600319011261020c576004359060095482101561020c5760206001600160a01b03612a0084612a99565b90549060031b1c16604051908152f35b503461020c57602036600319011261020c5760406020916001600160a01b03612a37612a6d565b168152600383522054604051908152f35b503461020c57602036600319011261020c57612a626132dc565b6120b1600435612d67565b600435906001600160a01b0382168203611abe57565b602435906001600160a01b0382168203611abe57565b600954811015612ab457600960005260206000200190600090565b634e487b7160e01b600052603260045260246000fd5b600754811015612ab457600760005260206000200190600090565b90600182811c92168015612b15575b6020831014612aff57565b634e487b7160e01b600052602260045260246000fd5b91607f1691612af4565b60c0810190811067ffffffffffffffff821117612b3b57604052565b634e487b7160e01b600052604160045260246000fd5b6101c0810190811067ffffffffffffffff821117612b3b57604052565b90601f8019910116810190811067ffffffffffffffff821117612b3b57604052565b9060405191826000825492612ba484612ae5565b8084529360018116908115612c125750600114612bcb575b50612bc992500383612b6e565b565b90506000929192526020600020906000915b818310612bf6575050906020612bc99282010138612bbc565b6020919350806001915483858901015201910190918492612bdd565b905060209250612bc994915060ff191682840152151560051b82010138612bbc565b60005b838110612c475750506000910152565b8181015183820152602001612c37565b90602091612c7081518092818552858086019101612c34565b601f01601f1916010190565b60021115612c8657565b634e487b7160e01b600052602160045260246000fd5b67ffffffffffffffff8111612b3b57601f01601f191660200190565b929192612cc482612c9c565b91612cd26040519384612b6e565b829481845281830111611abe578281602093846000960137010152565b90816080910312611abe576040519060006080830167ffffffffffffffff811184821017610b175760405281518060070b81036106d1578352602082015167ffffffffffffffff811681036106d15760208401526040820151908160030b820361020c57509060609160408401520151606082015290565b61016933148015613074575b1561302f5760009080825260056020526040822091600c83019060ff825460a01c1661302957600584015480421061301157506001840154604051906396834ad360e01b825260048201526080816024816001600160a01b037f0000000000000000000000000000000000000000000000000000000000000000165afa908115611cb45790612e16918391611c6c57506040815160070b91015160030b90613340565b93612e21858261341c565b91821580159290612ffd576001600160a01b03600982015416945b805460ff60a01b1916600160a01b1790557f00000000000000000000000000000000000000000000000000000000000000006001600160a01b03168315612ff5576001905b803b156122a957612eb3916044898680946040519687958694633625b75960e21b86526004860152602485019061327d565b5af18015612225579186918693612fe1575b5084612ed584600b8401546130ec565b80612f9a575b50612f59575b50505050600014612f28576001600160a01b037f0d6bb44fa70c7c0ae5c2c12bd210c4a9d4f91e262e7fee1bff7efb4896d3b4d692604092835196875260208701521693a3565b505090507f04c168839fc9657badb834a2ffa05b1fd2183137d236eca931aab0710c8b33fe602060405160018152a2565b600a01546001600160a01b031680612f8b575082809281925af1612f7b613142565b501561211c575b38828482612ee1565b612f9593506140f3565b612f82565b6001600160a01b0360088401541686526004602052604086206001600160a01b0380600a8601541616600052602052612fd96040600020918254613172565b905538612edb565b84612fee91959295612b6e565b9238612ec5565b600290612e81565b6001600160a01b0360088201541694612e3c565b6323af3e9f60e01b8252600484905260245260449150fd5b50505050565b60405162461bcd60e51b815260206004820152601860248201527f5661756c743a206f6e6c7920485353206f72206f776e657200000000000000006044820152606490fd5b506001600160a01b03600154163314612d73565b6040519061309582612b1f565b600060a0838281528260208201528260408201528260608201528260808201520152565b903590601e1981360301821215611abe570180359067ffffffffffffffff8211611abe57602001918136038313611abe57565b919082039182116130f957565b634e487b7160e01b600052601160045260246000fd5b818102929181159184041417156130f957565b811561312c570490565b634e487b7160e01b600052601260045260246000fd5b3d1561316d573d9061315382612c9c565b916131616040519384612b6e565b82523d6000602084013e565b606090565b919082018092116130f957565b908060209392818452848401376000828201840152601f01601f1916010190565b9180602084016020855252604083019060408160051b8501019383600091601e1982360301905b8484106131d8575050505050505090565b90919293949596603f19828203018752873583811215611abe578401906020823592019167ffffffffffffffff8111611abe578036038313611abe57613224602092839260019561317f565b990197019594019291906131c7565b903590601e1981360301821215611abe570180359067ffffffffffffffff8211611abe57602001918160051b36038313611abe57565b356001600160a01b0381168103611abe5790565b906003821015612c865752565b601f821161329757505050565b6000526020600020906020601f840160051c830193106132d2575b601f0160051c01905b8181106132c6575050565b600081556001016132bb565b90915081906132b2565b6002600054146132ed576002600055565b60405162461bcd60e51b815260206004820152601f60248201527f5265656e7472616e637947756172643a207265656e7472616e742063616c6c006044820152606490fd5b604d81116130f957600a0a90565b60070b9060008213156133d75760030b6000811261338f579061336561336b92613332565b9061310f565b670de0b6b3a7640000810290808204670de0b6b3a764000014901517156130f95790565b637fffffff1981146130f9576133aa9060000360030b613332565b670de0b6b3a7640000820291808304670de0b6b3a764000014901517156130f9576133d491613122565b90565b60405162461bcd60e51b815260206004820152601360248201527f46504d3a206e65676174697665207072696365000000000000000000000000006044820152606490fd5b6003810154600093929060ff1661343281612c7c565b6134895760048201549081811161345a575b5050600b905b01548083116134565750565b9150565b600b929450613475670de0b6b3a764000092613480926130ec565b60068601549061310f565b04929038613444565b60048201548181116134a0575b5050600b9061344a565b600b929450613475670de0b6b3a7640000926134bb926130ec565b04929038613496565b9060405160208184516134da8183858901612c34565b81016006815203019020549182156134ef5750565b6040516306fad28d60e31b815260206004820152908190611dc8906024830190612c57565b670de0b6b3a7640000810290808204670de0b6b3a764000014901517156130f9576301e13380900490565b90670de0b6b3a763ffff1982019182136001166130f957565b90600082670de0b6b3a7640000039212670de0b6b3a76400008312811690670de0b6b3a76400008413901516176130f957565b818103929160001380158285131691841216176130f957565b600160ff1b81146130f95760000390565b811561312c57600160ff1b81146000198314166130f9570590565b90670de0b6b3a7640000820291808305670de0b6b3a764000014901517156130f957565b9067099e8db03256ce5d82029180830567099e8db03256ce5d14901517156130f957565b9067058953e3ed36306682029180830567058953e3ed36306614901517156130f957565b818102929160008212600160ff1b8214166130f95781840514901517156130f957565b90600482019160006004841291129080158216911516176130f957565b90600382019160006003841291129080158216911516176130f957565b90600282019160006002841291129080158216911516176130f957565b90600182019160006001841291129080158216911516176130f957565b9081670de0b6b3a7640000019182126001166130f957565b919091600083820193841291129080158216911516176130f957565b90613710613088565b908251156140565760208301511561401157604083015115613fcc57608083015115613f87576040516060810181811067ffffffffffffffff821117612b3b576040526000815260208101906000825260006040820152670de0b6b3a764000061378a6137806080880151614606565b604088015161363c565b05604082015284516020860151670de0b6b3a7640000820291808304670de0b6b3a764000014901517156130f9576137c191613122565b916000831315613f42576000836806f05b59d3b20000009485811215613f34575b5060009467de0b6b3a7640000080831215613f1f575b676f05b59d3b20000080841215613f0a575b673782dace9d9000009182851215613ef5575b671bc16d674ec800009384861215613ee0575b670de0b6b3a76400008612613ec5575b670de0b6b3a76400008612613eaa575b670de0b6b3a76400008612613e8f575b670de0b6b3a76400008612613e61575b851215613e28575b841215613e13575b831215613dfe575b821215613de9575b811215613dd6575b6138a18161353f565b670de0b6b3a764000082019186670de0b6b3a764000084129112908015821691151617613d38576138d1906135d0565b906138db916135b5565b6138e5818061363c565b670de0b6b3a76400009005808080846138ff82809761363c565b670de0b6b3a764000090059060038205613918916136eb565b916139229161363c565b670de0b6b3a76400009005906005820561393b916136eb565b916139459161363c565b670de0b6b3a76400009005906007820561395e916136eb565b916139689161363c565b670de0b6b3a764000090059060098205613981916136eb565b9161398b9161363c565b670de0b6b3a7640000900590600b82056139a4916136eb565b916139ae9161363c565b670de0b6b3a76400009005600d90056139c6916136eb565b908160011b9180830560021490151715613dc257906139e76139ec926135f4565b6136eb565b670de0b6b3a7640000613a23613a18600283613a0c60408d01518061310f565b040560608b01516136eb565b60808a01519061363c565b0584604085015113600014613db757613a42613a5591613a63936136eb565b613a506040860151916135d0565b6135b5565b80845260408401519061358b565b815285613a7a613a7384516141f6565b92516141f6565b92613a8483613558565b85613a8e86613558565b92670de0b6b3a7640000613aca613ac0613abb83613ab560608b015160808c01519061363c565b056135a4565b6143d2565b602088015161363c565b059a8b9681519c8d958760a0850151613ae281612c7c565b613aeb81612c7c565b613d7e57505050613b23670de0b6b3a7640000613b08838861363c565b05670de0b6b3a7640000613b1c8c8c61363c565b059061358b565b84811315613d77575b8c525b8b835180613b3c9161363c565b670de0b6b3a76400009005613b50906135a4565b60029005613b5d906143d2565b613b6690613618565b670de0b6b3a7640000900593849260a0850151613b8281612c7c565b613b8b81612c7c565b1560001497670de0b6b3a7640000613c2798613bf9829b99613bf36080613c1b9b60649a879e613bd060408a9d613c019d8c94613d69575b602086015201518b61363c565b0587811315613d5f57613be8604091613a50886135d0565b915b01520151614606565b9461363c565b90500561363c565b050460608d0152613c156080880151614606565b9c61363c565b0560408501519061363c565b0585891315613d4c578860011b9860028a0503613d3857613ca3613c5d613c586064999a9b613a5061016d956135d0565b6135a4565b60a0850151613c6b81612c7c565b613c7481612c7c565b613d1557613c9d670de0b6b3a7640000613ab58982613c978b60608c015161363c565b0561363c565b906136eb565b05608089015260a0820151613cb781612c7c565b613cc081612c7c565b613cee575091670de0b6b3a7640000613c97613ce2936080839601519061363c565b05905b500560a0830152565b613d0f9350670de0b6b3a7640000613c9781946080613ab59501519061363c565b90613ce5565b670de0b6b3a7640000613d318582613c978a60608b015161363c565b05906136eb565b634e487b7160e01b86526011600452602486fd5b5060649596975061016d613ca386613c5d565b5060408791613bea565b613d729061353f565b613bc3565b5083613b2c565b613b1c670de0b6b3a7640000613d988193613da09661363c565b05928961363c565b84811315613db0575b8c52613b2f565b5083613da9565b5050613a6383613a55565b634e487b7160e01b85526011600452602485fd5b613de39060011d916136b6565b90613898565b9190613df89060021d91613699565b91613890565b9291613e0d9060031d9261367c565b92613888565b9392613e229060041d9361365f565b93613880565b949360071d93600781019089600783129112908015821691151617613e4d5794613878565b634e487b7160e01b89526011600452602489fd5b95600195861b95600019820191821316613e7b5795613870565b634e487b7160e01b8a52601160045260248afd5b959460021b946001198101908113600116613e7b5795613860565b959460041b946003198101908113600116613e7b5795613850565b959460071b946006198101908113600116613e7b5795613840565b9594613eef9060011d956136b6565b95613830565b9493613f049060021d94613699565b9461381d565b9392613f199060031d9361367c565b9361380a565b9291613f2e9060041d9261365f565b926137f8565b60079250821d9050386137e2565b60405162461bcd60e51b815260206004820152600d60248201527f46504d3a206c6e28783c3d3029000000000000000000000000000000000000006044820152606490fd5b60405162461bcd60e51b815260206004820152600760248201527f42533a20543d30000000000000000000000000000000000000000000000000006044820152606490fd5b60405162461bcd60e51b815260206004820152600b60248201527f42533a207369676d613d300000000000000000000000000000000000000000006044820152606490fd5b60405162461bcd60e51b815260206004820152600c60248201527f42533a20737472696b653d3000000000000000000000000000000000000000006044820152606490fd5b60405162461bcd60e51b815260206004820152600a60248201527f42533a2073706f743d30000000000000000000000000000000000000000000006044820152606490fd5b6001600160a01b036001541633036140af57565b606460405162461bcd60e51b815260206004820152602060248201527f4f776e61626c653a2063616c6c6572206973206e6f7420746865206f776e65726044820152fd5b612bc9926001600160a01b036040519363a9059cbb60e01b602086015216602484015260448301526044825261412a606483612b6e565b614630565b60ff60015460a01c1661413e57565b60405162461bcd60e51b815260206004820152601060248201527f5061757361626c653a20706175736564000000000000000000000000000000006044820152606490fd5b90670de0b6b3a764000093929161419981612c7c565b6141ab57506141a79161310f565b0490565b6141a7925061310f565b9091926001600160a01b03612bc99481604051956323b872dd60e01b602088015216602486015216604484015260648301526064825261412a608483612b6e565b600090676f05b59d3b2000008112156143c457676f05b59d3b1fffff198113156143c05781811290816143b2575b80670336f514ac98b80002670336f514ac98b80081058203611d2a57614256670de0b6b3a764000061426b92056136d3565b6ec097ce7bc90715b34b9f10000000006135b5565b671276158b8a54a2008102818105671276158b8a54a2001482151715613dc257670de0b6b3a764000090058067194666a99dbf23ff190190811215600116613dc2576142c0670de0b6b3a7640000918361363c565b05806718b914beba14aa0001908112600116613dc2576142e9670de0b6b3a7640000918361363c565b05806704f2c4dedde13bff190190811215600116613dc257614314670de0b6b3a7640000918361363c565b05908167046eabcf3378840001918212600116613dc25761437292670de0b6b3a7640000613c97614367600261436184613ab5818d614357829c61436c9c61363c565b905005978061363c565b056143d2565b613618565b05613558565b918083126143aa575b670de0b6b3a7640000831361439a575b50156133d4576133d490613558565b670de0b6b3a7640000925061438b565b91508161437b565b6143bb906135a4565b614224565b5090565b5050670de0b6b3a764000090565b68023f2fa8f6da5b9d281981131561460057680755bf798b4a1bf1e58112156145db576144076704cf46d8192b672e826136eb565b67099e8db03256ce5d90059061441c826135f4565b6144259161358b565b808080808080808080614437816136d3565b614441828061363c565b670de0b6b3a7640000900560029005908161445b916136eb565b916144659161363c565b670de0b6b3a7640000900560039005908161447f916136eb565b916144899161363c565b670de0b6b3a764000090056004900590816144a3916136eb565b916144ad9161363c565b670de0b6b3a764000090056005900590816144c7916136eb565b916144d19161363c565b670de0b6b3a764000090056006900590816144eb916136eb565b916144f59161363c565b670de0b6b3a7640000900560079005908161450f916136eb565b916145199161363c565b670de0b6b3a76400009005600890059081614533916136eb565b9161453d9161363c565b670de0b6b3a76400009005600990059081614557916136eb565b916145619161363c565b670de0b6b3a76400009005600a9005908161457b916136eb565b916145859161363c565b670de0b6b3a76400009005600b9005908161459f916136eb565b916145a99161363c565b670de0b6b3a76400009005600c90056145c1916136eb565b90600081126145ce571b90565b6145d7906135a4565b1d90565b507f7fffffffffffffffffffffffffffffffffffffffffffffffffffffffffffffff90565b50600090565b670de0b6b3a7640000810290808204670de0b6b3a764000014901517156130f9576133d490614736565b6001600160a01b036146939116916040926000808551936146518786612b6e565b602085527f5361666545524332303a206c6f772d6c6576656c2063616c6c206661696c6564602086015260208151910182855af161468d613142565b9161477f565b8051908115918215614713575b5050156146aa5750565b5162461bcd60e51b815260206004820152602a60248201527f5361666545524332303a204552433230206f7065726174696f6e20646964206e60448201527f6f742073756363656564000000000000000000000000000000000000000000006064820152608490fd5b8192509060209181010312611abe57602001518015158103611abe5738806146a0565b90811561477957818060011c600181018091116130f957905b83821061475a575050565b9092506147708361476b8184613122565b613172565b60011c9061474f565b60009150565b919290156147e15750815115614793575090565b3b1561479c5790565b60405162461bcd60e51b815260206004820152601d60248201527f416464726573733a2063616c6c20746f206e6f6e2d636f6e74726163740000006044820152606490fd5b8251909150156147f45750805190602001fd5b60405162461bcd60e51b815260206004820152908190611dc8906024830190612c5756fea164736f6c634300081a000a608060405234610365576132466020813803918261001c8161036a565b93849283398101031261036557516001600160a01b038116810361036557610044604061036a565b90601382527f486564657261204f7074696f6e20546f6b656e000000000000000000000000006020830152610079604061036a565b60048152631213d41560e21b602082015282519091906001600160401b03811161027057600054600181811c9116801561035b575b602082101461025057601f81116102f7575b506020601f82116001146102915781929394600092610286575b50508160011b916000199060031b1c1916176000555b8151916001600160401b03831161027057600154600181811c91168015610266575b602082101461025057601f81116101eb575b50602090601f841160011461017f57610165939160009183610174575b50508160011b916000199060031b1c1916176001555b6101603361038f565b61038f565b604051612e6d90816103d98239f35b015190503880610141565b90601f198416916001600052816000209260005b8181106101d357509160019391866101659794106101ba575b505050811b01600155610157565b015160001960f88460031b161c191690553880806101ac565b92936020600181928786015181550195019301610193565b60016000527fb10e2d527612073b26eecdfd717e6a320cf44b4afac2b0732d9fcbe2b7fa0cf6601f850160051c81019160208610610246575b601f0160051c01905b81811061023a5750610124565b6000815560010161022d565b9091508190610224565b634e487b7160e01b600052602260045260246000fd5b90607f1690610112565b634e487b7160e01b600052604160045260246000fd5b0151905038806100da565b601f1982169060008052806000209160005b8181106102df575095836001959697106102c6575b505050811b016000556100f0565b015160001960f88460031b161c191690553880806102b8565b9192602060018192868b0151815501940192016102a3565b600080527f290decd9548b62a8d60345a988386fc84ba6bc95484008f6362f93160ef3e563601f830160051c81019160208410610351575b601f0160051c01905b81811061034557506100c0565b60008155600101610338565b909150819061032f565b90607f16906100ae565b600080fd5b6040519190601f01601f191682016001600160401b0381118382101761027057604052565b600780546001600160a01b039283166001600160a01b0319821681179092559091167f8be0079c531659141344cd1fd0a4f28419497f9722a3daafe3b4186f6b6457e0600080a356fe608080604052600436101561001357600080fd5b60003560e01c90816301ffc9a714611f285750806306fdde0314611e83578063081812fc14611e65578063095ea7b314611cdb57806318160ddd14611cbd5780631ce5e9a614611ab357806323b872dd14611a8a57806325d4a65b1461164057806342842e0e146116165780636352211e146115e757806370a082311461153c578063710b7c2f146114ea578063715018a61461148f57806382afd23b146114355780638da5cb5b1461140e57806395d89b411461132d5780639a709c57146112fb578063a22cb46514611229578063b88d4fde1461119e578063c87b56dd146102f2578063d896dd641461025c578063e985e9c5146101ff5763f2fde38b1461011c57600080fd5b346101fa5760203660031901126101fa576001600160a01b0361013d611ff5565b610145612685565b16801561018f576001600160a01b03600754826001600160a01b0319821617600755167f8be0079c531659141344cd1fd0a4f28419497f9722a3daafe3b4186f6b6457e0600080a3005b60405162461bcd60e51b815260206004820152602660248201527f4f776e61626c653a206e6577206f776e657220697320746865207a65726f206160448201527f64647265737300000000000000000000000000000000000000000000000000006064820152608490fd5b600080fd5b346101fa5760403660031901126101fa57610218611ff5565b6001600160a01b0361022861200b565b911660005260056020526001600160a01b0360406000209116600052602052602060ff604060002054166040519015158152f35b346101fa5760403660031901126101fa5760043560243560038110156101fa5760207f4d7918f94f73bc22769a0715065536d0e7720e8fb22a5af2fccff8e4d6d89a0c916102a8612685565b83600052600282526102c96001600160a01b03604060002054161515612206565b83600052600982526102e28160096040600020016122d8565b6102ef604051809261202e565ba2005b346101fa5760203660031901126101fa576004358060005260026020526103286001600160a01b03604060002054161515612206565b806000526009602052604060002060ff6002820154166002811015611188571560008115611163575060405161035f6040826120a8565b600481526310d0531360e21b6020820152915b61038560ff600983015460a01c16612729565b9061039360038201546127f6565b6103a060058301546127f6565b6103ad60068401546127f6565b91600095600014611125576040516103c66040826120a8565b600781527f23323263353565000000000000000000000000000000000000000000000000006020820152965b60048501549861040460018701612120565b9861040e826128f1565b6104178c6128f1565b6104208a612d5a565b916040519c8d94602086017f3c73766720786d6c6e733d22687474703a2f2f7777772e77332e6f72672f32309052604086017f30302f737667222076696577426f783d223020302034303020323530222073749052606086017f796c653d22666f6e742d66616d696c793a6d6f6e6f7370616365223e000000009052607c86017f3c726563742077696474683d2234303022206865696768743d223235302220729052609c86017f783d223136222066696c6c3d2223306631373261222f3e000000000000000000905260b386017f3c7265637420783d2231362220793d223136222077696474683d223336382220905260d386017f6865696768743d22323138222072783d223132222066696c6c3d222331653239905260f386017f336222207374726f6b653d220000000000000000000000000000000000000000905280519060208101918060ff8901906105779185611fad565b7f22207374726f6b652d77696474683d2232222f3e00000000000000000000000060ff918901918201527f3c7465787420783d2233302220793d223530222066696c6c3d222339346133626101138201527f382220666f6e742d73697a653d223131223e484544455241204f5054494f4e536101338201527f205641554c543c2f746578743e000000000000000000000000000000000000006101538201527f3c7465787420783d2233302220793d223738222066696c6c3d2200000000000061016082015290519161065190839061017a840190611fad565b0160ff01607b81017f2220666f6e742d73697a653d2232322220666f6e742d7765696768743d22626f9052633632111f60e11b609b82015281519182609f8301916020019161069f92611fad565b01607b0160248101600160fd1b9052865190602581018260208a01916106c492611fad565b016024016001810161202360f01b9052815191826003830191602001916106ea92611fad565b0160010160028101661e17ba32bc3a1f60c91b9052600981017f3c7465787420783d2233302220793d22313038222066696c6c3d2223653265389052602981017f66302220666f6e742d73697a653d223134223e537472696b653a2024000000009052865190604581018260208a019161076392611fad565b01600201604381017f205553443c2f746578743e0000000000000000000000000000000000000000009052604e81017f3c7465787420783d2233302220793d22313332222066696c6c3d2223653265389052606e81017f66302220666f6e742d73697a653d223134223e53697a653a20202000000000009052875190608981018260208b01916107f292611fad565b01604301604681017f20756e6974733c2f746578743e000000000000000000000000000000000000009052605381017f3c7465787420783d2233302220793d22313536222066696c6c3d2223653265389052607381017f66302220666f6e742d73697a653d223134223e5072656d69756d3a20240000009052885190609081018260208c019161088192611fad565b01604601604a8101661e17ba32bc3a1f60c91b9052605181017f3c7465787420783d2233302220793d22313830222066696c6c3d2223363437349052607181017f38622220666f6e742d73697a653d223131223e4578706972793a200000000000905281519182608c830191602001916108fa92611fad565b661e17ba32bc3a1f60c91b608c92909101918201527f3c7465787420783d2233302220793d22323030222066696c6c3d22233634373460938201527f38622220666f6e742d73697a653d223131223e536574746c656420766961204860b38201527f49502d313231352050726f746f636f6c204175746f6d6174696f6e3c2f74657860d3820152613a1f60f11b60f38201527f3c7265637420783d223239302220793d223138222077696474683d223930222060f58201527f6865696768743d223232222072783d2236222066696c6c3d2200000000000000610115820152815191604a8201916109f491849161012e0190602001611fad565b016042016211179f60e91b60a282015260a581017f3c7465787420783d223333352220793d223333222066696c6c3d222366666622905260c581017f20666f6e742d73697a653d2231302220746578742d616e63686f723d226d6964905260e581017f646c65223e000000000000000000000000000000000000000000000000000000905288519060ea81018260208c0191610a8f92611fad565b0160a20160488101661e17ba32bc3a1f60c91b9052604f81017f3c2f7376673e000000000000000000000000000000000000000000000000000090520360480160121981018a52600d01610ae3908a6120a8565b610aec906128f1565b97610af690612a45565b98610b00906128f1565b9460078101546001600160a01b031660405198610b1e60608b6120a8565b602a8a5260403660208c013789511561111157603060208b015389516001101561111157607860218b01536029905b6001821161109e57505061105a576040517f7b226e616d65223a2200000000000000000000000000000000000000000000006020820152998a99610b9760298c0160018501612413565b600160fd1b8152845190610bb2826001830160208901611fad565b016001810161080960f21b905285519060038101826020890191610bd592611fad565b01600101600281017f204f7074696f6e20230000000000000000000000000000000000000000000000905281519182600b83019160200191610c1692611fad565b61088b60f21b600b92909101918201527f226465736372697074696f6e223a22486564657261204f7074696f6e73205661600d8201527f756c74202d204167656e74696320446546692e204578657263697361626c6520602d8201527f766961204849502d31323135206175746f6e6f6d6f757320736574746c656d65604d8201527f6e742e222c000000000000000000000000000000000000000000000000000000606d8201527f22696d616765223a22646174613a696d6167652f7376672b786d6c3b626173656072820152620d8d0b60ea1b60928201528151916002820191610d0a91849160950190602001611fad565b61088b60f21b609392909101918201527f2261747472696275746573223a5b00000000000000000000000000000000000060958201527f7b2274726169745f74797065223a22556e6465726c79696e67222c2276616c7560a38201526332911d1160e11b60c3820152610d859160c790910190600101612413565b62089f4b60ea1b81527f7b2274726169745f74797065223a2254797065222c2276616c7565223a2200006003820152815191610dca9083906021840190602001611fad565b62089f4b60ea1b602192909101918201527f7b2274726169745f74797065223a22537472696b6520555344222c2276616c7560248201526332911d1160e11b6044820152815191610e249083906048840190602001611fad565b0160210162089f4b60ea1b6027820152602a81017f7b2274726169745f74797065223a2253697a65222c2276616c7565223a220000905281519182604883019160200191610e7192611fad565b0160270162089f4b60ea1b6021820152602481017f7b2274726169745f74797065223a225072656d69756d222c2276616c7565223a9052601160f91b604482015281519182604583019160200191610ec892611fad565b0160210162089f4b60ea1b6024820152602781017f7b2274726169745f74797065223a22457870697279222c2276616c7565223a00905281519182604683019160200191610f1592611fad565b0160240160228101611f4b60f21b9052602481017f7b2274726169745f74797065223a22537461747573222c2276616c7565223a22905281519182604483019160200191610f6292611fad565b0160220162089f4b60ea1b6022820152602581017f7b2274726169745f74797065223a22577269746572222c2276616c7565223a22905281519182604583019160200191610faf92611fad565b61227d60f01b91016045810191909152615d7d60f01b604782015203602981018252610fde90604901826120a8565b610fe790612a45565b6040518091602082017f646174613a6170706c69636174696f6e2f6a736f6e3b6261736536342c000000905280519081603d8401916020019161102992611fad565b810103603d01601f198101825261104090826120a8565b6040518091602082526020820161105691611fd0565b0390f35b606460405162461bcd60e51b815260206004820152602060248201527f537472696e67733a20686578206c656e67746820696e73756666696369656e746044820152fd5b90916010600f821610156110fd578a518310156110fd576f181899199a1a9b1b9c1cb0b131b232b360811b600f82161a8b84016020015360041c9180156110e9576000190190610b4d565b634e487b7160e01b82526011600452602482fd5b634e487b7160e01b82526032600452602482fd5b634e487b7160e01b81526032600452602490fd5b6040516111336040826120a8565b600781527f23656634343434000000000000000000000000000000000000000000000000006020820152966103f2565b506040516111726040826120a8565b600381526214155560ea1b602082015291610372565b634e487b7160e01b600052602160045260246000fd5b346101fa5760803660031901126101fa576111b7611ff5565b6111bf61200b565b6064359167ffffffffffffffff83116101fa57366023840112156101fa578260040135916111ec836120ca565b926111fa60405194856120a8565b80845236602482870101116101fa576020816000926024611227980183880137850101526044359161237d565b005b346101fa5760403660031901126101fa57611242611ff5565b602435908115158092036101fa576001600160a01b0316908133146112b657336000526005602052604060002082600052602052604060002060ff1981541660ff83161790556040519081527f17307eab39ab6107e8899845ad3d59bd9653f200f220920489ca2b5937696c3160203392a3005b60405162461bcd60e51b815260206004820152601960248201527f4552433732313a20617070726f766520746f2063616c6c6572000000000000006044820152606490fd5b346101fa5760203660031901126101fa5760043560005260096020526020600460406000200154421015604051908152f35b346101fa5760003660031901126101fa57604051600060015461134f816120e6565b80845290600181169081156113ea575060011461138b575b61105683611377818503826120a8565b604051918291602083526020830190611fd0565b600160009081527fb10e2d527612073b26eecdfd717e6a320cf44b4afac2b0732d9fcbe2b7fa0cf6939250905b8082106113d057509091508101602001611377611367565b9192600181602092548385880101520191019092916113b8565b60ff191660208086019190915291151560051b840190910191506113779050611367565b346101fa5760003660031901126101fa5760206001600160a01b0360075416604051908152f35b346101fa5760203660031901126101fa576004356000526009602052604060002060ff600982015460a01c1690600382101561118857602091159081611481575b506040519015158152f35b600491500154421082611476565b346101fa5760003660031901126101fa576114a8612685565b60006001600160a01b036007546001600160a01b03198116600755167f8be0079c531659141344cd1fd0a4f28419497f9722a3daafe3b4186f6b6457e08280a3005b346101fa5760403660031901126101fa5761150361200b565b61150b612685565b60043560005260096020526001600160a01b03600960406000200191166001600160a01b0319825416179055600080f35b346101fa5760203660031901126101fa576001600160a01b0361155d611ff5565b16801561157c5760005260036020526020604060002054604051908152f35b60405162461bcd60e51b815260206004820152602960248201527f4552433732313a2061646472657373207a65726f206973206e6f74206120766160448201527f6c6964206f776e657200000000000000000000000000000000000000000000006064820152608490fd5b346101fa5760203660031901126101fa576020611605600435612358565b6001600160a01b0360405191168152f35b346101fa576112276116273661203b565b90604051926116376020856120a8565b6000845261237d565b346101fa5760403660031901126101fa57611659611ff5565b6024359067ffffffffffffffff82116101fa57813603916101806003198401126101fa57611685612685565b600854916000198314611a745760018301600855826000526009602052604060002090826004013582556001820194602484013590602219018112156101fa57830194600486013567ffffffffffffffff81116101fa5780360360248801136101fa57806000976116f684546120e6565b601f8111611a24575b508890601f83116001146119b75789926119a9575b50508160011b916000199060031b1c19161790555b6002820160448401359060028210156119a55760ff1981541660ff831617905560648401359081600385015560848501359485600486015560a48101359384600587015560c4820135600687015560e4820195611785876122c4565b6001600160a01b036007830191166001600160a01b03198254161790556117af61010484016122c4565b6001600160a01b036008830191166001600160a01b0319825416179055600981016001600160a01b036117e561012486016122c4565b166001600160a01b031982541617815561014484013560038110156119a1576001600160a01b039461181c61016492600a946122d8565b01359101558789526009602052600960408a200160ff60a01b198154169055878952600960205242600a60408b2001551693841561195d57602097879687957f1a38693d3505d88c2704f6bbb47e5a2dd7a1a37e3b012511eabd416032f0d846956119448960809761193d6001600160a01b03986118dc6118ba8e6118c06118ba8260005260026020526001600160a01b0360406000205416151590565b156126dd565b60005260026020526001600160a01b0360406000205416151590565b83895260206003905260408920600181540190558c895260206002905260408920846001600160a01b03198254161790556040519e8f948a7fddf252ad1be2c89b69c2b068fc378daa952ba7f163c4a11628f55a4df523b3ef8180a46122c4565b9650612021565b8b8a0152604089015260608801521694a4604051908152f35b606460405162461bcd60e51b815260206004820152602060248201527f4552433732313a206d696e7420746f20746865207a65726f20616464726573736044820152fd5b8b80fd5b8680fd5b016024013590508880611714565b848a5260208a20925090601f1984168a5b818110611a0957509084600195949392106119eb575b505050811b019055611729565b602491010135600019600384901b60f8161c191690558880806119de565b602484840101358555600190940193602092830192016119c8565b90915083895260208920601f840160051c81019160208510611a6a575b90601f859493920160051c01905b818110611a5c57506116ff565b8a8155849350600101611a4f565b9091508190611a41565b634e487b7160e01b600052601160045260246000fd5b346101fa57611227611a9b3661203b565b91611aae611aa98433612481565b612252565b612561565b346101fa5760203660031901126101fa576004356000610160604051611ad881612075565b828152606060208201528260408201528260608201528260808201528260a08201528260c08201528260e08201528261010082015282610120820152826101408201520152806000526002602052611b3f6001600160a01b03604060002054161515612206565b60005260096020526040600020604051611b5881612075565b81548152611b6860018301612120565b916020820192835260ff600282015416906040830191600281101561118857825260038101549060608401918252600481015460808501908152600582015460a08601908152600683015460c087019081526001600160a01b036007850154169060e088019182526001600160a01b0360088601541692610100890193845260098601549460ff6101208b01966001600160a01b038116885260a01c16966101408b01976003811015611188578852600a0154976101608b019889526040519b8c9b60208d525160208d01525160408c0161018090526101a08c01611c4c91611fd0565b995160608c01611c5b91612021565b5160808b01525160a08a01525160c08901525160e0880152516001600160a01b0316610100870152516001600160a01b0316610120860152516001600160a01b0316610140850152516101608401611cb29161202e565b516101808301520390f35b346101fa5760003660031901126101fa576020600854604051908152f35b346101fa5760403660031901126101fa57611cf4611ff5565b602435906001600160a01b0380611d0a84612358565b16911690808214611e1657803314908115611de8575b5015611d7d578160005260046020526040600020816001600160a01b03198254161790556001600160a01b03611d5583612358565b167f8c5be1e5ebec7d5bd14f71427d1e84f3dd0314c0f7b2291e5b200ac8c7c3b925600080a4005b60405162461bcd60e51b815260206004820152603d60248201527f4552433732313a20617070726f76652063616c6c6572206973206e6f7420746f60448201527f6b656e206f776e6572206f7220617070726f76656420666f7220616c6c0000006064820152608490fd5b9050600052600560205260406000206001600160a01b03331660005260205260ff6040600020541683611d20565b60405162461bcd60e51b815260206004820152602160248201527f4552433732313a20617070726f76616c20746f2063757272656e74206f776e656044820152603960f91b6064820152608490fd5b346101fa5760203660031901126101fa5760206116056004356121c4565b346101fa5760003660031901126101fa5760405160008054611ea4816120e6565b80845290600181169081156113ea5750600114611ecb5761105683611377818503826120a8565b60008080527f290decd9548b62a8d60345a988386fc84ba6bc95484008f6362f93160ef3e563939250905b808210611f0e57509091508101602001611377611367565b919260018160209254838588010152019101909291611ef6565b346101fa5760203660031901126101fa576004359063ffffffff60e01b82168092036101fa57602091632483248360e11b8114908115611f6a575b5015158152f35b6380ac58cd60e01b811491508115611f9c575b8115611f8b575b5083611f63565b6301ffc9a760e01b14905083611f84565b635b5e139f60e01b81149150611f7d565b60005b838110611fc05750506000910152565b8181015183820152602001611fb0565b90602091611fe981518092818552858086019101611fad565b601f01601f1916010190565b600435906001600160a01b03821682036101fa57565b602435906001600160a01b03821682036101fa57565b9060028210156111885752565b9060038210156111885752565b60609060031901126101fa576004356001600160a01b03811681036101fa57906024356001600160a01b03811681036101fa579060443590565b610180810190811067ffffffffffffffff82111761209257604052565b634e487b7160e01b600052604160045260246000fd5b90601f8019910116810190811067ffffffffffffffff82111761209257604052565b67ffffffffffffffff811161209257601f01601f191660200190565b90600182811c92168015612116575b602083101461210057565b634e487b7160e01b600052602260045260246000fd5b91607f16916120f5565b9060405191826000825492612134846120e6565b80845293600181169081156121a2575060011461215b575b50612159925003836120a8565b565b90506000929192526020600020906000915b818310612186575050906020612159928201013861214c565b602091935080600191548385890101520191019091849261216d565b90506020925061215994915060ff191682840152151560051b8201013861214c565b6121ec6121e78260005260026020526001600160a01b0360406000205416151590565b61230c565b60005260046020526001600160a01b036040600020541690565b1561220d57565b60405162461bcd60e51b815260206004820152601860248201527f4f7074696f6e546f6b656e3a206e6f6e6578697374656e7400000000000000006044820152606490fd5b1561225957565b60405162461bcd60e51b815260206004820152602d60248201527f4552433732313a2063616c6c6572206973206e6f7420746f6b656e206f776e6560448201527f72206f7220617070726f766564000000000000000000000000000000000000006064820152608490fd5b356001600160a01b03811681036101fa5790565b9060038110156111885760ff60a01b1974ff000000000000000000000000000000000000000083549260a01b169116179055565b1561231357565b60405162461bcd60e51b815260206004820152601860248201527f4552433732313a20696e76616c696420746f6b656e20494400000000000000006044820152606490fd5b60005260026020526001600160a01b036040600020541661237a81151561230c565b90565b906123a1939291612391611aa98433612481565b61239c838383612561565b612bb4565b156123a857565b60405162461bcd60e51b815260206004820152603260248201527f4552433732313a207472616e7366657220746f206e6f6e20455243373231526560448201527f63656976657220696d706c656d656e74657200000000000000000000000000006064820152608490fd5b60009291815491612423836120e6565b926001811690811561246e575060011461243c57505050565b909192935060005260206000206000905b83821061245a5750500190565b60018160209254848601520191019061244d565b60ff191683525050811515909102019150565b906001600160a01b038061249483612358565b169216908282149283156124c8575b5082156124af57505090565b6001600160a01b039192506124c3906121c4565b161490565b909250600052600560205260406000208160005260205260ff6040600020541691386124a3565b156124f657565b60405162461bcd60e51b815260206004820152602560248201527f4552433732313a207472616e736665722066726f6d20696e636f72726563742060448201527f6f776e65720000000000000000000000000000000000000000000000000000006064820152608490fd5b6001600160a01b039161258483928361257987612358565b9116941684146124ef565b16908115612634576125a8816001600160a01b036125a186612358565b16146124ef565b82600052600460205260406000206001600160a01b03198154169055806000526003602052604060002060001981540190558160005260036020526040600020600181540190558260005260026020526040600020826001600160a01b03198254161790557fddf252ad1be2c89b69c2b068fc378daa952ba7f163c4a11628f55a4df523b3ef600080a4565b60405162461bcd60e51b8152602060048201526024808201527f4552433732313a207472616e7366657220746f20746865207a65726f206164646044820152637265737360e01b6064820152608490fd5b6001600160a01b0360075416330361269957565b606460405162461bcd60e51b815260206004820152602060248201527f4f776e61626c653a2063616c6c6572206973206e6f7420746865206f776e65726044820152fd5b156126e457565b60405162461bcd60e51b815260206004820152601c60248201527f4552433732313a20746f6b656e20616c7265616479206d696e746564000000006044820152606490fd5b60038110156111885780156127ba5760016000911461277e57506040516127516040826120a8565b600781527f4558504952454400000000000000000000000000000000000000000000000000602082015290565b5060405161278d6040826120a8565b600981527f4558455243495345440000000000000000000000000000000000000000000000602082015290565b506040516127c96040826120a8565b600681527f4143544956450000000000000000000000000000000000000000000000000000602082015290565b61237a600161281a670de0b6b3a7640000662386f26fc100008186060494046128f1565b92600a8110156128b05761282d906128f1565b61286560216040518093600360fc1b60208301526128548151809260208686019101611fad565b81010301601f1981018352826120a8565b925b602060405194826128818794518092858088019101611fad565b8301601760f91b8382015261289f8251809385602185019101611fad565b01010301601f1981018352826120a8565b6128b9906128f1565b92612867565b906128c9826120ca565b6128d660405191826120a8565b82815280926128e7601f19916120ca565b0190602036910137565b806000917a184f03e93ff9f4daa797ed6e38ed64bf6a1f010000000000000000821015612a1d575b806d04ee2d6d415b85acef8100000000600a921015612a02575b662386f26fc100008110156129ee575b6305f5e1008110156129dd575b6127108110156129ce575b60648110156129c0575b10156129b5575b600a602161297c600185016128bf565b938401015b60001901916f181899199a1a9b1b9c1cb0b131b232b360811b8282061a83530480156129b057600a9091612981565b505090565b60019091019061296c565b606460029104930192612965565b6127106004910493019261295b565b6305f5e10060089104930192612950565b662386f26fc1000060109104930192612943565b6d04ee2d6d415b85acef810000000060209104930192612933565b50604091507a184f03e93ff9f4daa797ed6e38ed64bf6a1f0100000000000000008104612919565b90815115612b9d5760405191612a5c6060846120a8565b604083527f4142434445464748494a4b4c4d4e4f505152535455565758595a61626364656660208401527f6768696a6b6c6d6e6f707172737475767778797a303132333435363738392b2f6040840152805160028101809111611a7457600390047f3fffffffffffffffffffffffffffffffffffffffffffffffffffffffffffffff81168103611a7457612af29060021b6128bf565b9060208201908081518201956020870190815192600083525b888110612b4f5750506003939495965052510680600114612b3c57600214612b31575090565b603d90600019015390565b50603d9081600019820153600119015390565b600360049199969901986001603f8b5182828260121c16870101518453828282600c1c16870101518385015382828260061c1687010151600285015316840101516003820153019497612b0b565b9050604051612bad6020826120a8565b6000815290565b9190803b15612d51576001600160a01b03600081602095612c0460405198899788968794630a85bd0160e11b86523360048701521660248501526044840152608060648401526084830190611fd0565b0393165af18091600091612cef575b5090612cc1573d15612cba573d612c29816120ca565b90612c3760405192836120a8565b81523d6000602083013e5b80519081612cb55760405162461bcd60e51b815260206004820152603260248201527f4552433732313a207472616e7366657220746f206e6f6e20455243373231526560448201527f63656976657220696d706c656d656e74657200000000000000000000000000006064820152608490fd5b602001fd5b6060612c42565b7fffffffff0000000000000000000000000000000000000000000000000000000016630a85bd0160e11b1490565b6020813d602011612d49575b81612d08602093836120a8565b81010312612d455751907fffffffff0000000000000000000000000000000000000000000000000000000082168203612d42575038612c13565b80fd5b5080fd5b3d9150612cfb565b50505050600190565b602081519101207fdb6d55a48c634fdfe68da24c01559762c293198f8322e1fed7ca8976fc4ed2608114612e24577fe7702d80dfd40cdb266edb2034d118b91502a9a0f1e86eda9e13980523a38f9614612de957604051612dbc6040826120a8565b600781527f2336623732383000000000000000000000000000000000000000000000000000602082015290565b604051612df76040826120a8565b600781527f2332353633656200000000000000000000000000000000000000000000000000602082015290565b50604051612e336040826120a8565b600781527f233136613334610000000000000000000000000000000000000000000000000060208201529056fea164736f6c634300081a000a","opcodes":"PUSH1 0xE0 CALLVALUE PUSH2 0x201 JUMPI PUSH1 0x1F PUSH2 0x7CCF CODESIZE DUP2 SWAP1 SUB SWAP2 DUP3 ADD PUSH1 0x1F NOT AND DUP4 ADD SWAP2 PUSH1 0x1 PUSH1 0x1 PUSH1 0x40 SHL SUB DUP4 GT DUP5 DUP5 LT OR PUSH2 0x1DF JUMPI DUP1 DUP5 SWAP3 PUSH1 0x60 SWAP5 PUSH1 0x40 MSTORE DUP4 CODECOPY DUP2 ADD SUB SLT PUSH2 0x201 JUMPI PUSH2 0x47 DUP2 PUSH2 0x206 JUMP JUMPDEST SWAP1 PUSH1 0x40 PUSH2 0x56 PUSH1 0x20 DUP4 ADD PUSH2 0x206 JUMP JUMPDEST SWAP2 ADD MLOAD SWAP2 PUSH1 0x1 PUSH1 0x0 SSTORE PUSH2 0x68 CALLER PUSH2 0x21A JUMP JUMPDEST PUSH1 0x1 DUP1 SLOAD PUSH1 0xFF PUSH1 0xA0 SHL NOT AND SWAP1 SSTORE PUSH1 0x1 PUSH1 0x1 PUSH1 0xA0 SHL SUB AND PUSH1 0x80 MSTORE PUSH2 0x169 PUSH1 0xA0 MSTORE PUSH1 0x40 MLOAD PUSH2 0x3246 DUP1 DUP3 ADD SWAP1 PUSH1 0x1 PUSH1 0x1 PUSH1 0x40 SHL SUB DUP3 GT DUP4 DUP4 LT OR PUSH2 0x1DF JUMPI PUSH1 0x20 SWAP2 DUP4 SWAP2 PUSH2 0x4A89 DUP4 CODECOPY ADDRESS DUP2 MSTORE SUB ADD SWAP1 PUSH1 0x0 CREATE SWAP2 DUP3 ISZERO PUSH2 0x1F5 JUMPI PUSH2 0xCC SWAP3 PUSH1 0xC0 MSTORE PUSH1 0x2 SSTORE PUSH2 0x21A JUMP JUMPDEST PUSH1 0x0 DUP1 MSTORE PUSH1 0x8 PUSH1 0x20 MSTORE PUSH32 0x5EFF886EA0CE6CA488A3D6E336D6C0F75F46D19B42C06CE5EE98E42C96D256C7 DUP1 SLOAD PUSH1 0xFF NOT AND PUSH1 0x1 OR SWAP1 SSTORE PUSH1 0x9 SLOAD PUSH9 0x10000000000000000 DUP2 LT ISZERO PUSH2 0x1DF JUMPI PUSH1 0x1 DUP2 ADD DUP1 PUSH1 0x9 SSTORE DUP2 LT ISZERO PUSH2 0x1C9 JUMPI PUSH1 0x9 PUSH1 0x0 MSTORE PUSH32 0x6E1540171B6C0C960B71A7020D9F60077F6AF931A8BBF590DA0223DACF75C7AF ADD DUP1 SLOAD PUSH1 0x1 PUSH1 0x1 PUSH1 0xA0 SHL SUB NOT AND SWAP1 SSTORE PUSH1 0x40 MLOAD PUSH2 0x4825 SWAP1 DUP2 PUSH2 0x264 DUP3 CODECOPY PUSH1 0x80 MLOAD DUP2 DUP2 DUP2 PUSH2 0x1E8 ADD MSTORE DUP2 DUP2 PUSH2 0xF70 ADD MSTORE DUP2 DUP2 PUSH2 0x1F1D ADD MSTORE DUP2 DUP2 PUSH2 0x28A7 ADD MSTORE PUSH2 0x2DCE ADD MSTORE PUSH1 0xA0 MLOAD DUP2 DUP2 DUP2 PUSH2 0x1800 ADD MSTORE PUSH2 0x2328 ADD MSTORE PUSH1 0xC0 MLOAD DUP2 DUP2 DUP2 PUSH2 0x1470 ADD MSTORE DUP2 DUP2 PUSH2 0x188B ADD MSTORE DUP2 DUP2 PUSH2 0x18E5 ADD MSTORE DUP2 DUP2 PUSH2 0x1EB2 ADD MSTORE DUP2 DUP2 PUSH2 0x26F4 ADD MSTORE PUSH2 0x2E4F ADD MSTORE RETURN JUMPDEST PUSH4 0x4E487B71 PUSH1 0xE0 SHL PUSH1 0x0 MSTORE PUSH1 0x32 PUSH1 0x4 MSTORE PUSH1 0x24 PUSH1 0x0 REVERT JUMPDEST PUSH4 0x4E487B71 PUSH1 0xE0 SHL PUSH1 0x0 MSTORE PUSH1 0x41 PUSH1 0x4 MSTORE PUSH1 0x24 PUSH1 0x0 REVERT JUMPDEST PUSH1 0x40 MLOAD RETURNDATASIZE PUSH1 0x0 DUP3 RETURNDATACOPY RETURNDATASIZE SWAP1 REVERT JUMPDEST PUSH1 0x0 DUP1 REVERT JUMPDEST MLOAD SWAP1 PUSH1 0x1 PUSH1 0x1 PUSH1 0xA0 SHL SUB DUP3 AND DUP3 SUB PUSH2 0x201 JUMPI JUMP JUMPDEST PUSH1 0x1 DUP1 SLOAD PUSH1 0x1 PUSH1 0x1 PUSH1 0xA0 SHL SUB SWAP3 DUP4 AND PUSH1 0x1 PUSH1 0x1 PUSH1 0xA0 SHL SUB NOT DUP3 AND DUP2 OR SWAP1 SWAP3 SSTORE SWAP1 SWAP2 AND PUSH32 0x8BE0079C531659141344CD1FD0A4F28419497F9722A3DAAFE3B4186F6B6457E0 PUSH1 0x0 DUP1 LOG3 JUMP INVALID PUSH1 0x80 PUSH1 0x40 MSTORE PUSH1 0x4 CALLDATASIZE LT ISZERO PUSH2 0x1B JUMPI JUMPDEST CALLDATASIZE ISZERO PUSH2 0x19 JUMPI PUSH1 0x0 DUP1 REVERT JUMPDEST STOP JUMPDEST PUSH1 0x0 DUP1 CALLDATALOAD PUSH1 0xE0 SHR DUP1 PUSH4 0x2F126E8 EQ PUSH2 0x2A48 JUMPI DUP1 PUSH4 0x7311283 EQ PUSH2 0x2A10 JUMPI DUP1 PUSH4 0x172C48C7 EQ PUSH2 0x29CD JUMPI DUP1 PUSH4 0x2418CFBB EQ PUSH2 0x2835 JUMPI DUP1 PUSH4 0x29918899 EQ PUSH2 0x273A JUMPI DUP1 PUSH4 0x2A83EE3A EQ PUSH2 0x2718 JUMPI DUP1 PUSH4 0x2BAB754B EQ PUSH2 0x26D4 JUMPI DUP1 PUSH4 0x332821F5 EQ PUSH2 0x26B6 JUMPI DUP1 PUSH4 0x350C35E9 EQ PUSH2 0x257D JUMPI DUP1 PUSH4 0x3F4BA83A EQ PUSH2 0x24D9 JUMPI DUP1 PUSH4 0x4766162C EQ PUSH2 0x249C JUMPI DUP1 PUSH4 0x56A8299C EQ PUSH2 0x2467 JUMPI DUP1 PUSH4 0x58A2180A EQ PUSH2 0x244B JUMPI DUP1 PUSH4 0x5C975ABB EQ PUSH2 0x2425 JUMPI DUP1 PUSH4 0x6049EA90 EQ PUSH2 0x236F JUMPI DUP1 PUSH4 0x6A146024 EQ PUSH2 0x234C JUMPI DUP1 PUSH4 0x6E1978F1 EQ PUSH2 0x2308 JUMPI DUP1 PUSH4 0x715018A6 EQ PUSH2 0x22AD JUMPI DUP1 PUSH4 0x759B1D7B EQ PUSH2 0x1E2D JUMPI DUP1 PUSH4 0x8456CB59 EQ PUSH2 0x1DCC JUMPI DUP1 PUSH4 0x8678D23F EQ PUSH2 0xE65 JUMPI DUP1 PUSH4 0x8DA5CB5B EQ PUSH2 0xE3E JUMPI DUP1 PUSH4 0x932D68A6 EQ PUSH2 0xDD7 JUMPI DUP1 PUSH4 0x97FEB926 EQ PUSH2 0xD1A JUMPI DUP1 PUSH4 0x99FBAB88 EQ PUSH2 0xC10 JUMPI DUP1 PUSH4 0xB58EB63F EQ PUSH2 0xB48 JUMPI DUP1 PUSH4 0xB82112FE EQ PUSH2 0x20F JUMPI DUP1 PUSH4 0xC57470F7 EQ PUSH2 0xB2B JUMPI DUP1 PUSH4 0xCE1C0E4D EQ PUSH2 0xA28 JUMPI DUP1 PUSH4 0xD751A44F EQ PUSH2 0x9BA JUMPI DUP1 PUSH4 0xE1EA1CF5 EQ PUSH2 0x917 JUMPI DUP1 PUSH4 0xE2B93B84 EQ PUSH2 0x8FA JUMPI DUP1 PUSH4 0xEB02C301 EQ PUSH2 0x6D5 JUMPI DUP1 PUSH4 0xEEF07B95 EQ PUSH2 0x450 JUMPI DUP1 PUSH4 0xF2555278 EQ PUSH2 0x33E JUMPI DUP1 PUSH4 0xF2FDE38B EQ PUSH2 0x25F JUMPI DUP1 PUSH4 0xF4C70407 EQ PUSH2 0x20F JUMPI PUSH4 0xF98D06F0 EQ PUSH2 0x1C9 JUMPI POP PUSH2 0xE JUMP JUMPDEST CALLVALUE PUSH2 0x20C JUMPI DUP1 PUSH1 0x3 NOT CALLDATASIZE ADD SLT PUSH2 0x20C JUMPI PUSH1 0x20 PUSH1 0x40 MLOAD PUSH1 0x1 PUSH1 0x1 PUSH1 0xA0 SHL SUB PUSH32 0x0 AND DUP2 MSTORE RETURN JUMPDEST DUP1 REVERT JUMPDEST POP CALLVALUE PUSH2 0x20C JUMPI PUSH1 0x40 CALLDATASIZE PUSH1 0x3 NOT ADD SLT PUSH2 0x20C JUMPI PUSH1 0x1 PUSH1 0x1 PUSH1 0xA0 SHL SUB PUSH1 0x40 PUSH2 0x233 PUSH2 0x2A6D JUMP JUMPDEST SWAP3 DUP3 PUSH2 0x23D PUSH2 0x2A83 JUMP JUMPDEST SWAP5 AND DUP2 MSTORE PUSH1 0x4 PUSH1 0x20 MSTORE KECCAK256 SWAP2 AND PUSH1 0x0 MSTORE PUSH1 0x20 MSTORE PUSH1 0x20 PUSH1 0x40 PUSH1 0x0 KECCAK256 SLOAD PUSH1 0x40 MLOAD SWAP1 DUP2 MSTORE RETURN JUMPDEST POP CALLVALUE PUSH2 0x20C JUMPI PUSH1 0x20 CALLDATASIZE PUSH1 0x3 NOT ADD SLT PUSH2 0x20C JUMPI PUSH1 0x1 PUSH1 0x1 PUSH1 0xA0 SHL SUB PUSH2 0x281 PUSH2 0x2A6D JUMP JUMPDEST PUSH2 0x289 PUSH2 0x409B JUMP JUMPDEST AND DUP1 ISZERO PUSH2 0x2D3 JUMPI PUSH1 0x1 PUSH1 0x1 PUSH1 0xA0 SHL SUB PUSH1 0x1 SLOAD DUP3 PUSH1 0x1 PUSH1 0x1 PUSH1 0xA0 SHL SUB NOT DUP3 AND OR PUSH1 0x1 SSTORE AND PUSH32 0x8BE0079C531659141344CD1FD0A4F28419497F9722A3DAAFE3B4186F6B6457E0 DUP4 DUP1 LOG3 DUP1 RETURN JUMPDEST PUSH1 0x40 MLOAD PUSH3 0x461BCD PUSH1 0xE5 SHL DUP2 MSTORE PUSH1 0x20 PUSH1 0x4 DUP3 ADD MSTORE PUSH1 0x26 PUSH1 0x24 DUP3 ADD MSTORE PUSH32 0x4F776E61626C653A206E6577206F776E657220697320746865207A65726F2061 PUSH1 0x44 DUP3 ADD MSTORE PUSH32 0x6464726573730000000000000000000000000000000000000000000000000000 PUSH1 0x64 DUP3 ADD MSTORE PUSH1 0x84 SWAP1 REVERT JUMPDEST POP CALLVALUE PUSH2 0x20C JUMPI PUSH1 0x40 CALLDATASIZE PUSH1 0x3 NOT ADD SLT PUSH2 0x20C JUMPI PUSH2 0x358 PUSH2 0x2A6D JUMP JUMPDEST PUSH1 0x1 PUSH1 0x1 PUSH1 0xA0 SHL SUB PUSH2 0x368 PUSH2 0x2A83 JUMP JUMPDEST SWAP2 PUSH2 0x371 PUSH2 0x409B JUMP JUMPDEST AND SWAP1 DUP2 DUP4 MSTORE PUSH1 0x3 PUSH1 0x20 MSTORE PUSH1 0x40 DUP4 KECCAK256 SLOAD SWAP1 DUP2 ISZERO PUSH2 0x40B JUMPI DUP3 DUP5 SWAP4 DUP5 MSTORE PUSH1 0x3 PUSH1 0x20 MSTORE DUP4 PUSH1 0x40 DUP2 KECCAK256 SSTORE DUP1 ISZERO PUSH1 0x0 EQ PUSH2 0x3FE JUMPI POP DUP3 DUP1 SWAP3 DUP2 SWAP3 GAS CALL PUSH2 0x3B0 PUSH2 0x3142 JUMP JUMPDEST POP ISZERO PUSH2 0x3B9 JUMPI DUP1 RETURN JUMPDEST PUSH1 0x40 MLOAD PUSH3 0x461BCD PUSH1 0xE5 SHL DUP2 MSTORE PUSH1 0x20 PUSH1 0x4 DUP3 ADD MSTORE PUSH1 0x1F PUSH1 0x24 DUP3 ADD MSTORE PUSH32 0x5661756C743A204842415220666565207472616E73666572206661696C656400 PUSH1 0x44 DUP3 ADD MSTORE PUSH1 0x64 SWAP1 REVERT JUMPDEST PUSH2 0x408 SWAP4 POP PUSH2 0x40F3 JUMP JUMPDEST DUP1 RETURN JUMPDEST PUSH1 0x40 MLOAD PUSH3 0x461BCD PUSH1 0xE5 SHL DUP2 MSTORE PUSH1 0x20 PUSH1 0x4 DUP3 ADD MSTORE PUSH1 0xE PUSH1 0x24 DUP3 ADD MSTORE PUSH32 0x5661756C743A206E6F2066656573000000000000000000000000000000000000 PUSH1 0x44 DUP3 ADD MSTORE PUSH1 0x64 SWAP1 REVERT JUMPDEST POP CALLVALUE PUSH2 0x20C JUMPI PUSH1 0x40 CALLDATASIZE PUSH1 0x3 NOT ADD SLT PUSH2 0x20C JUMPI PUSH1 0x4 CALLDATALOAD SWAP1 PUSH8 0xFFFFFFFFFFFFFFFF DUP3 GT PUSH2 0x20C JUMPI CALLDATASIZE PUSH1 0x23 DUP4 ADD SLT ISZERO PUSH2 0x20C JUMPI DUP2 PUSH1 0x4 ADD CALLDATALOAD PUSH8 0xFFFFFFFFFFFFFFFF DUP2 GT PUSH2 0x6D1 JUMPI PUSH1 0x24 DUP4 ADD SWAP1 CALLDATASIZE PUSH1 0x24 DUP3 DUP7 ADD ADD GT PUSH2 0x6CD JUMPI PUSH1 0x24 CALLDATALOAD PUSH2 0x4B0 PUSH2 0x409B JUMP JUMPDEST DUP1 ISZERO PUSH2 0x688 JUMPI PUSH1 0x40 MLOAD DUP3 DUP5 DUP3 CALLDATACOPY PUSH1 0x20 DUP2 DUP5 DUP2 ADD PUSH1 0x6 DUP2 MSTORE SUB ADD SWAP1 KECCAK256 SLOAD ISZERO PUSH2 0x530 JUMPI JUMPDEST PUSH32 0x9B7659089786673DB414515809F3CF8F9C448294ADEAC6B94A4A3CFF3DA807E SWAP4 SWAP5 POP DUP1 PUSH1 0x40 MLOAD DUP4 DUP6 DUP3 CALLDATACOPY PUSH1 0x20 DUP2 DUP6 DUP2 ADD PUSH1 0x6 DUP2 MSTORE SUB ADD SWAP1 KECCAK256 SSTORE PUSH2 0x524 PUSH1 0x40 MLOAD SWAP4 DUP5 SWAP4 PUSH1 0x40 DUP6 MSTORE PUSH1 0x40 DUP6 ADD SWAP2 PUSH2 0x317F JUMP JUMPDEST SWAP1 PUSH1 0x20 DUP4 ADD MSTORE SUB SWAP1 LOG1 DUP1 RETURN JUMPDEST PUSH1 0x7 SLOAD PUSH9 0x10000000000000000 DUP2 LT ISZERO PUSH2 0x674 JUMPI DUP1 PUSH1 0x1 PUSH2 0x554 SWAP3 ADD PUSH1 0x7 SSTORE PUSH2 0x2ACA JUMP JUMPDEST PUSH2 0x660 JUMPI PUSH2 0x56C DUP4 PUSH2 0x566 DUP4 SLOAD PUSH2 0x2AE5 JUMP JUMPDEST DUP4 PUSH2 0x328A JUMP JUMPDEST DUP5 PUSH1 0x1F DUP5 GT PUSH1 0x1 EQ PUSH2 0x5D6 JUMPI DUP4 DUP1 PUSH2 0x5BD SWAP3 DUP9 SWAP10 PUSH32 0x9B7659089786673DB414515809F3CF8F9C448294ADEAC6B94A4A3CFF3DA807E SWAP10 SWAP3 PUSH2 0x5C8 JUMPI JUMPDEST POP POP DUP2 PUSH1 0x1 SHL SWAP2 PUSH1 0x0 NOT SWAP1 PUSH1 0x3 SHL SHR NOT AND OR SWAP1 JUMP JUMPDEST SWAP1 SSTORE JUMPDEST DUP5 SWAP4 POP PUSH2 0x4D2 JUMP JUMPDEST PUSH1 0x24 SWAP3 POP ADD ADD CALLDATALOAD CODESIZE DUP1 PUSH2 0x5A8 JUMP JUMPDEST PUSH1 0x1F NOT DUP5 AND SWAP7 DUP3 DUP8 MSTORE PUSH1 0x20 DUP8 KECCAK256 SWAP2 DUP8 JUMPDEST DUP10 DUP2 LT PUSH2 0x645 JUMPI POP DUP6 PUSH32 0x9B7659089786673DB414515809F3CF8F9C448294ADEAC6B94A4A3CFF3DA807E SWAP9 SWAP10 LT PUSH2 0x628 JUMPI JUMPDEST POP POP POP PUSH1 0x1 DUP4 DUP2 SHL ADD SWAP1 SSTORE PUSH2 0x5C0 JUMP JUMPDEST ADD PUSH1 0x24 ADD CALLDATALOAD PUSH1 0x0 NOT PUSH1 0x3 DUP7 SWAP1 SHL PUSH1 0xF8 AND SHR NOT AND SWAP1 SSTORE CODESIZE DUP1 DUP1 PUSH2 0x618 JUMP JUMPDEST SWAP1 SWAP3 PUSH1 0x20 PUSH1 0x1 DUP2 SWAP3 PUSH1 0x24 DUP8 DUP8 ADD ADD CALLDATALOAD DUP2 SSTORE ADD SWAP5 ADD SWAP2 ADD PUSH2 0x5E6 JUMP JUMPDEST PUSH4 0x4E487B71 PUSH1 0xE0 SHL DUP6 MSTORE PUSH1 0x4 DUP6 SWAP1 MSTORE PUSH1 0x24 DUP6 REVERT JUMPDEST PUSH4 0x4E487B71 PUSH1 0xE0 SHL DUP6 MSTORE PUSH1 0x41 PUSH1 0x4 MSTORE PUSH1 0x24 DUP6 REVERT JUMPDEST PUSH1 0x40 MLOAD PUSH3 0x461BCD PUSH1 0xE5 SHL DUP2 MSTORE PUSH1 0x20 PUSH1 0x4 DUP3 ADD MSTORE PUSH1 0x12 PUSH1 0x24 DUP3 ADD MSTORE PUSH32 0x5661756C743A207A65726F206665656449640000000000000000000000000000 PUSH1 0x44 DUP3 ADD MSTORE PUSH1 0x64 SWAP1 REVERT JUMPDEST DUP3 DUP1 REVERT JUMPDEST POP DUP1 REVERT JUMPDEST POP CALLVALUE PUSH2 0x20C JUMPI PUSH1 0x20 CALLDATASIZE PUSH1 0x3 NOT ADD SLT PUSH2 0x20C JUMPI DUP1 PUSH1 0x40 MLOAD PUSH2 0x6F4 DUP2 PUSH2 0x2B51 JUMP JUMPDEST DUP2 DUP2 MSTORE DUP2 PUSH1 0x20 DUP3 ADD MSTORE PUSH1 0x40 DUP2 ADD PUSH1 0x60 SWAP1 MSTORE DUP2 PUSH1 0x60 DUP3 ADD MSTORE DUP2 PUSH1 0x80 DUP3 ADD MSTORE DUP2 PUSH1 0xA0 DUP3 ADD MSTORE DUP2 PUSH1 0xC0 DUP3 ADD MSTORE DUP2 PUSH1 0xE0 DUP3 ADD MSTORE DUP2 PUSH2 0x100 DUP3 ADD MSTORE DUP2 PUSH2 0x120 DUP3 ADD MSTORE DUP2 PUSH2 0x140 DUP3 ADD MSTORE DUP2 PUSH2 0x160 DUP3 ADD MSTORE DUP2 PUSH2 0x180 DUP3 ADD MSTORE PUSH2 0x1A0 ADD MSTORE PUSH1 0x4 CALLDATALOAD DUP2 MSTORE PUSH1 0x5 PUSH1 0x20 MSTORE PUSH1 0x40 SWAP1 KECCAK256 PUSH1 0x40 MLOAD PUSH2 0x765 DUP2 PUSH2 0x2B51 JUMP JUMPDEST DUP2 SLOAD DUP2 MSTORE PUSH1 0x1 DUP3 ADD SLOAD PUSH1 0x20 DUP3 ADD SWAP1 DUP2 MSTORE SWAP2 PUSH2 0x782 PUSH1 0x2 DUP3 ADD PUSH2 0x2B90 JUMP JUMPDEST SWAP1 PUSH1 0x40 DUP4 ADD SWAP2 DUP3 MSTORE PUSH1 0x3 DUP2 ADD SLOAD PUSH1 0xFF AND SWAP2 PUSH1 0x60 DUP5 ADD SWAP3 PUSH2 0x7A1 DUP2 PUSH2 0x2C7C JUMP JUMPDEST DUP4 MSTORE PUSH1 0x4 DUP3 ADD SLOAD SWAP2 PUSH1 0x80 DUP6 ADD SWAP3 DUP4 MSTORE PUSH1 0x5 DUP2 ADD SLOAD PUSH1 0xA0 DUP7 ADD SWAP1 DUP2 MSTORE PUSH1 0x6 DUP3 ADD SLOAD PUSH1 0xC0 DUP8 ADD SWAP1 DUP2 MSTORE PUSH1 0x7 DUP4 ADD SLOAD PUSH1 0xE0 DUP9 ADD SWAP1 DUP2 MSTORE PUSH1 0x8 DUP5 ADD SLOAD PUSH1 0x1 PUSH1 0x1 PUSH1 0xA0 SHL SUB AND SWAP1 PUSH2 0x100 DUP10 ADD SWAP2 DUP3 MSTORE PUSH1 0x9 DUP6 ADD SLOAD PUSH1 0x1 PUSH1 0x1 PUSH1 0xA0 SHL SUB AND SWAP3 PUSH2 0x120 DUP11 ADD SWAP4 DUP5 MSTORE PUSH1 0xA DUP7 ADD SLOAD PUSH1 0x1 PUSH1 0x1 PUSH1 0xA0 SHL SUB AND SWAP5 PUSH2 0x140 DUP12 ADD SWAP6 DUP7 MSTORE PUSH1 0xB DUP8 ADD SLOAD SWAP7 PUSH2 0x160 DUP13 ADD SWAP8 DUP9 MSTORE PUSH1 0xC ADD SLOAD SWAP9 PUSH2 0x180 DUP13 ADD SWAP9 PUSH1 0x1 PUSH1 0x1 PUSH1 0xA0 SHL SUB DUP12 AND DUP11 MSTORE PUSH2 0x1A0 DUP14 ADD SWAP11 PUSH1 0xA0 SHR PUSH1 0xFF AND ISZERO ISZERO DUP12 MSTORE PUSH1 0x40 MLOAD DUP1 SWAP15 DUP2 SWAP15 PUSH1 0x20 DUP4 MSTORE MLOAD PUSH1 0x20 DUP4 ADD MSTORE MLOAD SWAP1 PUSH1 0x40 ADD MSTORE MLOAD PUSH1 0x60 DUP14 ADD PUSH2 0x1C0 SWAP1 MSTORE PUSH2 0x1E0 DUP14 ADD PUSH2 0x87D SWAP2 PUSH2 0x2C57 JUMP JUMPDEST SWAP11 MLOAD PUSH2 0x888 DUP2 PUSH2 0x2C7C JUMP JUMPDEST PUSH1 0x80 DUP14 ADD MSTORE MLOAD PUSH1 0xA0 DUP13 ADD MSTORE MLOAD PUSH1 0xC0 DUP12 ADD MSTORE MLOAD PUSH1 0xE0 DUP11 ADD MSTORE MLOAD PUSH2 0x100 DUP10 ADD MSTORE MLOAD PUSH1 0x1 PUSH1 0x1 PUSH1 0xA0 SHL SUB AND PUSH2 0x120 DUP9 ADD MSTORE MLOAD PUSH1 0x1 PUSH1 0x1 PUSH1 0xA0 SHL SUB AND PUSH2 0x140 DUP8 ADD MSTORE MLOAD PUSH1 0x1 PUSH1 0x1 PUSH1 0xA0 SHL SUB AND PUSH2 0x160 DUP7 ADD MSTORE MLOAD PUSH2 0x180 DUP6 ADD MSTORE MLOAD PUSH1 0x1 PUSH1 0x1 PUSH1 0xA0 SHL SUB AND PUSH2 0x1A0 DUP5 ADD MSTORE MLOAD ISZERO ISZERO PUSH2 0x1C0 DUP4 ADD MSTORE SUB SWAP1 RETURN JUMPDEST POP CALLVALUE PUSH2 0x20C JUMPI DUP1 PUSH1 0x3 NOT CALLDATASIZE ADD SLT PUSH2 0x20C JUMPI PUSH1 0x20 PUSH1 0x40 MLOAD PUSH2 0x16D DUP2 MSTORE RETURN JUMPDEST POP CALLVALUE PUSH2 0x20C JUMPI PUSH1 0x20 CALLDATASIZE PUSH1 0x3 NOT ADD SLT PUSH2 0x20C JUMPI PUSH1 0x4 CALLDATALOAD PUSH2 0x934 PUSH2 0x409B JUMP JUMPDEST PUSH8 0x6F05B59D3B20000 DUP2 GT PUSH2 0x975 JUMPI PUSH1 0x20 DUP2 PUSH32 0xE354AE042550A3C46F95E816E18E02CC106E9507CA5CE4A2F41A4A9EE9D9E8E9 SWAP3 PUSH1 0x2 SSTORE PUSH1 0x40 MLOAD SWAP1 DUP2 MSTORE LOG1 DUP1 RETURN JUMPDEST PUSH1 0x40 MLOAD PUSH3 0x461BCD PUSH1 0xE5 SHL DUP2 MSTORE PUSH1 0x20 PUSH1 0x4 DUP3 ADD MSTORE PUSH1 0x11 PUSH1 0x24 DUP3 ADD MSTORE PUSH32 0x5661756C743A2072617465203E20353025000000000000000000000000000000 PUSH1 0x44 DUP3 ADD MSTORE PUSH1 0x64 SWAP1 REVERT JUMPDEST POP CALLVALUE PUSH2 0x20C JUMPI PUSH1 0x20 CALLDATASIZE PUSH1 0x3 NOT ADD SLT PUSH2 0x20C JUMPI PUSH1 0x4 CALLDATALOAD SWAP1 PUSH8 0xFFFFFFFFFFFFFFFF DUP3 GT PUSH2 0x20C JUMPI CALLDATASIZE PUSH1 0x23 DUP4 ADD SLT ISZERO PUSH2 0x20C JUMPI PUSH1 0x20 PUSH2 0xA15 DUP2 PUSH2 0xA02 CALLDATASIZE PUSH1 0x4 DUP8 ADD CALLDATALOAD PUSH1 0x24 DUP9 ADD PUSH2 0x2CB8 JUMP JUMPDEST DUP2 PUSH1 0x40 MLOAD SWAP4 DUP3 DUP6 DUP1 SWAP5 MLOAD SWAP4 DUP5 SWAP3 ADD PUSH2 0x2C34 JUMP JUMPDEST DUP2 ADD PUSH1 0x6 DUP2 MSTORE SUB ADD SWAP1 KECCAK256 SLOAD PUSH1 0x40 MLOAD SWAP1 DUP2 MSTORE RETURN JUMPDEST POP CALLVALUE PUSH2 0x20C JUMPI DUP1 PUSH1 0x3 NOT CALLDATASIZE ADD SLT PUSH2 0x20C JUMPI PUSH1 0x7 SLOAD PUSH8 0xFFFFFFFFFFFFFFFF DUP2 GT PUSH2 0xB17 JUMPI PUSH1 0x40 MLOAD PUSH2 0xA5E PUSH1 0x20 DUP4 PUSH1 0x5 SHL ADD DUP3 PUSH2 0x2B6E JUMP JUMPDEST DUP2 DUP2 MSTORE PUSH1 0x7 DUP4 MSTORE PUSH1 0x20 DUP2 ADD SWAP2 DUP4 PUSH32 0xA66CC928B5EDB82AF9BD49922954155AB7B0942694BEA4CE44661D9A8736C688 DUP5 JUMPDEST DUP4 DUP4 LT PUSH2 0xAFA JUMPI DUP7 DUP6 DUP8 PUSH1 0x40 MLOAD SWAP3 DUP4 SWAP3 PUSH1 0x20 DUP5 ADD SWAP1 PUSH1 0x20 DUP6 MSTORE MLOAD DUP1 SWAP2 MSTORE PUSH1 0x40 DUP5 ADD PUSH1 0x40 DUP3 PUSH1 0x5 SHL DUP7 ADD ADD SWAP4 SWAP3 SWAP1 JUMPDEST DUP3 DUP3 LT PUSH2 0xACB JUMPI POP POP POP POP SUB SWAP1 RETURN JUMPDEST SWAP2 SWAP4 PUSH1 0x1 SWAP2 SWAP4 SWAP6 POP PUSH1 0x20 PUSH2 0xAEA DUP2 SWAP3 PUSH1 0x3F NOT DUP11 DUP3 SUB ADD DUP7 MSTORE DUP9 MLOAD PUSH2 0x2C57 JUMP JUMPDEST SWAP7 ADD SWAP3 ADD SWAP3 ADD DUP6 SWAP5 SWAP4 SWAP2 SWAP3 PUSH2 0xABC JUMP JUMPDEST PUSH1 0x1 PUSH1 0x20 DUP2 SWAP3 PUSH2 0xB09 DUP6 PUSH2 0x2B90 JUMP JUMPDEST DUP2 MSTORE ADD SWAP3 ADD SWAP3 ADD SWAP2 SWAP1 PUSH2 0xA8E JUMP JUMPDEST PUSH4 0x4E487B71 PUSH1 0xE0 SHL DUP3 MSTORE PUSH1 0x41 PUSH1 0x4 MSTORE PUSH1 0x24 DUP3 REVERT JUMPDEST POP CALLVALUE PUSH2 0x20C JUMPI DUP1 PUSH1 0x3 NOT CALLDATASIZE ADD SLT PUSH2 0x20C JUMPI PUSH1 0x20 PUSH1 0x40 MLOAD PUSH2 0xE10 DUP2 MSTORE RETURN JUMPDEST POP CALLVALUE PUSH2 0x20C JUMPI DUP1 PUSH1 0x3 NOT CALLDATASIZE ADD SLT PUSH2 0x20C JUMPI PUSH1 0x40 MLOAD DUP1 PUSH1 0x20 PUSH1 0x9 SLOAD SWAP2 DUP3 DUP2 MSTORE ADD DUP1 SWAP2 PUSH1 0x9 DUP6 MSTORE PUSH32 0x6E1540171B6C0C960B71A7020D9F60077F6AF931A8BBF590DA0223DACF75C7AF SWAP1 DUP6 JUMPDEST DUP2 DUP2 LT PUSH2 0xBF1 JUMPI POP POP POP DUP3 PUSH2 0xBA7 SWAP2 SUB DUP4 PUSH2 0x2B6E JUMP JUMPDEST PUSH1 0x40 MLOAD SWAP3 DUP4 SWAP3 PUSH1 0x20 DUP5 ADD SWAP1 PUSH1 0x20 DUP6 MSTORE MLOAD DUP1 SWAP2 MSTORE PUSH1 0x40 DUP5 ADD SWAP3 SWAP2 JUMPDEST DUP2 DUP2 LT PUSH2 0xBCF JUMPI POP POP POP SUB SWAP1 RETURN JUMPDEST DUP3 MLOAD PUSH1 0x1 PUSH1 0x1 PUSH1 0xA0 SHL SUB AND DUP5 MSTORE DUP6 SWAP5 POP PUSH1 0x20 SWAP4 DUP5 ADD SWAP4 SWAP1 SWAP3 ADD SWAP2 PUSH1 0x1 ADD PUSH2 0xBC1 JUMP JUMPDEST DUP3 SLOAD PUSH1 0x1 PUSH1 0x1 PUSH1 0xA0 SHL SUB AND DUP5 MSTORE PUSH1 0x20 SWAP1 SWAP4 ADD SWAP3 PUSH1 0x1 SWAP3 DUP4 ADD SWAP3 ADD PUSH2 0xB91 JUMP JUMPDEST POP CALLVALUE PUSH2 0x20C JUMPI PUSH1 0x20 CALLDATASIZE PUSH1 0x3 NOT ADD SLT PUSH2 0x20C JUMPI PUSH1 0x4 CALLDATALOAD DUP2 MSTORE PUSH1 0x5 PUSH1 0x20 MSTORE PUSH1 0x40 SWAP1 KECCAK256 DUP1 SLOAD PUSH1 0x1 DUP3 ADD SLOAD SWAP2 PUSH2 0xC44 PUSH1 0x2 DUP3 ADD PUSH2 0x2B90 JUMP JUMPDEST PUSH1 0x3 DUP3 ADD SLOAD PUSH1 0xFF AND SWAP2 PUSH1 0x4 DUP2 ADD SLOAD PUSH1 0x5 DUP3 ADD SLOAD PUSH1 0x6 DUP4 ADD SLOAD PUSH1 0x7 DUP5 ADD SLOAD PUSH1 0x8 DUP6 ADD SLOAD PUSH1 0x1 PUSH1 0x1 PUSH1 0xA0 SHL SUB AND SWAP2 PUSH1 0x9 DUP7 ADD SLOAD PUSH1 0x1 PUSH1 0x1 PUSH1 0xA0 SHL SUB AND SWAP4 PUSH1 0xA DUP8 ADD SLOAD PUSH1 0x1 PUSH1 0x1 PUSH1 0xA0 SHL SUB AND SWAP6 PUSH1 0xB DUP9 ADD SLOAD SWAP8 PUSH1 0xC ADD SLOAD SWAP9 PUSH1 0x40 MLOAD SWAP13 DUP14 SWAP13 DUP14 MSTORE PUSH1 0x20 DUP14 ADD MSTORE PUSH1 0x40 DUP13 ADD PUSH2 0x1C0 SWAP1 MSTORE PUSH2 0x1C0 DUP13 ADD PUSH2 0xCBD SWAP2 PUSH2 0x2C57 JUMP JUMPDEST SWAP10 PUSH2 0xCC7 DUP2 PUSH2 0x2C7C JUMP JUMPDEST PUSH1 0x60 DUP13 ADD MSTORE PUSH1 0x80 DUP12 ADD MSTORE PUSH1 0xA0 DUP11 ADD MSTORE PUSH1 0xC0 DUP10 ADD MSTORE PUSH1 0xE0 DUP9 ADD MSTORE PUSH2 0x100 DUP8 ADD MSTORE PUSH2 0x120 DUP7 ADD MSTORE PUSH2 0x140 DUP6 ADD MSTORE PUSH2 0x160 DUP5 ADD MSTORE PUSH1 0x1 PUSH1 0x1 PUSH1 0xA0 SHL SUB DUP2 AND PUSH2 0x180 DUP5 ADD MSTORE PUSH1 0xA0 SHR PUSH1 0xFF AND ISZERO ISZERO PUSH2 0x1A0 DUP4 ADD MSTORE SUB SWAP1 RETURN JUMPDEST POP CALLVALUE PUSH2 0x20C JUMPI PUSH1 0x40 CALLDATASIZE PUSH1 0x3 NOT ADD SLT PUSH2 0x20C JUMPI PUSH2 0xD34 PUSH2 0x2A6D JUMP JUMPDEST PUSH1 0x1 PUSH1 0x1 PUSH1 0xA0 SHL SUB PUSH1 0x24 CALLDATALOAD SWAP2 PUSH2 0xD48 PUSH2 0x32DC JUMP JUMPDEST AND SWAP1 DUP2 DUP4 MSTORE PUSH1 0x8 PUSH1 0x20 MSTORE PUSH1 0xFF PUSH1 0x40 DUP5 KECCAK256 SLOAD AND ISZERO PUSH2 0xDC3 JUMPI PUSH2 0xD6B DUP2 ADDRESS CALLER DUP6 PUSH2 0x41B5 JUMP JUMPDEST CALLER DUP4 MSTORE PUSH1 0x4 PUSH1 0x20 MSTORE PUSH1 0x40 DUP4 KECCAK256 DUP3 PUSH1 0x0 MSTORE PUSH1 0x20 MSTORE PUSH1 0x40 PUSH1 0x0 KECCAK256 PUSH2 0xD8E DUP3 DUP3 SLOAD PUSH2 0x3172 JUMP JUMPDEST SWAP1 SSTORE PUSH1 0x40 MLOAD SWAP1 DUP2 MSTORE PUSH32 0xF1C0DD7E9B98BBFF859029005EF89B127AF049CD18DF1A8D79F0B7E019911E56 PUSH1 0x20 CALLER SWAP3 LOG3 PUSH1 0x1 DUP2 SSTORE DUP1 RETURN JUMPDEST PUSH4 0x2762993F PUSH1 0xE1 SHL DUP4 MSTORE PUSH1 0x4 DUP3 SWAP1 MSTORE PUSH1 0x24 DUP4 REVERT JUMPDEST POP CALLVALUE PUSH2 0x20C JUMPI PUSH1 0x20 CALLDATASIZE PUSH1 0x3 NOT ADD SLT PUSH2 0x20C JUMPI PUSH1 0x4 CALLDATALOAD PUSH1 0x7 SLOAD DUP2 LT ISZERO PUSH2 0x6D1 JUMPI PUSH2 0xDFF SWAP1 PUSH2 0x2ACA JUMP JUMPDEST SWAP2 SWAP1 SWAP2 PUSH2 0xE2A JUMPI PUSH2 0xE26 PUSH2 0xE12 DUP4 PUSH2 0x2B90 JUMP JUMPDEST PUSH1 0x40 MLOAD SWAP2 DUP3 SWAP2 PUSH1 0x20 DUP4 MSTORE PUSH1 0x20 DUP4 ADD SWAP1 PUSH2 0x2C57 JUMP JUMPDEST SUB SWAP1 RETURN JUMPDEST PUSH4 0x4E487B71 PUSH1 0xE0 SHL DUP2 MSTORE PUSH1 0x4 DUP2 SWAP1 MSTORE PUSH1 0x24 SWAP1 REVERT JUMPDEST POP CALLVALUE PUSH2 0x20C JUMPI DUP1 PUSH1 0x3 NOT CALLDATASIZE ADD SLT PUSH2 0x20C JUMPI PUSH1 0x20 PUSH1 0x1 PUSH1 0x1 PUSH1 0xA0 SHL SUB PUSH1 0x1 SLOAD AND PUSH1 0x40 MLOAD SWAP1 DUP2 MSTORE RETURN JUMPDEST POP PUSH1 0x40 CALLDATASIZE PUSH1 0x3 NOT ADD SLT PUSH2 0x20C JUMPI PUSH1 0x4 CALLDATALOAD SWAP1 PUSH8 0xFFFFFFFFFFFFFFFF DUP3 GT PUSH2 0x20C JUMPI PUSH2 0x100 PUSH1 0x3 NOT DUP4 CALLDATASIZE SUB ADD SLT PUSH2 0x20C JUMPI PUSH1 0x24 CALLDATALOAD PUSH2 0xE9F PUSH2 0x32DC JUMP JUMPDEST PUSH2 0xEA7 PUSH2 0x412F JUMP JUMPDEST PUSH1 0x20 PUSH2 0xEB6 PUSH1 0x4 DUP6 ADD DUP1 PUSH2 0x30B9 JUMP JUMPDEST SWAP2 SWAP1 DUP3 PUSH1 0x40 MLOAD SWAP4 DUP5 SWAP3 DUP4 CALLDATACOPY DUP2 ADD PUSH1 0x6 DUP2 MSTORE SUB ADD SWAP1 KECCAK256 SLOAD ISZERO PUSH2 0x1D97 JUMPI PUSH1 0x1 PUSH1 0x1 PUSH1 0xA0 SHL SUB PUSH2 0xEE5 PUSH1 0xC4 DUP6 ADD PUSH2 0x3269 JUMP JUMPDEST AND DUP3 MSTORE PUSH1 0x8 PUSH1 0x20 MSTORE PUSH1 0xFF PUSH1 0x40 DUP4 KECCAK256 SLOAD AND ISZERO PUSH2 0x1D70 JUMPI PUSH1 0x84 DUP4 ADD CALLDATALOAD ISZERO PUSH2 0x1D61 JUMPI PUSH1 0x44 DUP4 ADD CALLDATALOAD ISZERO PUSH2 0x1D52 JUMPI PUSH2 0xE10 TIMESTAMP ADD DUP1 TIMESTAMP GT PUSH2 0x1D3E JUMPI PUSH4 0x1E13380 TIMESTAMP ADD SWAP1 DUP2 TIMESTAMP GT PUSH2 0x1D2A JUMPI PUSH1 0x64 DUP6 ADD CALLDATALOAD LT PUSH2 0x1D13 JUMPI DUP1 PUSH1 0x64 DUP6 ADD CALLDATALOAD GT PUSH2 0x1CF8 JUMPI POP DUP3 PUSH2 0xF66 PUSH2 0xF61 PUSH2 0xF5A PUSH2 0xFC0 SWAP6 SWAP7 PUSH1 0x4 ADD DUP5 PUSH1 0x4 ADD PUSH2 0x30B9 JUMP JUMPDEST CALLDATASIZE SWAP2 PUSH2 0x2CB8 JUMP JUMPDEST PUSH2 0x34C4 JUMP JUMPDEST PUSH1 0x1 PUSH1 0x1 PUSH1 0xA0 SHL SUB PUSH32 0x0 AND DUP6 PUSH1 0xE4 DUP5 ADD PUSH1 0x20 PUSH2 0xFA4 DUP3 DUP8 PUSH1 0x4 ADD PUSH2 0x3233 JUMP JUMPDEST PUSH1 0x40 MLOAD PUSH4 0xD47EED45 PUSH1 0xE0 SHL DUP2 MSTORE SWAP10 DUP11 SWAP3 DUP4 SWAP3 SWAP1 PUSH1 0x4 DUP5 ADD PUSH2 0x31A0 JUMP JUMPDEST SUB DUP2 DUP7 GAS STATICCALL SWAP7 DUP8 ISZERO PUSH2 0x1CB4 JUMPI DUP3 SWAP8 PUSH2 0x1CBF JUMPI JUMPDEST POP PUSH2 0xFE1 SWAP1 DUP6 PUSH1 0x4 ADD PUSH2 0x3233 JUMP JUMPDEST SWAP1 DUP4 EXTCODESIZE ISZERO PUSH2 0x6CD JUMPI PUSH1 0x40 MLOAD PUSH4 0x1DF3CBC5 PUSH1 0xE3 SHL DUP2 MSTORE SWAP2 DUP4 SWAP2 DUP4 SWAP2 DUP3 SWAP2 PUSH2 0x100B SWAP2 SWAP1 PUSH1 0x4 DUP5 ADD PUSH2 0x31A0 JUMP JUMPDEST SUB DUP2 DUP11 DUP8 GAS CALL DUP1 ISZERO PUSH2 0x1CB4 JUMPI PUSH2 0x1C9B JUMPI JUMPDEST POP POP PUSH1 0x80 PUSH1 0x44 SWAP2 PUSH1 0x40 MLOAD SWAP3 DUP4 DUP1 SWAP3 PUSH4 0x52571AF PUSH1 0xE5 SHL DUP3 MSTORE DUP7 PUSH1 0x4 DUP4 ADD MSTORE PUSH1 0x3C PUSH1 0x24 DUP4 ADD MSTORE GAS STATICCALL DUP1 ISZERO PUSH2 0x19CF JUMPI PUSH2 0x1068 SWAP2 DUP8 SWAP2 PUSH2 0x1C6C JUMPI JUMPDEST POP PUSH1 0x40 DUP2 MLOAD PUSH1 0x7 SIGNEXTEND SWAP2 ADD MLOAD PUSH1 0x3 SIGNEXTEND SWAP1 PUSH2 0x3340 JUMP JUMPDEST PUSH1 0x2 SLOAD PUSH2 0x1081 PUSH2 0x107C TIMESTAMP PUSH1 0x64 DUP8 ADD CALLDATALOAD PUSH2 0x30EC JUMP JUMPDEST PUSH2 0x3514 JUMP JUMPDEST PUSH1 0x2 PUSH1 0x24 DUP7 ADD CALLDATALOAD LT ISZERO PUSH2 0x1C68 JUMPI PUSH8 0xDE0B6B3A7640000 SWAP2 PUSH2 0x1118 SWAP2 PUSH2 0x10A9 PUSH1 0x24 DUP9 ADD CALLDATALOAD PUSH2 0x2C7C JUMP JUMPDEST PUSH2 0x10B9 PUSH1 0xFF PUSH1 0x24 DUP10 ADD CALLDATALOAD AND PUSH2 0x2C7C JUMP JUMPDEST PUSH1 0x40 MLOAD SWAP2 PUSH2 0x10C6 DUP4 PUSH2 0x2B1F JUMP JUMPDEST DUP6 DUP4 MSTORE PUSH1 0x44 DUP9 ADD CALLDATALOAD PUSH1 0x20 DUP5 ADD MSTORE PUSH1 0xA4 DUP9 ADD CALLDATALOAD PUSH1 0x40 DUP5 ADD MSTORE PUSH1 0x60 DUP4 ADD MSTORE PUSH1 0x80 DUP3 ADD MSTORE PUSH2 0x10F7 PUSH1 0xFF PUSH1 0x24 DUP9 ADD CALLDATALOAD AND PUSH2 0x2C7C JUMP JUMPDEST PUSH1 0xFF PUSH1 0x24 DUP8 ADD CALLDATALOAD AND PUSH1 0xA0 DUP3 ADD MSTORE PUSH2 0x1112 PUSH1 0x84 DUP8 ADD CALLDATALOAD SWAP2 PUSH2 0x3707 JUMP JUMPDEST MLOAD PUSH2 0x310F JUMP JUMPDEST DIV SWAP4 DUP1 DUP6 GT PUSH2 0x1C51 JUMPI POP PUSH2 0x1147 SWAP1 PUSH2 0x1132 PUSH1 0xC4 DUP6 ADD PUSH2 0x3269 JUMP JUMPDEST POP PUSH1 0x84 DUP5 ADD CALLDATALOAD PUSH1 0x44 DUP6 ADD CALLDATALOAD PUSH1 0x24 DUP7 ADD CALLDATALOAD PUSH2 0x4183 JUMP JUMPDEST SWAP4 CALLER DUP7 MSTORE PUSH1 0x4 PUSH1 0x20 MSTORE PUSH1 0x40 DUP7 KECCAK256 PUSH1 0x1 PUSH1 0x1 PUSH1 0xA0 SHL SUB PUSH2 0x1168 PUSH1 0xC4 DUP7 ADD PUSH2 0x3269 JUMP JUMPDEST AND PUSH1 0x0 MSTORE PUSH1 0x20 MSTORE PUSH1 0x40 PUSH1 0x0 KECCAK256 SLOAD DUP6 DUP2 LT PUSH2 0x1C3A JUMPI POP CALLER DUP7 MSTORE PUSH1 0x4 PUSH1 0x20 MSTORE PUSH1 0x40 DUP7 KECCAK256 PUSH1 0x1 PUSH1 0x1 PUSH1 0xA0 SHL SUB PUSH2 0x119D PUSH1 0xC4 DUP7 ADD PUSH2 0x3269 JUMP JUMPDEST AND PUSH1 0x0 MSTORE PUSH1 0x20 MSTORE PUSH1 0x40 PUSH1 0x0 KECCAK256 PUSH2 0x11B4 DUP7 DUP3 SLOAD PUSH2 0x30EC JUMP JUMPDEST SWAP1 SSTORE PUSH7 0xAA87BEE538000 DUP5 MUL DUP5 DUP2 DIV PUSH7 0xAA87BEE538000 EQ DUP6 ISZERO OR ISZERO PUSH2 0x1C26 JUMPI PUSH8 0xDE0B6B3A7640000 SWAP1 DIV SWAP1 PUSH2 0x11EA DUP3 DUP7 PUSH2 0x30EC JUMP JUMPDEST SWAP1 PUSH1 0x1 PUSH1 0x1 PUSH1 0xA0 SHL SUB PUSH2 0x11FF PUSH1 0xC4 DUP8 ADD PUSH2 0x3269 JUMP JUMPDEST AND PUSH2 0x1B98 JUMPI PUSH2 0x120E DUP7 DUP3 PUSH2 0x3172 JUMP JUMPDEST CALLVALUE LT PUSH2 0x1B53 JUMPI DUP6 DUP2 PUSH2 0x1221 DUP3 DUP12 SWAP5 PUSH2 0x3172 JUMP JUMPDEST CALLVALUE GT PUSH2 0x1ADF JUMPI JUMPDEST POP POP POP CALLER DUP8 MSTORE PUSH1 0x4 PUSH1 0x20 MSTORE PUSH2 0x124D PUSH1 0x40 DUP1 DUP10 KECCAK256 PUSH1 0x0 SWAP1 DUP2 DUP1 MSTORE PUSH1 0x20 MSTORE KECCAK256 SWAP2 DUP3 SLOAD PUSH2 0x3172 JUMP JUMPDEST SWAP1 SSTORE DUP6 DUP1 MSTORE PUSH1 0x3 PUSH1 0x20 MSTORE PUSH1 0x40 DUP7 KECCAK256 PUSH2 0x1266 DUP3 DUP3 SLOAD PUSH2 0x3172 JUMP JUMPDEST SWAP1 SSTORE JUMPDEST PUSH32 0x6C5EFEFF5C320943D265DC4E5F1AF95AD523555CE0C1957E367DDA5514572DF PUSH1 0x20 PUSH1 0x1 PUSH1 0x1 PUSH1 0xA0 SHL SUB PUSH2 0x12A0 PUSH1 0xC4 DUP8 ADD PUSH2 0x3269 JUMP JUMPDEST AND SWAP3 PUSH1 0x40 MLOAD SWAP1 DUP2 MSTORE LOG2 PUSH2 0x12B6 PUSH1 0x4 DUP4 ADD DUP1 PUSH2 0x30B9 JUMP JUMPDEST SWAP5 SWAP1 PUSH2 0x12C5 PUSH1 0x24 DUP6 ADD CALLDATALOAD PUSH2 0x2C7C JUMP JUMPDEST PUSH2 0x12D5 PUSH1 0xFF PUSH1 0x24 DUP7 ADD CALLDATALOAD AND PUSH2 0x2C7C JUMP JUMPDEST PUSH2 0x12E1 PUSH1 0xC4 DUP6 ADD PUSH2 0x3269 JUMP JUMPDEST SWAP1 PUSH1 0x40 MLOAD SWAP7 DUP8 PUSH2 0x180 DUP2 ADD LT PUSH8 0xFFFFFFFFFFFFFFFF PUSH2 0x180 DUP11 ADD GT OR PUSH2 0x1ACB JUMPI PUSH1 0x1 PUSH1 0x1 PUSH1 0xA0 SHL SUB SWAP3 SWAP2 PUSH2 0x1321 SWAP2 PUSH2 0x180 DUP11 ADD PUSH1 0x40 MSTORE DUP7 DUP11 MSTORE CALLDATASIZE SWAP2 PUSH2 0x2CB8 JUMP JUMPDEST PUSH1 0x20 DUP9 ADD MSTORE PUSH2 0x1336 PUSH1 0xFF PUSH1 0x24 DUP8 ADD CALLDATALOAD AND PUSH2 0x2C7C JUMP JUMPDEST PUSH1 0xFF PUSH1 0x24 DUP7 ADD CALLDATALOAD AND PUSH1 0x40 DUP9 ADD MSTORE PUSH1 0x44 DUP6 ADD CALLDATALOAD PUSH1 0x60 DUP9 ADD MSTORE PUSH1 0x64 DUP6 ADD CALLDATALOAD PUSH1 0x80 DUP9 ADD MSTORE PUSH1 0x84 DUP6 ADD CALLDATALOAD PUSH1 0xA0 DUP9 ADD MSTORE DUP6 PUSH1 0xC0 DUP9 ADD MSTORE CALLER PUSH1 0xE0 DUP9 ADD MSTORE AND PUSH2 0x100 DUP7 ADD MSTORE DUP6 PUSH2 0x120 DUP7 ADD MSTORE DUP6 PUSH2 0x140 DUP7 ADD MSTORE TIMESTAMP PUSH2 0x160 DUP7 ADD MSTORE PUSH1 0x20 PUSH1 0x40 MLOAD DUP1 DUP1 SWAP8 PUSH4 0x25D4A65B PUSH1 0xE0 SHL DUP3 MSTORE CALLER PUSH1 0x4 DUP4 ADD MSTORE PUSH1 0x40 PUSH1 0x24 DUP4 ADD MSTORE DUP1 MLOAD PUSH1 0x44 DUP4 ADD MSTORE PUSH2 0x160 PUSH2 0x13CC DUP6 DUP4 ADD MLOAD PUSH2 0x180 PUSH1 0x64 DUP7 ADD MSTORE PUSH2 0x1C4 DUP6 ADD SWAP1 PUSH2 0x2C57 JUMP JUMPDEST SWAP2 PUSH1 0x40 DUP2 ADD MLOAD PUSH2 0x13DB DUP2 PUSH2 0x2C7C JUMP JUMPDEST PUSH1 0x84 DUP6 ADD MSTORE PUSH1 0x60 DUP2 ADD MLOAD PUSH1 0xA4 DUP6 ADD MSTORE PUSH1 0x80 DUP2 ADD MLOAD PUSH1 0xC4 DUP6 ADD MSTORE PUSH1 0xA0 DUP2 ADD MLOAD PUSH1 0xE4 DUP6 ADD MSTORE PUSH1 0xC0 DUP2 ADD MLOAD PUSH2 0x104 DUP6 ADD MSTORE PUSH1 0x1 PUSH1 0x1 PUSH1 0xA0 SHL SUB PUSH1 0xE0 DUP3 ADD MLOAD AND PUSH2 0x124 DUP6 ADD MSTORE PUSH1 0x1 PUSH1 0x1 PUSH1 0xA0 SHL SUB PUSH2 0x100 DUP3 ADD MLOAD AND PUSH2 0x144 DUP6 ADD MSTORE PUSH1 0x1 PUSH1 0x1 PUSH1 0xA0 SHL SUB PUSH2 0x120 DUP3 ADD MLOAD AND PUSH2 0x164 DUP6 ADD MSTORE PUSH2 0x145B PUSH2 0x140 DUP3 ADD MLOAD PUSH2 0x184 DUP7 ADD SWAP1 PUSH2 0x327D JUMP JUMPDEST ADD MLOAD PUSH2 0x1A4 DUP4 ADD MSTORE SUB DUP2 DUP10 PUSH1 0x1 PUSH1 0x1 PUSH1 0xA0 SHL SUB PUSH32 0x0 AND GAS CALL SWAP5 DUP6 ISZERO PUSH2 0x19CF JUMPI DUP7 SWAP6 PUSH2 0x1A92 JUMPI JUMPDEST POP PUSH1 0x1 PUSH1 0x1 PUSH1 0xA0 SHL SUB PUSH2 0x14E4 PUSH2 0x14B9 PUSH1 0x4 DUP7 ADD DUP1 PUSH2 0x30B9 JUMP JUMPDEST SWAP2 SWAP1 PUSH2 0x14C7 PUSH1 0xC4 DUP9 ADD PUSH2 0x3269 JUMP JUMPDEST SWAP3 PUSH1 0x40 MLOAD SWAP7 PUSH2 0x14D5 DUP9 PUSH2 0x2B51 JUMP JUMPDEST DUP11 DUP9 MSTORE PUSH1 0x20 DUP9 ADD MSTORE CALLDATASIZE SWAP2 PUSH2 0x2CB8 JUMP JUMPDEST PUSH1 0x40 DUP6 ADD MSTORE PUSH2 0x14F6 PUSH1 0x24 DUP7 ADD CALLDATALOAD PUSH2 0x2C7C JUMP JUMPDEST PUSH1 0x24 DUP6 ADD CALLDATALOAD PUSH1 0x60 DUP6 ADD MSTORE PUSH1 0x44 DUP6 ADD CALLDATALOAD PUSH1 0x80 DUP6 ADD MSTORE PUSH1 0x64 DUP6 ADD CALLDATALOAD PUSH1 0xA0 DUP6 ADD MSTORE PUSH1 0x84 DUP6 ADD CALLDATALOAD PUSH1 0xC0 DUP6 ADD MSTORE DUP6 PUSH1 0xE0 DUP6 ADD MSTORE CALLER PUSH2 0x100 DUP6 ADD MSTORE CALLER PUSH2 0x120 DUP6 ADD MSTORE AND PUSH2 0x140 DUP4 ADD MSTORE PUSH2 0x160 DUP3 ADD MSTORE DUP5 PUSH2 0x180 DUP3 ADD MSTORE DUP5 PUSH2 0x1A0 DUP3 ADD MSTORE DUP4 DUP6 MSTORE PUSH1 0x5 PUSH1 0x20 MSTORE PUSH1 0x40 DUP6 KECCAK256 DUP2 MLOAD DUP2 SSTORE PUSH1 0x20 DUP3 ADD MLOAD PUSH1 0x1 DUP3 ADD SSTORE PUSH1 0x40 DUP3 ADD MLOAD DUP1 MLOAD SWAP1 PUSH8 0xFFFFFFFFFFFFFFFF DUP3 GT PUSH2 0x1A7E JUMPI PUSH2 0x1598 DUP3 PUSH2 0x158F PUSH1 0x2 DUP7 ADD SLOAD PUSH2 0x2AE5 JUMP JUMPDEST PUSH1 0x2 DUP7 ADD PUSH2 0x328A JUMP JUMPDEST PUSH1 0x20 SWAP1 PUSH1 0x1F DUP4 GT PUSH1 0x1 EQ PUSH2 0x1A0C JUMPI DUP3 PUSH1 0xC SWAP4 PUSH2 0x1A0 SWAP6 SWAP4 PUSH2 0x15CE SWAP4 DUP13 SWAP3 PUSH2 0x1A01 JUMPI POP POP DUP2 PUSH1 0x1 SHL SWAP2 PUSH1 0x0 NOT SWAP1 PUSH1 0x3 SHL SHR NOT AND OR SWAP1 JUMP JUMPDEST PUSH1 0x2 DUP3 ADD SSTORE JUMPDEST PUSH1 0x3 DUP2 ADD PUSH1 0x60 DUP6 ADD MLOAD PUSH2 0x15E6 DUP2 PUSH2 0x2C7C JUMP JUMPDEST PUSH2 0x15EF DUP2 PUSH2 0x2C7C JUMP JUMPDEST PUSH1 0xFF DUP1 NOT DUP4 SLOAD AND SWAP2 AND OR SWAP1 SSTORE PUSH1 0x80 DUP5 ADD MLOAD PUSH1 0x4 DUP3 ADD SSTORE PUSH1 0xA0 DUP5 ADD MLOAD PUSH1 0x5 DUP3 ADD SSTORE PUSH1 0xC0 DUP5 ADD MLOAD PUSH1 0x6 DUP3 ADD SSTORE PUSH1 0xE0 DUP5 ADD MLOAD PUSH1 0x7 DUP3 ADD SSTORE PUSH1 0x1 PUSH1 0x1 PUSH1 0xA0 SHL SUB PUSH2 0x100 DUP6 ADD MLOAD AND PUSH1 0x1 PUSH1 0x1 PUSH1 0xA0 SHL SUB PUSH1 0x8 DUP4 ADD SWAP2 AND PUSH1 0x1 PUSH1 0x1 PUSH1 0xA0 SHL SUB NOT DUP3 SLOAD AND OR SWAP1 SSTORE PUSH1 0x1 PUSH1 0x1 PUSH1 0xA0 SHL SUB PUSH2 0x120 DUP6 ADD MLOAD AND PUSH1 0x1 PUSH1 0x1 PUSH1 0xA0 SHL SUB PUSH1 0x9 DUP4 ADD SWAP2 AND PUSH1 0x1 PUSH1 0x1 PUSH1 0xA0 SHL SUB NOT DUP3 SLOAD AND OR SWAP1 SSTORE PUSH1 0x1 PUSH1 0x1 PUSH1 0xA0 SHL SUB PUSH2 0x140 DUP6 ADD MLOAD AND PUSH1 0x1 PUSH1 0x1 PUSH1 0xA0 SHL SUB PUSH1 0xA DUP4 ADD SWAP2 AND PUSH1 0x1 PUSH1 0x1 PUSH1 0xA0 SHL SUB NOT DUP3 SLOAD AND OR SWAP1 SSTORE PUSH2 0x160 DUP5 ADD MLOAD PUSH1 0xB DUP3 ADD SSTORE ADD SWAP2 PUSH1 0x1 PUSH1 0x1 PUSH1 0xA0 SHL SUB DUP1 PUSH2 0x180 DUP4 ADD MLOAD AND AND PUSH1 0x1 PUSH1 0x1 PUSH1 0xA0 SHL SUB NOT DUP5 SLOAD AND OR DUP4 SSTORE ADD MLOAD ISZERO ISZERO PUSH1 0xFF PUSH1 0xA0 SHL NOT PUSH21 0xFF0000000000000000000000000000000000000000 DUP4 SLOAD SWAP3 PUSH1 0xA0 SHL AND SWAP2 AND OR SWAP1 SSTORE PUSH1 0x40 MLOAD PUSH3 0x5E24DD PUSH1 0xE3 SHL PUSH1 0x20 DUP3 ADD MSTORE DUP4 PUSH1 0x24 DUP3 ADD MSTORE PUSH1 0x24 DUP2 MSTORE PUSH2 0x1724 PUSH1 0x44 DUP3 PUSH2 0x2B6E JUMP JUMPDEST PUSH1 0x40 MLOAD SWAP1 PUSH1 0xE0 DUP3 ADD DUP3 DUP2 LT PUSH8 0xFFFFFFFFFFFFFFFF DUP3 GT OR PUSH2 0x19ED JUMPI SWAP2 PUSH2 0x17C4 PUSH2 0x17F3 DUP9 SWAP5 SWAP4 DUP6 SWAP5 PUSH1 0x40 MSTORE ADDRESS DUP5 MSTORE PUSH1 0x20 DUP5 ADD SWAP1 DUP2 MSTORE PUSH1 0x40 DUP5 ADD PUSH1 0x64 DUP9 ADD CALLDATALOAD DUP2 MSTORE DUP10 PUSH1 0x1 PUSH1 0x1 PUSH1 0xA0 SHL SUB PUSH1 0x60 DUP8 ADD PUSH3 0x493E0 DUP2 MSTORE PUSH1 0x80 DUP9 ADD DUP10 DUP2 MSTORE PUSH1 0xA0 DUP10 ADD SWAP2 ADDRESS DUP4 MSTORE PUSH1 0xC0 DUP11 ADD SWAP5 DUP6 MSTORE PUSH1 0x40 MLOAD SWAP9 DUP10 SWAP8 DUP6 PUSH1 0x20 DUP11 ADD SWAP13 DUP14 PUSH4 0x10296775 PUSH1 0xE2 SHL SWAP1 MSTORE PUSH1 0x20 PUSH1 0x24 DUP13 ADD MSTORE MLOAD AND PUSH1 0x44 DUP11 ADD MSTORE MLOAD PUSH1 0xE0 PUSH1 0x64 DUP11 ADD MSTORE PUSH2 0x124 DUP10 ADD SWAP1 PUSH2 0x2C57 JUMP JUMPDEST SWAP6 MLOAD PUSH1 0x84 DUP9 ADD MSTORE MLOAD PUSH1 0xA4 DUP8 ADD MSTORE MLOAD PUSH1 0xC4 DUP7 ADD MSTORE MLOAD AND PUSH1 0xE4 DUP5 ADD MSTORE MLOAD PUSH2 0x104 DUP4 ADD MSTORE SUB PUSH1 0x1F NOT DUP2 ADD DUP4 MSTORE DUP3 PUSH2 0x2B6E JUMP JUMPDEST MLOAD SWAP1 DUP3 PUSH1 0x1 PUSH1 0x1 PUSH1 0xA0 SHL SUB PUSH32 0x0 AND GAS CALL PUSH2 0x182A PUSH2 0x3142 JUMP JUMPDEST SWAP1 DUP1 PUSH2 0x19E1 JUMPI JUMPDEST ISZERO PUSH2 0x19DA JUMPI PUSH1 0x20 DUP2 DUP1 MLOAD DUP2 ADD SUB SLT PUSH2 0x19CB JUMPI PUSH1 0x20 ADD MLOAD PUSH1 0x1 PUSH1 0x1 PUSH1 0xA0 SHL SUB DUP2 AND DUP1 SWAP2 SUB PUSH2 0x19CB JUMPI JUMPDEST DUP4 DUP6 MSTORE PUSH1 0x5 PUSH1 0x20 MSTORE PUSH1 0xC PUSH1 0x40 DUP7 KECCAK256 ADD PUSH1 0x1 PUSH1 0x1 PUSH1 0xA0 SHL SUB DUP3 AND PUSH1 0x1 PUSH1 0x1 PUSH1 0xA0 SHL SUB NOT DUP3 SLOAD AND OR SWAP1 SSTORE PUSH1 0x1 PUSH1 0x1 PUSH1 0xA0 SHL SUB PUSH32 0x0 AND EXTCODESIZE ISZERO PUSH2 0x19CB JUMPI PUSH1 0x1 PUSH1 0x1 PUSH1 0xA0 SHL SUB PUSH1 0x40 MLOAD SWAP2 PUSH4 0x710B7C2F PUSH1 0xE0 SHL DUP4 MSTORE DUP6 PUSH1 0x4 DUP5 ADD MSTORE AND SWAP1 DUP2 PUSH1 0x24 DUP3 ADD MSTORE DUP6 DUP2 PUSH1 0x44 DUP2 DUP4 PUSH1 0x1 PUSH1 0x1 PUSH1 0xA0 SHL SUB PUSH32 0x0 AND GAS CALL DUP1 ISZERO PUSH2 0x19CF JUMPI PUSH2 0x19B6 JUMPI JUMPDEST POP SWAP4 PUSH2 0x1942 DUP3 PUSH1 0x40 SWAP7 PUSH1 0x64 PUSH2 0x192F PUSH1 0x1 SWAP7 PUSH1 0x4 ADD DUP5 PUSH1 0x4 ADD PUSH2 0x30B9 JUMP JUMPDEST SWAP5 SWAP1 DUP11 MLOAD SWAP6 PUSH1 0xE0 DUP8 MSTORE PUSH1 0xE0 DUP8 ADD SWAP2 PUSH2 0x317F JUMP JUMPDEST SWAP3 PUSH2 0x1950 PUSH1 0x24 DUP3 ADD CALLDATALOAD PUSH2 0x2C7C JUMP JUMPDEST PUSH1 0x24 DUP2 ADD CALLDATALOAD PUSH1 0x20 DUP7 ADD MSTORE PUSH1 0x44 DUP2 ADD CALLDATALOAD DUP11 DUP7 ADD MSTORE PUSH1 0x84 DUP2 ADD CALLDATALOAD PUSH1 0x60 DUP7 ADD MSTORE ADD CALLDATALOAD PUSH1 0x80 DUP5 ADD MSTORE DUP6 PUSH1 0xA0 DUP5 ADD MSTORE PUSH1 0xC0 DUP4 ADD MSTORE DUP6 PUSH32 0xF71390C9FF0D8745CBBE26F8658F1259EDFC5405BAFB12E4BCDC3718492AB00A CALLER SWAP4 DUP1 CALLER SWAP5 SUB SWAP1 LOG4 SSTORE DUP3 MLOAD SWAP2 DUP3 MSTORE PUSH1 0x20 DUP3 ADD MSTORE RETURN JUMPDEST PUSH2 0x19C1 DUP7 DUP1 SWAP3 PUSH2 0x2B6E JUMP JUMPDEST PUSH2 0x19CB JUMPI CODESIZE PUSH2 0x1912 JUMP JUMPDEST DUP5 DUP1 REVERT JUMPDEST PUSH1 0x40 MLOAD RETURNDATASIZE DUP9 DUP3 RETURNDATACOPY RETURNDATASIZE SWAP1 REVERT JUMPDEST POP DUP4 PUSH2 0x1859 JUMP JUMPDEST POP PUSH1 0x20 DUP2 MLOAD LT ISZERO PUSH2 0x1831 JUMP JUMPDEST PUSH4 0x4E487B71 PUSH1 0xE0 SHL DUP8 MSTORE PUSH1 0x41 PUSH1 0x4 MSTORE PUSH1 0x24 DUP8 REVERT JUMPDEST ADD MLOAD SWAP1 POP CODESIZE DUP1 PUSH2 0x5A8 JUMP JUMPDEST SWAP1 PUSH1 0x2 DUP5 ADD DUP10 MSTORE DUP1 DUP10 KECCAK256 SWAP2 DUP10 JUMPDEST PUSH1 0x1F NOT DUP6 AND DUP2 LT PUSH2 0x1A66 JUMPI POP SWAP3 PUSH2 0x1A0 SWAP5 SWAP3 PUSH1 0x1 SWAP3 PUSH1 0xC SWAP6 DUP4 PUSH1 0x1F NOT DUP2 AND LT PUSH2 0x1A4D JUMPI JUMPDEST POP POP POP DUP2 SHL ADD PUSH1 0x2 DUP3 ADD SSTORE PUSH2 0x15D4 JUMP JUMPDEST ADD MLOAD PUSH1 0x0 NOT PUSH1 0xF8 DUP5 PUSH1 0x3 SHL AND SHR NOT AND SWAP1 SSTORE CODESIZE DUP1 DUP1 PUSH2 0x1A3D JUMP JUMPDEST SWAP2 SWAP3 PUSH1 0x20 PUSH1 0x1 DUP2 SWAP3 DUP7 DUP6 ADD MLOAD DUP2 SSTORE ADD SWAP5 ADD SWAP3 ADD PUSH2 0x1A19 JUMP JUMPDEST PUSH4 0x4E487B71 PUSH1 0xE0 SHL DUP9 MSTORE PUSH1 0x41 PUSH1 0x4 MSTORE PUSH1 0x24 DUP9 REVERT JUMPDEST SWAP1 SWAP5 POP PUSH1 0x20 DUP2 RETURNDATASIZE PUSH1 0x20 GT PUSH2 0x1AC3 JUMPI JUMPDEST DUP2 PUSH2 0x1AAE PUSH1 0x20 SWAP4 DUP4 PUSH2 0x2B6E JUMP JUMPDEST DUP2 ADD SUB SLT PUSH2 0x1ABE JUMPI MLOAD SWAP4 CODESIZE PUSH2 0x14A0 JUMP JUMPDEST PUSH1 0x0 DUP1 REVERT JUMPDEST RETURNDATASIZE SWAP2 POP PUSH2 0x1AA1 JUMP JUMPDEST PUSH4 0x4E487B71 PUSH1 0xE0 SHL DUP10 MSTORE PUSH1 0x41 PUSH1 0x4 MSTORE PUSH1 0x24 DUP10 REVERT JUMPDEST DUP3 PUSH2 0x1AF5 DUP2 SWAP4 PUSH2 0x1AF0 DUP4 SWAP5 CALLVALUE PUSH2 0x30EC JUMP JUMPDEST PUSH2 0x30EC JUMP JUMPDEST CALLER GAS CALL PUSH2 0x1B00 PUSH2 0x3142 JUMP JUMPDEST POP ISZERO PUSH2 0x1B0E JUMPI DUP7 DUP6 CODESIZE PUSH2 0x1228 JUMP JUMPDEST PUSH1 0x40 MLOAD PUSH3 0x461BCD PUSH1 0xE5 SHL DUP2 MSTORE PUSH1 0x20 PUSH1 0x4 DUP3 ADD MSTORE PUSH1 0x19 PUSH1 0x24 DUP3 ADD MSTORE PUSH32 0x5661756C743A204842415220726566756E64206661696C656400000000000000 PUSH1 0x44 DUP3 ADD MSTORE PUSH1 0x64 SWAP1 REVERT JUMPDEST PUSH1 0x40 MLOAD PUSH3 0x461BCD PUSH1 0xE5 SHL DUP2 MSTORE PUSH1 0x20 PUSH1 0x4 DUP3 ADD MSTORE PUSH1 0x18 PUSH1 0x24 DUP3 ADD MSTORE PUSH32 0x5661756C743A20696E73756666696369656E7420484241520000000000000000 PUSH1 0x44 DUP3 ADD MSTORE PUSH1 0x64 SWAP1 REVERT JUMPDEST POP PUSH2 0x1BBB DUP6 PUSH1 0x1 PUSH1 0x1 PUSH1 0xA0 SHL SUB PUSH2 0x1BB1 PUSH1 0xC4 DUP9 ADD PUSH2 0x3269 JUMP JUMPDEST AND ADDRESS SWAP1 CALLER SWAP1 PUSH2 0x41B5 JUMP JUMPDEST CALLER DUP8 MSTORE PUSH1 0x4 PUSH1 0x20 MSTORE PUSH1 0x40 DUP8 KECCAK256 PUSH1 0x1 PUSH1 0x1 PUSH1 0xA0 SHL SUB PUSH2 0x1BDB PUSH1 0xC4 DUP8 ADD PUSH2 0x3269 JUMP JUMPDEST AND PUSH1 0x0 MSTORE PUSH1 0x20 MSTORE PUSH2 0x1BF2 PUSH1 0x40 PUSH1 0x0 KECCAK256 SWAP2 DUP3 SLOAD PUSH2 0x3172 JUMP JUMPDEST SWAP1 SSTORE PUSH1 0x1 PUSH1 0x1 PUSH1 0xA0 SHL SUB PUSH2 0x1C08 PUSH1 0xC4 DUP6 ADD PUSH2 0x3269 JUMP JUMPDEST AND DUP7 MSTORE PUSH1 0x3 PUSH1 0x20 MSTORE PUSH1 0x40 DUP7 KECCAK256 PUSH2 0x1C1F DUP3 DUP3 SLOAD PUSH2 0x3172 JUMP JUMPDEST SWAP1 SSTORE PUSH2 0x1269 JUMP JUMPDEST PUSH4 0x4E487B71 PUSH1 0xE0 SHL DUP8 MSTORE PUSH1 0x11 PUSH1 0x4 MSTORE PUSH1 0x24 DUP8 REVERT JUMPDEST PUSH4 0x2C1F8EF1 PUSH1 0xE2 SHL DUP8 MSTORE PUSH1 0x4 DUP7 SWAP1 MSTORE PUSH1 0x24 MSTORE PUSH1 0x44 DUP7 REVERT JUMPDEST PUSH4 0x2F06628B PUSH1 0xE0 SHL DUP8 MSTORE PUSH1 0x4 DUP6 SWAP1 MSTORE PUSH1 0x24 MSTORE PUSH1 0x44 DUP7 REVERT JUMPDEST DUP8 DUP1 REVERT JUMPDEST PUSH2 0x1C8E SWAP2 POP PUSH1 0x80 RETURNDATASIZE PUSH1 0x80 GT PUSH2 0x1C94 JUMPI JUMPDEST PUSH2 0x1C86 DUP2 DUP4 PUSH2 0x2B6E JUMP JUMPDEST DUP2 ADD SWAP1 PUSH2 0x2CEF JUMP JUMPDEST CODESIZE PUSH2 0x1054 JUMP JUMPDEST POP RETURNDATASIZE PUSH2 0x1C7C JUMP JUMPDEST DUP2 PUSH2 0x1CA5 SWAP2 PUSH2 0x2B6E JUMP JUMPDEST PUSH2 0x1CB0 JUMPI DUP6 CODESIZE PUSH2 0x101C JUMP JUMPDEST DUP6 DUP1 REVERT JUMPDEST PUSH1 0x40 MLOAD RETURNDATASIZE DUP5 DUP3 RETURNDATACOPY RETURNDATASIZE SWAP1 REVERT JUMPDEST SWAP2 POP SWAP6 POP PUSH1 0x20 DUP2 RETURNDATASIZE PUSH1 0x20 GT PUSH2 0x1CF0 JUMPI JUMPDEST DUP2 PUSH2 0x1CDC PUSH1 0x20 SWAP4 DUP4 PUSH2 0x2B6E JUMP JUMPDEST DUP2 ADD SUB SLT PUSH2 0x1ABE JUMPI MLOAD SWAP5 DUP7 SWAP1 PUSH2 0xFE1 PUSH2 0xFD3 JUMP JUMPDEST RETURNDATASIZE SWAP2 POP PUSH2 0x1CCF JUMP JUMPDEST SWAP1 POP PUSH1 0x64 PUSH1 0x44 SWAP4 PUSH4 0x2368FC77 PUSH1 0xE1 SHL DUP5 MSTORE ADD CALLDATALOAD PUSH1 0x4 MSTORE PUSH1 0x24 MSTORE REVERT JUMPDEST PUSH4 0xEF855AEF PUSH1 0xE0 SHL DUP4 MSTORE PUSH1 0x64 DUP5 ADD CALLDATALOAD PUSH1 0x4 MSTORE PUSH1 0x24 DUP4 REVERT JUMPDEST PUSH4 0x4E487B71 PUSH1 0xE0 SHL DUP5 MSTORE PUSH1 0x11 PUSH1 0x4 MSTORE PUSH1 0x24 DUP5 REVERT JUMPDEST PUSH4 0x4E487B71 PUSH1 0xE0 SHL DUP4 MSTORE PUSH1 0x11 PUSH1 0x4 MSTORE PUSH1 0x24 DUP4 REVERT JUMPDEST PUSH4 0x134B031B PUSH1 0xE3 SHL DUP3 MSTORE PUSH1 0x4 DUP3 REVERT JUMPDEST PUSH4 0xFFD11AD PUSH1 0xE0 SHL DUP3 MSTORE PUSH1 0x4 DUP3 REVERT JUMPDEST POP PUSH1 0x1 PUSH1 0x1 PUSH1 0xA0 SHL SUB PUSH2 0x1D87 PUSH1 0xC4 PUSH1 0x24 SWAP5 ADD PUSH2 0x3269 JUMP JUMPDEST PUSH4 0x2762993F PUSH1 0xE1 SHL DUP4 MSTORE AND PUSH1 0x4 MSTORE REVERT JUMPDEST PUSH2 0x1DA4 PUSH1 0x4 DUP5 ADD DUP1 PUSH2 0x30B9 JUMP JUMPDEST PUSH2 0x1DC8 PUSH1 0x40 MLOAD SWAP3 DUP4 SWAP3 PUSH4 0x6FAD28D PUSH1 0xE3 SHL DUP5 MSTORE PUSH1 0x20 PUSH1 0x4 DUP6 ADD MSTORE PUSH1 0x24 DUP5 ADD SWAP2 PUSH2 0x317F JUMP JUMPDEST SUB SWAP1 REVERT JUMPDEST POP CALLVALUE PUSH2 0x20C JUMPI DUP1 PUSH1 0x3 NOT CALLDATASIZE ADD SLT PUSH2 0x20C JUMPI PUSH2 0x1DE5 PUSH2 0x409B JUMP JUMPDEST PUSH2 0x1DED PUSH2 0x412F JUMP JUMPDEST PUSH1 0x1 PUSH1 0xA0 SHL PUSH1 0xFF PUSH1 0xA0 SHL NOT PUSH1 0x1 SLOAD AND OR PUSH1 0x1 SSTORE PUSH32 0x62E78CEA01BEE320CD4E420270B5EA74000D11B0C9F74754EBDBFC544B05A258 PUSH1 0x20 PUSH1 0x40 MLOAD CALLER DUP2 MSTORE LOG1 DUP1 RETURN JUMPDEST POP PUSH1 0x40 CALLDATASIZE PUSH1 0x3 NOT ADD SLT PUSH2 0x20C JUMPI PUSH1 0x24 CALLDATALOAD PUSH1 0x4 CALLDATALOAD PUSH8 0xFFFFFFFFFFFFFFFF DUP3 GT PUSH2 0x6CD JUMPI CALLDATASIZE PUSH1 0x23 DUP4 ADD SLT ISZERO PUSH2 0x6CD JUMPI DUP2 PUSH1 0x4 ADD CALLDATALOAD PUSH8 0xFFFFFFFFFFFFFFFF DUP2 GT PUSH2 0x22A9 JUMPI PUSH1 0x24 DUP4 ADD SWAP3 PUSH1 0x24 CALLDATASIZE SWAP2 DUP4 PUSH1 0x5 SHL ADD ADD GT PUSH2 0x22A9 JUMPI PUSH2 0x1E8A PUSH2 0x32DC JUMP JUMPDEST DUP2 DUP5 MSTORE PUSH1 0x5 PUSH1 0x20 MSTORE PUSH1 0x40 DUP5 KECCAK256 SWAP3 PUSH1 0xC DUP5 ADD SWAP2 PUSH1 0xFF DUP4 SLOAD PUSH1 0xA0 SHR AND PUSH2 0x2295 JUMPI PUSH1 0x1 PUSH1 0x1 PUSH1 0xA0 SHL SUB PUSH32 0x0 AND SWAP2 PUSH1 0x40 MLOAD PUSH4 0x31A9108F PUSH1 0xE1 SHL DUP2 MSTORE DUP6 PUSH1 0x4 DUP3 ADD MSTORE PUSH1 0x20 DUP2 PUSH1 0x24 DUP2 DUP8 GAS STATICCALL SWAP1 DUP2 ISZERO PUSH2 0x228A JUMPI DUP9 SWAP2 PUSH2 0x2248 JUMPI JUMPDEST POP PUSH1 0x1 PUSH1 0x1 PUSH1 0xA0 SHL SUB CALLER SWAP2 AND SUB PUSH2 0x2230 JUMPI PUSH1 0x40 MLOAD PUSH4 0xD47EED45 PUSH1 0xE0 SHL DUP2 MSTORE PUSH32 0x0 PUSH1 0x1 PUSH1 0x1 PUSH1 0xA0 SHL SUB AND SWAP3 DUP9 SWAP2 PUSH1 0x20 DUP2 DUP1 PUSH2 0x1F5A DUP6 DUP9 PUSH1 0x4 DUP5 ADD PUSH2 0x31A0 JUMP JUMPDEST SUB DUP2 DUP9 GAS STATICCALL SWAP1 DUP2 ISZERO PUSH2 0x2225 JUMPI DUP4 SWAP2 PUSH2 0x21F3 JUMPI JUMPDEST POP DUP5 EXTCODESIZE ISZERO PUSH2 0x6CD JUMPI PUSH1 0x40 MLOAD PUSH4 0x1DF3CBC5 PUSH1 0xE3 SHL DUP2 MSTORE SWAP4 DUP5 SWAP3 DUP4 SWAP2 DUP3 SWAP2 PUSH2 0x1F96 SWAP2 PUSH1 0x4 DUP5 ADD PUSH2 0x31A0 JUMP JUMPDEST SUB SWAP2 DUP7 GAS CALL DUP1 ISZERO PUSH2 0x21E8 JUMPI PUSH2 0x21D4 JUMPI JUMPDEST POP PUSH1 0x80 PUSH1 0x1 DUP7 ADD SLOAD PUSH1 0x44 PUSH1 0x40 MLOAD DUP1 SWAP5 DUP2 SWAP4 PUSH4 0x52571AF PUSH1 0xE5 SHL DUP4 MSTORE PUSH1 0x4 DUP4 ADD MSTORE PUSH1 0x3C PUSH1 0x24 DUP4 ADD MSTORE GAS STATICCALL DUP1 ISZERO PUSH2 0x19CF JUMPI PUSH2 0x1FF3 SWAP2 DUP8 SWAP2 PUSH2 0x1C6C JUMPI POP PUSH1 0x40 DUP2 MLOAD PUSH1 0x7 SIGNEXTEND SWAP2 ADD MLOAD PUSH1 0x3 SIGNEXTEND SWAP1 PUSH2 0x3340 JUMP JUMPDEST SWAP4 PUSH2 0x1FFE DUP6 DUP3 PUSH2 0x341C JUMP JUMPDEST DUP4 SLOAD PUSH1 0xFF PUSH1 0xA0 SHL NOT AND PUSH1 0x1 PUSH1 0xA0 SHL OR SWAP1 SWAP4 SSTORE DUP3 ISZERO DUP1 ISZERO SWAP3 DUP8 SWAP2 PUSH2 0x21CD JUMPI PUSH1 0x1 JUMPDEST DUP2 EXTCODESIZE ISZERO PUSH2 0x6CD JUMPI PUSH2 0x204F PUSH1 0x44 DUP5 SWAP3 DUP4 PUSH1 0x40 MLOAD SWAP6 DUP7 SWAP5 DUP6 SWAP4 PUSH4 0x3625B759 PUSH1 0xE2 SHL DUP6 MSTORE DUP14 PUSH1 0x4 DUP7 ADD MSTORE PUSH1 0x24 DUP6 ADD SWAP1 PUSH2 0x327D JUMP JUMPDEST GAS CALL DUP1 ISZERO PUSH2 0x1CB4 JUMPI PUSH2 0x21B8 JUMPI JUMPDEST POP POP DUP2 PUSH2 0x206D DUP5 PUSH1 0xB DUP5 ADD SLOAD PUSH2 0x30EC JUMP JUMPDEST DUP1 PUSH2 0x2171 JUMPI JUMPDEST POP PUSH2 0x20EA JUMPI JUMPDEST POP ISZERO PUSH2 0x20B8 JUMPI PUSH1 0x40 MLOAD SWAP3 DUP4 MSTORE PUSH1 0x20 DUP4 ADD MSTORE PUSH32 0xD6BB44FA70C7C0AE5C2C12BD210C4A9D4F91E262E7FEE1BFF7EFB4896D3B4D6 PUSH1 0x40 CALLER SWAP4 LOG3 JUMPDEST PUSH1 0x1 DUP2 SSTORE DUP1 RETURN JUMPDEST POP SWAP1 POP PUSH32 0x4C168839FC9657BADB834A2FFA05B1FD2183137D236ECA931AAB0710C8B33FE PUSH1 0x20 PUSH1 0x40 MLOAD DUP5 DUP2 MSTORE LOG2 PUSH2 0x20B1 JUMP JUMPDEST PUSH1 0xA ADD SLOAD PUSH1 0x1 PUSH1 0x1 PUSH1 0xA0 SHL SUB AND DUP3 DUP2 PUSH2 0x2161 JUMPI DUP7 DUP1 DUP1 SWAP4 POP DUP1 SWAP3 CALLER GAS CALL PUSH2 0x210F PUSH2 0x3142 JUMP JUMPDEST POP ISZERO PUSH2 0x211C JUMPI JUMPDEST CODESIZE PUSH2 0x2079 JUMP JUMPDEST PUSH1 0x40 MLOAD PUSH3 0x461BCD PUSH1 0xE5 SHL DUP2 MSTORE PUSH1 0x20 PUSH1 0x4 DUP3 ADD MSTORE PUSH1 0x19 PUSH1 0x24 DUP3 ADD MSTORE PUSH32 0x5661756C743A2048424152207061796F7574206661696C656400000000000000 PUSH1 0x44 DUP3 ADD MSTORE PUSH1 0x64 SWAP1 REVERT JUMPDEST PUSH2 0x216C SWAP2 CALLER SWAP1 PUSH2 0x40F3 JUMP JUMPDEST PUSH2 0x2116 JUMP JUMPDEST PUSH1 0x1 PUSH1 0x1 PUSH1 0xA0 SHL SUB PUSH1 0x8 DUP5 ADD SLOAD AND DUP9 MSTORE PUSH1 0x4 PUSH1 0x20 MSTORE PUSH1 0x40 DUP9 KECCAK256 PUSH1 0x1 PUSH1 0x1 PUSH1 0xA0 SHL SUB DUP1 PUSH1 0xA DUP7 ADD SLOAD AND AND PUSH1 0x0 MSTORE PUSH1 0x20 MSTORE PUSH2 0x21B0 PUSH1 0x40 PUSH1 0x0 KECCAK256 SWAP2 DUP3 SLOAD PUSH2 0x3172 JUMP JUMPDEST SWAP1 SSTORE CODESIZE PUSH2 0x2073 JUMP JUMPDEST DUP2 PUSH2 0x21C2 SWAP2 PUSH2 0x2B6E JUMP JUMPDEST PUSH2 0x1CB0 JUMPI DUP6 CODESIZE PUSH2 0x205C JUMP JUMPDEST PUSH1 0x2 PUSH2 0x201E JUMP JUMPDEST DUP7 PUSH2 0x21E1 SWAP2 SWAP8 SWAP3 SWAP8 PUSH2 0x2B6E JUMP JUMPDEST SWAP5 CODESIZE PUSH2 0x1FA6 JUMP JUMPDEST PUSH1 0x40 MLOAD RETURNDATASIZE DUP10 DUP3 RETURNDATACOPY RETURNDATASIZE SWAP1 REVERT JUMPDEST SWAP1 POP PUSH1 0x20 DUP2 RETURNDATASIZE PUSH1 0x20 GT PUSH2 0x221D JUMPI JUMPDEST DUP2 PUSH2 0x220E PUSH1 0x20 SWAP4 DUP4 PUSH2 0x2B6E JUMP JUMPDEST DUP2 ADD SUB SLT PUSH2 0x6CD JUMPI MLOAD CODESIZE PUSH2 0x1F6D JUMP JUMPDEST RETURNDATASIZE SWAP2 POP PUSH2 0x2201 JUMP JUMPDEST PUSH1 0x40 MLOAD RETURNDATASIZE DUP6 DUP3 RETURNDATACOPY RETURNDATASIZE SWAP1 REVERT JUMPDEST PUSH4 0xF73513F1 PUSH1 0xE0 SHL DUP8 MSTORE PUSH1 0x4 DUP6 SWAP1 MSTORE CALLER PUSH1 0x24 MSTORE PUSH1 0x44 DUP8 REVERT JUMPDEST SWAP1 POP PUSH1 0x20 DUP2 RETURNDATASIZE PUSH1 0x20 GT PUSH2 0x2282 JUMPI JUMPDEST DUP2 PUSH2 0x2263 PUSH1 0x20 SWAP4 DUP4 PUSH2 0x2B6E JUMP JUMPDEST DUP2 ADD SUB SLT PUSH2 0x1C68 JUMPI MLOAD PUSH1 0x1 PUSH1 0x1 PUSH1 0xA0 SHL SUB DUP2 AND DUP2 SUB PUSH2 0x1C68 JUMPI CODESIZE PUSH2 0x1EFD JUMP JUMPDEST RETURNDATASIZE SWAP2 POP PUSH2 0x2256 JUMP JUMPDEST PUSH1 0x40 MLOAD RETURNDATASIZE DUP11 DUP3 RETURNDATACOPY RETURNDATASIZE SWAP1 REVERT JUMPDEST PUSH4 0x4734D187 PUSH1 0xE0 SHL DUP7 MSTORE PUSH1 0x4 DUP5 SWAP1 MSTORE PUSH1 0x24 DUP7 REVERT JUMPDEST DUP4 DUP1 REVERT JUMPDEST POP CALLVALUE PUSH2 0x20C JUMPI DUP1 PUSH1 0x3 NOT CALLDATASIZE ADD SLT PUSH2 0x20C JUMPI PUSH2 0x22C6 PUSH2 0x409B JUMP JUMPDEST DUP1 PUSH1 0x1 PUSH1 0x1 PUSH1 0xA0 SHL SUB PUSH1 0x1 SLOAD PUSH1 0x1 PUSH1 0x1 PUSH1 0xA0 SHL SUB NOT DUP2 AND PUSH1 0x1 SSTORE AND PUSH32 0x8BE0079C531659141344CD1FD0A4F28419497F9722A3DAAFE3B4186F6B6457E0 DUP3 DUP1 LOG3 DUP1 RETURN JUMPDEST POP CALLVALUE PUSH2 0x20C JUMPI DUP1 PUSH1 0x3 NOT CALLDATASIZE ADD SLT PUSH2 0x20C JUMPI PUSH1 0x20 PUSH1 0x40 MLOAD PUSH1 0x1 PUSH1 0x1 PUSH1 0xA0 SHL SUB PUSH32 0x0 AND DUP2 MSTORE RETURN JUMPDEST POP CALLVALUE PUSH2 0x20C JUMPI DUP1 PUSH1 0x3 NOT CALLDATASIZE ADD SLT PUSH2 0x20C JUMPI PUSH1 0x20 PUSH1 0x40 MLOAD PUSH8 0xDE0B6B3A7640000 DUP2 MSTORE RETURN JUMPDEST POP DUP1 PUSH1 0x3 NOT CALLDATASIZE ADD SLT PUSH2 0x20C JUMPI PUSH2 0x2383 PUSH2 0x32DC JUMP JUMPDEST CALLVALUE ISZERO PUSH2 0x23E0 JUMPI CALLER DUP2 MSTORE PUSH1 0x4 PUSH1 0x20 MSTORE PUSH1 0x40 DUP2 KECCAK256 DUP2 DUP1 MSTORE PUSH1 0x20 MSTORE PUSH1 0x40 DUP2 KECCAK256 PUSH2 0x23AA CALLVALUE DUP3 SLOAD PUSH2 0x3172 JUMP JUMPDEST SWAP1 SSTORE DUP1 PUSH1 0x40 MLOAD CALLVALUE DUP2 MSTORE PUSH32 0xF1C0DD7E9B98BBFF859029005EF89B127AF049CD18DF1A8D79F0B7E019911E56 PUSH1 0x20 CALLER SWAP3 LOG3 PUSH1 0x1 DUP2 SSTORE DUP1 RETURN JUMPDEST PUSH1 0x40 MLOAD PUSH3 0x461BCD PUSH1 0xE5 SHL DUP2 MSTORE PUSH1 0x20 PUSH1 0x4 DUP3 ADD MSTORE PUSH1 0x13 PUSH1 0x24 DUP3 ADD MSTORE PUSH32 0x5661756C743A207A65726F206465706F73697400000000000000000000000000 PUSH1 0x44 DUP3 ADD MSTORE PUSH1 0x64 SWAP1 REVERT JUMPDEST POP CALLVALUE PUSH2 0x20C JUMPI DUP1 PUSH1 0x3 NOT CALLDATASIZE ADD SLT PUSH2 0x20C JUMPI PUSH1 0x20 PUSH1 0xFF PUSH1 0x1 SLOAD PUSH1 0xA0 SHR AND PUSH1 0x40 MLOAD SWAP1 ISZERO ISZERO DUP2 MSTORE RETURN JUMPDEST POP CALLVALUE PUSH2 0x20C JUMPI DUP1 PUSH1 0x3 NOT CALLDATASIZE ADD SLT PUSH2 0x20C JUMPI PUSH1 0x20 PUSH1 0x40 MLOAD PUSH1 0x3C DUP2 MSTORE RETURN JUMPDEST POP CALLVALUE PUSH2 0x20C JUMPI PUSH1 0x40 CALLDATASIZE PUSH1 0x3 NOT ADD SLT PUSH2 0x20C JUMPI PUSH2 0x2494 PUSH1 0x20 SWAP2 PUSH1 0x4 CALLDATALOAD DUP2 MSTORE PUSH1 0x5 DUP4 MSTORE PUSH1 0x40 PUSH1 0x24 CALLDATALOAD SWAP2 KECCAK256 PUSH2 0x341C JUMP JUMPDEST PUSH1 0x40 MLOAD SWAP1 DUP2 MSTORE RETURN JUMPDEST POP CALLVALUE PUSH2 0x20C JUMPI PUSH1 0x20 CALLDATASIZE PUSH1 0x3 NOT ADD SLT PUSH2 0x20C JUMPI PUSH1 0xFF PUSH1 0x40 PUSH1 0x20 SWAP3 PUSH1 0x1 PUSH1 0x1 PUSH1 0xA0 SHL SUB PUSH2 0x24C5 PUSH2 0x2A6D JUMP JUMPDEST AND DUP2 MSTORE PUSH1 0x8 DUP5 MSTORE KECCAK256 SLOAD AND PUSH1 0x40 MLOAD SWAP1 ISZERO ISZERO DUP2 MSTORE RETURN JUMPDEST POP CALLVALUE PUSH2 0x20C JUMPI DUP1 PUSH1 0x3 NOT CALLDATASIZE ADD SLT PUSH2 0x20C JUMPI PUSH2 0x24F2 PUSH2 0x409B JUMP JUMPDEST PUSH1 0x1 SLOAD PUSH1 0xFF DUP2 PUSH1 0xA0 SHR AND ISZERO PUSH2 0x2538 JUMPI PUSH1 0xFF PUSH1 0xA0 SHL NOT AND PUSH1 0x1 SSTORE PUSH32 0x5DB9EE0A495BF2E6FF9C91A7834C1BA4FDD244A5E8AA4E537BD38AEAE4B073AA PUSH1 0x20 PUSH1 0x40 MLOAD CALLER DUP2 MSTORE LOG1 DUP1 RETURN JUMPDEST PUSH1 0x40 MLOAD PUSH3 0x461BCD PUSH1 0xE5 SHL DUP2 MSTORE PUSH1 0x20 PUSH1 0x4 DUP3 ADD MSTORE PUSH1 0x14 PUSH1 0x24 DUP3 ADD MSTORE PUSH32 0x5061757361626C653A206E6F7420706175736564000000000000000000000000 PUSH1 0x44 DUP3 ADD MSTORE PUSH1 0x64 SWAP1 REVERT JUMPDEST POP CALLVALUE PUSH2 0x20C JUMPI PUSH1 0x40 CALLDATASIZE PUSH1 0x3 NOT ADD SLT PUSH2 0x20C JUMPI PUSH2 0x2597 PUSH2 0x2A6D JUMP JUMPDEST PUSH1 0x24 CALLDATALOAD SWAP1 PUSH2 0x25A3 PUSH2 0x32DC JUMP JUMPDEST CALLER DUP4 MSTORE PUSH1 0x4 PUSH1 0x20 MSTORE PUSH1 0x40 DUP4 KECCAK256 PUSH1 0x1 PUSH1 0x1 PUSH1 0xA0 SHL SUB DUP3 AND DUP5 MSTORE PUSH1 0x20 MSTORE PUSH1 0x40 DUP4 KECCAK256 SLOAD DUP3 DUP2 LT PUSH2 0x269F JUMPI POP PUSH1 0x1 PUSH1 0x1 PUSH1 0xA0 SHL SUB SWAP1 CALLER DUP5 MSTORE PUSH1 0x4 PUSH1 0x20 MSTORE PUSH1 0x40 DUP5 KECCAK256 DUP3 DUP3 AND DUP6 MSTORE PUSH1 0x20 MSTORE PUSH1 0x40 DUP5 KECCAK256 PUSH2 0x25F7 DUP5 DUP3 SLOAD PUSH2 0x30EC JUMP JUMPDEST SWAP1 SSTORE AND SWAP1 DUP2 PUSH2 0x268F JUMPI DUP3 DUP1 DUP1 DUP1 DUP5 CALLER GAS CALL PUSH2 0x2610 PUSH2 0x3142 JUMP JUMPDEST POP ISZERO PUSH2 0x264A JUMPI JUMPDEST PUSH1 0x40 MLOAD SWAP1 DUP2 MSTORE PUSH32 0x45892A46E6CEF329BB642DA6D69846D324DB43D19008EDC141ED82382EDA1BEE PUSH1 0x20 CALLER SWAP3 LOG3 PUSH1 0x1 DUP2 SSTORE DUP1 RETURN JUMPDEST PUSH1 0x40 MLOAD PUSH3 0x461BCD PUSH1 0xE5 SHL DUP2 MSTORE PUSH1 0x20 PUSH1 0x4 DUP3 ADD MSTORE PUSH1 0x1B PUSH1 0x24 DUP3 ADD MSTORE PUSH32 0x5661756C743A2048424152207472616E73666572206661696C65640000000000 PUSH1 0x44 DUP3 ADD MSTORE PUSH1 0x64 SWAP1 REVERT JUMPDEST PUSH2 0x269A DUP2 CALLER DUP5 PUSH2 0x40F3 JUMP JUMPDEST PUSH2 0x2617 JUMP JUMPDEST PUSH4 0x2C1F8EF1 PUSH1 0xE2 SHL DUP5 MSTORE PUSH1 0x4 DUP4 SWAP1 MSTORE PUSH1 0x24 MSTORE PUSH1 0x44 DUP4 REVERT JUMPDEST POP CALLVALUE PUSH2 0x20C JUMPI DUP1 PUSH1 0x3 NOT CALLDATASIZE ADD SLT PUSH2 0x20C JUMPI PUSH1 0x20 PUSH1 0x2 SLOAD PUSH1 0x40 MLOAD SWAP1 DUP2 MSTORE RETURN JUMPDEST POP CALLVALUE PUSH2 0x20C JUMPI DUP1 PUSH1 0x3 NOT CALLDATASIZE ADD SLT PUSH2 0x20C JUMPI PUSH1 0x20 PUSH1 0x40 MLOAD PUSH1 0x1 PUSH1 0x1 PUSH1 0xA0 SHL SUB PUSH32 0x0 AND DUP2 MSTORE RETURN JUMPDEST POP CALLVALUE PUSH2 0x20C JUMPI DUP1 PUSH1 0x3 NOT CALLDATASIZE ADD SLT PUSH2 0x20C JUMPI PUSH1 0x20 PUSH1 0x40 MLOAD PUSH7 0xAA87BEE538000 DUP2 MSTORE RETURN JUMPDEST POP CALLVALUE PUSH2 0x20C JUMPI PUSH1 0x20 CALLDATASIZE PUSH1 0x3 NOT ADD SLT PUSH2 0x20C JUMPI PUSH1 0x1 PUSH1 0x1 PUSH1 0xA0 SHL SUB PUSH2 0x275C PUSH2 0x2A6D JUMP JUMPDEST PUSH2 0x2764 PUSH2 0x409B JUMP JUMPDEST AND DUP1 ISZERO PUSH2 0x27F0 JUMPI DUP1 DUP3 MSTORE PUSH1 0x8 PUSH1 0x20 MSTORE PUSH1 0xFF PUSH1 0x40 DUP4 KECCAK256 SLOAD AND ISZERO PUSH2 0x2784 JUMPI POP DUP1 RETURN JUMPDEST DUP1 DUP3 MSTORE PUSH1 0x8 PUSH1 0x20 MSTORE PUSH1 0x40 DUP3 KECCAK256 DUP1 SLOAD PUSH1 0xFF NOT AND PUSH1 0x1 OR SWAP1 SSTORE PUSH1 0x9 SLOAD PUSH9 0x10000000000000000 DUP2 LT ISZERO PUSH2 0x27DC JUMPI DUP1 PUSH1 0x1 PUSH2 0x27BF SWAP3 ADD PUSH1 0x9 SSTORE PUSH2 0x2A99 JUMP JUMPDEST PUSH1 0x1 PUSH1 0x1 PUSH1 0xA0 SHL SUB DUP3 SWAP4 SWAP3 SLOAD SWAP2 PUSH1 0x3 SHL SWAP3 DUP4 SHL SWAP3 SHL NOT AND OR SWAP1 SSTORE DUP1 RETURN JUMPDEST PUSH4 0x4E487B71 PUSH1 0xE0 SHL DUP4 MSTORE PUSH1 0x41 PUSH1 0x4 MSTORE PUSH1 0x24 DUP4 REVERT JUMPDEST PUSH1 0x40 MLOAD PUSH3 0x461BCD PUSH1 0xE5 SHL DUP2 MSTORE PUSH1 0x20 PUSH1 0x4 DUP3 ADD MSTORE PUSH1 0x1E PUSH1 0x24 DUP3 ADD MSTORE PUSH32 0x5661756C743A20757365206164647265737328302920666F7220484241520000 PUSH1 0x44 DUP3 ADD MSTORE PUSH1 0x64 SWAP1 REVERT JUMPDEST POP CALLVALUE PUSH2 0x20C JUMPI PUSH1 0x20 CALLDATASIZE PUSH1 0x3 NOT ADD SLT PUSH2 0x20C JUMPI PUSH1 0x4 CALLDATALOAD PUSH8 0xFFFFFFFFFFFFFFFF DUP2 GT PUSH2 0x6D1 JUMPI DUP1 PUSH1 0x4 ADD PUSH1 0xC0 PUSH1 0x3 NOT DUP4 CALLDATASIZE SUB ADD SLT PUSH2 0x6CD JUMPI PUSH2 0xF61 PUSH2 0xF5A PUSH2 0x2884 SWAP3 PUSH2 0x287D PUSH2 0x3088 JUMP JUMPDEST POP DUP1 PUSH2 0x30B9 JUMP JUMPDEST PUSH1 0x40 MLOAD SWAP1 PUSH4 0x96834AD3 PUSH1 0xE0 SHL DUP3 MSTORE PUSH1 0x4 DUP3 ADD MSTORE PUSH1 0x80 DUP2 PUSH1 0x24 DUP2 PUSH1 0x1 PUSH1 0x1 PUSH1 0xA0 SHL SUB PUSH32 0x0 AND GAS STATICCALL DUP1 ISZERO PUSH2 0x2225 JUMPI PUSH2 0x28ED SWAP2 DUP5 SWAP2 PUSH2 0x1C6C JUMPI POP PUSH1 0x40 DUP2 MLOAD PUSH1 0x7 SIGNEXTEND SWAP2 ADD MLOAD PUSH1 0x3 SIGNEXTEND SWAP1 PUSH2 0x3340 JUMP JUMPDEST SWAP2 PUSH1 0x2 SLOAD SWAP1 PUSH2 0x2903 PUSH2 0x107C TIMESTAMP PUSH1 0x64 DUP7 ADD CALLDATALOAD PUSH2 0x30EC JUMP JUMPDEST SWAP1 PUSH1 0x24 DUP5 ADD CALLDATALOAD SWAP1 PUSH1 0x2 DUP3 LT ISZERO PUSH2 0x20C JUMPI POP PUSH2 0x2980 PUSH1 0xE0 SWAP6 PUSH1 0xA0 SWAP5 PUSH8 0xDE0B6B3A7640000 SWAP5 PUSH1 0xFF DUP6 PUSH2 0x2936 PUSH2 0x298E SWAP8 PUSH2 0x2C7C JUMP JUMPDEST AND SWAP2 PUSH2 0x2941 DUP4 PUSH2 0x2C7C JUMP JUMPDEST PUSH1 0x40 MLOAD SWAP4 PUSH2 0x294E DUP6 PUSH2 0x2B1F JUMP JUMPDEST DUP5 MSTORE PUSH1 0x44 DUP10 ADD CALLDATALOAD PUSH1 0x20 DUP6 ADD MSTORE PUSH1 0xA4 DUP10 ADD CALLDATALOAD PUSH1 0x40 DUP6 ADD MSTORE PUSH1 0x60 DUP5 ADD MSTORE PUSH1 0x80 DUP4 ADD MSTORE PUSH2 0x2977 DUP2 PUSH2 0x2C7C JUMP JUMPDEST DUP6 DUP3 ADD MSTORE PUSH2 0x3707 JUMP JUMPDEST SWAP4 PUSH1 0x84 DUP6 MLOAD SWAP2 ADD CALLDATALOAD SWAP1 PUSH2 0x310F JUMP JUMPDEST DIV SWAP2 PUSH1 0x40 MLOAD SWAP3 DUP4 MSTORE DUP1 MLOAD PUSH1 0x20 DUP5 ADD MSTORE PUSH1 0x20 DUP2 ADD MLOAD PUSH1 0x40 DUP5 ADD MSTORE PUSH1 0x40 DUP2 ADD MLOAD PUSH1 0x60 DUP5 ADD MSTORE PUSH1 0x60 DUP2 ADD MLOAD PUSH1 0x80 DUP5 ADD MSTORE PUSH1 0x80 DUP2 ADD MLOAD DUP3 DUP5 ADD MSTORE ADD MLOAD PUSH1 0xC0 DUP3 ADD MSTORE RETURN JUMPDEST POP CALLVALUE PUSH2 0x20C JUMPI PUSH1 0x20 CALLDATASIZE PUSH1 0x3 NOT ADD SLT PUSH2 0x20C JUMPI PUSH1 0x4 CALLDATALOAD SWAP1 PUSH1 0x9 SLOAD DUP3 LT ISZERO PUSH2 0x20C JUMPI PUSH1 0x20 PUSH1 0x1 PUSH1 0x1 PUSH1 0xA0 SHL SUB PUSH2 0x2A00 DUP5 PUSH2 0x2A99 JUMP JUMPDEST SWAP1 SLOAD SWAP1 PUSH1 0x3 SHL SHR AND PUSH1 0x40 MLOAD SWAP1 DUP2 MSTORE RETURN JUMPDEST POP CALLVALUE PUSH2 0x20C JUMPI PUSH1 0x20 CALLDATASIZE PUSH1 0x3 NOT ADD SLT PUSH2 0x20C JUMPI PUSH1 0x40 PUSH1 0x20 SWAP2 PUSH1 0x1 PUSH1 0x1 PUSH1 0xA0 SHL SUB PUSH2 0x2A37 PUSH2 0x2A6D JUMP JUMPDEST AND DUP2 MSTORE PUSH1 0x3 DUP4 MSTORE KECCAK256 SLOAD PUSH1 0x40 MLOAD SWAP1 DUP2 MSTORE RETURN JUMPDEST POP CALLVALUE PUSH2 0x20C JUMPI PUSH1 0x20 CALLDATASIZE PUSH1 0x3 NOT ADD SLT PUSH2 0x20C JUMPI PUSH2 0x2A62 PUSH2 0x32DC JUMP JUMPDEST PUSH2 0x20B1 PUSH1 0x4 CALLDATALOAD PUSH2 0x2D67 JUMP JUMPDEST PUSH1 0x4 CALLDATALOAD SWAP1 PUSH1 0x1 PUSH1 0x1 PUSH1 0xA0 SHL SUB DUP3 AND DUP3 SUB PUSH2 0x1ABE JUMPI JUMP JUMPDEST PUSH1 0x24 CALLDATALOAD SWAP1 PUSH1 0x1 PUSH1 0x1 PUSH1 0xA0 SHL SUB DUP3 AND DUP3 SUB PUSH2 0x1ABE JUMPI JUMP JUMPDEST PUSH1 0x9 SLOAD DUP2 LT ISZERO PUSH2 0x2AB4 JUMPI PUSH1 0x9 PUSH1 0x0 MSTORE PUSH1 0x20 PUSH1 0x0 KECCAK256 ADD SWAP1 PUSH1 0x0 SWAP1 JUMP JUMPDEST PUSH4 0x4E487B71 PUSH1 0xE0 SHL PUSH1 0x0 MSTORE PUSH1 0x32 PUSH1 0x4 MSTORE PUSH1 0x24 PUSH1 0x0 REVERT JUMPDEST PUSH1 0x7 SLOAD DUP2 LT ISZERO PUSH2 0x2AB4 JUMPI PUSH1 0x7 PUSH1 0x0 MSTORE PUSH1 0x20 PUSH1 0x0 KECCAK256 ADD SWAP1 PUSH1 0x0 SWAP1 JUMP JUMPDEST SWAP1 PUSH1 0x1 DUP3 DUP2 SHR SWAP3 AND DUP1 ISZERO PUSH2 0x2B15 JUMPI JUMPDEST PUSH1 0x20 DUP4 LT EQ PUSH2 0x2AFF JUMPI JUMP JUMPDEST PUSH4 0x4E487B71 PUSH1 0xE0 SHL PUSH1 0x0 MSTORE PUSH1 0x22 PUSH1 0x4 MSTORE PUSH1 0x24 PUSH1 0x0 REVERT JUMPDEST SWAP2 PUSH1 0x7F AND SWAP2 PUSH2 0x2AF4 JUMP JUMPDEST PUSH1 0xC0 DUP2 ADD SWAP1 DUP2 LT PUSH8 0xFFFFFFFFFFFFFFFF DUP3 GT OR PUSH2 0x2B3B JUMPI PUSH1 0x40 MSTORE JUMP JUMPDEST PUSH4 0x4E487B71 PUSH1 0xE0 SHL PUSH1 0x0 MSTORE PUSH1 0x41 PUSH1 0x4 MSTORE PUSH1 0x24 PUSH1 0x0 REVERT JUMPDEST PUSH2 0x1C0 DUP2 ADD SWAP1 DUP2 LT PUSH8 0xFFFFFFFFFFFFFFFF DUP3 GT OR PUSH2 0x2B3B JUMPI PUSH1 0x40 MSTORE JUMP JUMPDEST SWAP1 PUSH1 0x1F DUP1 NOT SWAP2 ADD AND DUP2 ADD SWAP1 DUP2 LT PUSH8 0xFFFFFFFFFFFFFFFF DUP3 GT OR PUSH2 0x2B3B JUMPI PUSH1 0x40 MSTORE JUMP JUMPDEST SWAP1 PUSH1 0x40 MLOAD SWAP2 DUP3 PUSH1 0x0 DUP3 SLOAD SWAP3 PUSH2 0x2BA4 DUP5 PUSH2 0x2AE5 JUMP JUMPDEST DUP1 DUP5 MSTORE SWAP4 PUSH1 0x1 DUP2 AND SWAP1 DUP2 ISZERO PUSH2 0x2C12 JUMPI POP PUSH1 0x1 EQ PUSH2 0x2BCB JUMPI JUMPDEST POP PUSH2 0x2BC9 SWAP3 POP SUB DUP4 PUSH2 0x2B6E JUMP JUMPDEST JUMP JUMPDEST SWAP1 POP PUSH1 0x0 SWAP3 SWAP2 SWAP3 MSTORE PUSH1 0x20 PUSH1 0x0 KECCAK256 SWAP1 PUSH1 0x0 SWAP2 JUMPDEST DUP2 DUP4 LT PUSH2 0x2BF6 JUMPI POP POP SWAP1 PUSH1 0x20 PUSH2 0x2BC9 SWAP3 DUP3 ADD ADD CODESIZE PUSH2 0x2BBC JUMP JUMPDEST PUSH1 0x20 SWAP2 SWAP4 POP DUP1 PUSH1 0x1 SWAP2 SLOAD DUP4 DUP6 DUP10 ADD ADD MSTORE ADD SWAP2 ADD SWAP1 SWAP2 DUP5 SWAP3 PUSH2 0x2BDD JUMP JUMPDEST SWAP1 POP PUSH1 0x20 SWAP3 POP PUSH2 0x2BC9 SWAP5 SWAP2 POP PUSH1 0xFF NOT AND DUP3 DUP5 ADD MSTORE ISZERO ISZERO PUSH1 0x5 SHL DUP3 ADD ADD CODESIZE PUSH2 0x2BBC JUMP JUMPDEST PUSH1 0x0 JUMPDEST DUP4 DUP2 LT PUSH2 0x2C47 JUMPI POP POP PUSH1 0x0 SWAP2 ADD MSTORE JUMP JUMPDEST DUP2 DUP2 ADD MLOAD DUP4 DUP3 ADD MSTORE PUSH1 0x20 ADD PUSH2 0x2C37 JUMP JUMPDEST SWAP1 PUSH1 0x20 SWAP2 PUSH2 0x2C70 DUP2 MLOAD DUP1 SWAP3 DUP2 DUP6 MSTORE DUP6 DUP1 DUP7 ADD SWAP2 ADD PUSH2 0x2C34 JUMP JUMPDEST PUSH1 0x1F ADD PUSH1 0x1F NOT AND ADD ADD SWAP1 JUMP JUMPDEST PUSH1 0x2 GT ISZERO PUSH2 0x2C86 JUMPI JUMP JUMPDEST PUSH4 0x4E487B71 PUSH1 0xE0 SHL PUSH1 0x0 MSTORE PUSH1 0x21 PUSH1 0x4 MSTORE PUSH1 0x24 PUSH1 0x0 REVERT JUMPDEST PUSH8 0xFFFFFFFFFFFFFFFF DUP2 GT PUSH2 0x2B3B JUMPI PUSH1 0x1F ADD PUSH1 0x1F NOT AND PUSH1 0x20 ADD SWAP1 JUMP JUMPDEST SWAP3 SWAP2 SWAP3 PUSH2 0x2CC4 DUP3 PUSH2 0x2C9C JUMP JUMPDEST SWAP2 PUSH2 0x2CD2 PUSH1 0x40 MLOAD SWAP4 DUP5 PUSH2 0x2B6E JUMP JUMPDEST DUP3 SWAP5 DUP2 DUP5 MSTORE DUP2 DUP4 ADD GT PUSH2 0x1ABE JUMPI DUP3 DUP2 PUSH1 0x20 SWAP4 DUP5 PUSH1 0x0 SWAP7 ADD CALLDATACOPY ADD ADD MSTORE JUMP JUMPDEST SWAP1 DUP2 PUSH1 0x80 SWAP2 SUB SLT PUSH2 0x1ABE JUMPI PUSH1 0x40 MLOAD SWAP1 PUSH1 0x0 PUSH1 0x80 DUP4 ADD PUSH8 0xFFFFFFFFFFFFFFFF DUP2 GT DUP5 DUP3 LT OR PUSH2 0xB17 JUMPI PUSH1 0x40 MSTORE DUP2 MLOAD DUP1 PUSH1 0x7 SIGNEXTEND DUP2 SUB PUSH2 0x6D1 JUMPI DUP4 MSTORE PUSH1 0x20 DUP3 ADD MLOAD PUSH8 0xFFFFFFFFFFFFFFFF DUP2 AND DUP2 SUB PUSH2 0x6D1 JUMPI PUSH1 0x20 DUP5 ADD MSTORE PUSH1 0x40 DUP3 ADD MLOAD SWAP1 DUP2 PUSH1 0x3 SIGNEXTEND DUP3 SUB PUSH2 0x20C JUMPI POP SWAP1 PUSH1 0x60 SWAP2 PUSH1 0x40 DUP5 ADD MSTORE ADD MLOAD PUSH1 0x60 DUP3 ADD MSTORE SWAP1 JUMP JUMPDEST PUSH2 0x169 CALLER EQ DUP1 ISZERO PUSH2 0x3074 JUMPI JUMPDEST ISZERO PUSH2 0x302F JUMPI PUSH1 0x0 SWAP1 DUP1 DUP3 MSTORE PUSH1 0x5 PUSH1 0x20 MSTORE PUSH1 0x40 DUP3 KECCAK256 SWAP2 PUSH1 0xC DUP4 ADD SWAP1 PUSH1 0xFF DUP3 SLOAD PUSH1 0xA0 SHR AND PUSH2 0x3029 JUMPI PUSH1 0x5 DUP5 ADD SLOAD DUP1 TIMESTAMP LT PUSH2 0x3011 JUMPI POP PUSH1 0x1 DUP5 ADD SLOAD PUSH1 0x40 MLOAD SWAP1 PUSH4 0x96834AD3 PUSH1 0xE0 SHL DUP3 MSTORE PUSH1 0x4 DUP3 ADD MSTORE PUSH1 0x80 DUP2 PUSH1 0x24 DUP2 PUSH1 0x1 PUSH1 0x1 PUSH1 0xA0 SHL SUB PUSH32 0x0 AND GAS STATICCALL SWAP1 DUP2 ISZERO PUSH2 0x1CB4 JUMPI SWAP1 PUSH2 0x2E16 SWAP2 DUP4 SWAP2 PUSH2 0x1C6C JUMPI POP PUSH1 0x40 DUP2 MLOAD PUSH1 0x7 SIGNEXTEND SWAP2 ADD MLOAD PUSH1 0x3 SIGNEXTEND SWAP1 PUSH2 0x3340 JUMP JUMPDEST SWAP4 PUSH2 0x2E21 DUP6 DUP3 PUSH2 0x341C JUMP JUMPDEST SWAP2 DUP3 ISZERO DUP1 ISZERO SWAP3 SWAP1 PUSH2 0x2FFD JUMPI PUSH1 0x1 PUSH1 0x1 PUSH1 0xA0 SHL SUB PUSH1 0x9 DUP3 ADD SLOAD AND SWAP5 JUMPDEST DUP1 SLOAD PUSH1 0xFF PUSH1 0xA0 SHL NOT AND PUSH1 0x1 PUSH1 0xA0 SHL OR SWAP1 SSTORE PUSH32 0x0 PUSH1 0x1 PUSH1 0x1 PUSH1 0xA0 SHL SUB AND DUP4 ISZERO PUSH2 0x2FF5 JUMPI PUSH1 0x1 SWAP1 JUMPDEST DUP1 EXTCODESIZE ISZERO PUSH2 0x22A9 JUMPI PUSH2 0x2EB3 SWAP2 PUSH1 0x44 DUP10 DUP7 DUP1 SWAP5 PUSH1 0x40 MLOAD SWAP7 DUP8 SWAP6 DUP7 SWAP5 PUSH4 0x3625B759 PUSH1 0xE2 SHL DUP7 MSTORE PUSH1 0x4 DUP7 ADD MSTORE PUSH1 0x24 DUP6 ADD SWAP1 PUSH2 0x327D JUMP JUMPDEST GAS CALL DUP1 ISZERO PUSH2 0x2225 JUMPI SWAP2 DUP7 SWAP2 DUP7 SWAP4 PUSH2 0x2FE1 JUMPI JUMPDEST POP DUP5 PUSH2 0x2ED5 DUP5 PUSH1 0xB DUP5 ADD SLOAD PUSH2 0x30EC JUMP JUMPDEST DUP1 PUSH2 0x2F9A JUMPI JUMPDEST POP PUSH2 0x2F59 JUMPI JUMPDEST POP POP POP POP PUSH1 0x0 EQ PUSH2 0x2F28 JUMPI PUSH1 0x1 PUSH1 0x1 PUSH1 0xA0 SHL SUB PUSH32 0xD6BB44FA70C7C0AE5C2C12BD210C4A9D4F91E262E7FEE1BFF7EFB4896D3B4D6 SWAP3 PUSH1 0x40 SWAP3 DUP4 MLOAD SWAP7 DUP8 MSTORE PUSH1 0x20 DUP8 ADD MSTORE AND SWAP4 LOG3 JUMP JUMPDEST POP POP SWAP1 POP PUSH32 0x4C168839FC9657BADB834A2FFA05B1FD2183137D236ECA931AAB0710C8B33FE PUSH1 0x20 PUSH1 0x40 MLOAD PUSH1 0x1 DUP2 MSTORE LOG2 JUMP JUMPDEST PUSH1 0xA ADD SLOAD PUSH1 0x1 PUSH1 0x1 PUSH1 0xA0 SHL SUB AND DUP1 PUSH2 0x2F8B JUMPI POP DUP3 DUP1 SWAP3 DUP2 SWAP3 GAS CALL PUSH2 0x2F7B PUSH2 0x3142 JUMP JUMPDEST POP ISZERO PUSH2 0x211C JUMPI JUMPDEST CODESIZE DUP3 DUP5 DUP3 PUSH2 0x2EE1 JUMP JUMPDEST PUSH2 0x2F95 SWAP4 POP PUSH2 0x40F3 JUMP JUMPDEST PUSH2 0x2F82 JUMP JUMPDEST PUSH1 0x1 PUSH1 0x1 PUSH1 0xA0 SHL SUB PUSH1 0x8 DUP5 ADD SLOAD AND DUP7 MSTORE PUSH1 0x4 PUSH1 0x20 MSTORE PUSH1 0x40 DUP7 KECCAK256 PUSH1 0x1 PUSH1 0x1 PUSH1 0xA0 SHL SUB DUP1 PUSH1 0xA DUP7 ADD SLOAD AND AND PUSH1 0x0 MSTORE PUSH1 0x20 MSTORE PUSH2 0x2FD9 PUSH1 0x40 PUSH1 0x0 KECCAK256 SWAP2 DUP3 SLOAD PUSH2 0x3172 JUMP JUMPDEST SWAP1 SSTORE CODESIZE PUSH2 0x2EDB JUMP JUMPDEST DUP5 PUSH2 0x2FEE SWAP2 SWAP6 SWAP3 SWAP6 PUSH2 0x2B6E JUMP JUMPDEST SWAP3 CODESIZE PUSH2 0x2EC5 JUMP JUMPDEST PUSH1 0x2 SWAP1 PUSH2 0x2E81 JUMP JUMPDEST PUSH1 0x1 PUSH1 0x1 PUSH1 0xA0 SHL SUB PUSH1 0x8 DUP3 ADD SLOAD AND SWAP5 PUSH2 0x2E3C JUMP JUMPDEST PUSH4 0x23AF3E9F PUSH1 0xE0 SHL DUP3 MSTORE PUSH1 0x4 DUP5 SWAP1 MSTORE PUSH1 0x24 MSTORE PUSH1 0x44 SWAP2 POP REVERT JUMPDEST POP POP POP POP JUMP JUMPDEST PUSH1 0x40 MLOAD PUSH3 0x461BCD PUSH1 0xE5 SHL DUP2 MSTORE PUSH1 0x20 PUSH1 0x4 DUP3 ADD MSTORE PUSH1 0x18 PUSH1 0x24 DUP3 ADD MSTORE PUSH32 0x5661756C743A206F6E6C7920485353206F72206F776E65720000000000000000 PUSH1 0x44 DUP3 ADD MSTORE PUSH1 0x64 SWAP1 REVERT JUMPDEST POP PUSH1 0x1 PUSH1 0x1 PUSH1 0xA0 SHL SUB PUSH1 0x1 SLOAD AND CALLER EQ PUSH2 0x2D73 JUMP JUMPDEST PUSH1 0x40 MLOAD SWAP1 PUSH2 0x3095 DUP3 PUSH2 0x2B1F JUMP JUMPDEST PUSH1 0x0 PUSH1 0xA0 DUP4 DUP3 DUP2 MSTORE DUP3 PUSH1 0x20 DUP3 ADD MSTORE DUP3 PUSH1 0x40 DUP3 ADD MSTORE DUP3 PUSH1 0x60 DUP3 ADD MSTORE DUP3 PUSH1 0x80 DUP3 ADD MSTORE ADD MSTORE JUMP JUMPDEST SWAP1 CALLDATALOAD SWAP1 PUSH1 0x1E NOT DUP2 CALLDATASIZE SUB ADD DUP3 SLT ISZERO PUSH2 0x1ABE JUMPI ADD DUP1 CALLDATALOAD SWAP1 PUSH8 0xFFFFFFFFFFFFFFFF DUP3 GT PUSH2 0x1ABE JUMPI PUSH1 0x20 ADD SWAP2 DUP2 CALLDATASIZE SUB DUP4 SGT PUSH2 0x1ABE JUMPI JUMP JUMPDEST SWAP2 SWAP1 DUP3 SUB SWAP2 DUP3 GT PUSH2 0x30F9 JUMPI JUMP JUMPDEST PUSH4 0x4E487B71 PUSH1 0xE0 SHL PUSH1 0x0 MSTORE PUSH1 0x11 PUSH1 0x4 MSTORE PUSH1 0x24 PUSH1 0x0 REVERT JUMPDEST DUP2 DUP2 MUL SWAP3 SWAP2 DUP2 ISZERO SWAP2 DUP5 DIV EQ OR ISZERO PUSH2 0x30F9 JUMPI JUMP JUMPDEST DUP2 ISZERO PUSH2 0x312C JUMPI DIV SWAP1 JUMP JUMPDEST PUSH4 0x4E487B71 PUSH1 0xE0 SHL PUSH1 0x0 MSTORE PUSH1 0x12 PUSH1 0x4 MSTORE PUSH1 0x24 PUSH1 0x0 REVERT JUMPDEST RETURNDATASIZE ISZERO PUSH2 0x316D JUMPI RETURNDATASIZE SWAP1 PUSH2 0x3153 DUP3 PUSH2 0x2C9C JUMP JUMPDEST SWAP2 PUSH2 0x3161 PUSH1 0x40 MLOAD SWAP4 DUP5 PUSH2 0x2B6E JUMP JUMPDEST DUP3 MSTORE RETURNDATASIZE PUSH1 0x0 PUSH1 0x20 DUP5 ADD RETURNDATACOPY JUMP JUMPDEST PUSH1 0x60 SWAP1 JUMP JUMPDEST SWAP2 SWAP1 DUP3 ADD DUP1 SWAP3 GT PUSH2 0x30F9 JUMPI JUMP JUMPDEST SWAP1 DUP1 PUSH1 0x20 SWAP4 SWAP3 DUP2 DUP5 MSTORE DUP5 DUP5 ADD CALLDATACOPY PUSH1 0x0 DUP3 DUP3 ADD DUP5 ADD MSTORE PUSH1 0x1F ADD PUSH1 0x1F NOT AND ADD ADD SWAP1 JUMP JUMPDEST SWAP2 DUP1 PUSH1 0x20 DUP5 ADD PUSH1 0x20 DUP6 MSTORE MSTORE PUSH1 0x40 DUP4 ADD SWAP1 PUSH1 0x40 DUP2 PUSH1 0x5 SHL DUP6 ADD ADD SWAP4 DUP4 PUSH1 0x0 SWAP2 PUSH1 0x1E NOT DUP3 CALLDATASIZE SUB ADD SWAP1 JUMPDEST DUP5 DUP5 LT PUSH2 0x31D8 JUMPI POP POP POP POP POP POP POP SWAP1 JUMP JUMPDEST SWAP1 SWAP2 SWAP3 SWAP4 SWAP5 SWAP6 SWAP7 PUSH1 0x3F NOT DUP3 DUP3 SUB ADD DUP8 MSTORE DUP8 CALLDATALOAD DUP4 DUP2 SLT ISZERO PUSH2 0x1ABE JUMPI DUP5 ADD SWAP1 PUSH1 0x20 DUP3 CALLDATALOAD SWAP3 ADD SWAP2 PUSH8 0xFFFFFFFFFFFFFFFF DUP2 GT PUSH2 0x1ABE JUMPI DUP1 CALLDATASIZE SUB DUP4 SGT PUSH2 0x1ABE JUMPI PUSH2 0x3224 PUSH1 0x20 SWAP3 DUP4 SWAP3 PUSH1 0x1 SWAP6 PUSH2 0x317F JUMP JUMPDEST SWAP10 ADD SWAP8 ADD SWAP6 SWAP5 ADD SWAP3 SWAP2 SWAP1 PUSH2 0x31C7 JUMP JUMPDEST SWAP1 CALLDATALOAD SWAP1 PUSH1 0x1E NOT DUP2 CALLDATASIZE SUB ADD DUP3 SLT ISZERO PUSH2 0x1ABE JUMPI ADD DUP1 CALLDATALOAD SWAP1 PUSH8 0xFFFFFFFFFFFFFFFF DUP3 GT PUSH2 0x1ABE JUMPI PUSH1 0x20 ADD SWAP2 DUP2 PUSH1 0x5 SHL CALLDATASIZE SUB DUP4 SGT PUSH2 0x1ABE JUMPI JUMP JUMPDEST CALLDATALOAD PUSH1 0x1 PUSH1 0x1 PUSH1 0xA0 SHL SUB DUP2 AND DUP2 SUB PUSH2 0x1ABE JUMPI SWAP1 JUMP JUMPDEST SWAP1 PUSH1 0x3 DUP3 LT ISZERO PUSH2 0x2C86 JUMPI MSTORE JUMP JUMPDEST PUSH1 0x1F DUP3 GT PUSH2 0x3297 JUMPI POP POP POP JUMP JUMPDEST PUSH1 0x0 MSTORE PUSH1 0x20 PUSH1 0x0 KECCAK256 SWAP1 PUSH1 0x20 PUSH1 0x1F DUP5 ADD PUSH1 0x5 SHR DUP4 ADD SWAP4 LT PUSH2 0x32D2 JUMPI JUMPDEST PUSH1 0x1F ADD PUSH1 0x5 SHR ADD SWAP1 JUMPDEST DUP2 DUP2 LT PUSH2 0x32C6 JUMPI POP POP JUMP JUMPDEST PUSH1 0x0 DUP2 SSTORE PUSH1 0x1 ADD PUSH2 0x32BB JUMP JUMPDEST SWAP1 SWAP2 POP DUP2 SWAP1 PUSH2 0x32B2 JUMP JUMPDEST PUSH1 0x2 PUSH1 0x0 SLOAD EQ PUSH2 0x32ED JUMPI PUSH1 0x2 PUSH1 0x0 SSTORE JUMP JUMPDEST PUSH1 0x40 MLOAD PUSH3 0x461BCD PUSH1 0xE5 SHL DUP2 MSTORE PUSH1 0x20 PUSH1 0x4 DUP3 ADD MSTORE PUSH1 0x1F PUSH1 0x24 DUP3 ADD MSTORE PUSH32 0x5265656E7472616E637947756172643A207265656E7472616E742063616C6C00 PUSH1 0x44 DUP3 ADD MSTORE PUSH1 0x64 SWAP1 REVERT JUMPDEST PUSH1 0x4D DUP2 GT PUSH2 0x30F9 JUMPI PUSH1 0xA EXP SWAP1 JUMP JUMPDEST PUSH1 0x7 SIGNEXTEND SWAP1 PUSH1 0x0 DUP3 SGT ISZERO PUSH2 0x33D7 JUMPI PUSH1 0x3 SIGNEXTEND PUSH1 0x0 DUP2 SLT PUSH2 0x338F JUMPI SWAP1 PUSH2 0x3365 PUSH2 0x336B SWAP3 PUSH2 0x3332 JUMP JUMPDEST SWAP1 PUSH2 0x310F JUMP JUMPDEST PUSH8 0xDE0B6B3A7640000 DUP2 MUL SWAP1 DUP1 DUP3 DIV PUSH8 0xDE0B6B3A7640000 EQ SWAP1 ISZERO OR ISZERO PUSH2 0x30F9 JUMPI SWAP1 JUMP JUMPDEST PUSH4 0x7FFFFFFF NOT DUP2 EQ PUSH2 0x30F9 JUMPI PUSH2 0x33AA SWAP1 PUSH1 0x0 SUB PUSH1 0x3 SIGNEXTEND PUSH2 0x3332 JUMP JUMPDEST PUSH8 0xDE0B6B3A7640000 DUP3 MUL SWAP2 DUP1 DUP4 DIV PUSH8 0xDE0B6B3A7640000 EQ SWAP1 ISZERO OR ISZERO PUSH2 0x30F9 JUMPI PUSH2 0x33D4 SWAP2 PUSH2 0x3122 JUMP JUMPDEST SWAP1 JUMP JUMPDEST PUSH1 0x40 MLOAD PUSH3 0x461BCD PUSH1 0xE5 SHL DUP2 MSTORE PUSH1 0x20 PUSH1 0x4 DUP3 ADD MSTORE PUSH1 0x13 PUSH1 0x24 DUP3 ADD MSTORE PUSH32 0x46504D3A206E6567617469766520707269636500000000000000000000000000 PUSH1 0x44 DUP3 ADD MSTORE PUSH1 0x64 SWAP1 REVERT JUMPDEST PUSH1 0x3 DUP2 ADD SLOAD PUSH1 0x0 SWAP4 SWAP3 SWAP1 PUSH1 0xFF AND PUSH2 0x3432 DUP2 PUSH2 0x2C7C JUMP JUMPDEST PUSH2 0x3489 JUMPI PUSH1 0x4 DUP3 ADD SLOAD SWAP1 DUP2 DUP2 GT PUSH2 0x345A JUMPI JUMPDEST POP POP PUSH1 0xB SWAP1 JUMPDEST ADD SLOAD DUP1 DUP4 GT PUSH2 0x3456 JUMPI POP JUMP JUMPDEST SWAP2 POP JUMP JUMPDEST PUSH1 0xB SWAP3 SWAP5 POP PUSH2 0x3475 PUSH8 0xDE0B6B3A7640000 SWAP3 PUSH2 0x3480 SWAP3 PUSH2 0x30EC JUMP JUMPDEST PUSH1 0x6 DUP7 ADD SLOAD SWAP1 PUSH2 0x310F JUMP JUMPDEST DIV SWAP3 SWAP1 CODESIZE PUSH2 0x3444 JUMP JUMPDEST PUSH1 0x4 DUP3 ADD SLOAD DUP2 DUP2 GT PUSH2 0x34A0 JUMPI JUMPDEST POP POP PUSH1 0xB SWAP1 PUSH2 0x344A JUMP JUMPDEST PUSH1 0xB SWAP3 SWAP5 POP PUSH2 0x3475 PUSH8 0xDE0B6B3A7640000 SWAP3 PUSH2 0x34BB SWAP3 PUSH2 0x30EC JUMP JUMPDEST DIV SWAP3 SWAP1 CODESIZE PUSH2 0x3496 JUMP JUMPDEST SWAP1 PUSH1 0x40 MLOAD PUSH1 0x20 DUP2 DUP5 MLOAD PUSH2 0x34DA DUP2 DUP4 DUP6 DUP10 ADD PUSH2 0x2C34 JUMP JUMPDEST DUP2 ADD PUSH1 0x6 DUP2 MSTORE SUB ADD SWAP1 KECCAK256 SLOAD SWAP2 DUP3 ISZERO PUSH2 0x34EF JUMPI POP JUMP JUMPDEST PUSH1 0x40 MLOAD PUSH4 0x6FAD28D PUSH1 0xE3 SHL DUP2 MSTORE PUSH1 0x20 PUSH1 0x4 DUP3 ADD MSTORE SWAP1 DUP2 SWAP1 PUSH2 0x1DC8 SWAP1 PUSH1 0x24 DUP4 ADD SWAP1 PUSH2 0x2C57 JUMP JUMPDEST PUSH8 0xDE0B6B3A7640000 DUP2 MUL SWAP1 DUP1 DUP3 DIV PUSH8 0xDE0B6B3A7640000 EQ SWAP1 ISZERO OR ISZERO PUSH2 0x30F9 JUMPI PUSH4 0x1E13380 SWAP1 DIV SWAP1 JUMP JUMPDEST SWAP1 PUSH8 0xDE0B6B3A763FFFF NOT DUP3 ADD SWAP2 DUP3 SGT PUSH1 0x1 AND PUSH2 0x30F9 JUMPI JUMP JUMPDEST SWAP1 PUSH1 0x0 DUP3 PUSH8 0xDE0B6B3A7640000 SUB SWAP3 SLT PUSH8 0xDE0B6B3A7640000 DUP4 SLT DUP2 AND SWAP1 PUSH8 0xDE0B6B3A7640000 DUP5 SGT SWAP1 ISZERO AND OR PUSH2 0x30F9 JUMPI JUMP JUMPDEST DUP2 DUP2 SUB SWAP3 SWAP2 PUSH1 0x0 SGT DUP1 ISZERO DUP3 DUP6 SGT AND SWAP2 DUP5 SLT AND OR PUSH2 0x30F9 JUMPI JUMP JUMPDEST PUSH1 0x1 PUSH1 0xFF SHL DUP2 EQ PUSH2 0x30F9 JUMPI PUSH1 0x0 SUB SWAP1 JUMP JUMPDEST DUP2 ISZERO PUSH2 0x312C JUMPI PUSH1 0x1 PUSH1 0xFF SHL DUP2 EQ PUSH1 0x0 NOT DUP4 EQ AND PUSH2 0x30F9 JUMPI SDIV SWAP1 JUMP JUMPDEST SWAP1 PUSH8 0xDE0B6B3A7640000 DUP3 MUL SWAP2 DUP1 DUP4 SDIV PUSH8 0xDE0B6B3A7640000 EQ SWAP1 ISZERO OR ISZERO PUSH2 0x30F9 JUMPI JUMP JUMPDEST SWAP1 PUSH8 0x99E8DB03256CE5D DUP3 MUL SWAP2 DUP1 DUP4 SDIV PUSH8 0x99E8DB03256CE5D EQ SWAP1 ISZERO OR ISZERO PUSH2 0x30F9 JUMPI JUMP JUMPDEST SWAP1 PUSH8 0x58953E3ED363066 DUP3 MUL SWAP2 DUP1 DUP4 SDIV PUSH8 0x58953E3ED363066 EQ SWAP1 ISZERO OR ISZERO PUSH2 0x30F9 JUMPI JUMP JUMPDEST DUP2 DUP2 MUL SWAP3 SWAP2 PUSH1 0x0 DUP3 SLT PUSH1 0x1 PUSH1 0xFF SHL DUP3 EQ AND PUSH2 0x30F9 JUMPI DUP2 DUP5 SDIV EQ SWAP1 ISZERO OR ISZERO PUSH2 0x30F9 JUMPI JUMP JUMPDEST SWAP1 PUSH1 0x4 DUP3 ADD SWAP2 PUSH1 0x0 PUSH1 0x4 DUP5 SLT SWAP2 SLT SWAP1 DUP1 ISZERO DUP3 AND SWAP2 ISZERO AND OR PUSH2 0x30F9 JUMPI JUMP JUMPDEST SWAP1 PUSH1 0x3 DUP3 ADD SWAP2 PUSH1 0x0 PUSH1 0x3 DUP5 SLT SWAP2 SLT SWAP1 DUP1 ISZERO DUP3 AND SWAP2 ISZERO AND OR PUSH2 0x30F9 JUMPI JUMP JUMPDEST SWAP1 PUSH1 0x2 DUP3 ADD SWAP2 PUSH1 0x0 PUSH1 0x2 DUP5 SLT SWAP2 SLT SWAP1 DUP1 ISZERO DUP3 AND SWAP2 ISZERO AND OR PUSH2 0x30F9 JUMPI JUMP JUMPDEST SWAP1 PUSH1 0x1 DUP3 ADD SWAP2 PUSH1 0x0 PUSH1 0x1 DUP5 SLT SWAP2 SLT SWAP1 DUP1 ISZERO DUP3 AND SWAP2 ISZERO AND OR PUSH2 0x30F9 JUMPI JUMP JUMPDEST SWAP1 DUP2 PUSH8 0xDE0B6B3A7640000 ADD SWAP2 DUP3 SLT PUSH1 0x1 AND PUSH2 0x30F9 JUMPI JUMP JUMPDEST SWAP2 SWAP1 SWAP2 PUSH1 0x0 DUP4 DUP3 ADD SWAP4 DUP5 SLT SWAP2 SLT SWAP1 DUP1 ISZERO DUP3 AND SWAP2 ISZERO AND OR PUSH2 0x30F9 JUMPI JUMP JUMPDEST SWAP1 PUSH2 0x3710 PUSH2 0x3088 JUMP JUMPDEST SWAP1 DUP3 MLOAD ISZERO PUSH2 0x4056 JUMPI PUSH1 0x20 DUP4 ADD MLOAD ISZERO PUSH2 0x4011 JUMPI PUSH1 0x40 DUP4 ADD MLOAD ISZERO PUSH2 0x3FCC JUMPI PUSH1 0x80 DUP4 ADD MLOAD ISZERO PUSH2 0x3F87 JUMPI PUSH1 0x40 MLOAD PUSH1 0x60 DUP2 ADD DUP2 DUP2 LT PUSH8 0xFFFFFFFFFFFFFFFF DUP3 GT OR PUSH2 0x2B3B JUMPI PUSH1 0x40 MSTORE PUSH1 0x0 DUP2 MSTORE PUSH1 0x20 DUP2 ADD SWAP1 PUSH1 0x0 DUP3 MSTORE PUSH1 0x0 PUSH1 0x40 DUP3 ADD MSTORE PUSH8 0xDE0B6B3A7640000 PUSH2 0x378A PUSH2 0x3780 PUSH1 0x80 DUP9 ADD MLOAD PUSH2 0x4606 JUMP JUMPDEST PUSH1 0x40 DUP9 ADD MLOAD PUSH2 0x363C JUMP JUMPDEST SDIV PUSH1 0x40 DUP3 ADD MSTORE DUP5 MLOAD PUSH1 0x20 DUP7 ADD MLOAD PUSH8 0xDE0B6B3A7640000 DUP3 MUL SWAP2 DUP1 DUP4 DIV PUSH8 0xDE0B6B3A7640000 EQ SWAP1 ISZERO OR ISZERO PUSH2 0x30F9 JUMPI PUSH2 0x37C1 SWAP2 PUSH2 0x3122 JUMP JUMPDEST SWAP2 PUSH1 0x0 DUP4 SGT ISZERO PUSH2 0x3F42 JUMPI PUSH1 0x0 DUP4 PUSH9 0x6F05B59D3B2000000 SWAP5 DUP6 DUP2 SLT ISZERO PUSH2 0x3F34 JUMPI JUMPDEST POP PUSH1 0x0 SWAP5 PUSH8 0xDE0B6B3A76400000 DUP1 DUP4 SLT ISZERO PUSH2 0x3F1F JUMPI JUMPDEST PUSH8 0x6F05B59D3B200000 DUP1 DUP5 SLT ISZERO PUSH2 0x3F0A JUMPI JUMPDEST PUSH8 0x3782DACE9D900000 SWAP2 DUP3 DUP6 SLT ISZERO PUSH2 0x3EF5 JUMPI JUMPDEST PUSH8 0x1BC16D674EC80000 SWAP4 DUP5 DUP7 SLT ISZERO PUSH2 0x3EE0 JUMPI JUMPDEST PUSH8 0xDE0B6B3A7640000 DUP7 SLT PUSH2 0x3EC5 JUMPI JUMPDEST PUSH8 0xDE0B6B3A7640000 DUP7 SLT PUSH2 0x3EAA JUMPI JUMPDEST PUSH8 0xDE0B6B3A7640000 DUP7 SLT PUSH2 0x3E8F JUMPI JUMPDEST PUSH8 0xDE0B6B3A7640000 DUP7 SLT PUSH2 0x3E61 JUMPI JUMPDEST DUP6 SLT ISZERO PUSH2 0x3E28 JUMPI JUMPDEST DUP5 SLT ISZERO PUSH2 0x3E13 JUMPI JUMPDEST DUP4 SLT ISZERO PUSH2 0x3DFE JUMPI JUMPDEST DUP3 SLT ISZERO PUSH2 0x3DE9 JUMPI JUMPDEST DUP2 SLT ISZERO PUSH2 0x3DD6 JUMPI JUMPDEST PUSH2 0x38A1 DUP2 PUSH2 0x353F JUMP JUMPDEST PUSH8 0xDE0B6B3A7640000 DUP3 ADD SWAP2 DUP7 PUSH8 0xDE0B6B3A7640000 DUP5 SLT SWAP2 SLT SWAP1 DUP1 ISZERO DUP3 AND SWAP2 ISZERO AND OR PUSH2 0x3D38 JUMPI PUSH2 0x38D1 SWAP1 PUSH2 0x35D0 JUMP JUMPDEST SWAP1 PUSH2 0x38DB SWAP2 PUSH2 0x35B5 JUMP JUMPDEST PUSH2 0x38E5 DUP2 DUP1 PUSH2 0x363C JUMP JUMPDEST PUSH8 0xDE0B6B3A7640000 SWAP1 SDIV DUP1 DUP1 DUP1 DUP5 PUSH2 0x38FF DUP3 DUP1 SWAP8 PUSH2 0x363C JUMP JUMPDEST PUSH8 0xDE0B6B3A7640000 SWAP1 SDIV SWAP1 PUSH1 0x3 DUP3 SDIV PUSH2 0x3918 SWAP2 PUSH2 0x36EB JUMP JUMPDEST SWAP2 PUSH2 0x3922 SWAP2 PUSH2 0x363C JUMP JUMPDEST PUSH8 0xDE0B6B3A7640000 SWAP1 SDIV SWAP1 PUSH1 0x5 DUP3 SDIV PUSH2 0x393B SWAP2 PUSH2 0x36EB JUMP JUMPDEST SWAP2 PUSH2 0x3945 SWAP2 PUSH2 0x363C JUMP JUMPDEST PUSH8 0xDE0B6B3A7640000 SWAP1 SDIV SWAP1 PUSH1 0x7 DUP3 SDIV PUSH2 0x395E SWAP2 PUSH2 0x36EB JUMP JUMPDEST SWAP2 PUSH2 0x3968 SWAP2 PUSH2 0x363C JUMP JUMPDEST PUSH8 0xDE0B6B3A7640000 SWAP1 SDIV SWAP1 PUSH1 0x9 DUP3 SDIV PUSH2 0x3981 SWAP2 PUSH2 0x36EB JUMP JUMPDEST SWAP2 PUSH2 0x398B SWAP2 PUSH2 0x363C JUMP JUMPDEST PUSH8 0xDE0B6B3A7640000 SWAP1 SDIV SWAP1 PUSH1 0xB DUP3 SDIV PUSH2 0x39A4 SWAP2 PUSH2 0x36EB JUMP JUMPDEST SWAP2 PUSH2 0x39AE SWAP2 PUSH2 0x363C JUMP JUMPDEST PUSH8 0xDE0B6B3A7640000 SWAP1 SDIV PUSH1 0xD SWAP1 SDIV PUSH2 0x39C6 SWAP2 PUSH2 0x36EB JUMP JUMPDEST SWAP1 DUP2 PUSH1 0x1 SHL SWAP2 DUP1 DUP4 SDIV PUSH1 0x2 EQ SWAP1 ISZERO OR ISZERO PUSH2 0x3DC2 JUMPI SWAP1 PUSH2 0x39E7 PUSH2 0x39EC SWAP3 PUSH2 0x35F4 JUMP JUMPDEST PUSH2 0x36EB JUMP JUMPDEST PUSH8 0xDE0B6B3A7640000 PUSH2 0x3A23 PUSH2 0x3A18 PUSH1 0x2 DUP4 PUSH2 0x3A0C PUSH1 0x40 DUP14 ADD MLOAD DUP1 PUSH2 0x310F JUMP JUMPDEST DIV SDIV PUSH1 0x60 DUP12 ADD MLOAD PUSH2 0x36EB JUMP JUMPDEST PUSH1 0x80 DUP11 ADD MLOAD SWAP1 PUSH2 0x363C JUMP JUMPDEST SDIV DUP5 PUSH1 0x40 DUP6 ADD MLOAD SGT PUSH1 0x0 EQ PUSH2 0x3DB7 JUMPI PUSH2 0x3A42 PUSH2 0x3A55 SWAP2 PUSH2 0x3A63 SWAP4 PUSH2 0x36EB JUMP JUMPDEST PUSH2 0x3A50 PUSH1 0x40 DUP7 ADD MLOAD SWAP2 PUSH2 0x35D0 JUMP JUMPDEST PUSH2 0x35B5 JUMP JUMPDEST DUP1 DUP5 MSTORE PUSH1 0x40 DUP5 ADD MLOAD SWAP1 PUSH2 0x358B JUMP JUMPDEST DUP2 MSTORE DUP6 PUSH2 0x3A7A PUSH2 0x3A73 DUP5 MLOAD PUSH2 0x41F6 JUMP JUMPDEST SWAP3 MLOAD PUSH2 0x41F6 JUMP JUMPDEST SWAP3 PUSH2 0x3A84 DUP4 PUSH2 0x3558 JUMP JUMPDEST DUP6 PUSH2 0x3A8E DUP7 PUSH2 0x3558 JUMP JUMPDEST SWAP3 PUSH8 0xDE0B6B3A7640000 PUSH2 0x3ACA PUSH2 0x3AC0 PUSH2 0x3ABB DUP4 PUSH2 0x3AB5 PUSH1 0x60 DUP12 ADD MLOAD PUSH1 0x80 DUP13 ADD MLOAD SWAP1 PUSH2 0x363C JUMP JUMPDEST SDIV PUSH2 0x35A4 JUMP JUMPDEST PUSH2 0x43D2 JUMP JUMPDEST PUSH1 0x20 DUP9 ADD MLOAD PUSH2 0x363C JUMP JUMPDEST SDIV SWAP11 DUP12 SWAP7 DUP2 MLOAD SWAP13 DUP14 SWAP6 DUP8 PUSH1 0xA0 DUP6 ADD MLOAD PUSH2 0x3AE2 DUP2 PUSH2 0x2C7C JUMP JUMPDEST PUSH2 0x3AEB DUP2 PUSH2 0x2C7C JUMP JUMPDEST PUSH2 0x3D7E JUMPI POP POP POP PUSH2 0x3B23 PUSH8 0xDE0B6B3A7640000 PUSH2 0x3B08 DUP4 DUP9 PUSH2 0x363C JUMP JUMPDEST SDIV PUSH8 0xDE0B6B3A7640000 PUSH2 0x3B1C DUP13 DUP13 PUSH2 0x363C JUMP JUMPDEST SDIV SWAP1 PUSH2 0x358B JUMP JUMPDEST DUP5 DUP2 SGT ISZERO PUSH2 0x3D77 JUMPI JUMPDEST DUP13 MSTORE JUMPDEST DUP12 DUP4 MLOAD DUP1 PUSH2 0x3B3C SWAP2 PUSH2 0x363C JUMP JUMPDEST PUSH8 0xDE0B6B3A7640000 SWAP1 SDIV PUSH2 0x3B50 SWAP1 PUSH2 0x35A4 JUMP JUMPDEST PUSH1 0x2 SWAP1 SDIV PUSH2 0x3B5D SWAP1 PUSH2 0x43D2 JUMP JUMPDEST PUSH2 0x3B66 SWAP1 PUSH2 0x3618 JUMP JUMPDEST PUSH8 0xDE0B6B3A7640000 SWAP1 SDIV SWAP4 DUP5 SWAP3 PUSH1 0xA0 DUP6 ADD MLOAD PUSH2 0x3B82 DUP2 PUSH2 0x2C7C JUMP JUMPDEST PUSH2 0x3B8B DUP2 PUSH2 0x2C7C JUMP JUMPDEST ISZERO PUSH1 0x0 EQ SWAP8 PUSH8 0xDE0B6B3A7640000 PUSH2 0x3C27 SWAP9 PUSH2 0x3BF9 DUP3 SWAP12 SWAP10 PUSH2 0x3BF3 PUSH1 0x80 PUSH2 0x3C1B SWAP12 PUSH1 0x64 SWAP11 DUP8 SWAP15 PUSH2 0x3BD0 PUSH1 0x40 DUP11 SWAP14 PUSH2 0x3C01 SWAP14 DUP13 SWAP5 PUSH2 0x3D69 JUMPI JUMPDEST PUSH1 0x20 DUP7 ADD MSTORE ADD MLOAD DUP12 PUSH2 0x363C JUMP JUMPDEST SDIV DUP8 DUP2 SGT ISZERO PUSH2 0x3D5F JUMPI PUSH2 0x3BE8 PUSH1 0x40 SWAP2 PUSH2 0x3A50 DUP9 PUSH2 0x35D0 JUMP JUMPDEST SWAP2 JUMPDEST ADD MSTORE ADD MLOAD PUSH2 0x4606 JUMP JUMPDEST SWAP5 PUSH2 0x363C JUMP JUMPDEST SWAP1 POP SDIV PUSH2 0x363C JUMP JUMPDEST SDIV DIV PUSH1 0x60 DUP14 ADD MSTORE PUSH2 0x3C15 PUSH1 0x80 DUP9 ADD MLOAD PUSH2 0x4606 JUMP JUMPDEST SWAP13 PUSH2 0x363C JUMP JUMPDEST SDIV PUSH1 0x40 DUP6 ADD MLOAD SWAP1 PUSH2 0x363C JUMP JUMPDEST SDIV DUP6 DUP10 SGT ISZERO PUSH2 0x3D4C JUMPI DUP9 PUSH1 0x1 SHL SWAP9 PUSH1 0x2 DUP11 SDIV SUB PUSH2 0x3D38 JUMPI PUSH2 0x3CA3 PUSH2 0x3C5D PUSH2 0x3C58 PUSH1 0x64 SWAP10 SWAP11 SWAP12 PUSH2 0x3A50 PUSH2 0x16D SWAP6 PUSH2 0x35D0 JUMP JUMPDEST PUSH2 0x35A4 JUMP JUMPDEST PUSH1 0xA0 DUP6 ADD MLOAD PUSH2 0x3C6B DUP2 PUSH2 0x2C7C JUMP JUMPDEST PUSH2 0x3C74 DUP2 PUSH2 0x2C7C JUMP JUMPDEST PUSH2 0x3D15 JUMPI PUSH2 0x3C9D PUSH8 0xDE0B6B3A7640000 PUSH2 0x3AB5 DUP10 DUP3 PUSH2 0x3C97 DUP12 PUSH1 0x60 DUP13 ADD MLOAD PUSH2 0x363C JUMP JUMPDEST SDIV PUSH2 0x363C JUMP JUMPDEST SWAP1 PUSH2 0x36EB JUMP JUMPDEST SDIV PUSH1 0x80 DUP10 ADD MSTORE PUSH1 0xA0 DUP3 ADD MLOAD PUSH2 0x3CB7 DUP2 PUSH2 0x2C7C JUMP JUMPDEST PUSH2 0x3CC0 DUP2 PUSH2 0x2C7C JUMP JUMPDEST PUSH2 0x3CEE JUMPI POP SWAP2 PUSH8 0xDE0B6B3A7640000 PUSH2 0x3C97 PUSH2 0x3CE2 SWAP4 PUSH1 0x80 DUP4 SWAP7 ADD MLOAD SWAP1 PUSH2 0x363C JUMP JUMPDEST SDIV SWAP1 JUMPDEST POP SDIV PUSH1 0xA0 DUP4 ADD MSTORE JUMP JUMPDEST PUSH2 0x3D0F SWAP4 POP PUSH8 0xDE0B6B3A7640000 PUSH2 0x3C97 DUP2 SWAP5 PUSH1 0x80 PUSH2 0x3AB5 SWAP6 ADD MLOAD SWAP1 PUSH2 0x363C JUMP JUMPDEST SWAP1 PUSH2 0x3CE5 JUMP JUMPDEST PUSH8 0xDE0B6B3A7640000 PUSH2 0x3D31 DUP6 DUP3 PUSH2 0x3C97 DUP11 PUSH1 0x60 DUP12 ADD MLOAD PUSH2 0x363C JUMP JUMPDEST SDIV SWAP1 PUSH2 0x36EB JUMP JUMPDEST PUSH4 0x4E487B71 PUSH1 0xE0 SHL DUP7 MSTORE PUSH1 0x11 PUSH1 0x4 MSTORE PUSH1 0x24 DUP7 REVERT JUMPDEST POP PUSH1 0x64 SWAP6 SWAP7 SWAP8 POP PUSH2 0x16D PUSH2 0x3CA3 DUP7 PUSH2 0x3C5D JUMP JUMPDEST POP PUSH1 0x40 DUP8 SWAP2 PUSH2 0x3BEA JUMP JUMPDEST PUSH2 0x3D72 SWAP1 PUSH2 0x353F JUMP JUMPDEST PUSH2 0x3BC3 JUMP JUMPDEST POP DUP4 PUSH2 0x3B2C JUMP JUMPDEST PUSH2 0x3B1C PUSH8 0xDE0B6B3A7640000 PUSH2 0x3D98 DUP2 SWAP4 PUSH2 0x3DA0 SWAP7 PUSH2 0x363C JUMP JUMPDEST SDIV SWAP3 DUP10 PUSH2 0x363C JUMP JUMPDEST DUP5 DUP2 SGT ISZERO PUSH2 0x3DB0 JUMPI JUMPDEST DUP13 MSTORE PUSH2 0x3B2F JUMP JUMPDEST POP DUP4 PUSH2 0x3DA9 JUMP JUMPDEST POP POP PUSH2 0x3A63 DUP4 PUSH2 0x3A55 JUMP JUMPDEST PUSH4 0x4E487B71 PUSH1 0xE0 SHL DUP6 MSTORE PUSH1 0x11 PUSH1 0x4 MSTORE PUSH1 0x24 DUP6 REVERT JUMPDEST PUSH2 0x3DE3 SWAP1 PUSH1 0x1 SAR SWAP2 PUSH2 0x36B6 JUMP JUMPDEST SWAP1 PUSH2 0x3898 JUMP JUMPDEST SWAP2 SWAP1 PUSH2 0x3DF8 SWAP1 PUSH1 0x2 SAR SWAP2 PUSH2 0x3699 JUMP JUMPDEST SWAP2 PUSH2 0x3890 JUMP JUMPDEST SWAP3 SWAP2 PUSH2 0x3E0D SWAP1 PUSH1 0x3 SAR SWAP3 PUSH2 0x367C JUMP JUMPDEST SWAP3 PUSH2 0x3888 JUMP JUMPDEST SWAP4 SWAP3 PUSH2 0x3E22 SWAP1 PUSH1 0x4 SAR SWAP4 PUSH2 0x365F JUMP JUMPDEST SWAP4 PUSH2 0x3880 JUMP JUMPDEST SWAP5 SWAP4 PUSH1 0x7 SAR SWAP4 PUSH1 0x7 DUP2 ADD SWAP1 DUP10 PUSH1 0x7 DUP4 SLT SWAP2 SLT SWAP1 DUP1 ISZERO DUP3 AND SWAP2 ISZERO AND OR PUSH2 0x3E4D JUMPI SWAP5 PUSH2 0x3878 JUMP JUMPDEST PUSH4 0x4E487B71 PUSH1 0xE0 SHL DUP10 MSTORE PUSH1 0x11 PUSH1 0x4 MSTORE PUSH1 0x24 DUP10 REVERT JUMPDEST SWAP6 PUSH1 0x1 SWAP6 DUP7 SHL SWAP6 PUSH1 0x0 NOT DUP3 ADD SWAP2 DUP3 SGT AND PUSH2 0x3E7B JUMPI SWAP6 PUSH2 0x3870 JUMP JUMPDEST PUSH4 0x4E487B71 PUSH1 0xE0 SHL DUP11 MSTORE PUSH1 0x11 PUSH1 0x4 MSTORE PUSH1 0x24 DUP11 REVERT JUMPDEST SWAP6 SWAP5 PUSH1 0x2 SHL SWAP5 PUSH1 0x1 NOT DUP2 ADD SWAP1 DUP2 SGT PUSH1 0x1 AND PUSH2 0x3E7B JUMPI SWAP6 PUSH2 0x3860 JUMP JUMPDEST SWAP6 SWAP5 PUSH1 0x4 SHL SWAP5 PUSH1 0x3 NOT DUP2 ADD SWAP1 DUP2 SGT PUSH1 0x1 AND PUSH2 0x3E7B JUMPI SWAP6 PUSH2 0x3850 JUMP JUMPDEST SWAP6 SWAP5 PUSH1 0x7 SHL SWAP5 PUSH1 0x6 NOT DUP2 ADD SWAP1 DUP2 SGT PUSH1 0x1 AND PUSH2 0x3E7B JUMPI SWAP6 PUSH2 0x3840 JUMP JUMPDEST SWAP6 SWAP5 PUSH2 0x3EEF SWAP1 PUSH1 0x1 SAR SWAP6 PUSH2 0x36B6 JUMP JUMPDEST SWAP6 PUSH2 0x3830 JUMP JUMPDEST SWAP5 SWAP4 PUSH2 0x3F04 SWAP1 PUSH1 0x2 SAR SWAP5 PUSH2 0x3699 JUMP JUMPDEST SWAP5 PUSH2 0x381D JUMP JUMPDEST SWAP4 SWAP3 PUSH2 0x3F19 SWAP1 PUSH1 0x3 SAR SWAP4 PUSH2 0x367C JUMP JUMPDEST SWAP4 PUSH2 0x380A JUMP JUMPDEST SWAP3 SWAP2 PUSH2 0x3F2E SWAP1 PUSH1 0x4 SAR SWAP3 PUSH2 0x365F JUMP JUMPDEST SWAP3 PUSH2 0x37F8 JUMP JUMPDEST PUSH1 0x7 SWAP3 POP DUP3 SAR SWAP1 POP CODESIZE PUSH2 0x37E2 JUMP JUMPDEST PUSH1 0x40 MLOAD PUSH3 0x461BCD PUSH1 0xE5 SHL DUP2 MSTORE PUSH1 0x20 PUSH1 0x4 DUP3 ADD MSTORE PUSH1 0xD PUSH1 0x24 DUP3 ADD MSTORE PUSH32 0x46504D3A206C6E28783C3D302900000000000000000000000000000000000000 PUSH1 0x44 DUP3 ADD MSTORE PUSH1 0x64 SWAP1 REVERT JUMPDEST PUSH1 0x40 MLOAD PUSH3 0x461BCD PUSH1 0xE5 SHL DUP2 MSTORE PUSH1 0x20 PUSH1 0x4 DUP3 ADD MSTORE PUSH1 0x7 PUSH1 0x24 DUP3 ADD MSTORE PUSH32 0x42533A20543D3000000000000000000000000000000000000000000000000000 PUSH1 0x44 DUP3 ADD MSTORE PUSH1 0x64 SWAP1 REVERT JUMPDEST PUSH1 0x40 MLOAD PUSH3 0x461BCD PUSH1 0xE5 SHL DUP2 MSTORE PUSH1 0x20 PUSH1 0x4 DUP3 ADD MSTORE PUSH1 0xB PUSH1 0x24 DUP3 ADD MSTORE PUSH32 0x42533A207369676D613D30000000000000000000000000000000000000000000 PUSH1 0x44 DUP3 ADD MSTORE PUSH1 0x64 SWAP1 REVERT JUMPDEST PUSH1 0x40 MLOAD PUSH3 0x461BCD PUSH1 0xE5 SHL DUP2 MSTORE PUSH1 0x20 PUSH1 0x4 DUP3 ADD MSTORE PUSH1 0xC PUSH1 0x24 DUP3 ADD MSTORE PUSH32 0x42533A20737472696B653D300000000000000000000000000000000000000000 PUSH1 0x44 DUP3 ADD MSTORE PUSH1 0x64 SWAP1 REVERT JUMPDEST PUSH1 0x40 MLOAD PUSH3 0x461BCD PUSH1 0xE5 SHL DUP2 MSTORE PUSH1 0x20 PUSH1 0x4 DUP3 ADD MSTORE PUSH1 0xA PUSH1 0x24 DUP3 ADD MSTORE PUSH32 0x42533A2073706F743D3000000000000000000000000000000000000000000000 PUSH1 0x44 DUP3 ADD MSTORE PUSH1 0x64 SWAP1 REVERT JUMPDEST PUSH1 0x1 PUSH1 0x1 PUSH1 0xA0 SHL SUB PUSH1 0x1 SLOAD AND CALLER SUB PUSH2 0x40AF JUMPI JUMP JUMPDEST PUSH1 0x64 PUSH1 0x40 MLOAD PUSH3 0x461BCD PUSH1 0xE5 SHL DUP2 MSTORE PUSH1 0x20 PUSH1 0x4 DUP3 ADD MSTORE PUSH1 0x20 PUSH1 0x24 DUP3 ADD MSTORE PUSH32 0x4F776E61626C653A2063616C6C6572206973206E6F7420746865206F776E6572 PUSH1 0x44 DUP3 ADD MSTORE REVERT JUMPDEST PUSH2 0x2BC9 SWAP3 PUSH1 0x1 PUSH1 0x1 PUSH1 0xA0 SHL SUB PUSH1 0x40 MLOAD SWAP4 PUSH4 0xA9059CBB PUSH1 0xE0 SHL PUSH1 0x20 DUP7 ADD MSTORE AND PUSH1 0x24 DUP5 ADD MSTORE PUSH1 0x44 DUP4 ADD MSTORE PUSH1 0x44 DUP3 MSTORE PUSH2 0x412A PUSH1 0x64 DUP4 PUSH2 0x2B6E JUMP JUMPDEST PUSH2 0x4630 JUMP JUMPDEST PUSH1 0xFF PUSH1 0x1 SLOAD PUSH1 0xA0 SHR AND PUSH2 0x413E JUMPI JUMP JUMPDEST PUSH1 0x40 MLOAD PUSH3 0x461BCD PUSH1 0xE5 SHL DUP2 MSTORE PUSH1 0x20 PUSH1 0x4 DUP3 ADD MSTORE PUSH1 0x10 PUSH1 0x24 DUP3 ADD MSTORE PUSH32 0x5061757361626C653A2070617573656400000000000000000000000000000000 PUSH1 0x44 DUP3 ADD MSTORE PUSH1 0x64 SWAP1 REVERT JUMPDEST SWAP1 PUSH8 0xDE0B6B3A7640000 SWAP4 SWAP3 SWAP2 PUSH2 0x4199 DUP2 PUSH2 0x2C7C JUMP JUMPDEST PUSH2 0x41AB JUMPI POP PUSH2 0x41A7 SWAP2 PUSH2 0x310F JUMP JUMPDEST DIV SWAP1 JUMP JUMPDEST PUSH2 0x41A7 SWAP3 POP PUSH2 0x310F JUMP JUMPDEST SWAP1 SWAP2 SWAP3 PUSH1 0x1 PUSH1 0x1 PUSH1 0xA0 SHL SUB PUSH2 0x2BC9 SWAP5 DUP2 PUSH1 0x40 MLOAD SWAP6 PUSH4 0x23B872DD PUSH1 0xE0 SHL PUSH1 0x20 DUP9 ADD MSTORE AND PUSH1 0x24 DUP7 ADD MSTORE AND PUSH1 0x44 DUP5 ADD MSTORE PUSH1 0x64 DUP4 ADD MSTORE PUSH1 0x64 DUP3 MSTORE PUSH2 0x412A PUSH1 0x84 DUP4 PUSH2 0x2B6E JUMP JUMPDEST PUSH1 0x0 SWAP1 PUSH8 0x6F05B59D3B200000 DUP2 SLT ISZERO PUSH2 0x43C4 JUMPI PUSH8 0x6F05B59D3B1FFFFF NOT DUP2 SGT ISZERO PUSH2 0x43C0 JUMPI DUP2 DUP2 SLT SWAP1 DUP2 PUSH2 0x43B2 JUMPI JUMPDEST DUP1 PUSH8 0x336F514AC98B800 MUL PUSH8 0x336F514AC98B800 DUP2 SDIV DUP3 SUB PUSH2 0x1D2A JUMPI PUSH2 0x4256 PUSH8 0xDE0B6B3A7640000 PUSH2 0x426B SWAP3 SDIV PUSH2 0x36D3 JUMP JUMPDEST PUSH15 0xC097CE7BC90715B34B9F1000000000 PUSH2 0x35B5 JUMP JUMPDEST PUSH8 0x1276158B8A54A200 DUP2 MUL DUP2 DUP2 SDIV PUSH8 0x1276158B8A54A200 EQ DUP3 ISZERO OR ISZERO PUSH2 0x3DC2 JUMPI PUSH8 0xDE0B6B3A7640000 SWAP1 SDIV DUP1 PUSH8 0x194666A99DBF23FF NOT ADD SWAP1 DUP2 SLT ISZERO PUSH1 0x1 AND PUSH2 0x3DC2 JUMPI PUSH2 0x42C0 PUSH8 0xDE0B6B3A7640000 SWAP2 DUP4 PUSH2 0x363C JUMP JUMPDEST SDIV DUP1 PUSH8 0x18B914BEBA14AA00 ADD SWAP1 DUP2 SLT PUSH1 0x1 AND PUSH2 0x3DC2 JUMPI PUSH2 0x42E9 PUSH8 0xDE0B6B3A7640000 SWAP2 DUP4 PUSH2 0x363C JUMP JUMPDEST SDIV DUP1 PUSH8 0x4F2C4DEDDE13BFF NOT ADD SWAP1 DUP2 SLT ISZERO PUSH1 0x1 AND PUSH2 0x3DC2 JUMPI PUSH2 0x4314 PUSH8 0xDE0B6B3A7640000 SWAP2 DUP4 PUSH2 0x363C JUMP JUMPDEST SDIV SWAP1 DUP2 PUSH8 0x46EABCF33788400 ADD SWAP2 DUP3 SLT PUSH1 0x1 AND PUSH2 0x3DC2 JUMPI PUSH2 0x4372 SWAP3 PUSH8 0xDE0B6B3A7640000 PUSH2 0x3C97 PUSH2 0x4367 PUSH1 0x2 PUSH2 0x4361 DUP5 PUSH2 0x3AB5 DUP2 DUP14 PUSH2 0x4357 DUP3 SWAP13 PUSH2 0x436C SWAP13 PUSH2 0x363C JUMP JUMPDEST SWAP1 POP SDIV SWAP8 DUP1 PUSH2 0x363C JUMP JUMPDEST SDIV PUSH2 0x43D2 JUMP JUMPDEST PUSH2 0x3618 JUMP JUMPDEST SDIV PUSH2 0x3558 JUMP JUMPDEST SWAP2 DUP1 DUP4 SLT PUSH2 0x43AA JUMPI JUMPDEST PUSH8 0xDE0B6B3A7640000 DUP4 SGT PUSH2 0x439A JUMPI JUMPDEST POP ISZERO PUSH2 0x33D4 JUMPI PUSH2 0x33D4 SWAP1 PUSH2 0x3558 JUMP JUMPDEST PUSH8 0xDE0B6B3A7640000 SWAP3 POP PUSH2 0x438B JUMP JUMPDEST SWAP2 POP DUP2 PUSH2 0x437B JUMP JUMPDEST PUSH2 0x43BB SWAP1 PUSH2 0x35A4 JUMP JUMPDEST PUSH2 0x4224 JUMP JUMPDEST POP SWAP1 JUMP JUMPDEST POP POP PUSH8 0xDE0B6B3A7640000 SWAP1 JUMP JUMPDEST PUSH9 0x23F2FA8F6DA5B9D28 NOT DUP2 SGT ISZERO PUSH2 0x4600 JUMPI PUSH9 0x755BF798B4A1BF1E5 DUP2 SLT ISZERO PUSH2 0x45DB JUMPI PUSH2 0x4407 PUSH8 0x4CF46D8192B672E DUP3 PUSH2 0x36EB JUMP JUMPDEST PUSH8 0x99E8DB03256CE5D SWAP1 SDIV SWAP1 PUSH2 0x441C DUP3 PUSH2 0x35F4 JUMP JUMPDEST PUSH2 0x4425 SWAP2 PUSH2 0x358B JUMP JUMPDEST DUP1 DUP1 DUP1 DUP1 DUP1 DUP1 DUP1 DUP1 DUP1 PUSH2 0x4437 DUP2 PUSH2 0x36D3 JUMP JUMPDEST PUSH2 0x4441 DUP3 DUP1 PUSH2 0x363C JUMP JUMPDEST PUSH8 0xDE0B6B3A7640000 SWAP1 SDIV PUSH1 0x2 SWAP1 SDIV SWAP1 DUP2 PUSH2 0x445B SWAP2 PUSH2 0x36EB JUMP JUMPDEST SWAP2 PUSH2 0x4465 SWAP2 PUSH2 0x363C JUMP JUMPDEST PUSH8 0xDE0B6B3A7640000 SWAP1 SDIV PUSH1 0x3 SWAP1 SDIV SWAP1 DUP2 PUSH2 0x447F SWAP2 PUSH2 0x36EB JUMP JUMPDEST SWAP2 PUSH2 0x4489 SWAP2 PUSH2 0x363C JUMP JUMPDEST PUSH8 0xDE0B6B3A7640000 SWAP1 SDIV PUSH1 0x4 SWAP1 SDIV SWAP1 DUP2 PUSH2 0x44A3 SWAP2 PUSH2 0x36EB JUMP JUMPDEST SWAP2 PUSH2 0x44AD SWAP2 PUSH2 0x363C JUMP JUMPDEST PUSH8 0xDE0B6B3A7640000 SWAP1 SDIV PUSH1 0x5 SWAP1 SDIV SWAP1 DUP2 PUSH2 0x44C7 SWAP2 PUSH2 0x36EB JUMP JUMPDEST SWAP2 PUSH2 0x44D1 SWAP2 PUSH2 0x363C JUMP JUMPDEST PUSH8 0xDE0B6B3A7640000 SWAP1 SDIV PUSH1 0x6 SWAP1 SDIV SWAP1 DUP2 PUSH2 0x44EB SWAP2 PUSH2 0x36EB JUMP JUMPDEST SWAP2 PUSH2 0x44F5 SWAP2 PUSH2 0x363C JUMP JUMPDEST PUSH8 0xDE0B6B3A7640000 SWAP1 SDIV PUSH1 0x7 SWAP1 SDIV SWAP1 DUP2 PUSH2 0x450F SWAP2 PUSH2 0x36EB JUMP JUMPDEST SWAP2 PUSH2 0x4519 SWAP2 PUSH2 0x363C JUMP JUMPDEST PUSH8 0xDE0B6B3A7640000 SWAP1 SDIV PUSH1 0x8 SWAP1 SDIV SWAP1 DUP2 PUSH2 0x4533 SWAP2 PUSH2 0x36EB JUMP JUMPDEST SWAP2 PUSH2 0x453D SWAP2 PUSH2 0x363C JUMP JUMPDEST PUSH8 0xDE0B6B3A7640000 SWAP1 SDIV PUSH1 0x9 SWAP1 SDIV SWAP1 DUP2 PUSH2 0x4557 SWAP2 PUSH2 0x36EB JUMP JUMPDEST SWAP2 PUSH2 0x4561 SWAP2 PUSH2 0x363C JUMP JUMPDEST PUSH8 0xDE0B6B3A7640000 SWAP1 SDIV PUSH1 0xA SWAP1 SDIV SWAP1 DUP2 PUSH2 0x457B SWAP2 PUSH2 0x36EB JUMP JUMPDEST SWAP2 PUSH2 0x4585 SWAP2 PUSH2 0x363C JUMP JUMPDEST PUSH8 0xDE0B6B3A7640000 SWAP1 SDIV PUSH1 0xB SWAP1 SDIV SWAP1 DUP2 PUSH2 0x459F SWAP2 PUSH2 0x36EB JUMP JUMPDEST SWAP2 PUSH2 0x45A9 SWAP2 PUSH2 0x363C JUMP JUMPDEST PUSH8 0xDE0B6B3A7640000 SWAP1 SDIV PUSH1 0xC SWAP1 SDIV PUSH2 0x45C1 SWAP2 PUSH2 0x36EB JUMP JUMPDEST SWAP1 PUSH1 0x0 DUP2 SLT PUSH2 0x45CE JUMPI SHL SWAP1 JUMP JUMPDEST PUSH2 0x45D7 SWAP1 PUSH2 0x35A4 JUMP JUMPDEST SAR SWAP1 JUMP JUMPDEST POP PUSH32 0x7FFFFFFFFFFFFFFFFFFFFFFFFFFFFFFFFFFFFFFFFFFFFFFFFFFFFFFFFFFFFFFF SWAP1 JUMP JUMPDEST POP PUSH1 0x0 SWAP1 JUMP JUMPDEST PUSH8 0xDE0B6B3A7640000 DUP2 MUL SWAP1 DUP1 DUP3 DIV PUSH8 0xDE0B6B3A7640000 EQ SWAP1 ISZERO OR ISZERO PUSH2 0x30F9 JUMPI PUSH2 0x33D4 SWAP1 PUSH2 0x4736 JUMP JUMPDEST PUSH1 0x1 PUSH1 0x1 PUSH1 0xA0 SHL SUB PUSH2 0x4693 SWAP2 AND SWAP2 PUSH1 0x40 SWAP3 PUSH1 0x0 DUP1 DUP6 MLOAD SWAP4 PUSH2 0x4651 DUP8 DUP7 PUSH2 0x2B6E JUMP JUMPDEST PUSH1 0x20 DUP6 MSTORE PUSH32 0x5361666545524332303A206C6F772D6C6576656C2063616C6C206661696C6564 PUSH1 0x20 DUP7 ADD MSTORE PUSH1 0x20 DUP2 MLOAD SWAP2 ADD DUP3 DUP6 GAS CALL PUSH2 0x468D PUSH2 0x3142 JUMP JUMPDEST SWAP2 PUSH2 0x477F JUMP JUMPDEST DUP1 MLOAD SWAP1 DUP2 ISZERO SWAP2 DUP3 ISZERO PUSH2 0x4713 JUMPI JUMPDEST POP POP ISZERO PUSH2 0x46AA JUMPI POP JUMP JUMPDEST MLOAD PUSH3 0x461BCD PUSH1 0xE5 SHL DUP2 MSTORE PUSH1 0x20 PUSH1 0x4 DUP3 ADD MSTORE PUSH1 0x2A PUSH1 0x24 DUP3 ADD MSTORE PUSH32 0x5361666545524332303A204552433230206F7065726174696F6E20646964206E PUSH1 0x44 DUP3 ADD MSTORE PUSH32 0x6F74207375636365656400000000000000000000000000000000000000000000 PUSH1 0x64 DUP3 ADD MSTORE PUSH1 0x84 SWAP1 REVERT JUMPDEST DUP2 SWAP3 POP SWAP1 PUSH1 0x20 SWAP2 DUP2 ADD SUB SLT PUSH2 0x1ABE JUMPI PUSH1 0x20 ADD MLOAD DUP1 ISZERO ISZERO DUP2 SUB PUSH2 0x1ABE JUMPI CODESIZE DUP1 PUSH2 0x46A0 JUMP JUMPDEST SWAP1 DUP2 ISZERO PUSH2 0x4779 JUMPI DUP2 DUP1 PUSH1 0x1 SHR PUSH1 0x1 DUP2 ADD DUP1 SWAP2 GT PUSH2 0x30F9 JUMPI SWAP1 JUMPDEST DUP4 DUP3 LT PUSH2 0x475A JUMPI POP POP JUMP JUMPDEST SWAP1 SWAP3 POP PUSH2 0x4770 DUP4 PUSH2 0x476B DUP2 DUP5 PUSH2 0x3122 JUMP JUMPDEST PUSH2 0x3172 JUMP JUMPDEST PUSH1 0x1 SHR SWAP1 PUSH2 0x474F JUMP JUMPDEST PUSH1 0x0 SWAP2 POP JUMP JUMPDEST SWAP2 SWAP3 SWAP1 ISZERO PUSH2 0x47E1 JUMPI POP DUP2 MLOAD ISZERO PUSH2 0x4793 JUMPI POP SWAP1 JUMP JUMPDEST EXTCODESIZE ISZERO PUSH2 0x479C JUMPI SWAP1 JUMP JUMPDEST PUSH1 0x40 MLOAD PUSH3 0x461BCD PUSH1 0xE5 SHL DUP2 MSTORE PUSH1 0x20 PUSH1 0x4 DUP3 ADD MSTORE PUSH1 0x1D PUSH1 0x24 DUP3 ADD MSTORE PUSH32 0x416464726573733A2063616C6C20746F206E6F6E2D636F6E7472616374000000 PUSH1 0x44 DUP3 ADD MSTORE PUSH1 0x64 SWAP1 REVERT JUMPDEST DUP3 MLOAD SWAP1 SWAP2 POP ISZERO PUSH2 0x47F4 JUMPI POP DUP1 MLOAD SWAP1 PUSH1 0x20 ADD REVERT JUMPDEST PUSH1 0x40 MLOAD PUSH3 0x461BCD PUSH1 0xE5 SHL DUP2 MSTORE PUSH1 0x20 PUSH1 0x4 DUP3 ADD MSTORE SWAP1 DUP2 SWAP1 PUSH2 0x1DC8 SWAP1 PUSH1 0x24 DUP4 ADD SWAP1 PUSH2 0x2C57 JUMP INVALID LOG1 PUSH5 0x736F6C6343 STOP ADDMOD BYTE STOP EXP PUSH1 0x80 PUSH1 0x40 MSTORE CALLVALUE PUSH2 0x365 JUMPI PUSH2 0x3246 PUSH1 0x20 DUP2 CODESIZE SUB SWAP2 DUP3 PUSH2 0x1C DUP2 PUSH2 0x36A JUMP JUMPDEST SWAP4 DUP5 SWAP3 DUP4 CODECOPY DUP2 ADD SUB SLT PUSH2 0x365 JUMPI MLOAD PUSH1 0x1 PUSH1 0x1 PUSH1 0xA0 SHL SUB DUP2 AND DUP2 SUB PUSH2 0x365 JUMPI PUSH2 0x44 PUSH1 0x40 PUSH2 0x36A JUMP JUMPDEST SWAP1 PUSH1 0x13 DUP3 MSTORE PUSH32 0x486564657261204F7074696F6E20546F6B656E00000000000000000000000000 PUSH1 0x20 DUP4 ADD MSTORE PUSH2 0x79 PUSH1 0x40 PUSH2 0x36A JUMP JUMPDEST PUSH1 0x4 DUP2 MSTORE PUSH4 0x1213D415 PUSH1 0xE2 SHL PUSH1 0x20 DUP3 ADD MSTORE DUP3 MLOAD SWAP1 SWAP2 SWAP1 PUSH1 0x1 PUSH1 0x1 PUSH1 0x40 SHL SUB DUP2 GT PUSH2 0x270 JUMPI PUSH1 0x0 SLOAD PUSH1 0x1 DUP2 DUP2 SHR SWAP2 AND DUP1 ISZERO PUSH2 0x35B JUMPI JUMPDEST PUSH1 0x20 DUP3 LT EQ PUSH2 0x250 JUMPI PUSH1 0x1F DUP2 GT PUSH2 0x2F7 JUMPI JUMPDEST POP PUSH1 0x20 PUSH1 0x1F DUP3 GT PUSH1 0x1 EQ PUSH2 0x291 JUMPI DUP2 SWAP3 SWAP4 SWAP5 PUSH1 0x0 SWAP3 PUSH2 0x286 JUMPI JUMPDEST POP POP DUP2 PUSH1 0x1 SHL SWAP2 PUSH1 0x0 NOT SWAP1 PUSH1 0x3 SHL SHR NOT AND OR PUSH1 0x0 SSTORE JUMPDEST DUP2 MLOAD SWAP2 PUSH1 0x1 PUSH1 0x1 PUSH1 0x40 SHL SUB DUP4 GT PUSH2 0x270 JUMPI PUSH1 0x1 SLOAD PUSH1 0x1 DUP2 DUP2 SHR SWAP2 AND DUP1 ISZERO PUSH2 0x266 JUMPI JUMPDEST PUSH1 0x20 DUP3 LT EQ PUSH2 0x250 JUMPI PUSH1 0x1F DUP2 GT PUSH2 0x1EB JUMPI JUMPDEST POP PUSH1 0x20 SWAP1 PUSH1 0x1F DUP5 GT PUSH1 0x1 EQ PUSH2 0x17F JUMPI PUSH2 0x165 SWAP4 SWAP2 PUSH1 0x0 SWAP2 DUP4 PUSH2 0x174 JUMPI JUMPDEST POP POP DUP2 PUSH1 0x1 SHL SWAP2 PUSH1 0x0 NOT SWAP1 PUSH1 0x3 SHL SHR NOT AND OR PUSH1 0x1 SSTORE JUMPDEST PUSH2 0x160 CALLER PUSH2 0x38F JUMP JUMPDEST PUSH2 0x38F JUMP JUMPDEST PUSH1 0x40 MLOAD PUSH2 0x2E6D SWAP1 DUP2 PUSH2 0x3D9 DUP3 CODECOPY RETURN JUMPDEST ADD MLOAD SWAP1 POP CODESIZE DUP1 PUSH2 0x141 JUMP JUMPDEST SWAP1 PUSH1 0x1F NOT DUP5 AND SWAP2 PUSH1 0x1 PUSH1 0x0 MSTORE DUP2 PUSH1 0x0 KECCAK256 SWAP3 PUSH1 0x0 JUMPDEST DUP2 DUP2 LT PUSH2 0x1D3 JUMPI POP SWAP2 PUSH1 0x1 SWAP4 SWAP2 DUP7 PUSH2 0x165 SWAP8 SWAP5 LT PUSH2 0x1BA JUMPI JUMPDEST POP POP POP DUP2 SHL ADD PUSH1 0x1 SSTORE PUSH2 0x157 JUMP JUMPDEST ADD MLOAD PUSH1 0x0 NOT PUSH1 0xF8 DUP5 PUSH1 0x3 SHL AND SHR NOT AND SWAP1 SSTORE CODESIZE DUP1 DUP1 PUSH2 0x1AC JUMP JUMPDEST SWAP3 SWAP4 PUSH1 0x20 PUSH1 0x1 DUP2 SWAP3 DUP8 DUP7 ADD MLOAD DUP2 SSTORE ADD SWAP6 ADD SWAP4 ADD PUSH2 0x193 JUMP JUMPDEST PUSH1 0x1 PUSH1 0x0 MSTORE PUSH32 0xB10E2D527612073B26EECDFD717E6A320CF44B4AFAC2B0732D9FCBE2B7FA0CF6 PUSH1 0x1F DUP6 ADD PUSH1 0x5 SHR DUP2 ADD SWAP2 PUSH1 0x20 DUP7 LT PUSH2 0x246 JUMPI JUMPDEST PUSH1 0x1F ADD PUSH1 0x5 SHR ADD SWAP1 JUMPDEST DUP2 DUP2 LT PUSH2 0x23A JUMPI POP PUSH2 0x124 JUMP JUMPDEST PUSH1 0x0 DUP2 SSTORE PUSH1 0x1 ADD PUSH2 0x22D JUMP JUMPDEST SWAP1 SWAP2 POP DUP2 SWAP1 PUSH2 0x224 JUMP JUMPDEST PUSH4 0x4E487B71 PUSH1 0xE0 SHL PUSH1 0x0 MSTORE PUSH1 0x22 PUSH1 0x4 MSTORE PUSH1 0x24 PUSH1 0x0 REVERT JUMPDEST SWAP1 PUSH1 0x7F AND SWAP1 PUSH2 0x112 JUMP JUMPDEST PUSH4 0x4E487B71 PUSH1 0xE0 SHL PUSH1 0x0 MSTORE PUSH1 0x41 PUSH1 0x4 MSTORE PUSH1 0x24 PUSH1 0x0 REVERT JUMPDEST ADD MLOAD SWAP1 POP CODESIZE DUP1 PUSH2 0xDA JUMP JUMPDEST PUSH1 0x1F NOT DUP3 AND SWAP1 PUSH1 0x0 DUP1 MSTORE DUP1 PUSH1 0x0 KECCAK256 SWAP2 PUSH1 0x0 JUMPDEST DUP2 DUP2 LT PUSH2 0x2DF JUMPI POP SWAP6 DUP4 PUSH1 0x1 SWAP6 SWAP7 SWAP8 LT PUSH2 0x2C6 JUMPI JUMPDEST POP POP POP DUP2 SHL ADD PUSH1 0x0 SSTORE PUSH2 0xF0 JUMP JUMPDEST ADD MLOAD PUSH1 0x0 NOT PUSH1 0xF8 DUP5 PUSH1 0x3 SHL AND SHR NOT AND SWAP1 SSTORE CODESIZE DUP1 DUP1 PUSH2 0x2B8 JUMP JUMPDEST SWAP2 SWAP3 PUSH1 0x20 PUSH1 0x1 DUP2 SWAP3 DUP7 DUP12 ADD MLOAD DUP2 SSTORE ADD SWAP5 ADD SWAP3 ADD PUSH2 0x2A3 JUMP JUMPDEST PUSH1 0x0 DUP1 MSTORE PUSH32 0x290DECD9548B62A8D60345A988386FC84BA6BC95484008F6362F93160EF3E563 PUSH1 0x1F DUP4 ADD PUSH1 0x5 SHR DUP2 ADD SWAP2 PUSH1 0x20 DUP5 LT PUSH2 0x351 JUMPI JUMPDEST PUSH1 0x1F ADD PUSH1 0x5 SHR ADD SWAP1 JUMPDEST DUP2 DUP2 LT PUSH2 0x345 JUMPI POP PUSH2 0xC0 JUMP JUMPDEST PUSH1 0x0 DUP2 SSTORE PUSH1 0x1 ADD PUSH2 0x338 JUMP JUMPDEST SWAP1 SWAP2 POP DUP2 SWAP1 PUSH2 0x32F JUMP JUMPDEST SWAP1 PUSH1 0x7F AND SWAP1 PUSH2 0xAE JUMP JUMPDEST PUSH1 0x0 DUP1 REVERT JUMPDEST PUSH1 0x40 MLOAD SWAP2 SWAP1 PUSH1 0x1F ADD PUSH1 0x1F NOT AND DUP3 ADD PUSH1 0x1 PUSH1 0x1 PUSH1 0x40 SHL SUB DUP2 GT DUP4 DUP3 LT OR PUSH2 0x270 JUMPI PUSH1 0x40 MSTORE JUMP JUMPDEST PUSH1 0x7 DUP1 SLOAD PUSH1 0x1 PUSH1 0x1 PUSH1 0xA0 SHL SUB SWAP3 DUP4 AND PUSH1 0x1 PUSH1 0x1 PUSH1 0xA0 SHL SUB NOT DUP3 AND DUP2 OR SWAP1 SWAP3 SSTORE SWAP1 SWAP2 AND PUSH32 0x8BE0079C531659141344CD1FD0A4F28419497F9722A3DAAFE3B4186F6B6457E0 PUSH1 0x0 DUP1 LOG3 JUMP INVALID PUSH1 0x80 DUP1 PUSH1 0x40 MSTORE PUSH1 0x4 CALLDATASIZE LT ISZERO PUSH2 0x13 JUMPI PUSH1 0x0 DUP1 REVERT JUMPDEST PUSH1 0x0 CALLDATALOAD PUSH1 0xE0 SHR SWAP1 DUP2 PUSH4 0x1FFC9A7 EQ PUSH2 0x1F28 JUMPI POP DUP1 PUSH4 0x6FDDE03 EQ PUSH2 0x1E83 JUMPI DUP1 PUSH4 0x81812FC EQ PUSH2 0x1E65 JUMPI DUP1 PUSH4 0x95EA7B3 EQ PUSH2 0x1CDB JUMPI DUP1 PUSH4 0x18160DDD EQ PUSH2 0x1CBD JUMPI DUP1 PUSH4 0x1CE5E9A6 EQ PUSH2 0x1AB3 JUMPI DUP1 PUSH4 0x23B872DD EQ PUSH2 0x1A8A JUMPI DUP1 PUSH4 0x25D4A65B EQ PUSH2 0x1640 JUMPI DUP1 PUSH4 0x42842E0E EQ PUSH2 0x1616 JUMPI DUP1 PUSH4 0x6352211E EQ PUSH2 0x15E7 JUMPI DUP1 PUSH4 0x70A08231 EQ PUSH2 0x153C JUMPI DUP1 PUSH4 0x710B7C2F EQ PUSH2 0x14EA JUMPI DUP1 PUSH4 0x715018A6 EQ PUSH2 0x148F JUMPI DUP1 PUSH4 0x82AFD23B EQ PUSH2 0x1435 JUMPI DUP1 PUSH4 0x8DA5CB5B EQ PUSH2 0x140E JUMPI DUP1 PUSH4 0x95D89B41 EQ PUSH2 0x132D JUMPI DUP1 PUSH4 0x9A709C57 EQ PUSH2 0x12FB JUMPI DUP1 PUSH4 0xA22CB465 EQ PUSH2 0x1229 JUMPI DUP1 PUSH4 0xB88D4FDE EQ PUSH2 0x119E JUMPI DUP1 PUSH4 0xC87B56DD EQ PUSH2 0x2F2 JUMPI DUP1 PUSH4 0xD896DD64 EQ PUSH2 0x25C JUMPI DUP1 PUSH4 0xE985E9C5 EQ PUSH2 0x1FF JUMPI PUSH4 0xF2FDE38B EQ PUSH2 0x11C JUMPI PUSH1 0x0 DUP1 REVERT JUMPDEST CALLVALUE PUSH2 0x1FA JUMPI PUSH1 0x20 CALLDATASIZE PUSH1 0x3 NOT ADD SLT PUSH2 0x1FA JUMPI PUSH1 0x1 PUSH1 0x1 PUSH1 0xA0 SHL SUB PUSH2 0x13D PUSH2 0x1FF5 JUMP JUMPDEST PUSH2 0x145 PUSH2 0x2685 JUMP JUMPDEST AND DUP1 ISZERO PUSH2 0x18F JUMPI PUSH1 0x1 PUSH1 0x1 PUSH1 0xA0 SHL SUB PUSH1 0x7 SLOAD DUP3 PUSH1 0x1 PUSH1 0x1 PUSH1 0xA0 SHL SUB NOT DUP3 AND OR PUSH1 0x7 SSTORE AND PUSH32 0x8BE0079C531659141344CD1FD0A4F28419497F9722A3DAAFE3B4186F6B6457E0 PUSH1 0x0 DUP1 LOG3 STOP JUMPDEST PUSH1 0x40 MLOAD PUSH3 0x461BCD PUSH1 0xE5 SHL DUP2 MSTORE PUSH1 0x20 PUSH1 0x4 DUP3 ADD MSTORE PUSH1 0x26 PUSH1 0x24 DUP3 ADD MSTORE PUSH32 0x4F776E61626C653A206E6577206F776E657220697320746865207A65726F2061 PUSH1 0x44 DUP3 ADD MSTORE PUSH32 0x6464726573730000000000000000000000000000000000000000000000000000 PUSH1 0x64 DUP3 ADD MSTORE PUSH1 0x84 SWAP1 REVERT JUMPDEST PUSH1 0x0 DUP1 REVERT JUMPDEST CALLVALUE PUSH2 0x1FA JUMPI PUSH1 0x40 CALLDATASIZE PUSH1 0x3 NOT ADD SLT PUSH2 0x1FA JUMPI PUSH2 0x218 PUSH2 0x1FF5 JUMP JUMPDEST PUSH1 0x1 PUSH1 0x1 PUSH1 0xA0 SHL SUB PUSH2 0x228 PUSH2 0x200B JUMP JUMPDEST SWAP2 AND PUSH1 0x0 MSTORE PUSH1 0x5 PUSH1 0x20 MSTORE PUSH1 0x1 PUSH1 0x1 PUSH1 0xA0 SHL SUB PUSH1 0x40 PUSH1 0x0 KECCAK256 SWAP2 AND PUSH1 0x0 MSTORE PUSH1 0x20 MSTORE PUSH1 0x20 PUSH1 0xFF PUSH1 0x40 PUSH1 0x0 KECCAK256 SLOAD AND PUSH1 0x40 MLOAD SWAP1 ISZERO ISZERO DUP2 MSTORE RETURN JUMPDEST CALLVALUE PUSH2 0x1FA JUMPI PUSH1 0x40 CALLDATASIZE PUSH1 0x3 NOT ADD SLT PUSH2 0x1FA JUMPI PUSH1 0x4 CALLDATALOAD PUSH1 0x24 CALLDATALOAD PUSH1 0x3 DUP2 LT ISZERO PUSH2 0x1FA JUMPI PUSH1 0x20 PUSH32 0x4D7918F94F73BC22769A0715065536D0E7720E8FB22A5AF2FCCFF8E4D6D89A0C SWAP2 PUSH2 0x2A8 PUSH2 0x2685 JUMP JUMPDEST DUP4 PUSH1 0x0 MSTORE PUSH1 0x2 DUP3 MSTORE PUSH2 0x2C9 PUSH1 0x1 PUSH1 0x1 PUSH1 0xA0 SHL SUB PUSH1 0x40 PUSH1 0x0 KECCAK256 SLOAD AND ISZERO ISZERO PUSH2 0x2206 JUMP JUMPDEST DUP4 PUSH1 0x0 MSTORE PUSH1 0x9 DUP3 MSTORE PUSH2 0x2E2 DUP2 PUSH1 0x9 PUSH1 0x40 PUSH1 0x0 KECCAK256 ADD PUSH2 0x22D8 JUMP JUMPDEST PUSH2 0x2EF PUSH1 0x40 MLOAD DUP1 SWAP3 PUSH2 0x202E JUMP JUMPDEST LOG2 STOP JUMPDEST CALLVALUE PUSH2 0x1FA JUMPI PUSH1 0x20 CALLDATASIZE PUSH1 0x3 NOT ADD SLT PUSH2 0x1FA JUMPI PUSH1 0x4 CALLDATALOAD DUP1 PUSH1 0x0 MSTORE PUSH1 0x2 PUSH1 0x20 MSTORE PUSH2 0x328 PUSH1 0x1 PUSH1 0x1 PUSH1 0xA0 SHL SUB PUSH1 0x40 PUSH1 0x0 KECCAK256 SLOAD AND ISZERO ISZERO PUSH2 0x2206 JUMP JUMPDEST DUP1 PUSH1 0x0 MSTORE PUSH1 0x9 PUSH1 0x20 MSTORE PUSH1 0x40 PUSH1 0x0 KECCAK256 PUSH1 0xFF PUSH1 0x2 DUP3 ADD SLOAD AND PUSH1 0x2 DUP2 LT ISZERO PUSH2 0x1188 JUMPI ISZERO PUSH1 0x0 DUP2 ISZERO PUSH2 0x1163 JUMPI POP PUSH1 0x40 MLOAD PUSH2 0x35F PUSH1 0x40 DUP3 PUSH2 0x20A8 JUMP JUMPDEST PUSH1 0x4 DUP2 MSTORE PUSH4 0x10D05313 PUSH1 0xE2 SHL PUSH1 0x20 DUP3 ADD MSTORE SWAP2 JUMPDEST PUSH2 0x385 PUSH1 0xFF PUSH1 0x9 DUP4 ADD SLOAD PUSH1 0xA0 SHR AND PUSH2 0x2729 JUMP JUMPDEST SWAP1 PUSH2 0x393 PUSH1 0x3 DUP3 ADD SLOAD PUSH2 0x27F6 JUMP JUMPDEST PUSH2 0x3A0 PUSH1 0x5 DUP4 ADD SLOAD PUSH2 0x27F6 JUMP JUMPDEST PUSH2 0x3AD PUSH1 0x6 DUP5 ADD SLOAD PUSH2 0x27F6 JUMP JUMPDEST SWAP2 PUSH1 0x0 SWAP6 PUSH1 0x0 EQ PUSH2 0x1125 JUMPI PUSH1 0x40 MLOAD PUSH2 0x3C6 PUSH1 0x40 DUP3 PUSH2 0x20A8 JUMP JUMPDEST PUSH1 0x7 DUP2 MSTORE PUSH32 0x2332326335356500000000000000000000000000000000000000000000000000 PUSH1 0x20 DUP3 ADD MSTORE SWAP7 JUMPDEST PUSH1 0x4 DUP6 ADD SLOAD SWAP9 PUSH2 0x404 PUSH1 0x1 DUP8 ADD PUSH2 0x2120 JUMP JUMPDEST SWAP9 PUSH2 0x40E DUP3 PUSH2 0x28F1 JUMP JUMPDEST PUSH2 0x417 DUP13 PUSH2 0x28F1 JUMP JUMPDEST PUSH2 0x420 DUP11 PUSH2 0x2D5A JUMP JUMPDEST SWAP2 PUSH1 0x40 MLOAD SWAP13 DUP14 SWAP5 PUSH1 0x20 DUP7 ADD PUSH32 0x3C73766720786D6C6E733D22687474703A2F2F7777772E77332E6F72672F3230 SWAP1 MSTORE PUSH1 0x40 DUP7 ADD PUSH32 0x30302F737667222076696577426F783D22302030203430302032353022207374 SWAP1 MSTORE PUSH1 0x60 DUP7 ADD PUSH32 0x796C653D22666F6E742D66616D696C793A6D6F6E6F7370616365223E00000000 SWAP1 MSTORE PUSH1 0x7C DUP7 ADD PUSH32 0x3C726563742077696474683D2234303022206865696768743D22323530222072 SWAP1 MSTORE PUSH1 0x9C DUP7 ADD PUSH32 0x783D223136222066696C6C3D2223306631373261222F3E000000000000000000 SWAP1 MSTORE PUSH1 0xB3 DUP7 ADD PUSH32 0x3C7265637420783D2231362220793D223136222077696474683D223336382220 SWAP1 MSTORE PUSH1 0xD3 DUP7 ADD PUSH32 0x6865696768743D22323138222072783D223132222066696C6C3D222331653239 SWAP1 MSTORE PUSH1 0xF3 DUP7 ADD PUSH32 0x336222207374726F6B653D220000000000000000000000000000000000000000 SWAP1 MSTORE DUP1 MLOAD SWAP1 PUSH1 0x20 DUP2 ADD SWAP2 DUP1 PUSH1 0xFF DUP10 ADD SWAP1 PUSH2 0x577 SWAP2 DUP6 PUSH2 0x1FAD JUMP JUMPDEST PUSH32 0x22207374726F6B652D77696474683D2232222F3E000000000000000000000000 PUSH1 0xFF SWAP2 DUP10 ADD SWAP2 DUP3 ADD MSTORE PUSH32 0x3C7465787420783D2233302220793D223530222066696C6C3D22233934613362 PUSH2 0x113 DUP3 ADD MSTORE PUSH32 0x382220666F6E742D73697A653D223131223E484544455241204F5054494F4E53 PUSH2 0x133 DUP3 ADD MSTORE PUSH32 0x205641554C543C2F746578743E00000000000000000000000000000000000000 PUSH2 0x153 DUP3 ADD MSTORE PUSH32 0x3C7465787420783D2233302220793D223738222066696C6C3D22000000000000 PUSH2 0x160 DUP3 ADD MSTORE SWAP1 MLOAD SWAP2 PUSH2 0x651 SWAP1 DUP4 SWAP1 PUSH2 0x17A DUP5 ADD SWAP1 PUSH2 0x1FAD JUMP JUMPDEST ADD PUSH1 0xFF ADD PUSH1 0x7B DUP2 ADD PUSH32 0x2220666F6E742D73697A653D2232322220666F6E742D7765696768743D22626F SWAP1 MSTORE PUSH4 0x3632111F PUSH1 0xE1 SHL PUSH1 0x9B DUP3 ADD MSTORE DUP2 MLOAD SWAP2 DUP3 PUSH1 0x9F DUP4 ADD SWAP2 PUSH1 0x20 ADD SWAP2 PUSH2 0x69F SWAP3 PUSH2 0x1FAD JUMP JUMPDEST ADD PUSH1 0x7B ADD PUSH1 0x24 DUP2 ADD PUSH1 0x1 PUSH1 0xFD SHL SWAP1 MSTORE DUP7 MLOAD SWAP1 PUSH1 0x25 DUP2 ADD DUP3 PUSH1 0x20 DUP11 ADD SWAP2 PUSH2 0x6C4 SWAP3 PUSH2 0x1FAD JUMP JUMPDEST ADD PUSH1 0x24 ADD PUSH1 0x1 DUP2 ADD PUSH2 0x2023 PUSH1 0xF0 SHL SWAP1 MSTORE DUP2 MLOAD SWAP2 DUP3 PUSH1 0x3 DUP4 ADD SWAP2 PUSH1 0x20 ADD SWAP2 PUSH2 0x6EA SWAP3 PUSH2 0x1FAD JUMP JUMPDEST ADD PUSH1 0x1 ADD PUSH1 0x2 DUP2 ADD PUSH7 0x1E17BA32BC3A1F PUSH1 0xC9 SHL SWAP1 MSTORE PUSH1 0x9 DUP2 ADD PUSH32 0x3C7465787420783D2233302220793D22313038222066696C6C3D222365326538 SWAP1 MSTORE PUSH1 0x29 DUP2 ADD PUSH32 0x66302220666F6E742D73697A653D223134223E537472696B653A202400000000 SWAP1 MSTORE DUP7 MLOAD SWAP1 PUSH1 0x45 DUP2 ADD DUP3 PUSH1 0x20 DUP11 ADD SWAP2 PUSH2 0x763 SWAP3 PUSH2 0x1FAD JUMP JUMPDEST ADD PUSH1 0x2 ADD PUSH1 0x43 DUP2 ADD PUSH32 0x205553443C2F746578743E000000000000000000000000000000000000000000 SWAP1 MSTORE PUSH1 0x4E DUP2 ADD PUSH32 0x3C7465787420783D2233302220793D22313332222066696C6C3D222365326538 SWAP1 MSTORE PUSH1 0x6E DUP2 ADD PUSH32 0x66302220666F6E742D73697A653D223134223E53697A653A2020200000000000 SWAP1 MSTORE DUP8 MLOAD SWAP1 PUSH1 0x89 DUP2 ADD DUP3 PUSH1 0x20 DUP12 ADD SWAP2 PUSH2 0x7F2 SWAP3 PUSH2 0x1FAD JUMP JUMPDEST ADD PUSH1 0x43 ADD PUSH1 0x46 DUP2 ADD PUSH32 0x20756E6974733C2F746578743E00000000000000000000000000000000000000 SWAP1 MSTORE PUSH1 0x53 DUP2 ADD PUSH32 0x3C7465787420783D2233302220793D22313536222066696C6C3D222365326538 SWAP1 MSTORE PUSH1 0x73 DUP2 ADD PUSH32 0x66302220666F6E742D73697A653D223134223E5072656D69756D3A2024000000 SWAP1 MSTORE DUP9 MLOAD SWAP1 PUSH1 0x90 DUP2 ADD DUP3 PUSH1 0x20 DUP13 ADD SWAP2 PUSH2 0x881 SWAP3 PUSH2 0x1FAD JUMP JUMPDEST ADD PUSH1 0x46 ADD PUSH1 0x4A DUP2 ADD PUSH7 0x1E17BA32BC3A1F PUSH1 0xC9 SHL SWAP1 MSTORE PUSH1 0x51 DUP2 ADD PUSH32 0x3C7465787420783D2233302220793D22313830222066696C6C3D222336343734 SWAP1 MSTORE PUSH1 0x71 DUP2 ADD PUSH32 0x38622220666F6E742D73697A653D223131223E4578706972793A200000000000 SWAP1 MSTORE DUP2 MLOAD SWAP2 DUP3 PUSH1 0x8C DUP4 ADD SWAP2 PUSH1 0x20 ADD SWAP2 PUSH2 0x8FA SWAP3 PUSH2 0x1FAD JUMP JUMPDEST PUSH7 0x1E17BA32BC3A1F PUSH1 0xC9 SHL PUSH1 0x8C SWAP3 SWAP1 SWAP2 ADD SWAP2 DUP3 ADD MSTORE PUSH32 0x3C7465787420783D2233302220793D22323030222066696C6C3D222336343734 PUSH1 0x93 DUP3 ADD MSTORE PUSH32 0x38622220666F6E742D73697A653D223131223E536574746C6564207669612048 PUSH1 0xB3 DUP3 ADD MSTORE PUSH32 0x49502D313231352050726F746F636F6C204175746F6D6174696F6E3C2F746578 PUSH1 0xD3 DUP3 ADD MSTORE PUSH2 0x3A1F PUSH1 0xF1 SHL PUSH1 0xF3 DUP3 ADD MSTORE PUSH32 0x3C7265637420783D223239302220793D223138222077696474683D2239302220 PUSH1 0xF5 DUP3 ADD MSTORE PUSH32 0x6865696768743D223232222072783D2236222066696C6C3D2200000000000000 PUSH2 0x115 DUP3 ADD MSTORE DUP2 MLOAD SWAP2 PUSH1 0x4A DUP3 ADD SWAP2 PUSH2 0x9F4 SWAP2 DUP5 SWAP2 PUSH2 0x12E ADD SWAP1 PUSH1 0x20 ADD PUSH2 0x1FAD JUMP JUMPDEST ADD PUSH1 0x42 ADD PUSH3 0x11179F PUSH1 0xE9 SHL PUSH1 0xA2 DUP3 ADD MSTORE PUSH1 0xA5 DUP2 ADD PUSH32 0x3C7465787420783D223333352220793D223333222066696C6C3D222366666622 SWAP1 MSTORE PUSH1 0xC5 DUP2 ADD PUSH32 0x20666F6E742D73697A653D2231302220746578742D616E63686F723D226D6964 SWAP1 MSTORE PUSH1 0xE5 DUP2 ADD PUSH32 0x646C65223E000000000000000000000000000000000000000000000000000000 SWAP1 MSTORE DUP9 MLOAD SWAP1 PUSH1 0xEA DUP2 ADD DUP3 PUSH1 0x20 DUP13 ADD SWAP2 PUSH2 0xA8F SWAP3 PUSH2 0x1FAD JUMP JUMPDEST ADD PUSH1 0xA2 ADD PUSH1 0x48 DUP2 ADD PUSH7 0x1E17BA32BC3A1F PUSH1 0xC9 SHL SWAP1 MSTORE PUSH1 0x4F DUP2 ADD PUSH32 0x3C2F7376673E0000000000000000000000000000000000000000000000000000 SWAP1 MSTORE SUB PUSH1 0x48 ADD PUSH1 0x12 NOT DUP2 ADD DUP11 MSTORE PUSH1 0xD ADD PUSH2 0xAE3 SWAP1 DUP11 PUSH2 0x20A8 JUMP JUMPDEST PUSH2 0xAEC SWAP1 PUSH2 0x28F1 JUMP JUMPDEST SWAP8 PUSH2 0xAF6 SWAP1 PUSH2 0x2A45 JUMP JUMPDEST SWAP9 PUSH2 0xB00 SWAP1 PUSH2 0x28F1 JUMP JUMPDEST SWAP5 PUSH1 0x7 DUP2 ADD SLOAD PUSH1 0x1 PUSH1 0x1 PUSH1 0xA0 SHL SUB AND PUSH1 0x40 MLOAD SWAP9 PUSH2 0xB1E PUSH1 0x60 DUP12 PUSH2 0x20A8 JUMP JUMPDEST PUSH1 0x2A DUP11 MSTORE PUSH1 0x40 CALLDATASIZE PUSH1 0x20 DUP13 ADD CALLDATACOPY DUP10 MLOAD ISZERO PUSH2 0x1111 JUMPI PUSH1 0x30 PUSH1 0x20 DUP12 ADD MSTORE8 DUP10 MLOAD PUSH1 0x1 LT ISZERO PUSH2 0x1111 JUMPI PUSH1 0x78 PUSH1 0x21 DUP12 ADD MSTORE8 PUSH1 0x29 SWAP1 JUMPDEST PUSH1 0x1 DUP3 GT PUSH2 0x109E JUMPI POP POP PUSH2 0x105A JUMPI PUSH1 0x40 MLOAD PUSH32 0x7B226E616D65223A220000000000000000000000000000000000000000000000 PUSH1 0x20 DUP3 ADD MSTORE SWAP10 DUP11 SWAP10 PUSH2 0xB97 PUSH1 0x29 DUP13 ADD PUSH1 0x1 DUP6 ADD PUSH2 0x2413 JUMP JUMPDEST PUSH1 0x1 PUSH1 0xFD SHL DUP2 MSTORE DUP5 MLOAD SWAP1 PUSH2 0xBB2 DUP3 PUSH1 0x1 DUP4 ADD PUSH1 0x20 DUP10 ADD PUSH2 0x1FAD JUMP JUMPDEST ADD PUSH1 0x1 DUP2 ADD PUSH2 0x809 PUSH1 0xF2 SHL SWAP1 MSTORE DUP6 MLOAD SWAP1 PUSH1 0x3 DUP2 ADD DUP3 PUSH1 0x20 DUP10 ADD SWAP2 PUSH2 0xBD5 SWAP3 PUSH2 0x1FAD JUMP JUMPDEST ADD PUSH1 0x1 ADD PUSH1 0x2 DUP2 ADD PUSH32 0x204F7074696F6E20230000000000000000000000000000000000000000000000 SWAP1 MSTORE DUP2 MLOAD SWAP2 DUP3 PUSH1 0xB DUP4 ADD SWAP2 PUSH1 0x20 ADD SWAP2 PUSH2 0xC16 SWAP3 PUSH2 0x1FAD JUMP JUMPDEST PUSH2 0x88B PUSH1 0xF2 SHL PUSH1 0xB SWAP3 SWAP1 SWAP2 ADD SWAP2 DUP3 ADD MSTORE PUSH32 0x226465736372697074696F6E223A22486564657261204F7074696F6E73205661 PUSH1 0xD DUP3 ADD MSTORE PUSH32 0x756C74202D204167656E74696320446546692E204578657263697361626C6520 PUSH1 0x2D DUP3 ADD MSTORE PUSH32 0x766961204849502D31323135206175746F6E6F6D6F757320736574746C656D65 PUSH1 0x4D DUP3 ADD MSTORE PUSH32 0x6E742E222C000000000000000000000000000000000000000000000000000000 PUSH1 0x6D DUP3 ADD MSTORE PUSH32 0x22696D616765223A22646174613A696D6167652F7376672B786D6C3B62617365 PUSH1 0x72 DUP3 ADD MSTORE PUSH3 0xD8D0B PUSH1 0xEA SHL PUSH1 0x92 DUP3 ADD MSTORE DUP2 MLOAD SWAP2 PUSH1 0x2 DUP3 ADD SWAP2 PUSH2 0xD0A SWAP2 DUP5 SWAP2 PUSH1 0x95 ADD SWAP1 PUSH1 0x20 ADD PUSH2 0x1FAD JUMP JUMPDEST PUSH2 0x88B PUSH1 0xF2 SHL PUSH1 0x93 SWAP3 SWAP1 SWAP2 ADD SWAP2 DUP3 ADD MSTORE PUSH32 0x2261747472696275746573223A5B000000000000000000000000000000000000 PUSH1 0x95 DUP3 ADD MSTORE PUSH32 0x7B2274726169745F74797065223A22556E6465726C79696E67222C2276616C75 PUSH1 0xA3 DUP3 ADD MSTORE PUSH4 0x32911D11 PUSH1 0xE1 SHL PUSH1 0xC3 DUP3 ADD MSTORE PUSH2 0xD85 SWAP2 PUSH1 0xC7 SWAP1 SWAP2 ADD SWAP1 PUSH1 0x1 ADD PUSH2 0x2413 JUMP JUMPDEST PUSH3 0x89F4B PUSH1 0xEA SHL DUP2 MSTORE PUSH32 0x7B2274726169745F74797065223A2254797065222C2276616C7565223A220000 PUSH1 0x3 DUP3 ADD MSTORE DUP2 MLOAD SWAP2 PUSH2 0xDCA SWAP1 DUP4 SWAP1 PUSH1 0x21 DUP5 ADD SWAP1 PUSH1 0x20 ADD PUSH2 0x1FAD JUMP JUMPDEST PUSH3 0x89F4B PUSH1 0xEA SHL PUSH1 0x21 SWAP3 SWAP1 SWAP2 ADD SWAP2 DUP3 ADD MSTORE PUSH32 0x7B2274726169745F74797065223A22537472696B6520555344222C2276616C75 PUSH1 0x24 DUP3 ADD MSTORE PUSH4 0x32911D11 PUSH1 0xE1 SHL PUSH1 0x44 DUP3 ADD MSTORE DUP2 MLOAD SWAP2 PUSH2 0xE24 SWAP1 DUP4 SWAP1 PUSH1 0x48 DUP5 ADD SWAP1 PUSH1 0x20 ADD PUSH2 0x1FAD JUMP JUMPDEST ADD PUSH1 0x21 ADD PUSH3 0x89F4B PUSH1 0xEA SHL PUSH1 0x27 DUP3 ADD MSTORE PUSH1 0x2A DUP2 ADD PUSH32 0x7B2274726169745F74797065223A2253697A65222C2276616C7565223A220000 SWAP1 MSTORE DUP2 MLOAD SWAP2 DUP3 PUSH1 0x48 DUP4 ADD SWAP2 PUSH1 0x20 ADD SWAP2 PUSH2 0xE71 SWAP3 PUSH2 0x1FAD JUMP JUMPDEST ADD PUSH1 0x27 ADD PUSH3 0x89F4B PUSH1 0xEA SHL PUSH1 0x21 DUP3 ADD MSTORE PUSH1 0x24 DUP2 ADD PUSH32 0x7B2274726169745F74797065223A225072656D69756D222C2276616C7565223A SWAP1 MSTORE PUSH1 0x11 PUSH1 0xF9 SHL PUSH1 0x44 DUP3 ADD MSTORE DUP2 MLOAD SWAP2 DUP3 PUSH1 0x45 DUP4 ADD SWAP2 PUSH1 0x20 ADD SWAP2 PUSH2 0xEC8 SWAP3 PUSH2 0x1FAD JUMP JUMPDEST ADD PUSH1 0x21 ADD PUSH3 0x89F4B PUSH1 0xEA SHL PUSH1 0x24 DUP3 ADD MSTORE PUSH1 0x27 DUP2 ADD PUSH32 0x7B2274726169745F74797065223A22457870697279222C2276616C7565223A00 SWAP1 MSTORE DUP2 MLOAD SWAP2 DUP3 PUSH1 0x46 DUP4 ADD SWAP2 PUSH1 0x20 ADD SWAP2 PUSH2 0xF15 SWAP3 PUSH2 0x1FAD JUMP JUMPDEST ADD PUSH1 0x24 ADD PUSH1 0x22 DUP2 ADD PUSH2 0x1F4B PUSH1 0xF2 SHL SWAP1 MSTORE PUSH1 0x24 DUP2 ADD PUSH32 0x7B2274726169745F74797065223A22537461747573222C2276616C7565223A22 SWAP1 MSTORE DUP2 MLOAD SWAP2 DUP3 PUSH1 0x44 DUP4 ADD SWAP2 PUSH1 0x20 ADD SWAP2 PUSH2 0xF62 SWAP3 PUSH2 0x1FAD JUMP JUMPDEST ADD PUSH1 0x22 ADD PUSH3 0x89F4B PUSH1 0xEA SHL PUSH1 0x22 DUP3 ADD MSTORE PUSH1 0x25 DUP2 ADD PUSH32 0x7B2274726169745F74797065223A22577269746572222C2276616C7565223A22 SWAP1 MSTORE DUP2 MLOAD SWAP2 DUP3 PUSH1 0x45 DUP4 ADD SWAP2 PUSH1 0x20 ADD SWAP2 PUSH2 0xFAF SWAP3 PUSH2 0x1FAD JUMP JUMPDEST PUSH2 0x227D PUSH1 0xF0 SHL SWAP2 ADD PUSH1 0x45 DUP2 ADD SWAP2 SWAP1 SWAP2 MSTORE PUSH2 0x5D7D PUSH1 0xF0 SHL PUSH1 0x47 DUP3 ADD MSTORE SUB PUSH1 0x29 DUP2 ADD DUP3 MSTORE PUSH2 0xFDE SWAP1 PUSH1 0x49 ADD DUP3 PUSH2 0x20A8 JUMP JUMPDEST PUSH2 0xFE7 SWAP1 PUSH2 0x2A45 JUMP JUMPDEST PUSH1 0x40 MLOAD DUP1 SWAP2 PUSH1 0x20 DUP3 ADD PUSH32 0x646174613A6170706C69636174696F6E2F6A736F6E3B6261736536342C000000 SWAP1 MSTORE DUP1 MLOAD SWAP1 DUP2 PUSH1 0x3D DUP5 ADD SWAP2 PUSH1 0x20 ADD SWAP2 PUSH2 0x1029 SWAP3 PUSH2 0x1FAD JUMP JUMPDEST DUP2 ADD SUB PUSH1 0x3D ADD PUSH1 0x1F NOT DUP2 ADD DUP3 MSTORE PUSH2 0x1040 SWAP1 DUP3 PUSH2 0x20A8 JUMP JUMPDEST PUSH1 0x40 MLOAD DUP1 SWAP2 PUSH1 0x20 DUP3 MSTORE PUSH1 0x20 DUP3 ADD PUSH2 0x1056 SWAP2 PUSH2 0x1FD0 JUMP JUMPDEST SUB SWAP1 RETURN JUMPDEST PUSH1 0x64 PUSH1 0x40 MLOAD PUSH3 0x461BCD PUSH1 0xE5 SHL DUP2 MSTORE PUSH1 0x20 PUSH1 0x4 DUP3 ADD MSTORE PUSH1 0x20 PUSH1 0x24 DUP3 ADD MSTORE PUSH32 0x537472696E67733A20686578206C656E67746820696E73756666696369656E74 PUSH1 0x44 DUP3 ADD MSTORE REVERT JUMPDEST SWAP1 SWAP2 PUSH1 0x10 PUSH1 0xF DUP3 AND LT ISZERO PUSH2 0x10FD JUMPI DUP11 MLOAD DUP4 LT ISZERO PUSH2 0x10FD JUMPI PUSH16 0x181899199A1A9B1B9C1CB0B131B232B3 PUSH1 0x81 SHL PUSH1 0xF DUP3 AND BYTE DUP12 DUP5 ADD PUSH1 0x20 ADD MSTORE8 PUSH1 0x4 SHR SWAP2 DUP1 ISZERO PUSH2 0x10E9 JUMPI PUSH1 0x0 NOT ADD SWAP1 PUSH2 0xB4D JUMP JUMPDEST PUSH4 0x4E487B71 PUSH1 0xE0 SHL DUP3 MSTORE PUSH1 0x11 PUSH1 0x4 MSTORE PUSH1 0x24 DUP3 REVERT JUMPDEST PUSH4 0x4E487B71 PUSH1 0xE0 SHL DUP3 MSTORE PUSH1 0x32 PUSH1 0x4 MSTORE PUSH1 0x24 DUP3 REVERT JUMPDEST PUSH4 0x4E487B71 PUSH1 0xE0 SHL DUP2 MSTORE PUSH1 0x32 PUSH1 0x4 MSTORE PUSH1 0x24 SWAP1 REVERT JUMPDEST PUSH1 0x40 MLOAD PUSH2 0x1133 PUSH1 0x40 DUP3 PUSH2 0x20A8 JUMP JUMPDEST PUSH1 0x7 DUP2 MSTORE PUSH32 0x2365663434343400000000000000000000000000000000000000000000000000 PUSH1 0x20 DUP3 ADD MSTORE SWAP7 PUSH2 0x3F2 JUMP JUMPDEST POP PUSH1 0x40 MLOAD PUSH2 0x1172 PUSH1 0x40 DUP3 PUSH2 0x20A8 JUMP JUMPDEST PUSH1 0x3 DUP2 MSTORE PUSH3 0x141555 PUSH1 0xEA SHL PUSH1 0x20 DUP3 ADD MSTORE SWAP2 PUSH2 0x372 JUMP JUMPDEST PUSH4 0x4E487B71 PUSH1 0xE0 SHL PUSH1 0x0 MSTORE PUSH1 0x21 PUSH1 0x4 MSTORE PUSH1 0x24 PUSH1 0x0 REVERT JUMPDEST CALLVALUE PUSH2 0x1FA JUMPI PUSH1 0x80 CALLDATASIZE PUSH1 0x3 NOT ADD SLT PUSH2 0x1FA JUMPI PUSH2 0x11B7 PUSH2 0x1FF5 JUMP JUMPDEST PUSH2 0x11BF PUSH2 0x200B JUMP JUMPDEST PUSH1 0x64 CALLDATALOAD SWAP2 PUSH8 0xFFFFFFFFFFFFFFFF DUP4 GT PUSH2 0x1FA JUMPI CALLDATASIZE PUSH1 0x23 DUP5 ADD SLT ISZERO PUSH2 0x1FA JUMPI DUP3 PUSH1 0x4 ADD CALLDATALOAD SWAP2 PUSH2 0x11EC DUP4 PUSH2 0x20CA JUMP JUMPDEST SWAP3 PUSH2 0x11FA PUSH1 0x40 MLOAD SWAP5 DUP6 PUSH2 0x20A8 JUMP JUMPDEST DUP1 DUP5 MSTORE CALLDATASIZE PUSH1 0x24 DUP3 DUP8 ADD ADD GT PUSH2 0x1FA JUMPI PUSH1 0x20 DUP2 PUSH1 0x0 SWAP3 PUSH1 0x24 PUSH2 0x1227 SWAP9 ADD DUP4 DUP9 ADD CALLDATACOPY DUP6 ADD ADD MSTORE PUSH1 0x44 CALLDATALOAD SWAP2 PUSH2 0x237D JUMP JUMPDEST STOP JUMPDEST CALLVALUE PUSH2 0x1FA JUMPI PUSH1 0x40 CALLDATASIZE PUSH1 0x3 NOT ADD SLT PUSH2 0x1FA JUMPI PUSH2 0x1242 PUSH2 0x1FF5 JUMP JUMPDEST PUSH1 0x24 CALLDATALOAD SWAP1 DUP2 ISZERO ISZERO DUP1 SWAP3 SUB PUSH2 0x1FA JUMPI PUSH1 0x1 PUSH1 0x1 PUSH1 0xA0 SHL SUB AND SWAP1 DUP2 CALLER EQ PUSH2 0x12B6 JUMPI CALLER PUSH1 0x0 MSTORE PUSH1 0x5 PUSH1 0x20 MSTORE PUSH1 0x40 PUSH1 0x0 KECCAK256 DUP3 PUSH1 0x0 MSTORE PUSH1 0x20 MSTORE PUSH1 0x40 PUSH1 0x0 KECCAK256 PUSH1 0xFF NOT DUP2 SLOAD AND PUSH1 0xFF DUP4 AND OR SWAP1 SSTORE PUSH1 0x40 MLOAD SWAP1 DUP2 MSTORE PUSH32 0x17307EAB39AB6107E8899845AD3D59BD9653F200F220920489CA2B5937696C31 PUSH1 0x20 CALLER SWAP3 LOG3 STOP JUMPDEST PUSH1 0x40 MLOAD PUSH3 0x461BCD PUSH1 0xE5 SHL DUP2 MSTORE PUSH1 0x20 PUSH1 0x4 DUP3 ADD MSTORE PUSH1 0x19 PUSH1 0x24 DUP3 ADD MSTORE PUSH32 0x4552433732313A20617070726F766520746F2063616C6C657200000000000000 PUSH1 0x44 DUP3 ADD MSTORE PUSH1 0x64 SWAP1 REVERT JUMPDEST CALLVALUE PUSH2 0x1FA JUMPI PUSH1 0x20 CALLDATASIZE PUSH1 0x3 NOT ADD SLT PUSH2 0x1FA JUMPI PUSH1 0x4 CALLDATALOAD PUSH1 0x0 MSTORE PUSH1 0x9 PUSH1 0x20 MSTORE PUSH1 0x20 PUSH1 0x4 PUSH1 0x40 PUSH1 0x0 KECCAK256 ADD SLOAD TIMESTAMP LT ISZERO PUSH1 0x40 MLOAD SWAP1 DUP2 MSTORE RETURN JUMPDEST CALLVALUE PUSH2 0x1FA JUMPI PUSH1 0x0 CALLDATASIZE PUSH1 0x3 NOT ADD SLT PUSH2 0x1FA JUMPI PUSH1 0x40 MLOAD PUSH1 0x0 PUSH1 0x1 SLOAD PUSH2 0x134F DUP2 PUSH2 0x20E6 JUMP JUMPDEST DUP1 DUP5 MSTORE SWAP1 PUSH1 0x1 DUP2 AND SWAP1 DUP2 ISZERO PUSH2 0x13EA JUMPI POP PUSH1 0x1 EQ PUSH2 0x138B JUMPI JUMPDEST PUSH2 0x1056 DUP4 PUSH2 0x1377 DUP2 DUP6 SUB DUP3 PUSH2 0x20A8 JUMP JUMPDEST PUSH1 0x40 MLOAD SWAP2 DUP3 SWAP2 PUSH1 0x20 DUP4 MSTORE PUSH1 0x20 DUP4 ADD SWAP1 PUSH2 0x1FD0 JUMP JUMPDEST PUSH1 0x1 PUSH1 0x0 SWAP1 DUP2 MSTORE PUSH32 0xB10E2D527612073B26EECDFD717E6A320CF44B4AFAC2B0732D9FCBE2B7FA0CF6 SWAP4 SWAP3 POP SWAP1 JUMPDEST DUP1 DUP3 LT PUSH2 0x13D0 JUMPI POP SWAP1 SWAP2 POP DUP2 ADD PUSH1 0x20 ADD PUSH2 0x1377 PUSH2 0x1367 JUMP JUMPDEST SWAP2 SWAP3 PUSH1 0x1 DUP2 PUSH1 0x20 SWAP3 SLOAD DUP4 DUP6 DUP9 ADD ADD MSTORE ADD SWAP2 ADD SWAP1 SWAP3 SWAP2 PUSH2 0x13B8 JUMP JUMPDEST PUSH1 0xFF NOT AND PUSH1 0x20 DUP1 DUP7 ADD SWAP2 SWAP1 SWAP2 MSTORE SWAP2 ISZERO ISZERO PUSH1 0x5 SHL DUP5 ADD SWAP1 SWAP2 ADD SWAP2 POP PUSH2 0x1377 SWAP1 POP PUSH2 0x1367 JUMP JUMPDEST CALLVALUE PUSH2 0x1FA JUMPI PUSH1 0x0 CALLDATASIZE PUSH1 0x3 NOT ADD SLT PUSH2 0x1FA JUMPI PUSH1 0x20 PUSH1 0x1 PUSH1 0x1 PUSH1 0xA0 SHL SUB PUSH1 0x7 SLOAD AND PUSH1 0x40 MLOAD SWAP1 DUP2 MSTORE RETURN JUMPDEST CALLVALUE PUSH2 0x1FA JUMPI PUSH1 0x20 CALLDATASIZE PUSH1 0x3 NOT ADD SLT PUSH2 0x1FA JUMPI PUSH1 0x4 CALLDATALOAD PUSH1 0x0 MSTORE PUSH1 0x9 PUSH1 0x20 MSTORE PUSH1 0x40 PUSH1 0x0 KECCAK256 PUSH1 0xFF PUSH1 0x9 DUP3 ADD SLOAD PUSH1 0xA0 SHR AND SWAP1 PUSH1 0x3 DUP3 LT ISZERO PUSH2 0x1188 JUMPI PUSH1 0x20 SWAP2 ISZERO SWAP1 DUP2 PUSH2 0x1481 JUMPI JUMPDEST POP PUSH1 0x40 MLOAD SWAP1 ISZERO ISZERO DUP2 MSTORE RETURN JUMPDEST PUSH1 0x4 SWAP2 POP ADD SLOAD TIMESTAMP LT DUP3 PUSH2 0x1476 JUMP JUMPDEST CALLVALUE PUSH2 0x1FA JUMPI PUSH1 0x0 CALLDATASIZE PUSH1 0x3 NOT ADD SLT PUSH2 0x1FA JUMPI PUSH2 0x14A8 PUSH2 0x2685 JUMP JUMPDEST PUSH1 0x0 PUSH1 0x1 PUSH1 0x1 PUSH1 0xA0 SHL SUB PUSH1 0x7 SLOAD PUSH1 0x1 PUSH1 0x1 PUSH1 0xA0 SHL SUB NOT DUP2 AND PUSH1 0x7 SSTORE AND PUSH32 0x8BE0079C531659141344CD1FD0A4F28419497F9722A3DAAFE3B4186F6B6457E0 DUP3 DUP1 LOG3 STOP JUMPDEST CALLVALUE PUSH2 0x1FA JUMPI PUSH1 0x40 CALLDATASIZE PUSH1 0x3 NOT ADD SLT PUSH2 0x1FA JUMPI PUSH2 0x1503 PUSH2 0x200B JUMP JUMPDEST PUSH2 0x150B PUSH2 0x2685 JUMP JUMPDEST PUSH1 0x4 CALLDATALOAD PUSH1 0x0 MSTORE PUSH1 0x9 PUSH1 0x20 MSTORE PUSH1 0x1 PUSH1 0x1 PUSH1 0xA0 SHL SUB PUSH1 0x9 PUSH1 0x40 PUSH1 0x0 KECCAK256 ADD SWAP2 AND PUSH1 0x1 PUSH1 0x1 PUSH1 0xA0 SHL SUB NOT DUP3 SLOAD AND OR SWAP1 SSTORE PUSH1 0x0 DUP1 RETURN JUMPDEST CALLVALUE PUSH2 0x1FA JUMPI PUSH1 0x20 CALLDATASIZE PUSH1 0x3 NOT ADD SLT PUSH2 0x1FA JUMPI PUSH1 0x1 PUSH1 0x1 PUSH1 0xA0 SHL SUB PUSH2 0x155D PUSH2 0x1FF5 JUMP JUMPDEST AND DUP1 ISZERO PUSH2 0x157C JUMPI PUSH1 0x0 MSTORE PUSH1 0x3 PUSH1 0x20 MSTORE PUSH1 0x20 PUSH1 0x40 PUSH1 0x0 KECCAK256 SLOAD PUSH1 0x40 MLOAD SWAP1 DUP2 MSTORE RETURN JUMPDEST PUSH1 0x40 MLOAD PUSH3 0x461BCD PUSH1 0xE5 SHL DUP2 MSTORE PUSH1 0x20 PUSH1 0x4 DUP3 ADD MSTORE PUSH1 0x29 PUSH1 0x24 DUP3 ADD MSTORE PUSH32 0x4552433732313A2061646472657373207A65726F206973206E6F742061207661 PUSH1 0x44 DUP3 ADD MSTORE PUSH32 0x6C6964206F776E65720000000000000000000000000000000000000000000000 PUSH1 0x64 DUP3 ADD MSTORE PUSH1 0x84 SWAP1 REVERT JUMPDEST CALLVALUE PUSH2 0x1FA JUMPI PUSH1 0x20 CALLDATASIZE PUSH1 0x3 NOT ADD SLT PUSH2 0x1FA JUMPI PUSH1 0x20 PUSH2 0x1605 PUSH1 0x4 CALLDATALOAD PUSH2 0x2358 JUMP JUMPDEST PUSH1 0x1 PUSH1 0x1 PUSH1 0xA0 SHL SUB PUSH1 0x40 MLOAD SWAP2 AND DUP2 MSTORE RETURN JUMPDEST CALLVALUE PUSH2 0x1FA JUMPI PUSH2 0x1227 PUSH2 0x1627 CALLDATASIZE PUSH2 0x203B JUMP JUMPDEST SWAP1 PUSH1 0x40 MLOAD SWAP3 PUSH2 0x1637 PUSH1 0x20 DUP6 PUSH2 0x20A8 JUMP JUMPDEST PUSH1 0x0 DUP5 MSTORE PUSH2 0x237D JUMP JUMPDEST CALLVALUE PUSH2 0x1FA JUMPI PUSH1 0x40 CALLDATASIZE PUSH1 0x3 NOT ADD SLT PUSH2 0x1FA JUMPI PUSH2 0x1659 PUSH2 0x1FF5 JUMP JUMPDEST PUSH1 0x24 CALLDATALOAD SWAP1 PUSH8 0xFFFFFFFFFFFFFFFF DUP3 GT PUSH2 0x1FA JUMPI DUP2 CALLDATASIZE SUB SWAP2 PUSH2 0x180 PUSH1 0x3 NOT DUP5 ADD SLT PUSH2 0x1FA JUMPI PUSH2 0x1685 PUSH2 0x2685 JUMP JUMPDEST PUSH1 0x8 SLOAD SWAP2 PUSH1 0x0 NOT DUP4 EQ PUSH2 0x1A74 JUMPI PUSH1 0x1 DUP4 ADD PUSH1 0x8 SSTORE DUP3 PUSH1 0x0 MSTORE PUSH1 0x9 PUSH1 0x20 MSTORE PUSH1 0x40 PUSH1 0x0 KECCAK256 SWAP1 DUP3 PUSH1 0x4 ADD CALLDATALOAD DUP3 SSTORE PUSH1 0x1 DUP3 ADD SWAP5 PUSH1 0x24 DUP5 ADD CALLDATALOAD SWAP1 PUSH1 0x22 NOT ADD DUP2 SLT ISZERO PUSH2 0x1FA JUMPI DUP4 ADD SWAP5 PUSH1 0x4 DUP7 ADD CALLDATALOAD PUSH8 0xFFFFFFFFFFFFFFFF DUP2 GT PUSH2 0x1FA JUMPI DUP1 CALLDATASIZE SUB PUSH1 0x24 DUP9 ADD SGT PUSH2 0x1FA JUMPI DUP1 PUSH1 0x0 SWAP8 PUSH2 0x16F6 DUP5 SLOAD PUSH2 0x20E6 JUMP JUMPDEST PUSH1 0x1F DUP2 GT PUSH2 0x1A24 JUMPI JUMPDEST POP DUP9 SWAP1 PUSH1 0x1F DUP4 GT PUSH1 0x1 EQ PUSH2 0x19B7 JUMPI DUP10 SWAP3 PUSH2 0x19A9 JUMPI JUMPDEST POP POP DUP2 PUSH1 0x1 SHL SWAP2 PUSH1 0x0 NOT SWAP1 PUSH1 0x3 SHL SHR NOT AND OR SWAP1 SSTORE JUMPDEST PUSH1 0x2 DUP3 ADD PUSH1 0x44 DUP5 ADD CALLDATALOAD SWAP1 PUSH1 0x2 DUP3 LT ISZERO PUSH2 0x19A5 JUMPI PUSH1 0xFF NOT DUP2 SLOAD AND PUSH1 0xFF DUP4 AND OR SWAP1 SSTORE PUSH1 0x64 DUP5 ADD CALLDATALOAD SWAP1 DUP2 PUSH1 0x3 DUP6 ADD SSTORE PUSH1 0x84 DUP6 ADD CALLDATALOAD SWAP5 DUP6 PUSH1 0x4 DUP7 ADD SSTORE PUSH1 0xA4 DUP2 ADD CALLDATALOAD SWAP4 DUP5 PUSH1 0x5 DUP8 ADD SSTORE PUSH1 0xC4 DUP3 ADD CALLDATALOAD PUSH1 0x6 DUP8 ADD SSTORE PUSH1 0xE4 DUP3 ADD SWAP6 PUSH2 0x1785 DUP8 PUSH2 0x22C4 JUMP JUMPDEST PUSH1 0x1 PUSH1 0x1 PUSH1 0xA0 SHL SUB PUSH1 0x7 DUP4 ADD SWAP2 AND PUSH1 0x1 PUSH1 0x1 PUSH1 0xA0 SHL SUB NOT DUP3 SLOAD AND OR SWAP1 SSTORE PUSH2 0x17AF PUSH2 0x104 DUP5 ADD PUSH2 0x22C4 JUMP JUMPDEST PUSH1 0x1 PUSH1 0x1 PUSH1 0xA0 SHL SUB PUSH1 0x8 DUP4 ADD SWAP2 AND PUSH1 0x1 PUSH1 0x1 PUSH1 0xA0 SHL SUB NOT DUP3 SLOAD AND OR SWAP1 SSTORE PUSH1 0x9 DUP2 ADD PUSH1 0x1 PUSH1 0x1 PUSH1 0xA0 SHL SUB PUSH2 0x17E5 PUSH2 0x124 DUP7 ADD PUSH2 0x22C4 JUMP JUMPDEST AND PUSH1 0x1 PUSH1 0x1 PUSH1 0xA0 SHL SUB NOT DUP3 SLOAD AND OR DUP2 SSTORE PUSH2 0x144 DUP5 ADD CALLDATALOAD PUSH1 0x3 DUP2 LT ISZERO PUSH2 0x19A1 JUMPI PUSH1 0x1 PUSH1 0x1 PUSH1 0xA0 SHL SUB SWAP5 PUSH2 0x181C PUSH2 0x164 SWAP3 PUSH1 0xA SWAP5 PUSH2 0x22D8 JUMP JUMPDEST ADD CALLDATALOAD SWAP2 ADD SSTORE DUP8 DUP10 MSTORE PUSH1 0x9 PUSH1 0x20 MSTORE PUSH1 0x9 PUSH1 0x40 DUP11 KECCAK256 ADD PUSH1 0xFF PUSH1 0xA0 SHL NOT DUP2 SLOAD AND SWAP1 SSTORE DUP8 DUP10 MSTORE PUSH1 0x9 PUSH1 0x20 MSTORE TIMESTAMP PUSH1 0xA PUSH1 0x40 DUP12 KECCAK256 ADD SSTORE AND SWAP4 DUP5 ISZERO PUSH2 0x195D JUMPI PUSH1 0x20 SWAP8 DUP8 SWAP7 DUP8 SWAP6 PUSH32 0x1A38693D3505D88C2704F6BBB47E5A2DD7A1A37E3B012511EABD416032F0D846 SWAP6 PUSH2 0x1944 DUP10 PUSH1 0x80 SWAP8 PUSH2 0x193D PUSH1 0x1 PUSH1 0x1 PUSH1 0xA0 SHL SUB SWAP9 PUSH2 0x18DC PUSH2 0x18BA DUP15 PUSH2 0x18C0 PUSH2 0x18BA DUP3 PUSH1 0x0 MSTORE PUSH1 0x2 PUSH1 0x20 MSTORE PUSH1 0x1 PUSH1 0x1 PUSH1 0xA0 SHL SUB PUSH1 0x40 PUSH1 0x0 KECCAK256 SLOAD AND ISZERO ISZERO SWAP1 JUMP JUMPDEST ISZERO PUSH2 0x26DD JUMP JUMPDEST PUSH1 0x0 MSTORE PUSH1 0x2 PUSH1 0x20 MSTORE PUSH1 0x1 PUSH1 0x1 PUSH1 0xA0 SHL SUB PUSH1 0x40 PUSH1 0x0 KECCAK256 SLOAD AND ISZERO ISZERO SWAP1 JUMP JUMPDEST DUP4 DUP10 MSTORE PUSH1 0x20 PUSH1 0x3 SWAP1 MSTORE PUSH1 0x40 DUP10 KECCAK256 PUSH1 0x1 DUP2 SLOAD ADD SWAP1 SSTORE DUP13 DUP10 MSTORE PUSH1 0x20 PUSH1 0x2 SWAP1 MSTORE PUSH1 0x40 DUP10 KECCAK256 DUP5 PUSH1 0x1 PUSH1 0x1 PUSH1 0xA0 SHL SUB NOT DUP3 SLOAD AND OR SWAP1 SSTORE PUSH1 0x40 MLOAD SWAP15 DUP16 SWAP5 DUP11 PUSH32 0xDDF252AD1BE2C89B69C2B068FC378DAA952BA7F163C4A11628F55A4DF523B3EF DUP2 DUP1 LOG4 PUSH2 0x22C4 JUMP JUMPDEST SWAP7 POP PUSH2 0x2021 JUMP JUMPDEST DUP12 DUP11 ADD MSTORE PUSH1 0x40 DUP10 ADD MSTORE PUSH1 0x60 DUP9 ADD MSTORE AND SWAP5 LOG4 PUSH1 0x40 MLOAD SWAP1 DUP2 MSTORE RETURN JUMPDEST PUSH1 0x64 PUSH1 0x40 MLOAD PUSH3 0x461BCD PUSH1 0xE5 SHL DUP2 MSTORE PUSH1 0x20 PUSH1 0x4 DUP3 ADD MSTORE PUSH1 0x20 PUSH1 0x24 DUP3 ADD MSTORE PUSH32 0x4552433732313A206D696E7420746F20746865207A65726F2061646472657373 PUSH1 0x44 DUP3 ADD MSTORE REVERT JUMPDEST DUP12 DUP1 REVERT JUMPDEST DUP7 DUP1 REVERT JUMPDEST ADD PUSH1 0x24 ADD CALLDATALOAD SWAP1 POP DUP9 DUP1 PUSH2 0x1714 JUMP JUMPDEST DUP5 DUP11 MSTORE PUSH1 0x20 DUP11 KECCAK256 SWAP3 POP SWAP1 PUSH1 0x1F NOT DUP5 AND DUP11 JUMPDEST DUP2 DUP2 LT PUSH2 0x1A09 JUMPI POP SWAP1 DUP5 PUSH1 0x1 SWAP6 SWAP5 SWAP4 SWAP3 LT PUSH2 0x19EB JUMPI JUMPDEST POP POP POP DUP2 SHL ADD SWAP1 SSTORE PUSH2 0x1729 JUMP JUMPDEST PUSH1 0x24 SWAP2 ADD ADD CALLDATALOAD PUSH1 0x0 NOT PUSH1 0x3 DUP5 SWAP1 SHL PUSH1 0xF8 AND SHR NOT AND SWAP1 SSTORE DUP9 DUP1 DUP1 PUSH2 0x19DE JUMP JUMPDEST PUSH1 0x24 DUP5 DUP5 ADD ADD CALLDATALOAD DUP6 SSTORE PUSH1 0x1 SWAP1 SWAP5 ADD SWAP4 PUSH1 0x20 SWAP3 DUP4 ADD SWAP3 ADD PUSH2 0x19C8 JUMP JUMPDEST SWAP1 SWAP2 POP DUP4 DUP10 MSTORE PUSH1 0x20 DUP10 KECCAK256 PUSH1 0x1F DUP5 ADD PUSH1 0x5 SHR DUP2 ADD SWAP2 PUSH1 0x20 DUP6 LT PUSH2 0x1A6A JUMPI JUMPDEST SWAP1 PUSH1 0x1F DUP6 SWAP5 SWAP4 SWAP3 ADD PUSH1 0x5 SHR ADD SWAP1 JUMPDEST DUP2 DUP2 LT PUSH2 0x1A5C JUMPI POP PUSH2 0x16FF JUMP JUMPDEST DUP11 DUP2 SSTORE DUP5 SWAP4 POP PUSH1 0x1 ADD PUSH2 0x1A4F JUMP JUMPDEST SWAP1 SWAP2 POP DUP2 SWAP1 PUSH2 0x1A41 JUMP JUMPDEST PUSH4 0x4E487B71 PUSH1 0xE0 SHL PUSH1 0x0 MSTORE PUSH1 0x11 PUSH1 0x4 MSTORE PUSH1 0x24 PUSH1 0x0 REVERT JUMPDEST CALLVALUE PUSH2 0x1FA JUMPI PUSH2 0x1227 PUSH2 0x1A9B CALLDATASIZE PUSH2 0x203B JUMP JUMPDEST SWAP2 PUSH2 0x1AAE PUSH2 0x1AA9 DUP5 CALLER PUSH2 0x2481 JUMP JUMPDEST PUSH2 0x2252 JUMP JUMPDEST PUSH2 0x2561 JUMP JUMPDEST CALLVALUE PUSH2 0x1FA JUMPI PUSH1 0x20 CALLDATASIZE PUSH1 0x3 NOT ADD SLT PUSH2 0x1FA JUMPI PUSH1 0x4 CALLDATALOAD PUSH1 0x0 PUSH2 0x160 PUSH1 0x40 MLOAD PUSH2 0x1AD8 DUP2 PUSH2 0x2075 JUMP JUMPDEST DUP3 DUP2 MSTORE PUSH1 0x60 PUSH1 0x20 DUP3 ADD MSTORE DUP3 PUSH1 0x40 DUP3 ADD MSTORE DUP3 PUSH1 0x60 DUP3 ADD MSTORE DUP3 PUSH1 0x80 DUP3 ADD MSTORE DUP3 PUSH1 0xA0 DUP3 ADD MSTORE DUP3 PUSH1 0xC0 DUP3 ADD MSTORE DUP3 PUSH1 0xE0 DUP3 ADD MSTORE DUP3 PUSH2 0x100 DUP3 ADD MSTORE DUP3 PUSH2 0x120 DUP3 ADD MSTORE DUP3 PUSH2 0x140 DUP3 ADD MSTORE ADD MSTORE DUP1 PUSH1 0x0 MSTORE PUSH1 0x2 PUSH1 0x20 MSTORE PUSH2 0x1B3F PUSH1 0x1 PUSH1 0x1 PUSH1 0xA0 SHL SUB PUSH1 0x40 PUSH1 0x0 KECCAK256 SLOAD AND ISZERO ISZERO PUSH2 0x2206 JUMP JUMPDEST PUSH1 0x0 MSTORE PUSH1 0x9 PUSH1 0x20 MSTORE PUSH1 0x40 PUSH1 0x0 KECCAK256 PUSH1 0x40 MLOAD PUSH2 0x1B58 DUP2 PUSH2 0x2075 JUMP JUMPDEST DUP2 SLOAD DUP2 MSTORE PUSH2 0x1B68 PUSH1 0x1 DUP4 ADD PUSH2 0x2120 JUMP JUMPDEST SWAP2 PUSH1 0x20 DUP3 ADD SWAP3 DUP4 MSTORE PUSH1 0xFF PUSH1 0x2 DUP3 ADD SLOAD AND SWAP1 PUSH1 0x40 DUP4 ADD SWAP2 PUSH1 0x2 DUP2 LT ISZERO PUSH2 0x1188 JUMPI DUP3 MSTORE PUSH1 0x3 DUP2 ADD SLOAD SWAP1 PUSH1 0x60 DUP5 ADD SWAP2 DUP3 MSTORE PUSH1 0x4 DUP2 ADD SLOAD PUSH1 0x80 DUP6 ADD SWAP1 DUP2 MSTORE PUSH1 0x5 DUP3 ADD SLOAD PUSH1 0xA0 DUP7 ADD SWAP1 DUP2 MSTORE PUSH1 0x6 DUP4 ADD SLOAD PUSH1 0xC0 DUP8 ADD SWAP1 DUP2 MSTORE PUSH1 0x1 PUSH1 0x1 PUSH1 0xA0 SHL SUB PUSH1 0x7 DUP6 ADD SLOAD AND SWAP1 PUSH1 0xE0 DUP9 ADD SWAP2 DUP3 MSTORE PUSH1 0x1 PUSH1 0x1 PUSH1 0xA0 SHL SUB PUSH1 0x8 DUP7 ADD SLOAD AND SWAP3 PUSH2 0x100 DUP10 ADD SWAP4 DUP5 MSTORE PUSH1 0x9 DUP7 ADD SLOAD SWAP5 PUSH1 0xFF PUSH2 0x120 DUP12 ADD SWAP7 PUSH1 0x1 PUSH1 0x1 PUSH1 0xA0 SHL SUB DUP2 AND DUP9 MSTORE PUSH1 0xA0 SHR AND SWAP7 PUSH2 0x140 DUP12 ADD SWAP8 PUSH1 0x3 DUP2 LT ISZERO PUSH2 0x1188 JUMPI DUP9 MSTORE PUSH1 0xA ADD SLOAD SWAP8 PUSH2 0x160 DUP12 ADD SWAP9 DUP10 MSTORE PUSH1 0x40 MLOAD SWAP12 DUP13 SWAP12 PUSH1 0x20 DUP14 MSTORE MLOAD PUSH1 0x20 DUP14 ADD MSTORE MLOAD PUSH1 0x40 DUP13 ADD PUSH2 0x180 SWAP1 MSTORE PUSH2 0x1A0 DUP13 ADD PUSH2 0x1C4C SWAP2 PUSH2 0x1FD0 JUMP JUMPDEST SWAP10 MLOAD PUSH1 0x60 DUP13 ADD PUSH2 0x1C5B SWAP2 PUSH2 0x2021 JUMP JUMPDEST MLOAD PUSH1 0x80 DUP12 ADD MSTORE MLOAD PUSH1 0xA0 DUP11 ADD MSTORE MLOAD PUSH1 0xC0 DUP10 ADD MSTORE MLOAD PUSH1 0xE0 DUP9 ADD MSTORE MLOAD PUSH1 0x1 PUSH1 0x1 PUSH1 0xA0 SHL SUB AND PUSH2 0x100 DUP8 ADD MSTORE MLOAD PUSH1 0x1 PUSH1 0x1 PUSH1 0xA0 SHL SUB AND PUSH2 0x120 DUP7 ADD MSTORE MLOAD PUSH1 0x1 PUSH1 0x1 PUSH1 0xA0 SHL SUB AND PUSH2 0x140 DUP6 ADD MSTORE MLOAD PUSH2 0x160 DUP5 ADD PUSH2 0x1CB2 SWAP2 PUSH2 0x202E JUMP JUMPDEST MLOAD PUSH2 0x180 DUP4 ADD MSTORE SUB SWAP1 RETURN JUMPDEST CALLVALUE PUSH2 0x1FA JUMPI PUSH1 0x0 CALLDATASIZE PUSH1 0x3 NOT ADD SLT PUSH2 0x1FA JUMPI PUSH1 0x20 PUSH1 0x8 SLOAD PUSH1 0x40 MLOAD SWAP1 DUP2 MSTORE RETURN JUMPDEST CALLVALUE PUSH2 0x1FA JUMPI PUSH1 0x40 CALLDATASIZE PUSH1 0x3 NOT ADD SLT PUSH2 0x1FA JUMPI PUSH2 0x1CF4 PUSH2 0x1FF5 JUMP JUMPDEST PUSH1 0x24 CALLDATALOAD SWAP1 PUSH1 0x1 PUSH1 0x1 PUSH1 0xA0 SHL SUB DUP1 PUSH2 0x1D0A DUP5 PUSH2 0x2358 JUMP JUMPDEST AND SWAP2 AND SWAP1 DUP1 DUP3 EQ PUSH2 0x1E16 JUMPI DUP1 CALLER EQ SWAP1 DUP2 ISZERO PUSH2 0x1DE8 JUMPI JUMPDEST POP ISZERO PUSH2 0x1D7D JUMPI DUP2 PUSH1 0x0 MSTORE PUSH1 0x4 PUSH1 0x20 MSTORE PUSH1 0x40 PUSH1 0x0 KECCAK256 DUP2 PUSH1 0x1 PUSH1 0x1 PUSH1 0xA0 SHL SUB NOT DUP3 SLOAD AND OR SWAP1 SSTORE PUSH1 0x1 PUSH1 0x1 PUSH1 0xA0 SHL SUB PUSH2 0x1D55 DUP4 PUSH2 0x2358 JUMP JUMPDEST AND PUSH32 0x8C5BE1E5EBEC7D5BD14F71427D1E84F3DD0314C0F7B2291E5B200AC8C7C3B925 PUSH1 0x0 DUP1 LOG4 STOP JUMPDEST PUSH1 0x40 MLOAD PUSH3 0x461BCD PUSH1 0xE5 SHL DUP2 MSTORE PUSH1 0x20 PUSH1 0x4 DUP3 ADD MSTORE PUSH1 0x3D PUSH1 0x24 DUP3 ADD MSTORE PUSH32 0x4552433732313A20617070726F76652063616C6C6572206973206E6F7420746F PUSH1 0x44 DUP3 ADD MSTORE PUSH32 0x6B656E206F776E6572206F7220617070726F76656420666F7220616C6C000000 PUSH1 0x64 DUP3 ADD MSTORE PUSH1 0x84 SWAP1 REVERT JUMPDEST SWAP1 POP PUSH1 0x0 MSTORE PUSH1 0x5 PUSH1 0x20 MSTORE PUSH1 0x40 PUSH1 0x0 KECCAK256 PUSH1 0x1 PUSH1 0x1 PUSH1 0xA0 SHL SUB CALLER AND PUSH1 0x0 MSTORE PUSH1 0x20 MSTORE PUSH1 0xFF PUSH1 0x40 PUSH1 0x0 KECCAK256 SLOAD AND DUP4 PUSH2 0x1D20 JUMP JUMPDEST PUSH1 0x40 MLOAD PUSH3 0x461BCD PUSH1 0xE5 SHL DUP2 MSTORE PUSH1 0x20 PUSH1 0x4 DUP3 ADD MSTORE PUSH1 0x21 PUSH1 0x24 DUP3 ADD MSTORE PUSH32 0x4552433732313A20617070726F76616C20746F2063757272656E74206F776E65 PUSH1 0x44 DUP3 ADD MSTORE PUSH1 0x39 PUSH1 0xF9 SHL PUSH1 0x64 DUP3 ADD MSTORE PUSH1 0x84 SWAP1 REVERT JUMPDEST CALLVALUE PUSH2 0x1FA JUMPI PUSH1 0x20 CALLDATASIZE PUSH1 0x3 NOT ADD SLT PUSH2 0x1FA JUMPI PUSH1 0x20 PUSH2 0x1605 PUSH1 0x4 CALLDATALOAD PUSH2 0x21C4 JUMP JUMPDEST CALLVALUE PUSH2 0x1FA JUMPI PUSH1 0x0 CALLDATASIZE PUSH1 0x3 NOT ADD SLT PUSH2 0x1FA JUMPI PUSH1 0x40 MLOAD PUSH1 0x0 DUP1 SLOAD PUSH2 0x1EA4 DUP2 PUSH2 0x20E6 JUMP JUMPDEST DUP1 DUP5 MSTORE SWAP1 PUSH1 0x1 DUP2 AND SWAP1 DUP2 ISZERO PUSH2 0x13EA JUMPI POP PUSH1 0x1 EQ PUSH2 0x1ECB JUMPI PUSH2 0x1056 DUP4 PUSH2 0x1377 DUP2 DUP6 SUB DUP3 PUSH2 0x20A8 JUMP JUMPDEST PUSH1 0x0 DUP1 DUP1 MSTORE PUSH32 0x290DECD9548B62A8D60345A988386FC84BA6BC95484008F6362F93160EF3E563 SWAP4 SWAP3 POP SWAP1 JUMPDEST DUP1 DUP3 LT PUSH2 0x1F0E JUMPI POP SWAP1 SWAP2 POP DUP2 ADD PUSH1 0x20 ADD PUSH2 0x1377 PUSH2 0x1367 JUMP JUMPDEST SWAP2 SWAP3 PUSH1 0x1 DUP2 PUSH1 0x20 SWAP3 SLOAD DUP4 DUP6 DUP9 ADD ADD MSTORE ADD SWAP2 ADD SWAP1 SWAP3 SWAP2 PUSH2 0x1EF6 JUMP JUMPDEST CALLVALUE PUSH2 0x1FA JUMPI PUSH1 0x20 CALLDATASIZE PUSH1 0x3 NOT ADD SLT PUSH2 0x1FA JUMPI PUSH1 0x4 CALLDATALOAD SWAP1 PUSH4 0xFFFFFFFF PUSH1 0xE0 SHL DUP3 AND DUP1 SWAP3 SUB PUSH2 0x1FA JUMPI PUSH1 0x20 SWAP2 PUSH4 0x24832483 PUSH1 0xE1 SHL DUP2 EQ SWAP1 DUP2 ISZERO PUSH2 0x1F6A JUMPI JUMPDEST POP ISZERO ISZERO DUP2 MSTORE RETURN JUMPDEST PUSH4 0x80AC58CD PUSH1 0xE0 SHL DUP2 EQ SWAP2 POP DUP2 ISZERO PUSH2 0x1F9C JUMPI JUMPDEST DUP2 ISZERO PUSH2 0x1F8B JUMPI JUMPDEST POP DUP4 PUSH2 0x1F63 JUMP JUMPDEST PUSH4 0x1FFC9A7 PUSH1 0xE0 SHL EQ SWAP1 POP DUP4 PUSH2 0x1F84 JUMP JUMPDEST PUSH4 0x5B5E139F PUSH1 0xE0 SHL DUP2 EQ SWAP2 POP PUSH2 0x1F7D JUMP JUMPDEST PUSH1 0x0 JUMPDEST DUP4 DUP2 LT PUSH2 0x1FC0 JUMPI POP POP PUSH1 0x0 SWAP2 ADD MSTORE JUMP JUMPDEST DUP2 DUP2 ADD MLOAD DUP4 DUP3 ADD MSTORE PUSH1 0x20 ADD PUSH2 0x1FB0 JUMP JUMPDEST SWAP1 PUSH1 0x20 SWAP2 PUSH2 0x1FE9 DUP2 MLOAD DUP1 SWAP3 DUP2 DUP6 MSTORE DUP6 DUP1 DUP7 ADD SWAP2 ADD PUSH2 0x1FAD JUMP JUMPDEST PUSH1 0x1F ADD PUSH1 0x1F NOT AND ADD ADD SWAP1 JUMP JUMPDEST PUSH1 0x4 CALLDATALOAD SWAP1 PUSH1 0x1 PUSH1 0x1 PUSH1 0xA0 SHL SUB DUP3 AND DUP3 SUB PUSH2 0x1FA JUMPI JUMP JUMPDEST PUSH1 0x24 CALLDATALOAD SWAP1 PUSH1 0x1 PUSH1 0x1 PUSH1 0xA0 SHL SUB DUP3 AND DUP3 SUB PUSH2 0x1FA JUMPI JUMP JUMPDEST SWAP1 PUSH1 0x2 DUP3 LT ISZERO PUSH2 0x1188 JUMPI MSTORE JUMP JUMPDEST SWAP1 PUSH1 0x3 DUP3 LT ISZERO PUSH2 0x1188 JUMPI MSTORE JUMP JUMPDEST PUSH1 0x60 SWAP1 PUSH1 0x3 NOT ADD SLT PUSH2 0x1FA JUMPI PUSH1 0x4 CALLDATALOAD PUSH1 0x1 PUSH1 0x1 PUSH1 0xA0 SHL SUB DUP2 AND DUP2 SUB PUSH2 0x1FA JUMPI SWAP1 PUSH1 0x24 CALLDATALOAD PUSH1 0x1 PUSH1 0x1 PUSH1 0xA0 SHL SUB DUP2 AND DUP2 SUB PUSH2 0x1FA JUMPI SWAP1 PUSH1 0x44 CALLDATALOAD SWAP1 JUMP JUMPDEST PUSH2 0x180 DUP2 ADD SWAP1 DUP2 LT PUSH8 0xFFFFFFFFFFFFFFFF DUP3 GT OR PUSH2 0x2092 JUMPI PUSH1 0x40 MSTORE JUMP JUMPDEST PUSH4 0x4E487B71 PUSH1 0xE0 SHL PUSH1 0x0 MSTORE PUSH1 0x41 PUSH1 0x4 MSTORE PUSH1 0x24 PUSH1 0x0 REVERT JUMPDEST SWAP1 PUSH1 0x1F DUP1 NOT SWAP2 ADD AND DUP2 ADD SWAP1 DUP2 LT PUSH8 0xFFFFFFFFFFFFFFFF DUP3 GT OR PUSH2 0x2092 JUMPI PUSH1 0x40 MSTORE JUMP JUMPDEST PUSH8 0xFFFFFFFFFFFFFFFF DUP2 GT PUSH2 0x2092 JUMPI PUSH1 0x1F ADD PUSH1 0x1F NOT AND PUSH1 0x20 ADD SWAP1 JUMP JUMPDEST SWAP1 PUSH1 0x1 DUP3 DUP2 SHR SWAP3 AND DUP1 ISZERO PUSH2 0x2116 JUMPI JUMPDEST PUSH1 0x20 DUP4 LT EQ PUSH2 0x2100 JUMPI JUMP JUMPDEST PUSH4 0x4E487B71 PUSH1 0xE0 SHL PUSH1 0x0 MSTORE PUSH1 0x22 PUSH1 0x4 MSTORE PUSH1 0x24 PUSH1 0x0 REVERT JUMPDEST SWAP2 PUSH1 0x7F AND SWAP2 PUSH2 0x20F5 JUMP JUMPDEST SWAP1 PUSH1 0x40 MLOAD SWAP2 DUP3 PUSH1 0x0 DUP3 SLOAD SWAP3 PUSH2 0x2134 DUP5 PUSH2 0x20E6 JUMP JUMPDEST DUP1 DUP5 MSTORE SWAP4 PUSH1 0x1 DUP2 AND SWAP1 DUP2 ISZERO PUSH2 0x21A2 JUMPI POP PUSH1 0x1 EQ PUSH2 0x215B JUMPI JUMPDEST POP PUSH2 0x2159 SWAP3 POP SUB DUP4 PUSH2 0x20A8 JUMP JUMPDEST JUMP JUMPDEST SWAP1 POP PUSH1 0x0 SWAP3 SWAP2 SWAP3 MSTORE PUSH1 0x20 PUSH1 0x0 KECCAK256 SWAP1 PUSH1 0x0 SWAP2 JUMPDEST DUP2 DUP4 LT PUSH2 0x2186 JUMPI POP POP SWAP1 PUSH1 0x20 PUSH2 0x2159 SWAP3 DUP3 ADD ADD CODESIZE PUSH2 0x214C JUMP JUMPDEST PUSH1 0x20 SWAP2 SWAP4 POP DUP1 PUSH1 0x1 SWAP2 SLOAD DUP4 DUP6 DUP10 ADD ADD MSTORE ADD SWAP2 ADD SWAP1 SWAP2 DUP5 SWAP3 PUSH2 0x216D JUMP JUMPDEST SWAP1 POP PUSH1 0x20 SWAP3 POP PUSH2 0x2159 SWAP5 SWAP2 POP PUSH1 0xFF NOT AND DUP3 DUP5 ADD MSTORE ISZERO ISZERO PUSH1 0x5 SHL DUP3 ADD ADD CODESIZE PUSH2 0x214C JUMP JUMPDEST PUSH2 0x21EC PUSH2 0x21E7 DUP3 PUSH1 0x0 MSTORE PUSH1 0x2 PUSH1 0x20 MSTORE PUSH1 0x1 PUSH1 0x1 PUSH1 0xA0 SHL SUB PUSH1 0x40 PUSH1 0x0 KECCAK256 SLOAD AND ISZERO ISZERO SWAP1 JUMP JUMPDEST PUSH2 0x230C JUMP JUMPDEST PUSH1 0x0 MSTORE PUSH1 0x4 PUSH1 0x20 MSTORE PUSH1 0x1 PUSH1 0x1 PUSH1 0xA0 SHL SUB PUSH1 0x40 PUSH1 0x0 KECCAK256 SLOAD AND SWAP1 JUMP JUMPDEST ISZERO PUSH2 0x220D JUMPI JUMP JUMPDEST PUSH1 0x40 MLOAD PUSH3 0x461BCD PUSH1 0xE5 SHL DUP2 MSTORE PUSH1 0x20 PUSH1 0x4 DUP3 ADD MSTORE PUSH1 0x18 PUSH1 0x24 DUP3 ADD MSTORE PUSH32 0x4F7074696F6E546F6B656E3A206E6F6E6578697374656E740000000000000000 PUSH1 0x44 DUP3 ADD MSTORE PUSH1 0x64 SWAP1 REVERT JUMPDEST ISZERO PUSH2 0x2259 JUMPI JUMP JUMPDEST PUSH1 0x40 MLOAD PUSH3 0x461BCD PUSH1 0xE5 SHL DUP2 MSTORE PUSH1 0x20 PUSH1 0x4 DUP3 ADD MSTORE PUSH1 0x2D PUSH1 0x24 DUP3 ADD MSTORE PUSH32 0x4552433732313A2063616C6C6572206973206E6F7420746F6B656E206F776E65 PUSH1 0x44 DUP3 ADD MSTORE PUSH32 0x72206F7220617070726F76656400000000000000000000000000000000000000 PUSH1 0x64 DUP3 ADD MSTORE PUSH1 0x84 SWAP1 REVERT JUMPDEST CALLDATALOAD PUSH1 0x1 PUSH1 0x1 PUSH1 0xA0 SHL SUB DUP2 AND DUP2 SUB PUSH2 0x1FA JUMPI SWAP1 JUMP JUMPDEST SWAP1 PUSH1 0x3 DUP2 LT ISZERO PUSH2 0x1188 JUMPI PUSH1 0xFF PUSH1 0xA0 SHL NOT PUSH21 0xFF0000000000000000000000000000000000000000 DUP4 SLOAD SWAP3 PUSH1 0xA0 SHL AND SWAP2 AND OR SWAP1 SSTORE JUMP JUMPDEST ISZERO PUSH2 0x2313 JUMPI JUMP JUMPDEST PUSH1 0x40 MLOAD PUSH3 0x461BCD PUSH1 0xE5 SHL DUP2 MSTORE PUSH1 0x20 PUSH1 0x4 DUP3 ADD MSTORE PUSH1 0x18 PUSH1 0x24 DUP3 ADD MSTORE PUSH32 0x4552433732313A20696E76616C696420746F6B656E2049440000000000000000 PUSH1 0x44 DUP3 ADD MSTORE PUSH1 0x64 SWAP1 REVERT JUMPDEST PUSH1 0x0 MSTORE PUSH1 0x2 PUSH1 0x20 MSTORE PUSH1 0x1 PUSH1 0x1 PUSH1 0xA0 SHL SUB PUSH1 0x40 PUSH1 0x0 KECCAK256 SLOAD AND PUSH2 0x237A DUP2 ISZERO ISZERO PUSH2 0x230C JUMP JUMPDEST SWAP1 JUMP JUMPDEST SWAP1 PUSH2 0x23A1 SWAP4 SWAP3 SWAP2 PUSH2 0x2391 PUSH2 0x1AA9 DUP5 CALLER PUSH2 0x2481 JUMP JUMPDEST PUSH2 0x239C DUP4 DUP4 DUP4 PUSH2 0x2561 JUMP JUMPDEST PUSH2 0x2BB4 JUMP JUMPDEST ISZERO PUSH2 0x23A8 JUMPI JUMP JUMPDEST PUSH1 0x40 MLOAD PUSH3 0x461BCD PUSH1 0xE5 SHL DUP2 MSTORE PUSH1 0x20 PUSH1 0x4 DUP3 ADD MSTORE PUSH1 0x32 PUSH1 0x24 DUP3 ADD MSTORE PUSH32 0x4552433732313A207472616E7366657220746F206E6F6E204552433732315265 PUSH1 0x44 DUP3 ADD MSTORE PUSH32 0x63656976657220696D706C656D656E7465720000000000000000000000000000 PUSH1 0x64 DUP3 ADD MSTORE PUSH1 0x84 SWAP1 REVERT JUMPDEST PUSH1 0x0 SWAP3 SWAP2 DUP2 SLOAD SWAP2 PUSH2 0x2423 DUP4 PUSH2 0x20E6 JUMP JUMPDEST SWAP3 PUSH1 0x1 DUP2 AND SWAP1 DUP2 ISZERO PUSH2 0x246E JUMPI POP PUSH1 0x1 EQ PUSH2 0x243C JUMPI POP POP POP JUMP JUMPDEST SWAP1 SWAP2 SWAP3 SWAP4 POP PUSH1 0x0 MSTORE PUSH1 0x20 PUSH1 0x0 KECCAK256 PUSH1 0x0 SWAP1 JUMPDEST DUP4 DUP3 LT PUSH2 0x245A JUMPI POP POP ADD SWAP1 JUMP JUMPDEST PUSH1 0x1 DUP2 PUSH1 0x20 SWAP3 SLOAD DUP5 DUP7 ADD MSTORE ADD SWAP2 ADD SWAP1 PUSH2 0x244D JUMP JUMPDEST PUSH1 0xFF NOT AND DUP4 MSTORE POP POP DUP2 ISZERO ISZERO SWAP1 SWAP2 MUL ADD SWAP2 POP JUMP JUMPDEST SWAP1 PUSH1 0x1 PUSH1 0x1 PUSH1 0xA0 SHL SUB DUP1 PUSH2 0x2494 DUP4 PUSH2 0x2358 JUMP JUMPDEST AND SWAP3 AND SWAP1 DUP3 DUP3 EQ SWAP3 DUP4 ISZERO PUSH2 0x24C8 JUMPI JUMPDEST POP DUP3 ISZERO PUSH2 0x24AF JUMPI POP POP SWAP1 JUMP JUMPDEST PUSH1 0x1 PUSH1 0x1 PUSH1 0xA0 SHL SUB SWAP2 SWAP3 POP PUSH2 0x24C3 SWAP1 PUSH2 0x21C4 JUMP JUMPDEST AND EQ SWAP1 JUMP JUMPDEST SWAP1 SWAP3 POP PUSH1 0x0 MSTORE PUSH1 0x5 PUSH1 0x20 MSTORE PUSH1 0x40 PUSH1 0x0 KECCAK256 DUP2 PUSH1 0x0 MSTORE PUSH1 0x20 MSTORE PUSH1 0xFF PUSH1 0x40 PUSH1 0x0 KECCAK256 SLOAD AND SWAP2 CODESIZE PUSH2 0x24A3 JUMP JUMPDEST ISZERO PUSH2 0x24F6 JUMPI JUMP JUMPDEST PUSH1 0x40 MLOAD PUSH3 0x461BCD PUSH1 0xE5 SHL DUP2 MSTORE PUSH1 0x20 PUSH1 0x4 DUP3 ADD MSTORE PUSH1 0x25 PUSH1 0x24 DUP3 ADD MSTORE PUSH32 0x4552433732313A207472616E736665722066726F6D20696E636F727265637420 PUSH1 0x44 DUP3 ADD MSTORE PUSH32 0x6F776E6572000000000000000000000000000000000000000000000000000000 PUSH1 0x64 DUP3 ADD MSTORE PUSH1 0x84 SWAP1 REVERT JUMPDEST PUSH1 0x1 PUSH1 0x1 PUSH1 0xA0 SHL SUB SWAP2 PUSH2 0x2584 DUP4 SWAP3 DUP4 PUSH2 0x2579 DUP8 PUSH2 0x2358 JUMP JUMPDEST SWAP2 AND SWAP5 AND DUP5 EQ PUSH2 0x24EF JUMP JUMPDEST AND SWAP1 DUP2 ISZERO PUSH2 0x2634 JUMPI PUSH2 0x25A8 DUP2 PUSH1 0x1 PUSH1 0x1 PUSH1 0xA0 SHL SUB PUSH2 0x25A1 DUP7 PUSH2 0x2358 JUMP JUMPDEST AND EQ PUSH2 0x24EF JUMP JUMPDEST DUP3 PUSH1 0x0 MSTORE PUSH1 0x4 PUSH1 0x20 MSTORE PUSH1 0x40 PUSH1 0x0 KECCAK256 PUSH1 0x1 PUSH1 0x1 PUSH1 0xA0 SHL SUB NOT DUP2 SLOAD AND SWAP1 SSTORE DUP1 PUSH1 0x0 MSTORE PUSH1 0x3 PUSH1 0x20 MSTORE PUSH1 0x40 PUSH1 0x0 KECCAK256 PUSH1 0x0 NOT DUP2 SLOAD ADD SWAP1 SSTORE DUP2 PUSH1 0x0 MSTORE PUSH1 0x3 PUSH1 0x20 MSTORE PUSH1 0x40 PUSH1 0x0 KECCAK256 PUSH1 0x1 DUP2 SLOAD ADD SWAP1 SSTORE DUP3 PUSH1 0x0 MSTORE PUSH1 0x2 PUSH1 0x20 MSTORE PUSH1 0x40 PUSH1 0x0 KECCAK256 DUP3 PUSH1 0x1 PUSH1 0x1 PUSH1 0xA0 SHL SUB NOT DUP3 SLOAD AND OR SWAP1 SSTORE PUSH32 0xDDF252AD1BE2C89B69C2B068FC378DAA952BA7F163C4A11628F55A4DF523B3EF PUSH1 0x0 DUP1 LOG4 JUMP JUMPDEST PUSH1 0x40 MLOAD PUSH3 0x461BCD PUSH1 0xE5 SHL DUP2 MSTORE PUSH1 0x20 PUSH1 0x4 DUP3 ADD MSTORE PUSH1 0x24 DUP1 DUP3 ADD MSTORE PUSH32 0x4552433732313A207472616E7366657220746F20746865207A65726F20616464 PUSH1 0x44 DUP3 ADD MSTORE PUSH4 0x72657373 PUSH1 0xE0 SHL PUSH1 0x64 DUP3 ADD MSTORE PUSH1 0x84 SWAP1 REVERT JUMPDEST PUSH1 0x1 PUSH1 0x1 PUSH1 0xA0 SHL SUB PUSH1 0x7 SLOAD AND CALLER SUB PUSH2 0x2699 JUMPI JUMP JUMPDEST PUSH1 0x64 PUSH1 0x40 MLOAD PUSH3 0x461BCD PUSH1 0xE5 SHL DUP2 MSTORE PUSH1 0x20 PUSH1 0x4 DUP3 ADD MSTORE PUSH1 0x20 PUSH1 0x24 DUP3 ADD MSTORE PUSH32 0x4F776E61626C653A2063616C6C6572206973206E6F7420746865206F776E6572 PUSH1 0x44 DUP3 ADD MSTORE REVERT JUMPDEST ISZERO PUSH2 0x26E4 JUMPI JUMP JUMPDEST PUSH1 0x40 MLOAD PUSH3 0x461BCD PUSH1 0xE5 SHL DUP2 MSTORE PUSH1 0x20 PUSH1 0x4 DUP3 ADD MSTORE PUSH1 0x1C PUSH1 0x24 DUP3 ADD MSTORE PUSH32 0x4552433732313A20746F6B656E20616C7265616479206D696E74656400000000 PUSH1 0x44 DUP3 ADD MSTORE PUSH1 0x64 SWAP1 REVERT JUMPDEST PUSH1 0x3 DUP2 LT ISZERO PUSH2 0x1188 JUMPI DUP1 ISZERO PUSH2 0x27BA JUMPI PUSH1 0x1 PUSH1 0x0 SWAP2 EQ PUSH2 0x277E JUMPI POP PUSH1 0x40 MLOAD PUSH2 0x2751 PUSH1 0x40 DUP3 PUSH2 0x20A8 JUMP JUMPDEST PUSH1 0x7 DUP2 MSTORE PUSH32 0x4558504952454400000000000000000000000000000000000000000000000000 PUSH1 0x20 DUP3 ADD MSTORE SWAP1 JUMP JUMPDEST POP PUSH1 0x40 MLOAD PUSH2 0x278D PUSH1 0x40 DUP3 PUSH2 0x20A8 JUMP JUMPDEST PUSH1 0x9 DUP2 MSTORE PUSH32 0x4558455243495345440000000000000000000000000000000000000000000000 PUSH1 0x20 DUP3 ADD MSTORE SWAP1 JUMP JUMPDEST POP PUSH1 0x40 MLOAD PUSH2 0x27C9 PUSH1 0x40 DUP3 PUSH2 0x20A8 JUMP JUMPDEST PUSH1 0x6 DUP2 MSTORE PUSH32 0x4143544956450000000000000000000000000000000000000000000000000000 PUSH1 0x20 DUP3 ADD MSTORE SWAP1 JUMP JUMPDEST PUSH2 0x237A PUSH1 0x1 PUSH2 0x281A PUSH8 0xDE0B6B3A7640000 PUSH7 0x2386F26FC10000 DUP2 DUP7 MOD DIV SWAP5 DIV PUSH2 0x28F1 JUMP JUMPDEST SWAP3 PUSH1 0xA DUP2 LT ISZERO PUSH2 0x28B0 JUMPI PUSH2 0x282D SWAP1 PUSH2 0x28F1 JUMP JUMPDEST PUSH2 0x2865 PUSH1 0x21 PUSH1 0x40 MLOAD DUP1 SWAP4 PUSH1 0x3 PUSH1 0xFC SHL PUSH1 0x20 DUP4 ADD MSTORE PUSH2 0x2854 DUP2 MLOAD DUP1 SWAP3 PUSH1 0x20 DUP7 DUP7 ADD SWAP2 ADD PUSH2 0x1FAD JUMP JUMPDEST DUP2 ADD SUB ADD PUSH1 0x1F NOT DUP2 ADD DUP4 MSTORE DUP3 PUSH2 0x20A8 JUMP JUMPDEST SWAP3 JUMPDEST PUSH1 0x20 PUSH1 0x40 MLOAD SWAP5 DUP3 PUSH2 0x2881 DUP8 SWAP5 MLOAD DUP1 SWAP3 DUP6 DUP1 DUP9 ADD SWAP2 ADD PUSH2 0x1FAD JUMP JUMPDEST DUP4 ADD PUSH1 0x17 PUSH1 0xF9 SHL DUP4 DUP3 ADD MSTORE PUSH2 0x289F DUP3 MLOAD DUP1 SWAP4 DUP6 PUSH1 0x21 DUP6 ADD SWAP2 ADD PUSH2 0x1FAD JUMP JUMPDEST ADD ADD SUB ADD PUSH1 0x1F NOT DUP2 ADD DUP4 MSTORE DUP3 PUSH2 0x20A8 JUMP JUMPDEST PUSH2 0x28B9 SWAP1 PUSH2 0x28F1 JUMP JUMPDEST SWAP3 PUSH2 0x2867 JUMP JUMPDEST SWAP1 PUSH2 0x28C9 DUP3 PUSH2 0x20CA JUMP JUMPDEST PUSH2 0x28D6 PUSH1 0x40 MLOAD SWAP2 DUP3 PUSH2 0x20A8 JUMP JUMPDEST DUP3 DUP2 MSTORE DUP1 SWAP3 PUSH2 0x28E7 PUSH1 0x1F NOT SWAP2 PUSH2 0x20CA JUMP JUMPDEST ADD SWAP1 PUSH1 0x20 CALLDATASIZE SWAP2 ADD CALLDATACOPY JUMP JUMPDEST DUP1 PUSH1 0x0 SWAP2 PUSH27 0x184F03E93FF9F4DAA797ED6E38ED64BF6A1F010000000000000000 DUP3 LT ISZERO PUSH2 0x2A1D JUMPI JUMPDEST DUP1 PUSH14 0x4EE2D6D415B85ACEF8100000000 PUSH1 0xA SWAP3 LT ISZERO PUSH2 0x2A02 JUMPI JUMPDEST PUSH7 0x2386F26FC10000 DUP2 LT ISZERO PUSH2 0x29EE JUMPI JUMPDEST PUSH4 0x5F5E100 DUP2 LT ISZERO PUSH2 0x29DD JUMPI JUMPDEST PUSH2 0x2710 DUP2 LT ISZERO PUSH2 0x29CE JUMPI JUMPDEST PUSH1 0x64 DUP2 LT ISZERO PUSH2 0x29C0 JUMPI JUMPDEST LT ISZERO PUSH2 0x29B5 JUMPI JUMPDEST PUSH1 0xA PUSH1 0x21 PUSH2 0x297C PUSH1 0x1 DUP6 ADD PUSH2 0x28BF JUMP JUMPDEST SWAP4 DUP5 ADD ADD JUMPDEST PUSH1 0x0 NOT ADD SWAP2 PUSH16 0x181899199A1A9B1B9C1CB0B131B232B3 PUSH1 0x81 SHL DUP3 DUP3 MOD BYTE DUP4 MSTORE8 DIV DUP1 ISZERO PUSH2 0x29B0 JUMPI PUSH1 0xA SWAP1 SWAP2 PUSH2 0x2981 JUMP JUMPDEST POP POP SWAP1 JUMP JUMPDEST PUSH1 0x1 SWAP1 SWAP2 ADD SWAP1 PUSH2 0x296C JUMP JUMPDEST PUSH1 0x64 PUSH1 0x2 SWAP2 DIV SWAP4 ADD SWAP3 PUSH2 0x2965 JUMP JUMPDEST PUSH2 0x2710 PUSH1 0x4 SWAP2 DIV SWAP4 ADD SWAP3 PUSH2 0x295B JUMP JUMPDEST PUSH4 0x5F5E100 PUSH1 0x8 SWAP2 DIV SWAP4 ADD SWAP3 PUSH2 0x2950 JUMP JUMPDEST PUSH7 0x2386F26FC10000 PUSH1 0x10 SWAP2 DIV SWAP4 ADD SWAP3 PUSH2 0x2943 JUMP JUMPDEST PUSH14 0x4EE2D6D415B85ACEF8100000000 PUSH1 0x20 SWAP2 DIV SWAP4 ADD SWAP3 PUSH2 0x2933 JUMP JUMPDEST POP PUSH1 0x40 SWAP2 POP PUSH27 0x184F03E93FF9F4DAA797ED6E38ED64BF6A1F010000000000000000 DUP2 DIV PUSH2 0x2919 JUMP JUMPDEST SWAP1 DUP2 MLOAD ISZERO PUSH2 0x2B9D JUMPI PUSH1 0x40 MLOAD SWAP2 PUSH2 0x2A5C PUSH1 0x60 DUP5 PUSH2 0x20A8 JUMP JUMPDEST PUSH1 0x40 DUP4 MSTORE PUSH32 0x4142434445464748494A4B4C4D4E4F505152535455565758595A616263646566 PUSH1 0x20 DUP5 ADD MSTORE PUSH32 0x6768696A6B6C6D6E6F707172737475767778797A303132333435363738392B2F PUSH1 0x40 DUP5 ADD MSTORE DUP1 MLOAD PUSH1 0x2 DUP2 ADD DUP1 SWAP2 GT PUSH2 0x1A74 JUMPI PUSH1 0x3 SWAP1 DIV PUSH32 0x3FFFFFFFFFFFFFFFFFFFFFFFFFFFFFFFFFFFFFFFFFFFFFFFFFFFFFFFFFFFFFFF DUP2 AND DUP2 SUB PUSH2 0x1A74 JUMPI PUSH2 0x2AF2 SWAP1 PUSH1 0x2 SHL PUSH2 0x28BF JUMP JUMPDEST SWAP1 PUSH1 0x20 DUP3 ADD SWAP1 DUP1 DUP2 MLOAD DUP3 ADD SWAP6 PUSH1 0x20 DUP8 ADD SWAP1 DUP2 MLOAD SWAP3 PUSH1 0x0 DUP4 MSTORE JUMPDEST DUP9 DUP2 LT PUSH2 0x2B4F JUMPI POP POP PUSH1 0x3 SWAP4 SWAP5 SWAP6 SWAP7 POP MSTORE MLOAD MOD DUP1 PUSH1 0x1 EQ PUSH2 0x2B3C JUMPI PUSH1 0x2 EQ PUSH2 0x2B31 JUMPI POP SWAP1 JUMP JUMPDEST PUSH1 0x3D SWAP1 PUSH1 0x0 NOT ADD MSTORE8 SWAP1 JUMP JUMPDEST POP PUSH1 0x3D SWAP1 DUP2 PUSH1 0x0 NOT DUP3 ADD MSTORE8 PUSH1 0x1 NOT ADD MSTORE8 SWAP1 JUMP JUMPDEST PUSH1 0x3 PUSH1 0x4 SWAP2 SWAP10 SWAP7 SWAP10 ADD SWAP9 PUSH1 0x1 PUSH1 0x3F DUP12 MLOAD DUP3 DUP3 DUP3 PUSH1 0x12 SHR AND DUP8 ADD ADD MLOAD DUP5 MSTORE8 DUP3 DUP3 DUP3 PUSH1 0xC SHR AND DUP8 ADD ADD MLOAD DUP4 DUP6 ADD MSTORE8 DUP3 DUP3 DUP3 PUSH1 0x6 SHR AND DUP8 ADD ADD MLOAD PUSH1 0x2 DUP6 ADD MSTORE8 AND DUP5 ADD ADD MLOAD PUSH1 0x3 DUP3 ADD MSTORE8 ADD SWAP5 SWAP8 PUSH2 0x2B0B JUMP JUMPDEST SWAP1 POP PUSH1 0x40 MLOAD PUSH2 0x2BAD PUSH1 0x20 DUP3 PUSH2 0x20A8 JUMP JUMPDEST PUSH1 0x0 DUP2 MSTORE SWAP1 JUMP JUMPDEST SWAP2 SWAP1 DUP1 EXTCODESIZE ISZERO PUSH2 0x2D51 JUMPI PUSH1 0x1 PUSH1 0x1 PUSH1 0xA0 SHL SUB PUSH1 0x0 DUP2 PUSH1 0x20 SWAP6 PUSH2 0x2C04 PUSH1 0x40 MLOAD SWAP9 DUP10 SWAP8 DUP9 SWAP7 DUP8 SWAP5 PUSH4 0xA85BD01 PUSH1 0xE1 SHL DUP7 MSTORE CALLER PUSH1 0x4 DUP8 ADD MSTORE AND PUSH1 0x24 DUP6 ADD MSTORE PUSH1 0x44 DUP5 ADD MSTORE PUSH1 0x80 PUSH1 0x64 DUP5 ADD MSTORE PUSH1 0x84 DUP4 ADD SWAP1 PUSH2 0x1FD0 JUMP JUMPDEST SUB SWAP4 AND GAS CALL DUP1 SWAP2 PUSH1 0x0 SWAP2 PUSH2 0x2CEF JUMPI JUMPDEST POP SWAP1 PUSH2 0x2CC1 JUMPI RETURNDATASIZE ISZERO PUSH2 0x2CBA JUMPI RETURNDATASIZE PUSH2 0x2C29 DUP2 PUSH2 0x20CA JUMP JUMPDEST SWAP1 PUSH2 0x2C37 PUSH1 0x40 MLOAD SWAP3 DUP4 PUSH2 0x20A8 JUMP JUMPDEST DUP2 MSTORE RETURNDATASIZE PUSH1 0x0 PUSH1 0x20 DUP4 ADD RETURNDATACOPY JUMPDEST DUP1 MLOAD SWAP1 DUP2 PUSH2 0x2CB5 JUMPI PUSH1 0x40 MLOAD PUSH3 0x461BCD PUSH1 0xE5 SHL DUP2 MSTORE PUSH1 0x20 PUSH1 0x4 DUP3 ADD MSTORE PUSH1 0x32 PUSH1 0x24 DUP3 ADD MSTORE PUSH32 0x4552433732313A207472616E7366657220746F206E6F6E204552433732315265 PUSH1 0x44 DUP3 ADD MSTORE PUSH32 0x63656976657220696D706C656D656E7465720000000000000000000000000000 PUSH1 0x64 DUP3 ADD MSTORE PUSH1 0x84 SWAP1 REVERT JUMPDEST PUSH1 0x20 ADD REVERT JUMPDEST PUSH1 0x60 PUSH2 0x2C42 JUMP JUMPDEST PUSH32 0xFFFFFFFF00000000000000000000000000000000000000000000000000000000 AND PUSH4 0xA85BD01 PUSH1 0xE1 SHL EQ SWAP1 JUMP JUMPDEST PUSH1 0x20 DUP2 RETURNDATASIZE PUSH1 0x20 GT PUSH2 0x2D49 JUMPI JUMPDEST DUP2 PUSH2 0x2D08 PUSH1 0x20 SWAP4 DUP4 PUSH2 0x20A8 JUMP JUMPDEST DUP2 ADD SUB SLT PUSH2 0x2D45 JUMPI MLOAD SWAP1 PUSH32 0xFFFFFFFF00000000000000000000000000000000000000000000000000000000 DUP3 AND DUP3 SUB PUSH2 0x2D42 JUMPI POP CODESIZE PUSH2 0x2C13 JUMP JUMPDEST DUP1 REVERT JUMPDEST POP DUP1 REVERT JUMPDEST RETURNDATASIZE SWAP2 POP PUSH2 0x2CFB JUMP JUMPDEST POP POP POP POP PUSH1 0x1 SWAP1 JUMP JUMPDEST PUSH1 0x20 DUP2 MLOAD SWAP2 ADD KECCAK256 PUSH32 0xDB6D55A48C634FDFE68DA24C01559762C293198F8322E1FED7CA8976FC4ED260 DUP2 EQ PUSH2 0x2E24 JUMPI PUSH32 0xE7702D80DFD40CDB266EDB2034D118B91502A9A0F1E86EDA9E13980523A38F96 EQ PUSH2 0x2DE9 JUMPI PUSH1 0x40 MLOAD PUSH2 0x2DBC PUSH1 0x40 DUP3 PUSH2 0x20A8 JUMP JUMPDEST PUSH1 0x7 DUP2 MSTORE PUSH32 0x2336623732383000000000000000000000000000000000000000000000000000 PUSH1 0x20 DUP3 ADD MSTORE SWAP1 JUMP JUMPDEST PUSH1 0x40 MLOAD PUSH2 0x2DF7 PUSH1 0x40 DUP3 PUSH2 0x20A8 JUMP JUMPDEST PUSH1 0x7 DUP2 MSTORE PUSH32 0x2332353633656200000000000000000000000000000000000000000000000000 PUSH1 0x20 DUP3 ADD MSTORE SWAP1 JUMP JUMPDEST POP PUSH1 0x40 MLOAD PUSH2 0x2E33 PUSH1 0x40 DUP3 PUSH2 0x20A8 JUMP JUMPDEST PUSH1 0x7 DUP2 MSTORE PUSH32 0x2331366133346100000000000000000000000000000000000000000000000000 PUSH1 0x20 DUP3 ADD MSTORE SWAP1 JUMP INVALID LOG1 PUSH5 0x736F6C6343 STOP ADDMOD BYTE STOP EXP "},"methodIdentifiers":{"MAX_EXPIRY_DAYS()":"e2b93b84","MIN_EXPIRY_SECS()":"c57470f7","PROTOCOL_FEE_WAD()":"2a83ee3a","PYTH_MAX_AGE()":"58a2180a","WAD()":"6a146024","accruedFees(address)":"07311283","addCollateralToken(address)":"29918899","availableCollateral(address,address)":"f4c70407","collateralTokens(uint256)":"172c48c7","depositERC20(address,uint256)":"97feb926","depositHBAR()":"6049ea90","exercise(uint256,bytes[])":"759b1d7b","expireOption(uint256)":"02f126e8","feedIds(string)":"d751a44f","getCollateralTokens()":"b58eb63f","getPosition(uint256)":"eb02c301","getSupportedSymbols()":"ce1c0e4d","hss()":"6e1978f1","intrinsicValue(uint256,uint256)":"56a8299c","isCollateralToken(address)":"4766162c","optionToken()":"2bab754b","owner()":"8da5cb5b","pause()":"8456cb59","paused()":"5c975abb","positions(uint256)":"99fbab88","pyth()":"f98d06f0","quotePremium((string,uint8,uint256,uint256,uint256,uint256))":"2418cfbb","registerFeed(string,bytes32)":"eef07b95","renounceOwnership()":"715018a6","riskFreeRateWad()":"332821f5","setRiskFreeRate(uint256)":"e1ea1cf5","supportedSymbols(uint256)":"932d68a6","transferOwnership(address)":"f2fde38b","unpause()":"3f4ba83a","withdrawCollateral(address,uint256)":"350c35e9","withdrawFees(address,address)":"f2555278","writeOption((string,uint8,uint256,uint256,uint256,uint256,address,bytes[]),uint256)":"8678d23f","writerCollateral(address,address)":"b82112fe"}}}}}