{"contracts/OptionToken.sol":{"OptionToken":{"abi":[{"inputs":[{"internalType":"address","name":"vaultAddress","type":"address"}],"stateMutability":"nonpayable","type":"constructor"},{"anonymous":false,"inputs":[{"indexed":true,"internalType":"address","name":"owner","type":"address"},{"indexed":true,"internalType":"address","name":"approved","type":"address"},{"indexed":true,"internalType":"uint256","name":"tokenId","type":"uint256"}],"name":"Approval","type":"event"},{"anonymous":false,"inputs":[{"indexed":true,"internalType":"address","name":"owner","type":"address"},{"indexed":true,"internalType":"address","name":"operator","type":"address"},{"indexed":false,"internalType":"bool","name":"approved","type":"bool"}],"name":"ApprovalForAll","type":"event"},{"anonymous":false,"inputs":[{"indexed":false,"internalType":"uint256","name":"_fromTokenId","type":"uint256"},{"indexed":false,"internalType":"uint256","name":"_toTokenId","type":"uint256"}],"name":"BatchMetadataUpdate","type":"event"},{"anonymous":false,"inputs":[{"indexed":false,"internalType":"uint256","name":"_tokenId","type":"uint256"}],"name":"MetadataUpdate","type":"event"},{"anonymous":false,"inputs":[{"indexed":true,"internalType":"uint256","name":"tokenId","type":"uint256"},{"indexed":true,"internalType":"address","name":"buyer","type":"address"},{"indexed":true,"internalType":"address","name":"writer","type":"address"},{"indexed":false,"internalType":"enum OptionToken.OptionType","name":"optionType","type":"uint8"},{"indexed":false,"internalType":"uint256","name":"strikeWad","type":"uint256"},{"indexed":false,"internalType":"uint256","name":"sizeWad","type":"uint256"},{"indexed":false,"internalType":"uint256","name":"expiry","type":"uint256"}],"name":"OptionMinted","type":"event"},{"anonymous":false,"inputs":[{"indexed":true,"internalType":"uint256","name":"tokenId","type":"uint256"},{"indexed":false,"internalType":"enum OptionToken.OptionStatus","name":"newStatus","type":"uint8"}],"name":"OptionStatusUpdated","type":"event"},{"anonymous":false,"inputs":[{"indexed":true,"internalType":"address","name":"previousOwner","type":"address"},{"indexed":true,"internalType":"address","name":"newOwner","type":"address"}],"name":"OwnershipTransferred","type":"event"},{"anonymous":false,"inputs":[{"indexed":true,"internalType":"address","name":"from","type":"address"},{"indexed":true,"internalType":"address","name":"to","type":"address"},{"indexed":true,"internalType":"uint256","name":"tokenId","type":"uint256"}],"name":"Transfer","type":"event"},{"inputs":[{"internalType":"address","name":"to","type":"address"},{"internalType":"uint256","name":"tokenId","type":"uint256"}],"name":"approve","outputs":[],"stateMutability":"nonpayable","type":"function"},{"inputs":[{"internalType":"address","name":"owner","type":"address"}],"name":"balanceOf","outputs":[{"internalType":"uint256","name":"","type":"uint256"}],"stateMutability":"view","type":"function"},{"inputs":[{"internalType":"uint256","name":"tokenId","type":"uint256"}],"name":"getApproved","outputs":[{"internalType":"address","name":"","type":"address"}],"stateMutability":"view","type":"function"},{"inputs":[{"internalType":"uint256","name":"tokenId","type":"uint256"}],"name":"getOption","outputs":[{"components":[{"internalType":"bytes32","name":"feedId","type":"bytes32"},{"internalType":"string","name":"underlyingSymbol","type":"string"},{"internalType":"enum OptionToken.OptionType","name":"optionType","type":"uint8"},{"internalType":"uint256","name":"strikeWad","type":"uint256"},{"internalType":"uint256","name":"expiry","type":"uint256"},{"internalType":"uint256","name":"sizeWad","type":"uint256"},{"internalType":"uint256","name":"premiumWad","type":"uint256"},{"internalType":"address","name":"writer","type":"address"},{"internalType":"address","name":"collateralToken","type":"address"},{"internalType":"address","name":"scheduleId","type":"address"},{"internalType":"enum OptionToken.OptionStatus","name":"status","type":"uint8"},{"internalType":"uint256","name":"createdAt","type":"uint256"}],"internalType":"struct OptionToken.OptionData","name":"","type":"tuple"}],"stateMutability":"view","type":"function"},{"inputs":[{"internalType":"uint256","name":"tokenId","type":"uint256"}],"name":"isActive","outputs":[{"internalType":"bool","name":"","type":"bool"}],"stateMutability":"view","type":"function"},{"inputs":[{"internalType":"address","name":"owner","type":"address"},{"internalType":"address","name":"operator","type":"address"}],"name":"isApprovedForAll","outputs":[{"internalType":"bool","name":"","type":"bool"}],"stateMutability":"view","type":"function"},{"inputs":[{"internalType":"uint256","name":"tokenId","type":"uint256"}],"name":"isPastExpiry","outputs":[{"internalType":"bool","name":"","type":"bool"}],"stateMutability":"view","type":"function"},{"inputs":[{"internalType":"address","name":"buyer","type":"address"},{"components":[{"internalType":"bytes32","name":"feedId","type":"bytes32"},{"internalType":"string","name":"underlyingSymbol","type":"string"},{"internalType":"enum OptionToken.OptionType","name":"optionType","type":"uint8"},{"internalType":"uint256","name":"strikeWad","type":"uint256"},{"internalType":"uint256","name":"expiry","type":"uint256"},{"internalType":"uint256","name":"sizeWad","type":"uint256"},{"internalType":"uint256","name":"premiumWad","type":"uint256"},{"internalType":"address","name":"writer","type":"address"},{"internalType":"address","name":"collateralToken","type":"address"},{"internalType":"address","name":"scheduleId","type":"address"},{"internalType":"enum OptionToken.OptionStatus","name":"status","type":"uint8"},{"internalType":"uint256","name":"createdAt","type":"uint256"}],"internalType":"struct OptionToken.OptionData","name":"data","type":"tuple"}],"name":"mint","outputs":[{"internalType":"uint256","name":"tokenId","type":"uint256"}],"stateMutability":"nonpayable","type":"function"},{"inputs":[],"name":"name","outputs":[{"internalType":"string","name":"","type":"string"}],"stateMutability":"view","type":"function"},{"inputs":[],"name":"owner","outputs":[{"internalType":"address","name":"","type":"address"}],"stateMutability":"view","type":"function"},{"inputs":[{"internalType":"uint256","name":"tokenId","type":"uint256"}],"name":"ownerOf","outputs":[{"internalType":"address","name":"","type":"address"}],"stateMutability":"view","type":"function"},{"inputs":[],"name":"renounceOwnership","outputs":[],"stateMutability":"nonpayable","type":"function"},{"inputs":[{"internalType":"address","name":"from","type":"address"},{"internalType":"address","name":"to","type":"address"},{"internalType":"uint256","name":"tokenId","type":"uint256"}],"name":"safeTransferFrom","outputs":[],"stateMutability":"nonpayable","type":"function"},{"inputs":[{"internalType":"address","name":"from","type":"address"},{"internalType":"address","name":"to","type":"address"},{"internalType":"uint256","name":"tokenId","type":"uint256"},{"internalType":"bytes","name":"data","type":"bytes"}],"name":"safeTransferFrom","outputs":[],"stateMutability":"nonpayable","type":"function"},{"inputs":[{"internalType":"address","name":"operator","type":"address"},{"internalType":"bool","name":"approved","type":"bool"}],"name":"setApprovalForAll","outputs":[],"stateMutability":"nonpayable","type":"function"},{"inputs":[{"internalType":"uint256","name":"tokenId","type":"uint256"},{"internalType":"address","name":"scheduleId","type":"address"}],"name":"setScheduleId","outputs":[],"stateMutability":"nonpayable","type":"function"},{"inputs":[{"internalType":"uint256","name":"tokenId","type":"uint256"},{"internalType":"enum OptionToken.OptionStatus","name":"newStatus","type":"uint8"}],"name":"setStatus","outputs":[],"stateMutability":"nonpayable","type":"function"},{"inputs":[{"internalType":"bytes4","name":"interfaceId","type":"bytes4"}],"name":"supportsInterface","outputs":[{"internalType":"bool","name":"","type":"bool"}],"stateMutability":"view","type":"function"},{"inputs":[],"name":"symbol","outputs":[{"internalType":"string","name":"","type":"string"}],"stateMutability":"view","type":"function"},{"inputs":[{"internalType":"uint256","name":"tokenId","type":"uint256"}],"name":"tokenURI","outputs":[{"internalType":"string","name":"","type":"string"}],"stateMutability":"view","type":"function"},{"inputs":[],"name":"totalSupply","outputs":[{"internalType":"uint256","name":"","type":"uint256"}],"stateMutability":"view","type":"function"},{"inputs":[{"internalType":"address","name":"from","type":"address"},{"internalType":"address","name":"to","type":"address"},{"internalType":"uint256","name":"tokenId","type":"uint256"}],"name":"transferFrom","outputs":[],"stateMutability":"nonpayable","type":"function"},{"inputs":[{"internalType":"address","name":"newOwner","type":"address"}],"name":"transferOwnership","outputs":[],"stateMutability":"nonpayable","type":"function"}],"evm":{"bytecode":{"linkReferences":{},"object":"608060405234610365576132466020813803918261001c8161036a565b93849283398101031261036557516001600160a01b038116810361036557610044604061036a565b90601382527f486564657261204f7074696f6e20546f6b656e000000000000000000000000006020830152610079604061036a565b60048152631213d41560e21b602082015282519091906001600160401b03811161027057600054600181811c9116801561035b575b602082101461025057601f81116102f7575b506020601f82116001146102915781929394600092610286575b50508160011b916000199060031b1c1916176000555b8151916001600160401b03831161027057600154600181811c91168015610266575b602082101461025057601f81116101eb575b50602090601f841160011461017f57610165939160009183610174575b50508160011b916000199060031b1c1916176001555b6101603361038f565b61038f565b604051612e6d90816103d98239f35b015190503880610141565b90601f198416916001600052816000209260005b8181106101d357509160019391866101659794106101ba575b505050811b01600155610157565b015160001960f88460031b161c191690553880806101ac565b92936020600181928786015181550195019301610193565b60016000527fb10e2d527612073b26eecdfd717e6a320cf44b4afac2b0732d9fcbe2b7fa0cf6601f850160051c81019160208610610246575b601f0160051c01905b81811061023a5750610124565b6000815560010161022d565b9091508190610224565b634e487b7160e01b600052602260045260246000fd5b90607f1690610112565b634e487b7160e01b600052604160045260246000fd5b0151905038806100da565b601f1982169060008052806000209160005b8181106102df575095836001959697106102c6575b505050811b016000556100f0565b015160001960f88460031b161c191690553880806102b8565b9192602060018192868b0151815501940192016102a3565b600080527f290decd9548b62a8d60345a988386fc84ba6bc95484008f6362f93160ef3e563601f830160051c81019160208410610351575b601f0160051c01905b81811061034557506100c0565b60008155600101610338565b909150819061032f565b90607f16906100ae565b600080fd5b6040519190601f01601f191682016001600160401b0381118382101761027057604052565b600780546001600160a01b039283166001600160a01b0319821681179092559091167f8be0079c531659141344cd1fd0a4f28419497f9722a3daafe3b4186f6b6457e0600080a356fe608080604052600436101561001357600080fd5b60003560e01c90816301ffc9a714611f285750806306fdde0314611e83578063081812fc14611e65578063095ea7b314611cdb57806318160ddd14611cbd5780631ce5e9a614611ab357806323b872dd14611a8a57806325d4a65b1461164057806342842e0e146116165780636352211e146115e757806370a082311461153c578063710b7c2f146114ea578063715018a61461148f57806382afd23b146114355780638da5cb5b1461140e57806395d89b411461132d5780639a709c57146112fb578063a22cb46514611229578063b88d4fde1461119e578063c87b56dd146102f2578063d896dd641461025c578063e985e9c5146101ff5763f2fde38b1461011c57600080fd5b346101fa5760203660031901126101fa576001600160a01b0361013d611ff5565b610145612685565b16801561018f576001600160a01b03600754826001600160a01b0319821617600755167f8be0079c531659141344cd1fd0a4f28419497f9722a3daafe3b4186f6b6457e0600080a3005b60405162461bcd60e51b815260206004820152602660248201527f4f776e61626c653a206e6577206f776e657220697320746865207a65726f206160448201527f64647265737300000000000000000000000000000000000000000000000000006064820152608490fd5b600080fd5b346101fa5760403660031901126101fa57610218611ff5565b6001600160a01b0361022861200b565b911660005260056020526001600160a01b0360406000209116600052602052602060ff604060002054166040519015158152f35b346101fa5760403660031901126101fa5760043560243560038110156101fa5760207f4d7918f94f73bc22769a0715065536d0e7720e8fb22a5af2fccff8e4d6d89a0c916102a8612685565b83600052600282526102c96001600160a01b03604060002054161515612206565b83600052600982526102e28160096040600020016122d8565b6102ef604051809261202e565ba2005b346101fa5760203660031901126101fa576004358060005260026020526103286001600160a01b03604060002054161515612206565b806000526009602052604060002060ff6002820154166002811015611188571560008115611163575060405161035f6040826120a8565b600481526310d0531360e21b6020820152915b61038560ff600983015460a01c16612729565b9061039360038201546127f6565b6103a060058301546127f6565b6103ad60068401546127f6565b91600095600014611125576040516103c66040826120a8565b600781527f23323263353565000000000000000000000000000000000000000000000000006020820152965b60048501549861040460018701612120565b9861040e826128f1565b6104178c6128f1565b6104208a612d5a565b916040519c8d94602086017f3c73766720786d6c6e733d22687474703a2f2f7777772e77332e6f72672f32309052604086017f30302f737667222076696577426f783d223020302034303020323530222073749052606086017f796c653d22666f6e742d66616d696c793a6d6f6e6f7370616365223e000000009052607c86017f3c726563742077696474683d2234303022206865696768743d223235302220729052609c86017f783d223136222066696c6c3d2223306631373261222f3e000000000000000000905260b386017f3c7265637420783d2231362220793d223136222077696474683d223336382220905260d386017f6865696768743d22323138222072783d223132222066696c6c3d222331653239905260f386017f336222207374726f6b653d220000000000000000000000000000000000000000905280519060208101918060ff8901906105779185611fad565b7f22207374726f6b652d77696474683d2232222f3e00000000000000000000000060ff918901918201527f3c7465787420783d2233302220793d223530222066696c6c3d222339346133626101138201527f382220666f6e742d73697a653d223131223e484544455241204f5054494f4e536101338201527f205641554c543c2f746578743e000000000000000000000000000000000000006101538201527f3c7465787420783d2233302220793d223738222066696c6c3d2200000000000061016082015290519161065190839061017a840190611fad565b0160ff01607b81017f2220666f6e742d73697a653d2232322220666f6e742d7765696768743d22626f9052633632111f60e11b609b82015281519182609f8301916020019161069f92611fad565b01607b0160248101600160fd1b9052865190602581018260208a01916106c492611fad565b016024016001810161202360f01b9052815191826003830191602001916106ea92611fad565b0160010160028101661e17ba32bc3a1f60c91b9052600981017f3c7465787420783d2233302220793d22313038222066696c6c3d2223653265389052602981017f66302220666f6e742d73697a653d223134223e537472696b653a2024000000009052865190604581018260208a019161076392611fad565b01600201604381017f205553443c2f746578743e0000000000000000000000000000000000000000009052604e81017f3c7465787420783d2233302220793d22313332222066696c6c3d2223653265389052606e81017f66302220666f6e742d73697a653d223134223e53697a653a20202000000000009052875190608981018260208b01916107f292611fad565b01604301604681017f20756e6974733c2f746578743e000000000000000000000000000000000000009052605381017f3c7465787420783d2233302220793d22313536222066696c6c3d2223653265389052607381017f66302220666f6e742d73697a653d223134223e5072656d69756d3a20240000009052885190609081018260208c019161088192611fad565b01604601604a8101661e17ba32bc3a1f60c91b9052605181017f3c7465787420783d2233302220793d22313830222066696c6c3d2223363437349052607181017f38622220666f6e742d73697a653d223131223e4578706972793a200000000000905281519182608c830191602001916108fa92611fad565b661e17ba32bc3a1f60c91b608c92909101918201527f3c7465787420783d2233302220793d22323030222066696c6c3d22233634373460938201527f38622220666f6e742d73697a653d223131223e536574746c656420766961204860b38201527f49502d313231352050726f746f636f6c204175746f6d6174696f6e3c2f74657860d3820152613a1f60f11b60f38201527f3c7265637420783d223239302220793d223138222077696474683d223930222060f58201527f6865696768743d223232222072783d2236222066696c6c3d2200000000000000610115820152815191604a8201916109f491849161012e0190602001611fad565b016042016211179f60e91b60a282015260a581017f3c7465787420783d223333352220793d223333222066696c6c3d222366666622905260c581017f20666f6e742d73697a653d2231302220746578742d616e63686f723d226d6964905260e581017f646c65223e000000000000000000000000000000000000000000000000000000905288519060ea81018260208c0191610a8f92611fad565b0160a20160488101661e17ba32bc3a1f60c91b9052604f81017f3c2f7376673e000000000000000000000000000000000000000000000000000090520360480160121981018a52600d01610ae3908a6120a8565b610aec906128f1565b97610af690612a45565b98610b00906128f1565b9460078101546001600160a01b031660405198610b1e60608b6120a8565b602a8a5260403660208c013789511561111157603060208b015389516001101561111157607860218b01536029905b6001821161109e57505061105a576040517f7b226e616d65223a2200000000000000000000000000000000000000000000006020820152998a99610b9760298c0160018501612413565b600160fd1b8152845190610bb2826001830160208901611fad565b016001810161080960f21b905285519060038101826020890191610bd592611fad565b01600101600281017f204f7074696f6e20230000000000000000000000000000000000000000000000905281519182600b83019160200191610c1692611fad565b61088b60f21b600b92909101918201527f226465736372697074696f6e223a22486564657261204f7074696f6e73205661600d8201527f756c74202d204167656e74696320446546692e204578657263697361626c6520602d8201527f766961204849502d31323135206175746f6e6f6d6f757320736574746c656d65604d8201527f6e742e222c000000000000000000000000000000000000000000000000000000606d8201527f22696d616765223a22646174613a696d6167652f7376672b786d6c3b626173656072820152620d8d0b60ea1b60928201528151916002820191610d0a91849160950190602001611fad565b61088b60f21b609392909101918201527f2261747472696275746573223a5b00000000000000000000000000000000000060958201527f7b2274726169745f74797065223a22556e6465726c79696e67222c2276616c7560a38201526332911d1160e11b60c3820152610d859160c790910190600101612413565b62089f4b60ea1b81527f7b2274726169745f74797065223a2254797065222c2276616c7565223a2200006003820152815191610dca9083906021840190602001611fad565b62089f4b60ea1b602192909101918201527f7b2274726169745f74797065223a22537472696b6520555344222c2276616c7560248201526332911d1160e11b6044820152815191610e249083906048840190602001611fad565b0160210162089f4b60ea1b6027820152602a81017f7b2274726169745f74797065223a2253697a65222c2276616c7565223a220000905281519182604883019160200191610e7192611fad565b0160270162089f4b60ea1b6021820152602481017f7b2274726169745f74797065223a225072656d69756d222c2276616c7565223a9052601160f91b604482015281519182604583019160200191610ec892611fad565b0160210162089f4b60ea1b6024820152602781017f7b2274726169745f74797065223a22457870697279222c2276616c7565223a00905281519182604683019160200191610f1592611fad565b0160240160228101611f4b60f21b9052602481017f7b2274726169745f74797065223a22537461747573222c2276616c7565223a22905281519182604483019160200191610f6292611fad565b0160220162089f4b60ea1b6022820152602581017f7b2274726169745f74797065223a22577269746572222c2276616c7565223a22905281519182604583019160200191610faf92611fad565b61227d60f01b91016045810191909152615d7d60f01b604782015203602981018252610fde90604901826120a8565b610fe790612a45565b6040518091602082017f646174613a6170706c69636174696f6e2f6a736f6e3b6261736536342c000000905280519081603d8401916020019161102992611fad565b810103603d01601f198101825261104090826120a8565b6040518091602082526020820161105691611fd0565b0390f35b606460405162461bcd60e51b815260206004820152602060248201527f537472696e67733a20686578206c656e67746820696e73756666696369656e746044820152fd5b90916010600f821610156110fd578a518310156110fd576f181899199a1a9b1b9c1cb0b131b232b360811b600f82161a8b84016020015360041c9180156110e9576000190190610b4d565b634e487b7160e01b82526011600452602482fd5b634e487b7160e01b82526032600452602482fd5b634e487b7160e01b81526032600452602490fd5b6040516111336040826120a8565b600781527f23656634343434000000000000000000000000000000000000000000000000006020820152966103f2565b506040516111726040826120a8565b600381526214155560ea1b602082015291610372565b634e487b7160e01b600052602160045260246000fd5b346101fa5760803660031901126101fa576111b7611ff5565b6111bf61200b565b6064359167ffffffffffffffff83116101fa57366023840112156101fa578260040135916111ec836120ca565b926111fa60405194856120a8565b80845236602482870101116101fa576020816000926024611227980183880137850101526044359161237d565b005b346101fa5760403660031901126101fa57611242611ff5565b602435908115158092036101fa576001600160a01b0316908133146112b657336000526005602052604060002082600052602052604060002060ff1981541660ff83161790556040519081527f17307eab39ab6107e8899845ad3d59bd9653f200f220920489ca2b5937696c3160203392a3005b60405162461bcd60e51b815260206004820152601960248201527f4552433732313a20617070726f766520746f2063616c6c6572000000000000006044820152606490fd5b346101fa5760203660031901126101fa5760043560005260096020526020600460406000200154421015604051908152f35b346101fa5760003660031901126101fa57604051600060015461134f816120e6565b80845290600181169081156113ea575060011461138b575b61105683611377818503826120a8565b604051918291602083526020830190611fd0565b600160009081527fb10e2d527612073b26eecdfd717e6a320cf44b4afac2b0732d9fcbe2b7fa0cf6939250905b8082106113d057509091508101602001611377611367565b9192600181602092548385880101520191019092916113b8565b60ff191660208086019190915291151560051b840190910191506113779050611367565b346101fa5760003660031901126101fa5760206001600160a01b0360075416604051908152f35b346101fa5760203660031901126101fa576004356000526009602052604060002060ff600982015460a01c1690600382101561118857602091159081611481575b506040519015158152f35b600491500154421082611476565b346101fa5760003660031901126101fa576114a8612685565b60006001600160a01b036007546001600160a01b03198116600755167f8be0079c531659141344cd1fd0a4f28419497f9722a3daafe3b4186f6b6457e08280a3005b346101fa5760403660031901126101fa5761150361200b565b61150b612685565b60043560005260096020526001600160a01b03600960406000200191166001600160a01b0319825416179055600080f35b346101fa5760203660031901126101fa576001600160a01b0361155d611ff5565b16801561157c5760005260036020526020604060002054604051908152f35b60405162461bcd60e51b815260206004820152602960248201527f4552433732313a2061646472657373207a65726f206973206e6f74206120766160448201527f6c6964206f776e657200000000000000000000000000000000000000000000006064820152608490fd5b346101fa5760203660031901126101fa576020611605600435612358565b6001600160a01b0360405191168152f35b346101fa576112276116273661203b565b90604051926116376020856120a8565b6000845261237d565b346101fa5760403660031901126101fa57611659611ff5565b6024359067ffffffffffffffff82116101fa57813603916101806003198401126101fa57611685612685565b600854916000198314611a745760018301600855826000526009602052604060002090826004013582556001820194602484013590602219018112156101fa57830194600486013567ffffffffffffffff81116101fa5780360360248801136101fa57806000976116f684546120e6565b601f8111611a24575b508890601f83116001146119b75789926119a9575b50508160011b916000199060031b1c19161790555b6002820160448401359060028210156119a55760ff1981541660ff831617905560648401359081600385015560848501359485600486015560a48101359384600587015560c4820135600687015560e4820195611785876122c4565b6001600160a01b036007830191166001600160a01b03198254161790556117af61010484016122c4565b6001600160a01b036008830191166001600160a01b0319825416179055600981016001600160a01b036117e561012486016122c4565b166001600160a01b031982541617815561014484013560038110156119a1576001600160a01b039461181c61016492600a946122d8565b01359101558789526009602052600960408a200160ff60a01b198154169055878952600960205242600a60408b2001551693841561195d57602097879687957f1a38693d3505d88c2704f6bbb47e5a2dd7a1a37e3b012511eabd416032f0d846956119448960809761193d6001600160a01b03986118dc6118ba8e6118c06118ba8260005260026020526001600160a01b0360406000205416151590565b156126dd565b60005260026020526001600160a01b0360406000205416151590565b83895260206003905260408920600181540190558c895260206002905260408920846001600160a01b03198254161790556040519e8f948a7fddf252ad1be2c89b69c2b068fc378daa952ba7f163c4a11628f55a4df523b3ef8180a46122c4565b9650612021565b8b8a0152604089015260608801521694a4604051908152f35b606460405162461bcd60e51b815260206004820152602060248201527f4552433732313a206d696e7420746f20746865207a65726f20616464726573736044820152fd5b8b80fd5b8680fd5b016024013590508880611714565b848a5260208a20925090601f1984168a5b818110611a0957509084600195949392106119eb575b505050811b019055611729565b602491010135600019600384901b60f8161c191690558880806119de565b602484840101358555600190940193602092830192016119c8565b90915083895260208920601f840160051c81019160208510611a6a575b90601f859493920160051c01905b818110611a5c57506116ff565b8a8155849350600101611a4f565b9091508190611a41565b634e487b7160e01b600052601160045260246000fd5b346101fa57611227611a9b3661203b565b91611aae611aa98433612481565b612252565b612561565b346101fa5760203660031901126101fa576004356000610160604051611ad881612075565b828152606060208201528260408201528260608201528260808201528260a08201528260c08201528260e08201528261010082015282610120820152826101408201520152806000526002602052611b3f6001600160a01b03604060002054161515612206565b60005260096020526040600020604051611b5881612075565b81548152611b6860018301612120565b916020820192835260ff600282015416906040830191600281101561118857825260038101549060608401918252600481015460808501908152600582015460a08601908152600683015460c087019081526001600160a01b036007850154169060e088019182526001600160a01b0360088601541692610100890193845260098601549460ff6101208b01966001600160a01b038116885260a01c16966101408b01976003811015611188578852600a0154976101608b019889526040519b8c9b60208d525160208d01525160408c0161018090526101a08c01611c4c91611fd0565b995160608c01611c5b91612021565b5160808b01525160a08a01525160c08901525160e0880152516001600160a01b0316610100870152516001600160a01b0316610120860152516001600160a01b0316610140850152516101608401611cb29161202e565b516101808301520390f35b346101fa5760003660031901126101fa576020600854604051908152f35b346101fa5760403660031901126101fa57611cf4611ff5565b602435906001600160a01b0380611d0a84612358565b16911690808214611e1657803314908115611de8575b5015611d7d578160005260046020526040600020816001600160a01b03198254161790556001600160a01b03611d5583612358565b167f8c5be1e5ebec7d5bd14f71427d1e84f3dd0314c0f7b2291e5b200ac8c7c3b925600080a4005b60405162461bcd60e51b815260206004820152603d60248201527f4552433732313a20617070726f76652063616c6c6572206973206e6f7420746f60448201527f6b656e206f776e6572206f7220617070726f76656420666f7220616c6c0000006064820152608490fd5b9050600052600560205260406000206001600160a01b03331660005260205260ff6040600020541683611d20565b60405162461bcd60e51b815260206004820152602160248201527f4552433732313a20617070726f76616c20746f2063757272656e74206f776e656044820152603960f91b6064820152608490fd5b346101fa5760203660031901126101fa5760206116056004356121c4565b346101fa5760003660031901126101fa5760405160008054611ea4816120e6565b80845290600181169081156113ea5750600114611ecb5761105683611377818503826120a8565b60008080527f290decd9548b62a8d60345a988386fc84ba6bc95484008f6362f93160ef3e563939250905b808210611f0e57509091508101602001611377611367565b919260018160209254838588010152019101909291611ef6565b346101fa5760203660031901126101fa576004359063ffffffff60e01b82168092036101fa57602091632483248360e11b8114908115611f6a575b5015158152f35b6380ac58cd60e01b811491508115611f9c575b8115611f8b575b5083611f63565b6301ffc9a760e01b14905083611f84565b635b5e139f60e01b81149150611f7d565b60005b838110611fc05750506000910152565b8181015183820152602001611fb0565b90602091611fe981518092818552858086019101611fad565b601f01601f1916010190565b600435906001600160a01b03821682036101fa57565b602435906001600160a01b03821682036101fa57565b9060028210156111885752565b9060038210156111885752565b60609060031901126101fa576004356001600160a01b03811681036101fa57906024356001600160a01b03811681036101fa579060443590565b610180810190811067ffffffffffffffff82111761209257604052565b634e487b7160e01b600052604160045260246000fd5b90601f8019910116810190811067ffffffffffffffff82111761209257604052565b67ffffffffffffffff811161209257601f01601f191660200190565b90600182811c92168015612116575b602083101461210057565b634e487b7160e01b600052602260045260246000fd5b91607f16916120f5565b9060405191826000825492612134846120e6565b80845293600181169081156121a2575060011461215b575b50612159925003836120a8565b565b90506000929192526020600020906000915b818310612186575050906020612159928201013861214c565b602091935080600191548385890101520191019091849261216d565b90506020925061215994915060ff191682840152151560051b8201013861214c565b6121ec6121e78260005260026020526001600160a01b0360406000205416151590565b61230c565b60005260046020526001600160a01b036040600020541690565b1561220d57565b60405162461bcd60e51b815260206004820152601860248201527f4f7074696f6e546f6b656e3a206e6f6e6578697374656e7400000000000000006044820152606490fd5b1561225957565b60405162461bcd60e51b815260206004820152602d60248201527f4552433732313a2063616c6c6572206973206e6f7420746f6b656e206f776e6560448201527f72206f7220617070726f766564000000000000000000000000000000000000006064820152608490fd5b356001600160a01b03811681036101fa5790565b9060038110156111885760ff60a01b1974ff000000000000000000000000000000000000000083549260a01b169116179055565b1561231357565b60405162461bcd60e51b815260206004820152601860248201527f4552433732313a20696e76616c696420746f6b656e20494400000000000000006044820152606490fd5b60005260026020526001600160a01b036040600020541661237a81151561230c565b90565b906123a1939291612391611aa98433612481565b61239c838383612561565b612bb4565b156123a857565b60405162461bcd60e51b815260206004820152603260248201527f4552433732313a207472616e7366657220746f206e6f6e20455243373231526560448201527f63656976657220696d706c656d656e74657200000000000000000000000000006064820152608490fd5b60009291815491612423836120e6565b926001811690811561246e575060011461243c57505050565b909192935060005260206000206000905b83821061245a5750500190565b60018160209254848601520191019061244d565b60ff191683525050811515909102019150565b906001600160a01b038061249483612358565b169216908282149283156124c8575b5082156124af57505090565b6001600160a01b039192506124c3906121c4565b161490565b909250600052600560205260406000208160005260205260ff6040600020541691386124a3565b156124f657565b60405162461bcd60e51b815260206004820152602560248201527f4552433732313a207472616e736665722066726f6d20696e636f72726563742060448201527f6f776e65720000000000000000000000000000000000000000000000000000006064820152608490fd5b6001600160a01b039161258483928361257987612358565b9116941684146124ef565b16908115612634576125a8816001600160a01b036125a186612358565b16146124ef565b82600052600460205260406000206001600160a01b03198154169055806000526003602052604060002060001981540190558160005260036020526040600020600181540190558260005260026020526040600020826001600160a01b03198254161790557fddf252ad1be2c89b69c2b068fc378daa952ba7f163c4a11628f55a4df523b3ef600080a4565b60405162461bcd60e51b8152602060048201526024808201527f4552433732313a207472616e7366657220746f20746865207a65726f206164646044820152637265737360e01b6064820152608490fd5b6001600160a01b0360075416330361269957565b606460405162461bcd60e51b815260206004820152602060248201527f4f776e61626c653a2063616c6c6572206973206e6f7420746865206f776e65726044820152fd5b156126e457565b60405162461bcd60e51b815260206004820152601c60248201527f4552433732313a20746f6b656e20616c7265616479206d696e746564000000006044820152606490fd5b60038110156111885780156127ba5760016000911461277e57506040516127516040826120a8565b600781527f4558504952454400000000000000000000000000000000000000000000000000602082015290565b5060405161278d6040826120a8565b600981527f4558455243495345440000000000000000000000000000000000000000000000602082015290565b506040516127c96040826120a8565b600681527f4143544956450000000000000000000000000000000000000000000000000000602082015290565b61237a600161281a670de0b6b3a7640000662386f26fc100008186060494046128f1565b92600a8110156128b05761282d906128f1565b61286560216040518093600360fc1b60208301526128548151809260208686019101611fad565b81010301601f1981018352826120a8565b925b602060405194826128818794518092858088019101611fad565b8301601760f91b8382015261289f8251809385602185019101611fad565b01010301601f1981018352826120a8565b6128b9906128f1565b92612867565b906128c9826120ca565b6128d660405191826120a8565b82815280926128e7601f19916120ca565b0190602036910137565b806000917a184f03e93ff9f4daa797ed6e38ed64bf6a1f010000000000000000821015612a1d575b806d04ee2d6d415b85acef8100000000600a921015612a02575b662386f26fc100008110156129ee575b6305f5e1008110156129dd575b6127108110156129ce575b60648110156129c0575b10156129b5575b600a602161297c600185016128bf565b938401015b60001901916f181899199a1a9b1b9c1cb0b131b232b360811b8282061a83530480156129b057600a9091612981565b505090565b60019091019061296c565b606460029104930192612965565b6127106004910493019261295b565b6305f5e10060089104930192612950565b662386f26fc1000060109104930192612943565b6d04ee2d6d415b85acef810000000060209104930192612933565b50604091507a184f03e93ff9f4daa797ed6e38ed64bf6a1f0100000000000000008104612919565b90815115612b9d5760405191612a5c6060846120a8565b604083527f4142434445464748494a4b4c4d4e4f505152535455565758595a61626364656660208401527f6768696a6b6c6d6e6f707172737475767778797a303132333435363738392b2f6040840152805160028101809111611a7457600390047f3fffffffffffffffffffffffffffffffffffffffffffffffffffffffffffffff81168103611a7457612af29060021b6128bf565b9060208201908081518201956020870190815192600083525b888110612b4f5750506003939495965052510680600114612b3c57600214612b31575090565b603d90600019015390565b50603d9081600019820153600119015390565b600360049199969901986001603f8b5182828260121c16870101518453828282600c1c16870101518385015382828260061c1687010151600285015316840101516003820153019497612b0b565b9050604051612bad6020826120a8565b6000815290565b9190803b15612d51576001600160a01b03600081602095612c0460405198899788968794630a85bd0160e11b86523360048701521660248501526044840152608060648401526084830190611fd0565b0393165af18091600091612cef575b5090612cc1573d15612cba573d612c29816120ca565b90612c3760405192836120a8565b81523d6000602083013e5b80519081612cb55760405162461bcd60e51b815260206004820152603260248201527f4552433732313a207472616e7366657220746f206e6f6e20455243373231526560448201527f63656976657220696d706c656d656e74657200000000000000000000000000006064820152608490fd5b602001fd5b6060612c42565b7fffffffff0000000000000000000000000000000000000000000000000000000016630a85bd0160e11b1490565b6020813d602011612d49575b81612d08602093836120a8565b81010312612d455751907fffffffff0000000000000000000000000000000000000000000000000000000082168203612d42575038612c13565b80fd5b5080fd5b3d9150612cfb565b50505050600190565b602081519101207fdb6d55a48c634fdfe68da24c01559762c293198f8322e1fed7ca8976fc4ed2608114612e24577fe7702d80dfd40cdb266edb2034d118b91502a9a0f1e86eda9e13980523a38f9614612de957604051612dbc6040826120a8565b600781527f2336623732383000000000000000000000000000000000000000000000000000602082015290565b604051612df76040826120a8565b600781527f2332353633656200000000000000000000000000000000000000000000000000602082015290565b50604051612e336040826120a8565b600781527f233136613334610000000000000000000000000000000000000000000000000060208201529056fea164736f6c634300081a000a","opcodes":"PUSH1 0x80 PUSH1 0x40 MSTORE CALLVALUE PUSH2 0x365 JUMPI PUSH2 0x3246 PUSH1 0x20 DUP2 CODESIZE SUB SWAP2 DUP3 PUSH2 0x1C DUP2 PUSH2 0x36A JUMP JUMPDEST SWAP4 DUP5 SWAP3 DUP4 CODECOPY DUP2 ADD SUB SLT PUSH2 0x365 JUMPI MLOAD PUSH1 0x1 PUSH1 0x1 PUSH1 0xA0 SHL SUB DUP2 AND DUP2 SUB PUSH2 0x365 JUMPI PUSH2 0x44 PUSH1 0x40 PUSH2 0x36A JUMP JUMPDEST SWAP1 PUSH1 0x13 DUP3 MSTORE PUSH32 0x486564657261204F7074696F6E20546F6B656E00000000000000000000000000 PUSH1 0x20 DUP4 ADD MSTORE PUSH2 0x79 PUSH1 0x40 PUSH2 0x36A JUMP JUMPDEST PUSH1 0x4 DUP2 MSTORE PUSH4 0x1213D415 PUSH1 0xE2 SHL PUSH1 0x20 DUP3 ADD MSTORE DUP3 MLOAD SWAP1 SWAP2 SWAP1 PUSH1 0x1 PUSH1 0x1 PUSH1 0x40 SHL SUB DUP2 GT PUSH2 0x270 JUMPI PUSH1 0x0 SLOAD PUSH1 0x1 DUP2 DUP2 SHR SWAP2 AND DUP1 ISZERO PUSH2 0x35B JUMPI JUMPDEST PUSH1 0x20 DUP3 LT EQ PUSH2 0x250 JUMPI PUSH1 0x1F DUP2 GT PUSH2 0x2F7 JUMPI JUMPDEST POP PUSH1 0x20 PUSH1 0x1F DUP3 GT PUSH1 0x1 EQ PUSH2 0x291 JUMPI DUP2 SWAP3 SWAP4 SWAP5 PUSH1 0x0 SWAP3 PUSH2 0x286 JUMPI JUMPDEST POP POP DUP2 PUSH1 0x1 SHL SWAP2 PUSH1 0x0 NOT SWAP1 PUSH1 0x3 SHL SHR NOT AND OR PUSH1 0x0 SSTORE JUMPDEST DUP2 MLOAD SWAP2 PUSH1 0x1 PUSH1 0x1 PUSH1 0x40 SHL SUB DUP4 GT PUSH2 0x270 JUMPI PUSH1 0x1 SLOAD PUSH1 0x1 DUP2 DUP2 SHR SWAP2 AND DUP1 ISZERO PUSH2 0x266 JUMPI JUMPDEST PUSH1 0x20 DUP3 LT EQ PUSH2 0x250 JUMPI PUSH1 0x1F DUP2 GT PUSH2 0x1EB JUMPI JUMPDEST POP PUSH1 0x20 SWAP1 PUSH1 0x1F DUP5 GT PUSH1 0x1 EQ PUSH2 0x17F JUMPI PUSH2 0x165 SWAP4 SWAP2 PUSH1 0x0 SWAP2 DUP4 PUSH2 0x174 JUMPI JUMPDEST POP POP DUP2 PUSH1 0x1 SHL SWAP2 PUSH1 0x0 NOT SWAP1 PUSH1 0x3 SHL SHR NOT AND OR PUSH1 0x1 SSTORE JUMPDEST PUSH2 0x160 CALLER PUSH2 0x38F JUMP JUMPDEST PUSH2 0x38F JUMP JUMPDEST PUSH1 0x40 MLOAD PUSH2 0x2E6D SWAP1 DUP2 PUSH2 0x3D9 DUP3 CODECOPY RETURN JUMPDEST ADD MLOAD SWAP1 POP CODESIZE DUP1 PUSH2 0x141 JUMP JUMPDEST SWAP1 PUSH1 0x1F NOT DUP5 AND SWAP2 PUSH1 0x1 PUSH1 0x0 MSTORE DUP2 PUSH1 0x0 KECCAK256 SWAP3 PUSH1 0x0 JUMPDEST DUP2 DUP2 LT PUSH2 0x1D3 JUMPI POP SWAP2 PUSH1 0x1 SWAP4 SWAP2 DUP7 PUSH2 0x165 SWAP8 SWAP5 LT PUSH2 0x1BA JUMPI JUMPDEST POP POP POP DUP2 SHL ADD PUSH1 0x1 SSTORE PUSH2 0x157 JUMP JUMPDEST ADD MLOAD PUSH1 0x0 NOT PUSH1 0xF8 DUP5 PUSH1 0x3 SHL AND SHR NOT AND SWAP1 SSTORE CODESIZE DUP1 DUP1 PUSH2 0x1AC JUMP JUMPDEST SWAP3 SWAP4 PUSH1 0x20 PUSH1 0x1 DUP2 SWAP3 DUP8 DUP7 ADD MLOAD DUP2 SSTORE ADD SWAP6 ADD SWAP4 ADD PUSH2 0x193 JUMP JUMPDEST PUSH1 0x1 PUSH1 0x0 MSTORE PUSH32 0xB10E2D527612073B26EECDFD717E6A320CF44B4AFAC2B0732D9FCBE2B7FA0CF6 PUSH1 0x1F DUP6 ADD PUSH1 0x5 SHR DUP2 ADD SWAP2 PUSH1 0x20 DUP7 LT PUSH2 0x246 JUMPI JUMPDEST PUSH1 0x1F ADD PUSH1 0x5 SHR ADD SWAP1 JUMPDEST DUP2 DUP2 LT PUSH2 0x23A JUMPI POP PUSH2 0x124 JUMP JUMPDEST PUSH1 0x0 DUP2 SSTORE PUSH1 0x1 ADD PUSH2 0x22D JUMP JUMPDEST SWAP1 SWAP2 POP DUP2 SWAP1 PUSH2 0x224 JUMP JUMPDEST PUSH4 0x4E487B71 PUSH1 0xE0 SHL PUSH1 0x0 MSTORE PUSH1 0x22 PUSH1 0x4 MSTORE PUSH1 0x24 PUSH1 0x0 REVERT JUMPDEST SWAP1 PUSH1 0x7F AND SWAP1 PUSH2 0x112 JUMP JUMPDEST PUSH4 0x4E487B71 PUSH1 0xE0 SHL PUSH1 0x0 MSTORE PUSH1 0x41 PUSH1 0x4 MSTORE PUSH1 0x24 PUSH1 0x0 REVERT JUMPDEST ADD MLOAD SWAP1 POP CODESIZE DUP1 PUSH2 0xDA JUMP JUMPDEST PUSH1 0x1F NOT DUP3 AND SWAP1 PUSH1 0x0 DUP1 MSTORE DUP1 PUSH1 0x0 KECCAK256 SWAP2 PUSH1 0x0 JUMPDEST DUP2 DUP2 LT PUSH2 0x2DF JUMPI POP SWAP6 DUP4 PUSH1 0x1 SWAP6 SWAP7 SWAP8 LT PUSH2 0x2C6 JUMPI JUMPDEST POP POP POP DUP2 SHL ADD PUSH1 0x0 SSTORE PUSH2 0xF0 JUMP JUMPDEST ADD MLOAD PUSH1 0x0 NOT PUSH1 0xF8 DUP5 PUSH1 0x3 SHL AND SHR NOT AND SWAP1 SSTORE CODESIZE DUP1 DUP1 PUSH2 0x2B8 JUMP JUMPDEST SWAP2 SWAP3 PUSH1 0x20 PUSH1 0x1 DUP2 SWAP3 DUP7 DUP12 ADD MLOAD DUP2 SSTORE ADD SWAP5 ADD SWAP3 ADD PUSH2 0x2A3 JUMP JUMPDEST PUSH1 0x0 DUP1 MSTORE PUSH32 0x290DECD9548B62A8D60345A988386FC84BA6BC95484008F6362F93160EF3E563 PUSH1 0x1F DUP4 ADD PUSH1 0x5 SHR DUP2 ADD SWAP2 PUSH1 0x20 DUP5 LT PUSH2 0x351 JUMPI JUMPDEST PUSH1 0x1F ADD PUSH1 0x5 SHR ADD SWAP1 JUMPDEST DUP2 DUP2 LT PUSH2 0x345 JUMPI POP PUSH2 0xC0 JUMP JUMPDEST PUSH1 0x0 DUP2 SSTORE PUSH1 0x1 ADD PUSH2 0x338 JUMP JUMPDEST SWAP1 SWAP2 POP DUP2 SWAP1 PUSH2 0x32F JUMP JUMPDEST SWAP1 PUSH1 0x7F AND SWAP1 PUSH2 0xAE JUMP JUMPDEST PUSH1 0x0 DUP1 REVERT JUMPDEST PUSH1 0x40 MLOAD SWAP2 SWAP1 PUSH1 0x1F ADD PUSH1 0x1F NOT AND DUP3 ADD PUSH1 0x1 PUSH1 0x1 PUSH1 0x40 SHL SUB DUP2 GT DUP4 DUP3 LT OR PUSH2 0x270 JUMPI PUSH1 0x40 MSTORE JUMP JUMPDEST PUSH1 0x7 DUP1 SLOAD PUSH1 0x1 PUSH1 0x1 PUSH1 0xA0 SHL SUB SWAP3 DUP4 AND PUSH1 0x1 PUSH1 0x1 PUSH1 0xA0 SHL SUB NOT DUP3 AND DUP2 OR SWAP1 SWAP3 SSTORE SWAP1 SWAP2 AND PUSH32 0x8BE0079C531659141344CD1FD0A4F28419497F9722A3DAAFE3B4186F6B6457E0 PUSH1 0x0 DUP1 LOG3 JUMP INVALID PUSH1 0x80 DUP1 PUSH1 0x40 MSTORE PUSH1 0x4 CALLDATASIZE LT ISZERO PUSH2 0x13 JUMPI PUSH1 0x0 DUP1 REVERT JUMPDEST PUSH1 0x0 CALLDATALOAD PUSH1 0xE0 SHR SWAP1 DUP2 PUSH4 0x1FFC9A7 EQ PUSH2 0x1F28 JUMPI POP DUP1 PUSH4 0x6FDDE03 EQ PUSH2 0x1E83 JUMPI DUP1 PUSH4 0x81812FC EQ PUSH2 0x1E65 JUMPI DUP1 PUSH4 0x95EA7B3 EQ PUSH2 0x1CDB JUMPI DUP1 PUSH4 0x18160DDD EQ PUSH2 0x1CBD JUMPI DUP1 PUSH4 0x1CE5E9A6 EQ PUSH2 0x1AB3 JUMPI DUP1 PUSH4 0x23B872DD EQ PUSH2 0x1A8A JUMPI DUP1 PUSH4 0x25D4A65B EQ PUSH2 0x1640 JUMPI DUP1 PUSH4 0x42842E0E EQ PUSH2 0x1616 JUMPI DUP1 PUSH4 0x6352211E EQ PUSH2 0x15E7 JUMPI DUP1 PUSH4 0x70A08231 EQ PUSH2 0x153C JUMPI DUP1 PUSH4 0x710B7C2F EQ PUSH2 0x14EA JUMPI DUP1 PUSH4 0x715018A6 EQ PUSH2 0x148F JUMPI DUP1 PUSH4 0x82AFD23B EQ PUSH2 0x1435 JUMPI DUP1 PUSH4 0x8DA5CB5B EQ PUSH2 0x140E JUMPI DUP1 PUSH4 0x95D89B41 EQ PUSH2 0x132D JUMPI DUP1 PUSH4 0x9A709C57 EQ PUSH2 0x12FB JUMPI DUP1 PUSH4 0xA22CB465 EQ PUSH2 0x1229 JUMPI DUP1 PUSH4 0xB88D4FDE EQ PUSH2 0x119E JUMPI DUP1 PUSH4 0xC87B56DD EQ PUSH2 0x2F2 JUMPI DUP1 PUSH4 0xD896DD64 EQ PUSH2 0x25C JUMPI DUP1 PUSH4 0xE985E9C5 EQ PUSH2 0x1FF JUMPI PUSH4 0xF2FDE38B EQ PUSH2 0x11C JUMPI PUSH1 0x0 DUP1 REVERT JUMPDEST CALLVALUE PUSH2 0x1FA JUMPI PUSH1 0x20 CALLDATASIZE PUSH1 0x3 NOT ADD SLT PUSH2 0x1FA JUMPI PUSH1 0x1 PUSH1 0x1 PUSH1 0xA0 SHL SUB PUSH2 0x13D PUSH2 0x1FF5 JUMP JUMPDEST PUSH2 0x145 PUSH2 0x2685 JUMP JUMPDEST AND DUP1 ISZERO PUSH2 0x18F JUMPI PUSH1 0x1 PUSH1 0x1 PUSH1 0xA0 SHL SUB PUSH1 0x7 SLOAD DUP3 PUSH1 0x1 PUSH1 0x1 PUSH1 0xA0 SHL SUB NOT DUP3 AND OR PUSH1 0x7 SSTORE AND PUSH32 0x8BE0079C531659141344CD1FD0A4F28419497F9722A3DAAFE3B4186F6B6457E0 PUSH1 0x0 DUP1 LOG3 STOP JUMPDEST PUSH1 0x40 MLOAD PUSH3 0x461BCD PUSH1 0xE5 SHL DUP2 MSTORE PUSH1 0x20 PUSH1 0x4 DUP3 ADD MSTORE PUSH1 0x26 PUSH1 0x24 DUP3 ADD MSTORE PUSH32 0x4F776E61626C653A206E6577206F776E657220697320746865207A65726F2061 PUSH1 0x44 DUP3 ADD MSTORE PUSH32 0x6464726573730000000000000000000000000000000000000000000000000000 PUSH1 0x64 DUP3 ADD MSTORE PUSH1 0x84 SWAP1 REVERT JUMPDEST PUSH1 0x0 DUP1 REVERT JUMPDEST CALLVALUE PUSH2 0x1FA JUMPI PUSH1 0x40 CALLDATASIZE PUSH1 0x3 NOT ADD SLT PUSH2 0x1FA JUMPI PUSH2 0x218 PUSH2 0x1FF5 JUMP JUMPDEST PUSH1 0x1 PUSH1 0x1 PUSH1 0xA0 SHL SUB PUSH2 0x228 PUSH2 0x200B JUMP JUMPDEST SWAP2 AND PUSH1 0x0 MSTORE PUSH1 0x5 PUSH1 0x20 MSTORE PUSH1 0x1 PUSH1 0x1 PUSH1 0xA0 SHL SUB PUSH1 0x40 PUSH1 0x0 KECCAK256 SWAP2 AND PUSH1 0x0 MSTORE PUSH1 0x20 MSTORE PUSH1 0x20 PUSH1 0xFF PUSH1 0x40 PUSH1 0x0 KECCAK256 SLOAD AND PUSH1 0x40 MLOAD SWAP1 ISZERO ISZERO DUP2 MSTORE RETURN JUMPDEST CALLVALUE PUSH2 0x1FA JUMPI PUSH1 0x40 CALLDATASIZE PUSH1 0x3 NOT ADD SLT PUSH2 0x1FA JUMPI PUSH1 0x4 CALLDATALOAD PUSH1 0x24 CALLDATALOAD PUSH1 0x3 DUP2 LT ISZERO PUSH2 0x1FA JUMPI PUSH1 0x20 PUSH32 0x4D7918F94F73BC22769A0715065536D0E7720E8FB22A5AF2FCCFF8E4D6D89A0C SWAP2 PUSH2 0x2A8 PUSH2 0x2685 JUMP JUMPDEST DUP4 PUSH1 0x0 MSTORE PUSH1 0x2 DUP3 MSTORE PUSH2 0x2C9 PUSH1 0x1 PUSH1 0x1 PUSH1 0xA0 SHL SUB PUSH1 0x40 PUSH1 0x0 KECCAK256 SLOAD AND ISZERO ISZERO PUSH2 0x2206 JUMP JUMPDEST DUP4 PUSH1 0x0 MSTORE PUSH1 0x9 DUP3 MSTORE PUSH2 0x2E2 DUP2 PUSH1 0x9 PUSH1 0x40 PUSH1 0x0 KECCAK256 ADD PUSH2 0x22D8 JUMP JUMPDEST PUSH2 0x2EF PUSH1 0x40 MLOAD DUP1 SWAP3 PUSH2 0x202E JUMP JUMPDEST LOG2 STOP JUMPDEST CALLVALUE PUSH2 0x1FA JUMPI PUSH1 0x20 CALLDATASIZE PUSH1 0x3 NOT ADD SLT PUSH2 0x1FA JUMPI PUSH1 0x4 CALLDATALOAD DUP1 PUSH1 0x0 MSTORE PUSH1 0x2 PUSH1 0x20 MSTORE PUSH2 0x328 PUSH1 0x1 PUSH1 0x1 PUSH1 0xA0 SHL SUB PUSH1 0x40 PUSH1 0x0 KECCAK256 SLOAD AND ISZERO ISZERO PUSH2 0x2206 JUMP JUMPDEST DUP1 PUSH1 0x0 MSTORE PUSH1 0x9 PUSH1 0x20 MSTORE PUSH1 0x40 PUSH1 0x0 KECCAK256 PUSH1 0xFF PUSH1 0x2 DUP3 ADD SLOAD AND PUSH1 0x2 DUP2 LT ISZERO PUSH2 0x1188 JUMPI ISZERO PUSH1 0x0 DUP2 ISZERO PUSH2 0x1163 JUMPI POP PUSH1 0x40 MLOAD PUSH2 0x35F PUSH1 0x40 DUP3 PUSH2 0x20A8 JUMP JUMPDEST PUSH1 0x4 DUP2 MSTORE PUSH4 0x10D05313 PUSH1 0xE2 SHL PUSH1 0x20 DUP3 ADD MSTORE SWAP2 JUMPDEST PUSH2 0x385 PUSH1 0xFF PUSH1 0x9 DUP4 ADD SLOAD PUSH1 0xA0 SHR AND PUSH2 0x2729 JUMP JUMPDEST SWAP1 PUSH2 0x393 PUSH1 0x3 DUP3 ADD SLOAD PUSH2 0x27F6 JUMP JUMPDEST PUSH2 0x3A0 PUSH1 0x5 DUP4 ADD SLOAD PUSH2 0x27F6 JUMP JUMPDEST PUSH2 0x3AD PUSH1 0x6 DUP5 ADD SLOAD PUSH2 0x27F6 JUMP JUMPDEST SWAP2 PUSH1 0x0 SWAP6 PUSH1 0x0 EQ PUSH2 0x1125 JUMPI PUSH1 0x40 MLOAD PUSH2 0x3C6 PUSH1 0x40 DUP3 PUSH2 0x20A8 JUMP JUMPDEST PUSH1 0x7 DUP2 MSTORE PUSH32 0x2332326335356500000000000000000000000000000000000000000000000000 PUSH1 0x20 DUP3 ADD MSTORE SWAP7 JUMPDEST PUSH1 0x4 DUP6 ADD SLOAD SWAP9 PUSH2 0x404 PUSH1 0x1 DUP8 ADD PUSH2 0x2120 JUMP JUMPDEST SWAP9 PUSH2 0x40E DUP3 PUSH2 0x28F1 JUMP JUMPDEST PUSH2 0x417 DUP13 PUSH2 0x28F1 JUMP JUMPDEST PUSH2 0x420 DUP11 PUSH2 0x2D5A JUMP JUMPDEST SWAP2 PUSH1 0x40 MLOAD SWAP13 DUP14 SWAP5 PUSH1 0x20 DUP7 ADD PUSH32 0x3C73766720786D6C6E733D22687474703A2F2F7777772E77332E6F72672F3230 SWAP1 MSTORE PUSH1 0x40 DUP7 ADD PUSH32 0x30302F737667222076696577426F783D22302030203430302032353022207374 SWAP1 MSTORE PUSH1 0x60 DUP7 ADD PUSH32 0x796C653D22666F6E742D66616D696C793A6D6F6E6F7370616365223E00000000 SWAP1 MSTORE PUSH1 0x7C DUP7 ADD PUSH32 0x3C726563742077696474683D2234303022206865696768743D22323530222072 SWAP1 MSTORE PUSH1 0x9C DUP7 ADD PUSH32 0x783D223136222066696C6C3D2223306631373261222F3E000000000000000000 SWAP1 MSTORE PUSH1 0xB3 DUP7 ADD PUSH32 0x3C7265637420783D2231362220793D223136222077696474683D223336382220 SWAP1 MSTORE PUSH1 0xD3 DUP7 ADD PUSH32 0x6865696768743D22323138222072783D223132222066696C6C3D222331653239 SWAP1 MSTORE PUSH1 0xF3 DUP7 ADD PUSH32 0x336222207374726F6B653D220000000000000000000000000000000000000000 SWAP1 MSTORE DUP1 MLOAD SWAP1 PUSH1 0x20 DUP2 ADD SWAP2 DUP1 PUSH1 0xFF DUP10 ADD SWAP1 PUSH2 0x577 SWAP2 DUP6 PUSH2 0x1FAD JUMP JUMPDEST PUSH32 0x22207374726F6B652D77696474683D2232222F3E000000000000000000000000 PUSH1 0xFF SWAP2 DUP10 ADD SWAP2 DUP3 ADD MSTORE PUSH32 0x3C7465787420783D2233302220793D223530222066696C6C3D22233934613362 PUSH2 0x113 DUP3 ADD MSTORE PUSH32 0x382220666F6E742D73697A653D223131223E484544455241204F5054494F4E53 PUSH2 0x133 DUP3 ADD MSTORE PUSH32 0x205641554C543C2F746578743E00000000000000000000000000000000000000 PUSH2 0x153 DUP3 ADD MSTORE PUSH32 0x3C7465787420783D2233302220793D223738222066696C6C3D22000000000000 PUSH2 0x160 DUP3 ADD MSTORE SWAP1 MLOAD SWAP2 PUSH2 0x651 SWAP1 DUP4 SWAP1 PUSH2 0x17A DUP5 ADD SWAP1 PUSH2 0x1FAD JUMP JUMPDEST ADD PUSH1 0xFF ADD PUSH1 0x7B DUP2 ADD PUSH32 0x2220666F6E742D73697A653D2232322220666F6E742D7765696768743D22626F SWAP1 MSTORE PUSH4 0x3632111F PUSH1 0xE1 SHL PUSH1 0x9B DUP3 ADD MSTORE DUP2 MLOAD SWAP2 DUP3 PUSH1 0x9F DUP4 ADD SWAP2 PUSH1 0x20 ADD SWAP2 PUSH2 0x69F SWAP3 PUSH2 0x1FAD JUMP JUMPDEST ADD PUSH1 0x7B ADD PUSH1 0x24 DUP2 ADD PUSH1 0x1 PUSH1 0xFD SHL SWAP1 MSTORE DUP7 MLOAD SWAP1 PUSH1 0x25 DUP2 ADD DUP3 PUSH1 0x20 DUP11 ADD SWAP2 PUSH2 0x6C4 SWAP3 PUSH2 0x1FAD JUMP JUMPDEST ADD PUSH1 0x24 ADD PUSH1 0x1 DUP2 ADD PUSH2 0x2023 PUSH1 0xF0 SHL SWAP1 MSTORE DUP2 MLOAD SWAP2 DUP3 PUSH1 0x3 DUP4 ADD SWAP2 PUSH1 0x20 ADD SWAP2 PUSH2 0x6EA SWAP3 PUSH2 0x1FAD JUMP JUMPDEST ADD PUSH1 0x1 ADD PUSH1 0x2 DUP2 ADD PUSH7 0x1E17BA32BC3A1F PUSH1 0xC9 SHL SWAP1 MSTORE PUSH1 0x9 DUP2 ADD PUSH32 0x3C7465787420783D2233302220793D22313038222066696C6C3D222365326538 SWAP1 MSTORE PUSH1 0x29 DUP2 ADD PUSH32 0x66302220666F6E742D73697A653D223134223E537472696B653A202400000000 SWAP1 MSTORE DUP7 MLOAD SWAP1 PUSH1 0x45 DUP2 ADD DUP3 PUSH1 0x20 DUP11 ADD SWAP2 PUSH2 0x763 SWAP3 PUSH2 0x1FAD JUMP JUMPDEST ADD PUSH1 0x2 ADD PUSH1 0x43 DUP2 ADD PUSH32 0x205553443C2F746578743E000000000000000000000000000000000000000000 SWAP1 MSTORE PUSH1 0x4E DUP2 ADD PUSH32 0x3C7465787420783D2233302220793D22313332222066696C6C3D222365326538 SWAP1 MSTORE PUSH1 0x6E DUP2 ADD PUSH32 0x66302220666F6E742D73697A653D223134223E53697A653A2020200000000000 SWAP1 MSTORE DUP8 MLOAD SWAP1 PUSH1 0x89 DUP2 ADD DUP3 PUSH1 0x20 DUP12 ADD SWAP2 PUSH2 0x7F2 SWAP3 PUSH2 0x1FAD JUMP JUMPDEST ADD PUSH1 0x43 ADD PUSH1 0x46 DUP2 ADD PUSH32 0x20756E6974733C2F746578743E00000000000000000000000000000000000000 SWAP1 MSTORE PUSH1 0x53 DUP2 ADD PUSH32 0x3C7465787420783D2233302220793D22313536222066696C6C3D222365326538 SWAP1 MSTORE PUSH1 0x73 DUP2 ADD PUSH32 0x66302220666F6E742D73697A653D223134223E5072656D69756D3A2024000000 SWAP1 MSTORE DUP9 MLOAD SWAP1 PUSH1 0x90 DUP2 ADD DUP3 PUSH1 0x20 DUP13 ADD SWAP2 PUSH2 0x881 SWAP3 PUSH2 0x1FAD JUMP JUMPDEST ADD PUSH1 0x46 ADD PUSH1 0x4A DUP2 ADD PUSH7 0x1E17BA32BC3A1F PUSH1 0xC9 SHL SWAP1 MSTORE PUSH1 0x51 DUP2 ADD PUSH32 0x3C7465787420783D2233302220793D22313830222066696C6C3D222336343734 SWAP1 MSTORE PUSH1 0x71 DUP2 ADD PUSH32 0x38622220666F6E742D73697A653D223131223E4578706972793A200000000000 SWAP1 MSTORE DUP2 MLOAD SWAP2 DUP3 PUSH1 0x8C DUP4 ADD SWAP2 PUSH1 0x20 ADD SWAP2 PUSH2 0x8FA SWAP3 PUSH2 0x1FAD JUMP JUMPDEST PUSH7 0x1E17BA32BC3A1F PUSH1 0xC9 SHL PUSH1 0x8C SWAP3 SWAP1 SWAP2 ADD SWAP2 DUP3 ADD MSTORE PUSH32 0x3C7465787420783D2233302220793D22323030222066696C6C3D222336343734 PUSH1 0x93 DUP3 ADD MSTORE PUSH32 0x38622220666F6E742D73697A653D223131223E536574746C6564207669612048 PUSH1 0xB3 DUP3 ADD MSTORE PUSH32 0x49502D313231352050726F746F636F6C204175746F6D6174696F6E3C2F746578 PUSH1 0xD3 DUP3 ADD MSTORE PUSH2 0x3A1F PUSH1 0xF1 SHL PUSH1 0xF3 DUP3 ADD MSTORE PUSH32 0x3C7265637420783D223239302220793D223138222077696474683D2239302220 PUSH1 0xF5 DUP3 ADD MSTORE PUSH32 0x6865696768743D223232222072783D2236222066696C6C3D2200000000000000 PUSH2 0x115 DUP3 ADD MSTORE DUP2 MLOAD SWAP2 PUSH1 0x4A DUP3 ADD SWAP2 PUSH2 0x9F4 SWAP2 DUP5 SWAP2 PUSH2 0x12E ADD SWAP1 PUSH1 0x20 ADD PUSH2 0x1FAD JUMP JUMPDEST ADD PUSH1 0x42 ADD PUSH3 0x11179F PUSH1 0xE9 SHL PUSH1 0xA2 DUP3 ADD MSTORE PUSH1 0xA5 DUP2 ADD PUSH32 0x3C7465787420783D223333352220793D223333222066696C6C3D222366666622 SWAP1 MSTORE PUSH1 0xC5 DUP2 ADD PUSH32 0x20666F6E742D73697A653D2231302220746578742D616E63686F723D226D6964 SWAP1 MSTORE PUSH1 0xE5 DUP2 ADD PUSH32 0x646C65223E000000000000000000000000000000000000000000000000000000 SWAP1 MSTORE DUP9 MLOAD SWAP1 PUSH1 0xEA DUP2 ADD DUP3 PUSH1 0x20 DUP13 ADD SWAP2 PUSH2 0xA8F SWAP3 PUSH2 0x1FAD JUMP JUMPDEST ADD PUSH1 0xA2 ADD PUSH1 0x48 DUP2 ADD PUSH7 0x1E17BA32BC3A1F PUSH1 0xC9 SHL SWAP1 MSTORE PUSH1 0x4F DUP2 ADD PUSH32 0x3C2F7376673E0000000000000000000000000000000000000000000000000000 SWAP1 MSTORE SUB PUSH1 0x48 ADD PUSH1 0x12 NOT DUP2 ADD DUP11 MSTORE PUSH1 0xD ADD PUSH2 0xAE3 SWAP1 DUP11 PUSH2 0x20A8 JUMP JUMPDEST PUSH2 0xAEC SWAP1 PUSH2 0x28F1 JUMP JUMPDEST SWAP8 PUSH2 0xAF6 SWAP1 PUSH2 0x2A45 JUMP JUMPDEST SWAP9 PUSH2 0xB00 SWAP1 PUSH2 0x28F1 JUMP JUMPDEST SWAP5 PUSH1 0x7 DUP2 ADD SLOAD PUSH1 0x1 PUSH1 0x1 PUSH1 0xA0 SHL SUB AND PUSH1 0x40 MLOAD SWAP9 PUSH2 0xB1E PUSH1 0x60 DUP12 PUSH2 0x20A8 JUMP JUMPDEST PUSH1 0x2A DUP11 MSTORE PUSH1 0x40 CALLDATASIZE PUSH1 0x20 DUP13 ADD CALLDATACOPY DUP10 MLOAD ISZERO PUSH2 0x1111 JUMPI PUSH1 0x30 PUSH1 0x20 DUP12 ADD MSTORE8 DUP10 MLOAD PUSH1 0x1 LT ISZERO PUSH2 0x1111 JUMPI PUSH1 0x78 PUSH1 0x21 DUP12 ADD MSTORE8 PUSH1 0x29 SWAP1 JUMPDEST PUSH1 0x1 DUP3 GT PUSH2 0x109E JUMPI POP POP PUSH2 0x105A JUMPI PUSH1 0x40 MLOAD PUSH32 0x7B226E616D65223A220000000000000000000000000000000000000000000000 PUSH1 0x20 DUP3 ADD MSTORE SWAP10 DUP11 SWAP10 PUSH2 0xB97 PUSH1 0x29 DUP13 ADD PUSH1 0x1 DUP6 ADD PUSH2 0x2413 JUMP JUMPDEST PUSH1 0x1 PUSH1 0xFD SHL DUP2 MSTORE DUP5 MLOAD SWAP1 PUSH2 0xBB2 DUP3 PUSH1 0x1 DUP4 ADD PUSH1 0x20 DUP10 ADD PUSH2 0x1FAD JUMP JUMPDEST ADD PUSH1 0x1 DUP2 ADD PUSH2 0x809 PUSH1 0xF2 SHL SWAP1 MSTORE DUP6 MLOAD SWAP1 PUSH1 0x3 DUP2 ADD DUP3 PUSH1 0x20 DUP10 ADD SWAP2 PUSH2 0xBD5 SWAP3 PUSH2 0x1FAD JUMP JUMPDEST ADD PUSH1 0x1 ADD PUSH1 0x2 DUP2 ADD PUSH32 0x204F7074696F6E20230000000000000000000000000000000000000000000000 SWAP1 MSTORE DUP2 MLOAD SWAP2 DUP3 PUSH1 0xB DUP4 ADD SWAP2 PUSH1 0x20 ADD SWAP2 PUSH2 0xC16 SWAP3 PUSH2 0x1FAD JUMP JUMPDEST PUSH2 0x88B PUSH1 0xF2 SHL PUSH1 0xB SWAP3 SWAP1 SWAP2 ADD SWAP2 DUP3 ADD MSTORE PUSH32 0x226465736372697074696F6E223A22486564657261204F7074696F6E73205661 PUSH1 0xD DUP3 ADD MSTORE PUSH32 0x756C74202D204167656E74696320446546692E204578657263697361626C6520 PUSH1 0x2D DUP3 ADD MSTORE PUSH32 0x766961204849502D31323135206175746F6E6F6D6F757320736574746C656D65 PUSH1 0x4D DUP3 ADD MSTORE PUSH32 0x6E742E222C000000000000000000000000000000000000000000000000000000 PUSH1 0x6D DUP3 ADD MSTORE PUSH32 0x22696D616765223A22646174613A696D6167652F7376672B786D6C3B62617365 PUSH1 0x72 DUP3 ADD MSTORE PUSH3 0xD8D0B PUSH1 0xEA SHL PUSH1 0x92 DUP3 ADD MSTORE DUP2 MLOAD SWAP2 PUSH1 0x2 DUP3 ADD SWAP2 PUSH2 0xD0A SWAP2 DUP5 SWAP2 PUSH1 0x95 ADD SWAP1 PUSH1 0x20 ADD PUSH2 0x1FAD JUMP JUMPDEST PUSH2 0x88B PUSH1 0xF2 SHL PUSH1 0x93 SWAP3 SWAP1 SWAP2 ADD SWAP2 DUP3 ADD MSTORE PUSH32 0x2261747472696275746573223A5B000000000000000000000000000000000000 PUSH1 0x95 DUP3 ADD MSTORE PUSH32 0x7B2274726169745F74797065223A22556E6465726C79696E67222C2276616C75 PUSH1 0xA3 DUP3 ADD MSTORE PUSH4 0x32911D11 PUSH1 0xE1 SHL PUSH1 0xC3 DUP3 ADD MSTORE PUSH2 0xD85 SWAP2 PUSH1 0xC7 SWAP1 SWAP2 ADD SWAP1 PUSH1 0x1 ADD PUSH2 0x2413 JUMP JUMPDEST PUSH3 0x89F4B PUSH1 0xEA SHL DUP2 MSTORE PUSH32 0x7B2274726169745F74797065223A2254797065222C2276616C7565223A220000 PUSH1 0x3 DUP3 ADD MSTORE DUP2 MLOAD SWAP2 PUSH2 0xDCA SWAP1 DUP4 SWAP1 PUSH1 0x21 DUP5 ADD SWAP1 PUSH1 0x20 ADD PUSH2 0x1FAD JUMP JUMPDEST PUSH3 0x89F4B PUSH1 0xEA SHL PUSH1 0x21 SWAP3 SWAP1 SWAP2 ADD SWAP2 DUP3 ADD MSTORE PUSH32 0x7B2274726169745F74797065223A22537472696B6520555344222C2276616C75 PUSH1 0x24 DUP3 ADD MSTORE PUSH4 0x32911D11 PUSH1 0xE1 SHL PUSH1 0x44 DUP3 ADD MSTORE DUP2 MLOAD SWAP2 PUSH2 0xE24 SWAP1 DUP4 SWAP1 PUSH1 0x48 DUP5 ADD SWAP1 PUSH1 0x20 ADD PUSH2 0x1FAD JUMP JUMPDEST ADD PUSH1 0x21 ADD PUSH3 0x89F4B PUSH1 0xEA SHL PUSH1 0x27 DUP3 ADD MSTORE PUSH1 0x2A DUP2 ADD PUSH32 0x7B2274726169745F74797065223A2253697A65222C2276616C7565223A220000 SWAP1 MSTORE DUP2 MLOAD SWAP2 DUP3 PUSH1 0x48 DUP4 ADD SWAP2 PUSH1 0x20 ADD SWAP2 PUSH2 0xE71 SWAP3 PUSH2 0x1FAD JUMP JUMPDEST ADD PUSH1 0x27 ADD PUSH3 0x89F4B PUSH1 0xEA SHL PUSH1 0x21 DUP3 ADD MSTORE PUSH1 0x24 DUP2 ADD PUSH32 0x7B2274726169745F74797065223A225072656D69756D222C2276616C7565223A SWAP1 MSTORE PUSH1 0x11 PUSH1 0xF9 SHL PUSH1 0x44 DUP3 ADD MSTORE DUP2 MLOAD SWAP2 DUP3 PUSH1 0x45 DUP4 ADD SWAP2 PUSH1 0x20 ADD SWAP2 PUSH2 0xEC8 SWAP3 PUSH2 0x1FAD JUMP JUMPDEST ADD PUSH1 0x21 ADD PUSH3 0x89F4B PUSH1 0xEA SHL PUSH1 0x24 DUP3 ADD MSTORE PUSH1 0x27 DUP2 ADD PUSH32 0x7B2274726169745F74797065223A22457870697279222C2276616C7565223A00 SWAP1 MSTORE DUP2 MLOAD SWAP2 DUP3 PUSH1 0x46 DUP4 ADD SWAP2 PUSH1 0x20 ADD SWAP2 PUSH2 0xF15 SWAP3 PUSH2 0x1FAD JUMP JUMPDEST ADD PUSH1 0x24 ADD PUSH1 0x22 DUP2 ADD PUSH2 0x1F4B PUSH1 0xF2 SHL SWAP1 MSTORE PUSH1 0x24 DUP2 ADD PUSH32 0x7B2274726169745F74797065223A22537461747573222C2276616C7565223A22 SWAP1 MSTORE DUP2 MLOAD SWAP2 DUP3 PUSH1 0x44 DUP4 ADD SWAP2 PUSH1 0x20 ADD SWAP2 PUSH2 0xF62 SWAP3 PUSH2 0x1FAD JUMP JUMPDEST ADD PUSH1 0x22 ADD PUSH3 0x89F4B PUSH1 0xEA SHL PUSH1 0x22 DUP3 ADD MSTORE PUSH1 0x25 DUP2 ADD PUSH32 0x7B2274726169745F74797065223A22577269746572222C2276616C7565223A22 SWAP1 MSTORE DUP2 MLOAD SWAP2 DUP3 PUSH1 0x45 DUP4 ADD SWAP2 PUSH1 0x20 ADD SWAP2 PUSH2 0xFAF SWAP3 PUSH2 0x1FAD JUMP JUMPDEST PUSH2 0x227D PUSH1 0xF0 SHL SWAP2 ADD PUSH1 0x45 DUP2 ADD SWAP2 SWAP1 SWAP2 MSTORE PUSH2 0x5D7D PUSH1 0xF0 SHL PUSH1 0x47 DUP3 ADD MSTORE SUB PUSH1 0x29 DUP2 ADD DUP3 MSTORE PUSH2 0xFDE SWAP1 PUSH1 0x49 ADD DUP3 PUSH2 0x20A8 JUMP JUMPDEST PUSH2 0xFE7 SWAP1 PUSH2 0x2A45 JUMP JUMPDEST PUSH1 0x40 MLOAD DUP1 SWAP2 PUSH1 0x20 DUP3 ADD PUSH32 0x646174613A6170706C69636174696F6E2F6A736F6E3B6261736536342C000000 SWAP1 MSTORE DUP1 MLOAD SWAP1 DUP2 PUSH1 0x3D DUP5 ADD SWAP2 PUSH1 0x20 ADD SWAP2 PUSH2 0x1029 SWAP3 PUSH2 0x1FAD JUMP JUMPDEST DUP2 ADD SUB PUSH1 0x3D ADD PUSH1 0x1F NOT DUP2 ADD DUP3 MSTORE PUSH2 0x1040 SWAP1 DUP3 PUSH2 0x20A8 JUMP JUMPDEST PUSH1 0x40 MLOAD DUP1 SWAP2 PUSH1 0x20 DUP3 MSTORE PUSH1 0x20 DUP3 ADD PUSH2 0x1056 SWAP2 PUSH2 0x1FD0 JUMP JUMPDEST SUB SWAP1 RETURN JUMPDEST PUSH1 0x64 PUSH1 0x40 MLOAD PUSH3 0x461BCD PUSH1 0xE5 SHL DUP2 MSTORE PUSH1 0x20 PUSH1 0x4 DUP3 ADD MSTORE PUSH1 0x20 PUSH1 0x24 DUP3 ADD MSTORE PUSH32 0x537472696E67733A20686578206C656E67746820696E73756666696369656E74 PUSH1 0x44 DUP3 ADD MSTORE REVERT JUMPDEST SWAP1 SWAP2 PUSH1 0x10 PUSH1 0xF DUP3 AND LT ISZERO PUSH2 0x10FD JUMPI DUP11 MLOAD DUP4 LT ISZERO PUSH2 0x10FD JUMPI PUSH16 0x181899199A1A9B1B9C1CB0B131B232B3 PUSH1 0x81 SHL PUSH1 0xF DUP3 AND BYTE DUP12 DUP5 ADD PUSH1 0x20 ADD MSTORE8 PUSH1 0x4 SHR SWAP2 DUP1 ISZERO PUSH2 0x10E9 JUMPI PUSH1 0x0 NOT ADD SWAP1 PUSH2 0xB4D JUMP JUMPDEST PUSH4 0x4E487B71 PUSH1 0xE0 SHL DUP3 MSTORE PUSH1 0x11 PUSH1 0x4 MSTORE PUSH1 0x24 DUP3 REVERT JUMPDEST PUSH4 0x4E487B71 PUSH1 0xE0 SHL DUP3 MSTORE PUSH1 0x32 PUSH1 0x4 MSTORE PUSH1 0x24 DUP3 REVERT JUMPDEST PUSH4 0x4E487B71 PUSH1 0xE0 SHL DUP2 MSTORE PUSH1 0x32 PUSH1 0x4 MSTORE PUSH1 0x24 SWAP1 REVERT JUMPDEST PUSH1 0x40 MLOAD PUSH2 0x1133 PUSH1 0x40 DUP3 PUSH2 0x20A8 JUMP JUMPDEST PUSH1 0x7 DUP2 MSTORE PUSH32 0x2365663434343400000000000000000000000000000000000000000000000000 PUSH1 0x20 DUP3 ADD MSTORE SWAP7 PUSH2 0x3F2 JUMP JUMPDEST POP PUSH1 0x40 MLOAD PUSH2 0x1172 PUSH1 0x40 DUP3 PUSH2 0x20A8 JUMP JUMPDEST PUSH1 0x3 DUP2 MSTORE PUSH3 0x141555 PUSH1 0xEA SHL PUSH1 0x20 DUP3 ADD MSTORE SWAP2 PUSH2 0x372 JUMP JUMPDEST PUSH4 0x4E487B71 PUSH1 0xE0 SHL PUSH1 0x0 MSTORE PUSH1 0x21 PUSH1 0x4 MSTORE PUSH1 0x24 PUSH1 0x0 REVERT JUMPDEST CALLVALUE PUSH2 0x1FA JUMPI PUSH1 0x80 CALLDATASIZE PUSH1 0x3 NOT ADD SLT PUSH2 0x1FA JUMPI PUSH2 0x11B7 PUSH2 0x1FF5 JUMP JUMPDEST PUSH2 0x11BF PUSH2 0x200B JUMP JUMPDEST PUSH1 0x64 CALLDATALOAD SWAP2 PUSH8 0xFFFFFFFFFFFFFFFF DUP4 GT PUSH2 0x1FA JUMPI CALLDATASIZE PUSH1 0x23 DUP5 ADD SLT ISZERO PUSH2 0x1FA JUMPI DUP3 PUSH1 0x4 ADD CALLDATALOAD SWAP2 PUSH2 0x11EC DUP4 PUSH2 0x20CA JUMP JUMPDEST SWAP3 PUSH2 0x11FA PUSH1 0x40 MLOAD SWAP5 DUP6 PUSH2 0x20A8 JUMP JUMPDEST DUP1 DUP5 MSTORE CALLDATASIZE PUSH1 0x24 DUP3 DUP8 ADD ADD GT PUSH2 0x1FA JUMPI PUSH1 0x20 DUP2 PUSH1 0x0 SWAP3 PUSH1 0x24 PUSH2 0x1227 SWAP9 ADD DUP4 DUP9 ADD CALLDATACOPY DUP6 ADD ADD MSTORE PUSH1 0x44 CALLDATALOAD SWAP2 PUSH2 0x237D JUMP JUMPDEST STOP JUMPDEST CALLVALUE PUSH2 0x1FA JUMPI PUSH1 0x40 CALLDATASIZE PUSH1 0x3 NOT ADD SLT PUSH2 0x1FA JUMPI PUSH2 0x1242 PUSH2 0x1FF5 JUMP JUMPDEST PUSH1 0x24 CALLDATALOAD SWAP1 DUP2 ISZERO ISZERO DUP1 SWAP3 SUB PUSH2 0x1FA JUMPI PUSH1 0x1 PUSH1 0x1 PUSH1 0xA0 SHL SUB AND SWAP1 DUP2 CALLER EQ PUSH2 0x12B6 JUMPI CALLER PUSH1 0x0 MSTORE PUSH1 0x5 PUSH1 0x20 MSTORE PUSH1 0x40 PUSH1 0x0 KECCAK256 DUP3 PUSH1 0x0 MSTORE PUSH1 0x20 MSTORE PUSH1 0x40 PUSH1 0x0 KECCAK256 PUSH1 0xFF NOT DUP2 SLOAD AND PUSH1 0xFF DUP4 AND OR SWAP1 SSTORE PUSH1 0x40 MLOAD SWAP1 DUP2 MSTORE PUSH32 0x17307EAB39AB6107E8899845AD3D59BD9653F200F220920489CA2B5937696C31 PUSH1 0x20 CALLER SWAP3 LOG3 STOP JUMPDEST PUSH1 0x40 MLOAD PUSH3 0x461BCD PUSH1 0xE5 SHL DUP2 MSTORE PUSH1 0x20 PUSH1 0x4 DUP3 ADD MSTORE PUSH1 0x19 PUSH1 0x24 DUP3 ADD MSTORE PUSH32 0x4552433732313A20617070726F766520746F2063616C6C657200000000000000 PUSH1 0x44 DUP3 ADD MSTORE PUSH1 0x64 SWAP1 REVERT JUMPDEST CALLVALUE PUSH2 0x1FA JUMPI PUSH1 0x20 CALLDATASIZE PUSH1 0x3 NOT ADD SLT PUSH2 0x1FA JUMPI PUSH1 0x4 CALLDATALOAD PUSH1 0x0 MSTORE PUSH1 0x9 PUSH1 0x20 MSTORE PUSH1 0x20 PUSH1 0x4 PUSH1 0x40 PUSH1 0x0 KECCAK256 ADD SLOAD TIMESTAMP LT ISZERO PUSH1 0x40 MLOAD SWAP1 DUP2 MSTORE RETURN JUMPDEST CALLVALUE PUSH2 0x1FA JUMPI PUSH1 0x0 CALLDATASIZE PUSH1 0x3 NOT ADD SLT PUSH2 0x1FA JUMPI PUSH1 0x40 MLOAD PUSH1 0x0 PUSH1 0x1 SLOAD PUSH2 0x134F DUP2 PUSH2 0x20E6 JUMP JUMPDEST DUP1 DUP5 MSTORE SWAP1 PUSH1 0x1 DUP2 AND SWAP1 DUP2 ISZERO PUSH2 0x13EA JUMPI POP PUSH1 0x1 EQ PUSH2 0x138B JUMPI JUMPDEST PUSH2 0x1056 DUP4 PUSH2 0x1377 DUP2 DUP6 SUB DUP3 PUSH2 0x20A8 JUMP JUMPDEST PUSH1 0x40 MLOAD SWAP2 DUP3 SWAP2 PUSH1 0x20 DUP4 MSTORE PUSH1 0x20 DUP4 ADD SWAP1 PUSH2 0x1FD0 JUMP JUMPDEST PUSH1 0x1 PUSH1 0x0 SWAP1 DUP2 MSTORE PUSH32 0xB10E2D527612073B26EECDFD717E6A320CF44B4AFAC2B0732D9FCBE2B7FA0CF6 SWAP4 SWAP3 POP SWAP1 JUMPDEST DUP1 DUP3 LT PUSH2 0x13D0 JUMPI POP SWAP1 SWAP2 POP DUP2 ADD PUSH1 0x20 ADD PUSH2 0x1377 PUSH2 0x1367 JUMP JUMPDEST SWAP2 SWAP3 PUSH1 0x1 DUP2 PUSH1 0x20 SWAP3 SLOAD DUP4 DUP6 DUP9 ADD ADD MSTORE ADD SWAP2 ADD SWAP1 SWAP3 SWAP2 PUSH2 0x13B8 JUMP JUMPDEST PUSH1 0xFF NOT AND PUSH1 0x20 DUP1 DUP7 ADD SWAP2 SWAP1 SWAP2 MSTORE SWAP2 ISZERO ISZERO PUSH1 0x5 SHL DUP5 ADD SWAP1 SWAP2 ADD SWAP2 POP PUSH2 0x1377 SWAP1 POP PUSH2 0x1367 JUMP JUMPDEST CALLVALUE PUSH2 0x1FA JUMPI PUSH1 0x0 CALLDATASIZE PUSH1 0x3 NOT ADD SLT PUSH2 0x1FA JUMPI PUSH1 0x20 PUSH1 0x1 PUSH1 0x1 PUSH1 0xA0 SHL SUB PUSH1 0x7 SLOAD AND PUSH1 0x40 MLOAD SWAP1 DUP2 MSTORE RETURN JUMPDEST CALLVALUE PUSH2 0x1FA JUMPI PUSH1 0x20 CALLDATASIZE PUSH1 0x3 NOT ADD SLT PUSH2 0x1FA JUMPI PUSH1 0x4 CALLDATALOAD PUSH1 0x0 MSTORE PUSH1 0x9 PUSH1 0x20 MSTORE PUSH1 0x40 PUSH1 0x0 KECCAK256 PUSH1 0xFF PUSH1 0x9 DUP3 ADD SLOAD PUSH1 0xA0 SHR AND SWAP1 PUSH1 0x3 DUP3 LT ISZERO PUSH2 0x1188 JUMPI PUSH1 0x20 SWAP2 ISZERO SWAP1 DUP2 PUSH2 0x1481 JUMPI JUMPDEST POP PUSH1 0x40 MLOAD SWAP1 ISZERO ISZERO DUP2 MSTORE RETURN JUMPDEST PUSH1 0x4 SWAP2 POP ADD SLOAD TIMESTAMP LT DUP3 PUSH2 0x1476 JUMP JUMPDEST CALLVALUE PUSH2 0x1FA JUMPI PUSH1 0x0 CALLDATASIZE PUSH1 0x3 NOT ADD SLT PUSH2 0x1FA JUMPI PUSH2 0x14A8 PUSH2 0x2685 JUMP JUMPDEST PUSH1 0x0 PUSH1 0x1 PUSH1 0x1 PUSH1 0xA0 SHL SUB PUSH1 0x7 SLOAD PUSH1 0x1 PUSH1 0x1 PUSH1 0xA0 SHL SUB NOT DUP2 AND PUSH1 0x7 SSTORE AND PUSH32 0x8BE0079C531659141344CD1FD0A4F28419497F9722A3DAAFE3B4186F6B6457E0 DUP3 DUP1 LOG3 STOP JUMPDEST CALLVALUE PUSH2 0x1FA JUMPI PUSH1 0x40 CALLDATASIZE PUSH1 0x3 NOT ADD SLT PUSH2 0x1FA JUMPI PUSH2 0x1503 PUSH2 0x200B JUMP JUMPDEST PUSH2 0x150B PUSH2 0x2685 JUMP JUMPDEST PUSH1 0x4 CALLDATALOAD PUSH1 0x0 MSTORE PUSH1 0x9 PUSH1 0x20 MSTORE PUSH1 0x1 PUSH1 0x1 PUSH1 0xA0 SHL SUB PUSH1 0x9 PUSH1 0x40 PUSH1 0x0 KECCAK256 ADD SWAP2 AND PUSH1 0x1 PUSH1 0x1 PUSH1 0xA0 SHL SUB NOT DUP3 SLOAD AND OR SWAP1 SSTORE PUSH1 0x0 DUP1 RETURN JUMPDEST CALLVALUE PUSH2 0x1FA JUMPI PUSH1 0x20 CALLDATASIZE PUSH1 0x3 NOT ADD SLT PUSH2 0x1FA JUMPI PUSH1 0x1 PUSH1 0x1 PUSH1 0xA0 SHL SUB PUSH2 0x155D PUSH2 0x1FF5 JUMP JUMPDEST AND DUP1 ISZERO PUSH2 0x157C JUMPI PUSH1 0x0 MSTORE PUSH1 0x3 PUSH1 0x20 MSTORE PUSH1 0x20 PUSH1 0x40 PUSH1 0x0 KECCAK256 SLOAD PUSH1 0x40 MLOAD SWAP1 DUP2 MSTORE RETURN JUMPDEST PUSH1 0x40 MLOAD PUSH3 0x461BCD PUSH1 0xE5 SHL DUP2 MSTORE PUSH1 0x20 PUSH1 0x4 DUP3 ADD MSTORE PUSH1 0x29 PUSH1 0x24 DUP3 ADD MSTORE PUSH32 0x4552433732313A2061646472657373207A65726F206973206E6F742061207661 PUSH1 0x44 DUP3 ADD MSTORE PUSH32 0x6C6964206F776E65720000000000000000000000000000000000000000000000 PUSH1 0x64 DUP3 ADD MSTORE PUSH1 0x84 SWAP1 REVERT JUMPDEST CALLVALUE PUSH2 0x1FA JUMPI PUSH1 0x20 CALLDATASIZE PUSH1 0x3 NOT ADD SLT PUSH2 0x1FA JUMPI PUSH1 0x20 PUSH2 0x1605 PUSH1 0x4 CALLDATALOAD PUSH2 0x2358 JUMP JUMPDEST PUSH1 0x1 PUSH1 0x1 PUSH1 0xA0 SHL SUB PUSH1 0x40 MLOAD SWAP2 AND DUP2 MSTORE RETURN JUMPDEST CALLVALUE PUSH2 0x1FA JUMPI PUSH2 0x1227 PUSH2 0x1627 CALLDATASIZE PUSH2 0x203B JUMP JUMPDEST SWAP1 PUSH1 0x40 MLOAD SWAP3 PUSH2 0x1637 PUSH1 0x20 DUP6 PUSH2 0x20A8 JUMP JUMPDEST PUSH1 0x0 DUP5 MSTORE PUSH2 0x237D JUMP JUMPDEST CALLVALUE PUSH2 0x1FA JUMPI PUSH1 0x40 CALLDATASIZE PUSH1 0x3 NOT ADD SLT PUSH2 0x1FA JUMPI PUSH2 0x1659 PUSH2 0x1FF5 JUMP JUMPDEST PUSH1 0x24 CALLDATALOAD SWAP1 PUSH8 0xFFFFFFFFFFFFFFFF DUP3 GT PUSH2 0x1FA JUMPI DUP2 CALLDATASIZE SUB SWAP2 PUSH2 0x180 PUSH1 0x3 NOT DUP5 ADD SLT PUSH2 0x1FA JUMPI PUSH2 0x1685 PUSH2 0x2685 JUMP JUMPDEST PUSH1 0x8 SLOAD SWAP2 PUSH1 0x0 NOT DUP4 EQ PUSH2 0x1A74 JUMPI PUSH1 0x1 DUP4 ADD PUSH1 0x8 SSTORE DUP3 PUSH1 0x0 MSTORE PUSH1 0x9 PUSH1 0x20 MSTORE PUSH1 0x40 PUSH1 0x0 KECCAK256 SWAP1 DUP3 PUSH1 0x4 ADD CALLDATALOAD DUP3 SSTORE PUSH1 0x1 DUP3 ADD SWAP5 PUSH1 0x24 DUP5 ADD CALLDATALOAD SWAP1 PUSH1 0x22 NOT ADD DUP2 SLT ISZERO PUSH2 0x1FA JUMPI DUP4 ADD SWAP5 PUSH1 0x4 DUP7 ADD CALLDATALOAD PUSH8 0xFFFFFFFFFFFFFFFF DUP2 GT PUSH2 0x1FA JUMPI DUP1 CALLDATASIZE SUB PUSH1 0x24 DUP9 ADD SGT PUSH2 0x1FA JUMPI DUP1 PUSH1 0x0 SWAP8 PUSH2 0x16F6 DUP5 SLOAD PUSH2 0x20E6 JUMP JUMPDEST PUSH1 0x1F DUP2 GT PUSH2 0x1A24 JUMPI JUMPDEST POP DUP9 SWAP1 PUSH1 0x1F DUP4 GT PUSH1 0x1 EQ PUSH2 0x19B7 JUMPI DUP10 SWAP3 PUSH2 0x19A9 JUMPI JUMPDEST POP POP DUP2 PUSH1 0x1 SHL SWAP2 PUSH1 0x0 NOT SWAP1 PUSH1 0x3 SHL SHR NOT AND OR SWAP1 SSTORE JUMPDEST PUSH1 0x2 DUP3 ADD PUSH1 0x44 DUP5 ADD CALLDATALOAD SWAP1 PUSH1 0x2 DUP3 LT ISZERO PUSH2 0x19A5 JUMPI PUSH1 0xFF NOT DUP2 SLOAD AND PUSH1 0xFF DUP4 AND OR SWAP1 SSTORE PUSH1 0x64 DUP5 ADD CALLDATALOAD SWAP1 DUP2 PUSH1 0x3 DUP6 ADD SSTORE PUSH1 0x84 DUP6 ADD CALLDATALOAD SWAP5 DUP6 PUSH1 0x4 DUP7 ADD SSTORE PUSH1 0xA4 DUP2 ADD CALLDATALOAD SWAP4 DUP5 PUSH1 0x5 DUP8 ADD SSTORE PUSH1 0xC4 DUP3 ADD CALLDATALOAD PUSH1 0x6 DUP8 ADD SSTORE PUSH1 0xE4 DUP3 ADD SWAP6 PUSH2 0x1785 DUP8 PUSH2 0x22C4 JUMP JUMPDEST PUSH1 0x1 PUSH1 0x1 PUSH1 0xA0 SHL SUB PUSH1 0x7 DUP4 ADD SWAP2 AND PUSH1 0x1 PUSH1 0x1 PUSH1 0xA0 SHL SUB NOT DUP3 SLOAD AND OR SWAP1 SSTORE PUSH2 0x17AF PUSH2 0x104 DUP5 ADD PUSH2 0x22C4 JUMP JUMPDEST PUSH1 0x1 PUSH1 0x1 PUSH1 0xA0 SHL SUB PUSH1 0x8 DUP4 ADD SWAP2 AND PUSH1 0x1 PUSH1 0x1 PUSH1 0xA0 SHL SUB NOT DUP3 SLOAD AND OR SWAP1 SSTORE PUSH1 0x9 DUP2 ADD PUSH1 0x1 PUSH1 0x1 PUSH1 0xA0 SHL SUB PUSH2 0x17E5 PUSH2 0x124 DUP7 ADD PUSH2 0x22C4 JUMP JUMPDEST AND PUSH1 0x1 PUSH1 0x1 PUSH1 0xA0 SHL SUB NOT DUP3 SLOAD AND OR DUP2 SSTORE PUSH2 0x144 DUP5 ADD CALLDATALOAD PUSH1 0x3 DUP2 LT ISZERO PUSH2 0x19A1 JUMPI PUSH1 0x1 PUSH1 0x1 PUSH1 0xA0 SHL SUB SWAP5 PUSH2 0x181C PUSH2 0x164 SWAP3 PUSH1 0xA SWAP5 PUSH2 0x22D8 JUMP JUMPDEST ADD CALLDATALOAD SWAP2 ADD SSTORE DUP8 DUP10 MSTORE PUSH1 0x9 PUSH1 0x20 MSTORE PUSH1 0x9 PUSH1 0x40 DUP11 KECCAK256 ADD PUSH1 0xFF PUSH1 0xA0 SHL NOT DUP2 SLOAD AND SWAP1 SSTORE DUP8 DUP10 MSTORE PUSH1 0x9 PUSH1 0x20 MSTORE TIMESTAMP PUSH1 0xA PUSH1 0x40 DUP12 KECCAK256 ADD SSTORE AND SWAP4 DUP5 ISZERO PUSH2 0x195D JUMPI PUSH1 0x20 SWAP8 DUP8 SWAP7 DUP8 SWAP6 PUSH32 0x1A38693D3505D88C2704F6BBB47E5A2DD7A1A37E3B012511EABD416032F0D846 SWAP6 PUSH2 0x1944 DUP10 PUSH1 0x80 SWAP8 PUSH2 0x193D PUSH1 0x1 PUSH1 0x1 PUSH1 0xA0 SHL SUB SWAP9 PUSH2 0x18DC PUSH2 0x18BA DUP15 PUSH2 0x18C0 PUSH2 0x18BA DUP3 PUSH1 0x0 MSTORE PUSH1 0x2 PUSH1 0x20 MSTORE PUSH1 0x1 PUSH1 0x1 PUSH1 0xA0 SHL SUB PUSH1 0x40 PUSH1 0x0 KECCAK256 SLOAD AND ISZERO ISZERO SWAP1 JUMP JUMPDEST ISZERO PUSH2 0x26DD JUMP JUMPDEST PUSH1 0x0 MSTORE PUSH1 0x2 PUSH1 0x20 MSTORE PUSH1 0x1 PUSH1 0x1 PUSH1 0xA0 SHL SUB PUSH1 0x40 PUSH1 0x0 KECCAK256 SLOAD AND ISZERO ISZERO SWAP1 JUMP JUMPDEST DUP4 DUP10 MSTORE PUSH1 0x20 PUSH1 0x3 SWAP1 MSTORE PUSH1 0x40 DUP10 KECCAK256 PUSH1 0x1 DUP2 SLOAD ADD SWAP1 SSTORE DUP13 DUP10 MSTORE PUSH1 0x20 PUSH1 0x2 SWAP1 MSTORE PUSH1 0x40 DUP10 KECCAK256 DUP5 PUSH1 0x1 PUSH1 0x1 PUSH1 0xA0 SHL SUB NOT DUP3 SLOAD AND OR SWAP1 SSTORE PUSH1 0x40 MLOAD SWAP15 DUP16 SWAP5 DUP11 PUSH32 0xDDF252AD1BE2C89B69C2B068FC378DAA952BA7F163C4A11628F55A4DF523B3EF DUP2 DUP1 LOG4 PUSH2 0x22C4 JUMP JUMPDEST SWAP7 POP PUSH2 0x2021 JUMP JUMPDEST DUP12 DUP11 ADD MSTORE PUSH1 0x40 DUP10 ADD MSTORE PUSH1 0x60 DUP9 ADD MSTORE AND SWAP5 LOG4 PUSH1 0x40 MLOAD SWAP1 DUP2 MSTORE RETURN JUMPDEST PUSH1 0x64 PUSH1 0x40 MLOAD PUSH3 0x461BCD PUSH1 0xE5 SHL DUP2 MSTORE PUSH1 0x20 PUSH1 0x4 DUP3 ADD MSTORE PUSH1 0x20 PUSH1 0x24 DUP3 ADD MSTORE PUSH32 0x4552433732313A206D696E7420746F20746865207A65726F2061646472657373 PUSH1 0x44 DUP3 ADD MSTORE REVERT JUMPDEST DUP12 DUP1 REVERT JUMPDEST DUP7 DUP1 REVERT JUMPDEST ADD PUSH1 0x24 ADD CALLDATALOAD SWAP1 POP DUP9 DUP1 PUSH2 0x1714 JUMP JUMPDEST DUP5 DUP11 MSTORE PUSH1 0x20 DUP11 KECCAK256 SWAP3 POP SWAP1 PUSH1 0x1F NOT DUP5 AND DUP11 JUMPDEST DUP2 DUP2 LT PUSH2 0x1A09 JUMPI POP SWAP1 DUP5 PUSH1 0x1 SWAP6 SWAP5 SWAP4 SWAP3 LT PUSH2 0x19EB JUMPI JUMPDEST POP POP POP DUP2 SHL ADD SWAP1 SSTORE PUSH2 0x1729 JUMP JUMPDEST PUSH1 0x24 SWAP2 ADD ADD CALLDATALOAD PUSH1 0x0 NOT PUSH1 0x3 DUP5 SWAP1 SHL PUSH1 0xF8 AND SHR NOT AND SWAP1 SSTORE DUP9 DUP1 DUP1 PUSH2 0x19DE JUMP JUMPDEST PUSH1 0x24 DUP5 DUP5 ADD ADD CALLDATALOAD DUP6 SSTORE PUSH1 0x1 SWAP1 SWAP5 ADD SWAP4 PUSH1 0x20 SWAP3 DUP4 ADD SWAP3 ADD PUSH2 0x19C8 JUMP JUMPDEST SWAP1 SWAP2 POP DUP4 DUP10 MSTORE PUSH1 0x20 DUP10 KECCAK256 PUSH1 0x1F DUP5 ADD PUSH1 0x5 SHR DUP2 ADD SWAP2 PUSH1 0x20 DUP6 LT PUSH2 0x1A6A JUMPI JUMPDEST SWAP1 PUSH1 0x1F DUP6 SWAP5 SWAP4 SWAP3 ADD PUSH1 0x5 SHR ADD SWAP1 JUMPDEST DUP2 DUP2 LT PUSH2 0x1A5C JUMPI POP PUSH2 0x16FF JUMP JUMPDEST DUP11 DUP2 SSTORE DUP5 SWAP4 POP PUSH1 0x1 ADD PUSH2 0x1A4F JUMP JUMPDEST SWAP1 SWAP2 POP DUP2 SWAP1 PUSH2 0x1A41 JUMP JUMPDEST PUSH4 0x4E487B71 PUSH1 0xE0 SHL PUSH1 0x0 MSTORE PUSH1 0x11 PUSH1 0x4 MSTORE PUSH1 0x24 PUSH1 0x0 REVERT JUMPDEST CALLVALUE PUSH2 0x1FA JUMPI PUSH2 0x1227 PUSH2 0x1A9B CALLDATASIZE PUSH2 0x203B JUMP JUMPDEST SWAP2 PUSH2 0x1AAE PUSH2 0x1AA9 DUP5 CALLER PUSH2 0x2481 JUMP JUMPDEST PUSH2 0x2252 JUMP JUMPDEST PUSH2 0x2561 JUMP JUMPDEST CALLVALUE PUSH2 0x1FA JUMPI PUSH1 0x20 CALLDATASIZE PUSH1 0x3 NOT ADD SLT PUSH2 0x1FA JUMPI PUSH1 0x4 CALLDATALOAD PUSH1 0x0 PUSH2 0x160 PUSH1 0x40 MLOAD PUSH2 0x1AD8 DUP2 PUSH2 0x2075 JUMP JUMPDEST DUP3 DUP2 MSTORE PUSH1 0x60 PUSH1 0x20 DUP3 ADD MSTORE DUP3 PUSH1 0x40 DUP3 ADD MSTORE DUP3 PUSH1 0x60 DUP3 ADD MSTORE DUP3 PUSH1 0x80 DUP3 ADD MSTORE DUP3 PUSH1 0xA0 DUP3 ADD MSTORE DUP3 PUSH1 0xC0 DUP3 ADD MSTORE DUP3 PUSH1 0xE0 DUP3 ADD MSTORE DUP3 PUSH2 0x100 DUP3 ADD MSTORE DUP3 PUSH2 0x120 DUP3 ADD MSTORE DUP3 PUSH2 0x140 DUP3 ADD MSTORE ADD MSTORE DUP1 PUSH1 0x0 MSTORE PUSH1 0x2 PUSH1 0x20 MSTORE PUSH2 0x1B3F PUSH1 0x1 PUSH1 0x1 PUSH1 0xA0 SHL SUB PUSH1 0x40 PUSH1 0x0 KECCAK256 SLOAD AND ISZERO ISZERO PUSH2 0x2206 JUMP JUMPDEST PUSH1 0x0 MSTORE PUSH1 0x9 PUSH1 0x20 MSTORE PUSH1 0x40 PUSH1 0x0 KECCAK256 PUSH1 0x40 MLOAD PUSH2 0x1B58 DUP2 PUSH2 0x2075 JUMP JUMPDEST DUP2 SLOAD DUP2 MSTORE PUSH2 0x1B68 PUSH1 0x1 DUP4 ADD PUSH2 0x2120 JUMP JUMPDEST SWAP2 PUSH1 0x20 DUP3 ADD SWAP3 DUP4 MSTORE PUSH1 0xFF PUSH1 0x2 DUP3 ADD SLOAD AND SWAP1 PUSH1 0x40 DUP4 ADD SWAP2 PUSH1 0x2 DUP2 LT ISZERO PUSH2 0x1188 JUMPI DUP3 MSTORE PUSH1 0x3 DUP2 ADD SLOAD SWAP1 PUSH1 0x60 DUP5 ADD SWAP2 DUP3 MSTORE PUSH1 0x4 DUP2 ADD SLOAD PUSH1 0x80 DUP6 ADD SWAP1 DUP2 MSTORE PUSH1 0x5 DUP3 ADD SLOAD PUSH1 0xA0 DUP7 ADD SWAP1 DUP2 MSTORE PUSH1 0x6 DUP4 ADD SLOAD PUSH1 0xC0 DUP8 ADD SWAP1 DUP2 MSTORE PUSH1 0x1 PUSH1 0x1 PUSH1 0xA0 SHL SUB PUSH1 0x7 DUP6 ADD SLOAD AND SWAP1 PUSH1 0xE0 DUP9 ADD SWAP2 DUP3 MSTORE PUSH1 0x1 PUSH1 0x1 PUSH1 0xA0 SHL SUB PUSH1 0x8 DUP7 ADD SLOAD AND SWAP3 PUSH2 0x100 DUP10 ADD SWAP4 DUP5 MSTORE PUSH1 0x9 DUP7 ADD SLOAD SWAP5 PUSH1 0xFF PUSH2 0x120 DUP12 ADD SWAP7 PUSH1 0x1 PUSH1 0x1 PUSH1 0xA0 SHL SUB DUP2 AND DUP9 MSTORE PUSH1 0xA0 SHR AND SWAP7 PUSH2 0x140 DUP12 ADD SWAP8 PUSH1 0x3 DUP2 LT ISZERO PUSH2 0x1188 JUMPI DUP9 MSTORE PUSH1 0xA ADD SLOAD SWAP8 PUSH2 0x160 DUP12 ADD SWAP9 DUP10 MSTORE PUSH1 0x40 MLOAD SWAP12 DUP13 SWAP12 PUSH1 0x20 DUP14 MSTORE MLOAD PUSH1 0x20 DUP14 ADD MSTORE MLOAD PUSH1 0x40 DUP13 ADD PUSH2 0x180 SWAP1 MSTORE PUSH2 0x1A0 DUP13 ADD PUSH2 0x1C4C SWAP2 PUSH2 0x1FD0 JUMP JUMPDEST SWAP10 MLOAD PUSH1 0x60 DUP13 ADD PUSH2 0x1C5B SWAP2 PUSH2 0x2021 JUMP JUMPDEST MLOAD PUSH1 0x80 DUP12 ADD MSTORE MLOAD PUSH1 0xA0 DUP11 ADD MSTORE MLOAD PUSH1 0xC0 DUP10 ADD MSTORE MLOAD PUSH1 0xE0 DUP9 ADD MSTORE MLOAD PUSH1 0x1 PUSH1 0x1 PUSH1 0xA0 SHL SUB AND PUSH2 0x100 DUP8 ADD MSTORE MLOAD PUSH1 0x1 PUSH1 0x1 PUSH1 0xA0 SHL SUB AND PUSH2 0x120 DUP7 ADD MSTORE MLOAD PUSH1 0x1 PUSH1 0x1 PUSH1 0xA0 SHL SUB AND PUSH2 0x140 DUP6 ADD MSTORE MLOAD PUSH2 0x160 DUP5 ADD PUSH2 0x1CB2 SWAP2 PUSH2 0x202E JUMP JUMPDEST MLOAD PUSH2 0x180 DUP4 ADD MSTORE SUB SWAP1 RETURN JUMPDEST CALLVALUE PUSH2 0x1FA JUMPI PUSH1 0x0 CALLDATASIZE PUSH1 0x3 NOT ADD SLT PUSH2 0x1FA JUMPI PUSH1 0x20 PUSH1 0x8 SLOAD PUSH1 0x40 MLOAD SWAP1 DUP2 MSTORE RETURN JUMPDEST CALLVALUE PUSH2 0x1FA JUMPI PUSH1 0x40 CALLDATASIZE PUSH1 0x3 NOT ADD SLT PUSH2 0x1FA JUMPI PUSH2 0x1CF4 PUSH2 0x1FF5 JUMP JUMPDEST PUSH1 0x24 CALLDATALOAD SWAP1 PUSH1 0x1 PUSH1 0x1 PUSH1 0xA0 SHL SUB DUP1 PUSH2 0x1D0A DUP5 PUSH2 0x2358 JUMP JUMPDEST AND SWAP2 AND SWAP1 DUP1 DUP3 EQ PUSH2 0x1E16 JUMPI DUP1 CALLER EQ SWAP1 DUP2 ISZERO PUSH2 0x1DE8 JUMPI JUMPDEST POP ISZERO PUSH2 0x1D7D JUMPI DUP2 PUSH1 0x0 MSTORE PUSH1 0x4 PUSH1 0x20 MSTORE PUSH1 0x40 PUSH1 0x0 KECCAK256 DUP2 PUSH1 0x1 PUSH1 0x1 PUSH1 0xA0 SHL SUB NOT DUP3 SLOAD AND OR SWAP1 SSTORE PUSH1 0x1 PUSH1 0x1 PUSH1 0xA0 SHL SUB PUSH2 0x1D55 DUP4 PUSH2 0x2358 JUMP JUMPDEST AND PUSH32 0x8C5BE1E5EBEC7D5BD14F71427D1E84F3DD0314C0F7B2291E5B200AC8C7C3B925 PUSH1 0x0 DUP1 LOG4 STOP JUMPDEST PUSH1 0x40 MLOAD PUSH3 0x461BCD PUSH1 0xE5 SHL DUP2 MSTORE PUSH1 0x20 PUSH1 0x4 DUP3 ADD MSTORE PUSH1 0x3D PUSH1 0x24 DUP3 ADD MSTORE PUSH32 0x4552433732313A20617070726F76652063616C6C6572206973206E6F7420746F PUSH1 0x44 DUP3 ADD MSTORE PUSH32 0x6B656E206F776E6572206F7220617070726F76656420666F7220616C6C000000 PUSH1 0x64 DUP3 ADD MSTORE PUSH1 0x84 SWAP1 REVERT JUMPDEST SWAP1 POP PUSH1 0x0 MSTORE PUSH1 0x5 PUSH1 0x20 MSTORE PUSH1 0x40 PUSH1 0x0 KECCAK256 PUSH1 0x1 PUSH1 0x1 PUSH1 0xA0 SHL SUB CALLER AND PUSH1 0x0 MSTORE PUSH1 0x20 MSTORE PUSH1 0xFF PUSH1 0x40 PUSH1 0x0 KECCAK256 SLOAD AND DUP4 PUSH2 0x1D20 JUMP JUMPDEST PUSH1 0x40 MLOAD PUSH3 0x461BCD PUSH1 0xE5 SHL DUP2 MSTORE PUSH1 0x20 PUSH1 0x4 DUP3 ADD MSTORE PUSH1 0x21 PUSH1 0x24 DUP3 ADD MSTORE PUSH32 0x4552433732313A20617070726F76616C20746F2063757272656E74206F776E65 PUSH1 0x44 DUP3 ADD MSTORE PUSH1 0x39 PUSH1 0xF9 SHL PUSH1 0x64 DUP3 ADD MSTORE PUSH1 0x84 SWAP1 REVERT JUMPDEST CALLVALUE PUSH2 0x1FA JUMPI PUSH1 0x20 CALLDATASIZE PUSH1 0x3 NOT ADD SLT PUSH2 0x1FA JUMPI PUSH1 0x20 PUSH2 0x1605 PUSH1 0x4 CALLDATALOAD PUSH2 0x21C4 JUMP JUMPDEST CALLVALUE PUSH2 0x1FA JUMPI PUSH1 0x0 CALLDATASIZE PUSH1 0x3 NOT ADD SLT PUSH2 0x1FA JUMPI PUSH1 0x40 MLOAD PUSH1 0x0 DUP1 SLOAD PUSH2 0x1EA4 DUP2 PUSH2 0x20E6 JUMP JUMPDEST DUP1 DUP5 MSTORE SWAP1 PUSH1 0x1 DUP2 AND SWAP1 DUP2 ISZERO PUSH2 0x13EA JUMPI POP PUSH1 0x1 EQ PUSH2 0x1ECB JUMPI PUSH2 0x1056 DUP4 PUSH2 0x1377 DUP2 DUP6 SUB DUP3 PUSH2 0x20A8 JUMP JUMPDEST PUSH1 0x0 DUP1 DUP1 MSTORE PUSH32 0x290DECD9548B62A8D60345A988386FC84BA6BC95484008F6362F93160EF3E563 SWAP4 SWAP3 POP SWAP1 JUMPDEST DUP1 DUP3 LT PUSH2 0x1F0E JUMPI POP SWAP1 SWAP2 POP DUP2 ADD PUSH1 0x20 ADD PUSH2 0x1377 PUSH2 0x1367 JUMP JUMPDEST SWAP2 SWAP3 PUSH1 0x1 DUP2 PUSH1 0x20 SWAP3 SLOAD DUP4 DUP6 DUP9 ADD ADD MSTORE ADD SWAP2 ADD SWAP1 SWAP3 SWAP2 PUSH2 0x1EF6 JUMP JUMPDEST CALLVALUE PUSH2 0x1FA JUMPI PUSH1 0x20 CALLDATASIZE PUSH1 0x3 NOT ADD SLT PUSH2 0x1FA JUMPI PUSH1 0x4 CALLDATALOAD SWAP1 PUSH4 0xFFFFFFFF PUSH1 0xE0 SHL DUP3 AND DUP1 SWAP3 SUB PUSH2 0x1FA JUMPI PUSH1 0x20 SWAP2 PUSH4 0x24832483 PUSH1 0xE1 SHL DUP2 EQ SWAP1 DUP2 ISZERO PUSH2 0x1F6A JUMPI JUMPDEST POP ISZERO ISZERO DUP2 MSTORE RETURN JUMPDEST PUSH4 0x80AC58CD PUSH1 0xE0 SHL DUP2 EQ SWAP2 POP DUP2 ISZERO PUSH2 0x1F9C JUMPI JUMPDEST DUP2 ISZERO PUSH2 0x1F8B JUMPI JUMPDEST POP DUP4 PUSH2 0x1F63 JUMP JUMPDEST PUSH4 0x1FFC9A7 PUSH1 0xE0 SHL EQ SWAP1 POP DUP4 PUSH2 0x1F84 JUMP JUMPDEST PUSH4 0x5B5E139F PUSH1 0xE0 SHL DUP2 EQ SWAP2 POP PUSH2 0x1F7D JUMP JUMPDEST PUSH1 0x0 JUMPDEST DUP4 DUP2 LT PUSH2 0x1FC0 JUMPI POP POP PUSH1 0x0 SWAP2 ADD MSTORE JUMP JUMPDEST DUP2 DUP2 ADD MLOAD DUP4 DUP3 ADD MSTORE PUSH1 0x20 ADD PUSH2 0x1FB0 JUMP JUMPDEST SWAP1 PUSH1 0x20 SWAP2 PUSH2 0x1FE9 DUP2 MLOAD DUP1 SWAP3 DUP2 DUP6 MSTORE DUP6 DUP1 DUP7 ADD SWAP2 ADD PUSH2 0x1FAD JUMP JUMPDEST PUSH1 0x1F ADD PUSH1 0x1F NOT AND ADD ADD SWAP1 JUMP JUMPDEST PUSH1 0x4 CALLDATALOAD SWAP1 PUSH1 0x1 PUSH1 0x1 PUSH1 0xA0 SHL SUB DUP3 AND DUP3 SUB PUSH2 0x1FA JUMPI JUMP JUMPDEST PUSH1 0x24 CALLDATALOAD SWAP1 PUSH1 0x1 PUSH1 0x1 PUSH1 0xA0 SHL SUB DUP3 AND DUP3 SUB PUSH2 0x1FA JUMPI JUMP JUMPDEST SWAP1 PUSH1 0x2 DUP3 LT ISZERO PUSH2 0x1188 JUMPI MSTORE JUMP JUMPDEST SWAP1 PUSH1 0x3 DUP3 LT ISZERO PUSH2 0x1188 JUMPI MSTORE JUMP JUMPDEST PUSH1 0x60 SWAP1 PUSH1 0x3 NOT ADD SLT PUSH2 0x1FA JUMPI PUSH1 0x4 CALLDATALOAD PUSH1 0x1 PUSH1 0x1 PUSH1 0xA0 SHL SUB DUP2 AND DUP2 SUB PUSH2 0x1FA JUMPI SWAP1 PUSH1 0x24 CALLDATALOAD PUSH1 0x1 PUSH1 0x1 PUSH1 0xA0 SHL SUB DUP2 AND DUP2 SUB PUSH2 0x1FA JUMPI SWAP1 PUSH1 0x44 CALLDATALOAD SWAP1 JUMP JUMPDEST PUSH2 0x180 DUP2 ADD SWAP1 DUP2 LT PUSH8 0xFFFFFFFFFFFFFFFF DUP3 GT OR PUSH2 0x2092 JUMPI PUSH1 0x40 MSTORE JUMP JUMPDEST PUSH4 0x4E487B71 PUSH1 0xE0 SHL PUSH1 0x0 MSTORE PUSH1 0x41 PUSH1 0x4 MSTORE PUSH1 0x24 PUSH1 0x0 REVERT JUMPDEST SWAP1 PUSH1 0x1F DUP1 NOT SWAP2 ADD AND DUP2 ADD SWAP1 DUP2 LT PUSH8 0xFFFFFFFFFFFFFFFF DUP3 GT OR PUSH2 0x2092 JUMPI PUSH1 0x40 MSTORE JUMP JUMPDEST PUSH8 0xFFFFFFFFFFFFFFFF DUP2 GT PUSH2 0x2092 JUMPI PUSH1 0x1F ADD PUSH1 0x1F NOT AND PUSH1 0x20 ADD SWAP1 JUMP JUMPDEST SWAP1 PUSH1 0x1 DUP3 DUP2 SHR SWAP3 AND DUP1 ISZERO PUSH2 0x2116 JUMPI JUMPDEST PUSH1 0x20 DUP4 LT EQ PUSH2 0x2100 JUMPI JUMP JUMPDEST PUSH4 0x4E487B71 PUSH1 0xE0 SHL PUSH1 0x0 MSTORE PUSH1 0x22 PUSH1 0x4 MSTORE PUSH1 0x24 PUSH1 0x0 REVERT JUMPDEST SWAP2 PUSH1 0x7F AND SWAP2 PUSH2 0x20F5 JUMP JUMPDEST SWAP1 PUSH1 0x40 MLOAD SWAP2 DUP3 PUSH1 0x0 DUP3 SLOAD SWAP3 PUSH2 0x2134 DUP5 PUSH2 0x20E6 JUMP JUMPDEST DUP1 DUP5 MSTORE SWAP4 PUSH1 0x1 DUP2 AND SWAP1 DUP2 ISZERO PUSH2 0x21A2 JUMPI POP PUSH1 0x1 EQ PUSH2 0x215B JUMPI JUMPDEST POP PUSH2 0x2159 SWAP3 POP SUB DUP4 PUSH2 0x20A8 JUMP JUMPDEST JUMP JUMPDEST SWAP1 POP PUSH1 0x0 SWAP3 SWAP2 SWAP3 MSTORE PUSH1 0x20 PUSH1 0x0 KECCAK256 SWAP1 PUSH1 0x0 SWAP2 JUMPDEST DUP2 DUP4 LT PUSH2 0x2186 JUMPI POP POP SWAP1 PUSH1 0x20 PUSH2 0x2159 SWAP3 DUP3 ADD ADD CODESIZE PUSH2 0x214C JUMP JUMPDEST PUSH1 0x20 SWAP2 SWAP4 POP DUP1 PUSH1 0x1 SWAP2 SLOAD DUP4 DUP6 DUP10 ADD ADD MSTORE ADD SWAP2 ADD SWAP1 SWAP2 DUP5 SWAP3 PUSH2 0x216D JUMP JUMPDEST SWAP1 POP PUSH1 0x20 SWAP3 POP PUSH2 0x2159 SWAP5 SWAP2 POP PUSH1 0xFF NOT AND DUP3 DUP5 ADD MSTORE ISZERO ISZERO PUSH1 0x5 SHL DUP3 ADD ADD CODESIZE PUSH2 0x214C JUMP JUMPDEST PUSH2 0x21EC PUSH2 0x21E7 DUP3 PUSH1 0x0 MSTORE PUSH1 0x2 PUSH1 0x20 MSTORE PUSH1 0x1 PUSH1 0x1 PUSH1 0xA0 SHL SUB PUSH1 0x40 PUSH1 0x0 KECCAK256 SLOAD AND ISZERO ISZERO SWAP1 JUMP JUMPDEST PUSH2 0x230C JUMP JUMPDEST PUSH1 0x0 MSTORE PUSH1 0x4 PUSH1 0x20 MSTORE PUSH1 0x1 PUSH1 0x1 PUSH1 0xA0 SHL SUB PUSH1 0x40 PUSH1 0x0 KECCAK256 SLOAD AND SWAP1 JUMP JUMPDEST ISZERO PUSH2 0x220D JUMPI JUMP JUMPDEST PUSH1 0x40 MLOAD PUSH3 0x461BCD PUSH1 0xE5 SHL DUP2 MSTORE PUSH1 0x20 PUSH1 0x4 DUP3 ADD MSTORE PUSH1 0x18 PUSH1 0x24 DUP3 ADD MSTORE PUSH32 0x4F7074696F6E546F6B656E3A206E6F6E6578697374656E740000000000000000 PUSH1 0x44 DUP3 ADD MSTORE PUSH1 0x64 SWAP1 REVERT JUMPDEST ISZERO PUSH2 0x2259 JUMPI JUMP JUMPDEST PUSH1 0x40 MLOAD PUSH3 0x461BCD PUSH1 0xE5 SHL DUP2 MSTORE PUSH1 0x20 PUSH1 0x4 DUP3 ADD MSTORE PUSH1 0x2D PUSH1 0x24 DUP3 ADD MSTORE PUSH32 0x4552433732313A2063616C6C6572206973206E6F7420746F6B656E206F776E65 PUSH1 0x44 DUP3 ADD MSTORE PUSH32 0x72206F7220617070726F76656400000000000000000000000000000000000000 PUSH1 0x64 DUP3 ADD MSTORE PUSH1 0x84 SWAP1 REVERT JUMPDEST CALLDATALOAD PUSH1 0x1 PUSH1 0x1 PUSH1 0xA0 SHL SUB DUP2 AND DUP2 SUB PUSH2 0x1FA JUMPI SWAP1 JUMP JUMPDEST SWAP1 PUSH1 0x3 DUP2 LT ISZERO PUSH2 0x1188 JUMPI PUSH1 0xFF PUSH1 0xA0 SHL NOT PUSH21 0xFF0000000000000000000000000000000000000000 DUP4 SLOAD SWAP3 PUSH1 0xA0 SHL AND SWAP2 AND OR SWAP1 SSTORE JUMP JUMPDEST ISZERO PUSH2 0x2313 JUMPI JUMP JUMPDEST PUSH1 0x40 MLOAD PUSH3 0x461BCD PUSH1 0xE5 SHL DUP2 MSTORE PUSH1 0x20 PUSH1 0x4 DUP3 ADD MSTORE PUSH1 0x18 PUSH1 0x24 DUP3 ADD MSTORE PUSH32 0x4552433732313A20696E76616C696420746F6B656E2049440000000000000000 PUSH1 0x44 DUP3 ADD MSTORE PUSH1 0x64 SWAP1 REVERT JUMPDEST PUSH1 0x0 MSTORE PUSH1 0x2 PUSH1 0x20 MSTORE PUSH1 0x1 PUSH1 0x1 PUSH1 0xA0 SHL SUB PUSH1 0x40 PUSH1 0x0 KECCAK256 SLOAD AND PUSH2 0x237A DUP2 ISZERO ISZERO PUSH2 0x230C JUMP JUMPDEST SWAP1 JUMP JUMPDEST SWAP1 PUSH2 0x23A1 SWAP4 SWAP3 SWAP2 PUSH2 0x2391 PUSH2 0x1AA9 DUP5 CALLER PUSH2 0x2481 JUMP JUMPDEST PUSH2 0x239C DUP4 DUP4 DUP4 PUSH2 0x2561 JUMP JUMPDEST PUSH2 0x2BB4 JUMP JUMPDEST ISZERO PUSH2 0x23A8 JUMPI JUMP JUMPDEST PUSH1 0x40 MLOAD PUSH3 0x461BCD PUSH1 0xE5 SHL DUP2 MSTORE PUSH1 0x20 PUSH1 0x4 DUP3 ADD MSTORE PUSH1 0x32 PUSH1 0x24 DUP3 ADD MSTORE PUSH32 0x4552433732313A207472616E7366657220746F206E6F6E204552433732315265 PUSH1 0x44 DUP3 ADD MSTORE PUSH32 0x63656976657220696D706C656D656E7465720000000000000000000000000000 PUSH1 0x64 DUP3 ADD MSTORE PUSH1 0x84 SWAP1 REVERT JUMPDEST PUSH1 0x0 SWAP3 SWAP2 DUP2 SLOAD SWAP2 PUSH2 0x2423 DUP4 PUSH2 0x20E6 JUMP JUMPDEST SWAP3 PUSH1 0x1 DUP2 AND SWAP1 DUP2 ISZERO PUSH2 0x246E JUMPI POP PUSH1 0x1 EQ PUSH2 0x243C JUMPI POP POP POP JUMP JUMPDEST SWAP1 SWAP2 SWAP3 SWAP4 POP PUSH1 0x0 MSTORE PUSH1 0x20 PUSH1 0x0 KECCAK256 PUSH1 0x0 SWAP1 JUMPDEST DUP4 DUP3 LT PUSH2 0x245A JUMPI POP POP ADD SWAP1 JUMP JUMPDEST PUSH1 0x1 DUP2 PUSH1 0x20 SWAP3 SLOAD DUP5 DUP7 ADD MSTORE ADD SWAP2 ADD SWAP1 PUSH2 0x244D JUMP JUMPDEST PUSH1 0xFF NOT AND DUP4 MSTORE POP POP DUP2 ISZERO ISZERO SWAP1 SWAP2 MUL ADD SWAP2 POP JUMP JUMPDEST SWAP1 PUSH1 0x1 PUSH1 0x1 PUSH1 0xA0 SHL SUB DUP1 PUSH2 0x2494 DUP4 PUSH2 0x2358 JUMP JUMPDEST AND SWAP3 AND SWAP1 DUP3 DUP3 EQ SWAP3 DUP4 ISZERO PUSH2 0x24C8 JUMPI JUMPDEST POP DUP3 ISZERO PUSH2 0x24AF JUMPI POP POP SWAP1 JUMP JUMPDEST PUSH1 0x1 PUSH1 0x1 PUSH1 0xA0 SHL SUB SWAP2 SWAP3 POP PUSH2 0x24C3 SWAP1 PUSH2 0x21C4 JUMP JUMPDEST AND EQ SWAP1 JUMP JUMPDEST SWAP1 SWAP3 POP PUSH1 0x0 MSTORE PUSH1 0x5 PUSH1 0x20 MSTORE PUSH1 0x40 PUSH1 0x0 KECCAK256 DUP2 PUSH1 0x0 MSTORE PUSH1 0x20 MSTORE PUSH1 0xFF PUSH1 0x40 PUSH1 0x0 KECCAK256 SLOAD AND SWAP2 CODESIZE PUSH2 0x24A3 JUMP JUMPDEST ISZERO PUSH2 0x24F6 JUMPI JUMP JUMPDEST PUSH1 0x40 MLOAD PUSH3 0x461BCD PUSH1 0xE5 SHL DUP2 MSTORE PUSH1 0x20 PUSH1 0x4 DUP3 ADD MSTORE PUSH1 0x25 PUSH1 0x24 DUP3 ADD MSTORE PUSH32 0x4552433732313A207472616E736665722066726F6D20696E636F727265637420 PUSH1 0x44 DUP3 ADD MSTORE PUSH32 0x6F776E6572000000000000000000000000000000000000000000000000000000 PUSH1 0x64 DUP3 ADD MSTORE PUSH1 0x84 SWAP1 REVERT JUMPDEST PUSH1 0x1 PUSH1 0x1 PUSH1 0xA0 SHL SUB SWAP2 PUSH2 0x2584 DUP4 SWAP3 DUP4 PUSH2 0x2579 DUP8 PUSH2 0x2358 JUMP JUMPDEST SWAP2 AND SWAP5 AND DUP5 EQ PUSH2 0x24EF JUMP JUMPDEST AND SWAP1 DUP2 ISZERO PUSH2 0x2634 JUMPI PUSH2 0x25A8 DUP2 PUSH1 0x1 PUSH1 0x1 PUSH1 0xA0 SHL SUB PUSH2 0x25A1 DUP7 PUSH2 0x2358 JUMP JUMPDEST AND EQ PUSH2 0x24EF JUMP JUMPDEST DUP3 PUSH1 0x0 MSTORE PUSH1 0x4 PUSH1 0x20 MSTORE PUSH1 0x40 PUSH1 0x0 KECCAK256 PUSH1 0x1 PUSH1 0x1 PUSH1 0xA0 SHL SUB NOT DUP2 SLOAD AND SWAP1 SSTORE DUP1 PUSH1 0x0 MSTORE PUSH1 0x3 PUSH1 0x20 MSTORE PUSH1 0x40 PUSH1 0x0 KECCAK256 PUSH1 0x0 NOT DUP2 SLOAD ADD SWAP1 SSTORE DUP2 PUSH1 0x0 MSTORE PUSH1 0x3 PUSH1 0x20 MSTORE PUSH1 0x40 PUSH1 0x0 KECCAK256 PUSH1 0x1 DUP2 SLOAD ADD SWAP1 SSTORE DUP3 PUSH1 0x0 MSTORE PUSH1 0x2 PUSH1 0x20 MSTORE PUSH1 0x40 PUSH1 0x0 KECCAK256 DUP3 PUSH1 0x1 PUSH1 0x1 PUSH1 0xA0 SHL SUB NOT DUP3 SLOAD AND OR SWAP1 SSTORE PUSH32 0xDDF252AD1BE2C89B69C2B068FC378DAA952BA7F163C4A11628F55A4DF523B3EF PUSH1 0x0 DUP1 LOG4 JUMP JUMPDEST PUSH1 0x40 MLOAD PUSH3 0x461BCD PUSH1 0xE5 SHL DUP2 MSTORE PUSH1 0x20 PUSH1 0x4 DUP3 ADD MSTORE PUSH1 0x24 DUP1 DUP3 ADD MSTORE PUSH32 0x4552433732313A207472616E7366657220746F20746865207A65726F20616464 PUSH1 0x44 DUP3 ADD MSTORE PUSH4 0x72657373 PUSH1 0xE0 SHL PUSH1 0x64 DUP3 ADD MSTORE PUSH1 0x84 SWAP1 REVERT JUMPDEST PUSH1 0x1 PUSH1 0x1 PUSH1 0xA0 SHL SUB PUSH1 0x7 SLOAD AND CALLER SUB PUSH2 0x2699 JUMPI JUMP JUMPDEST PUSH1 0x64 PUSH1 0x40 MLOAD PUSH3 0x461BCD PUSH1 0xE5 SHL DUP2 MSTORE PUSH1 0x20 PUSH1 0x4 DUP3 ADD MSTORE PUSH1 0x20 PUSH1 0x24 DUP3 ADD MSTORE PUSH32 0x4F776E61626C653A2063616C6C6572206973206E6F7420746865206F776E6572 PUSH1 0x44 DUP3 ADD MSTORE REVERT JUMPDEST ISZERO PUSH2 0x26E4 JUMPI JUMP JUMPDEST PUSH1 0x40 MLOAD PUSH3 0x461BCD PUSH1 0xE5 SHL DUP2 MSTORE PUSH1 0x20 PUSH1 0x4 DUP3 ADD MSTORE PUSH1 0x1C PUSH1 0x24 DUP3 ADD MSTORE PUSH32 0x4552433732313A20746F6B656E20616C7265616479206D696E74656400000000 PUSH1 0x44 DUP3 ADD MSTORE PUSH1 0x64 SWAP1 REVERT JUMPDEST PUSH1 0x3 DUP2 LT ISZERO PUSH2 0x1188 JUMPI DUP1 ISZERO PUSH2 0x27BA JUMPI PUSH1 0x1 PUSH1 0x0 SWAP2 EQ PUSH2 0x277E JUMPI POP PUSH1 0x40 MLOAD PUSH2 0x2751 PUSH1 0x40 DUP3 PUSH2 0x20A8 JUMP JUMPDEST PUSH1 0x7 DUP2 MSTORE PUSH32 0x4558504952454400000000000000000000000000000000000000000000000000 PUSH1 0x20 DUP3 ADD MSTORE SWAP1 JUMP JUMPDEST POP PUSH1 0x40 MLOAD PUSH2 0x278D PUSH1 0x40 DUP3 PUSH2 0x20A8 JUMP JUMPDEST PUSH1 0x9 DUP2 MSTORE PUSH32 0x4558455243495345440000000000000000000000000000000000000000000000 PUSH1 0x20 DUP3 ADD MSTORE SWAP1 JUMP JUMPDEST POP PUSH1 0x40 MLOAD PUSH2 0x27C9 PUSH1 0x40 DUP3 PUSH2 0x20A8 JUMP JUMPDEST PUSH1 0x6 DUP2 MSTORE PUSH32 0x4143544956450000000000000000000000000000000000000000000000000000 PUSH1 0x20 DUP3 ADD MSTORE SWAP1 JUMP JUMPDEST PUSH2 0x237A PUSH1 0x1 PUSH2 0x281A PUSH8 0xDE0B6B3A7640000 PUSH7 0x2386F26FC10000 DUP2 DUP7 MOD DIV SWAP5 DIV PUSH2 0x28F1 JUMP JUMPDEST SWAP3 PUSH1 0xA DUP2 LT ISZERO PUSH2 0x28B0 JUMPI PUSH2 0x282D SWAP1 PUSH2 0x28F1 JUMP JUMPDEST PUSH2 0x2865 PUSH1 0x21 PUSH1 0x40 MLOAD DUP1 SWAP4 PUSH1 0x3 PUSH1 0xFC SHL PUSH1 0x20 DUP4 ADD MSTORE PUSH2 0x2854 DUP2 MLOAD DUP1 SWAP3 PUSH1 0x20 DUP7 DUP7 ADD SWAP2 ADD PUSH2 0x1FAD JUMP JUMPDEST DUP2 ADD SUB ADD PUSH1 0x1F NOT DUP2 ADD DUP4 MSTORE DUP3 PUSH2 0x20A8 JUMP JUMPDEST SWAP3 JUMPDEST PUSH1 0x20 PUSH1 0x40 MLOAD SWAP5 DUP3 PUSH2 0x2881 DUP8 SWAP5 MLOAD DUP1 SWAP3 DUP6 DUP1 DUP9 ADD SWAP2 ADD PUSH2 0x1FAD JUMP JUMPDEST DUP4 ADD PUSH1 0x17 PUSH1 0xF9 SHL DUP4 DUP3 ADD MSTORE PUSH2 0x289F DUP3 MLOAD DUP1 SWAP4 DUP6 PUSH1 0x21 DUP6 ADD SWAP2 ADD PUSH2 0x1FAD JUMP JUMPDEST ADD ADD SUB ADD PUSH1 0x1F NOT DUP2 ADD DUP4 MSTORE DUP3 PUSH2 0x20A8 JUMP JUMPDEST PUSH2 0x28B9 SWAP1 PUSH2 0x28F1 JUMP JUMPDEST SWAP3 PUSH2 0x2867 JUMP JUMPDEST SWAP1 PUSH2 0x28C9 DUP3 PUSH2 0x20CA JUMP JUMPDEST PUSH2 0x28D6 PUSH1 0x40 MLOAD SWAP2 DUP3 PUSH2 0x20A8 JUMP JUMPDEST DUP3 DUP2 MSTORE DUP1 SWAP3 PUSH2 0x28E7 PUSH1 0x1F NOT SWAP2 PUSH2 0x20CA JUMP JUMPDEST ADD SWAP1 PUSH1 0x20 CALLDATASIZE SWAP2 ADD CALLDATACOPY JUMP JUMPDEST DUP1 PUSH1 0x0 SWAP2 PUSH27 0x184F03E93FF9F4DAA797ED6E38ED64BF6A1F010000000000000000 DUP3 LT ISZERO PUSH2 0x2A1D JUMPI JUMPDEST DUP1 PUSH14 0x4EE2D6D415B85ACEF8100000000 PUSH1 0xA SWAP3 LT ISZERO PUSH2 0x2A02 JUMPI JUMPDEST PUSH7 0x2386F26FC10000 DUP2 LT ISZERO PUSH2 0x29EE JUMPI JUMPDEST PUSH4 0x5F5E100 DUP2 LT ISZERO PUSH2 0x29DD JUMPI JUMPDEST PUSH2 0x2710 DUP2 LT ISZERO PUSH2 0x29CE JUMPI JUMPDEST PUSH1 0x64 DUP2 LT ISZERO PUSH2 0x29C0 JUMPI JUMPDEST LT ISZERO PUSH2 0x29B5 JUMPI JUMPDEST PUSH1 0xA PUSH1 0x21 PUSH2 0x297C PUSH1 0x1 DUP6 ADD PUSH2 0x28BF JUMP JUMPDEST SWAP4 DUP5 ADD ADD JUMPDEST PUSH1 0x0 NOT ADD SWAP2 PUSH16 0x181899199A1A9B1B9C1CB0B131B232B3 PUSH1 0x81 SHL DUP3 DUP3 MOD BYTE DUP4 MSTORE8 DIV DUP1 ISZERO PUSH2 0x29B0 JUMPI PUSH1 0xA SWAP1 SWAP2 PUSH2 0x2981 JUMP JUMPDEST POP POP SWAP1 JUMP JUMPDEST PUSH1 0x1 SWAP1 SWAP2 ADD SWAP1 PUSH2 0x296C JUMP JUMPDEST PUSH1 0x64 PUSH1 0x2 SWAP2 DIV SWAP4 ADD SWAP3 PUSH2 0x2965 JUMP JUMPDEST PUSH2 0x2710 PUSH1 0x4 SWAP2 DIV SWAP4 ADD SWAP3 PUSH2 0x295B JUMP JUMPDEST PUSH4 0x5F5E100 PUSH1 0x8 SWAP2 DIV SWAP4 ADD SWAP3 PUSH2 0x2950 JUMP JUMPDEST PUSH7 0x2386F26FC10000 PUSH1 0x10 SWAP2 DIV SWAP4 ADD SWAP3 PUSH2 0x2943 JUMP JUMPDEST PUSH14 0x4EE2D6D415B85ACEF8100000000 PUSH1 0x20 SWAP2 DIV SWAP4 ADD SWAP3 PUSH2 0x2933 JUMP JUMPDEST POP PUSH1 0x40 SWAP2 POP PUSH27 0x184F03E93FF9F4DAA797ED6E38ED64BF6A1F010000000000000000 DUP2 DIV PUSH2 0x2919 JUMP JUMPDEST SWAP1 DUP2 MLOAD ISZERO PUSH2 0x2B9D JUMPI PUSH1 0x40 MLOAD SWAP2 PUSH2 0x2A5C PUSH1 0x60 DUP5 PUSH2 0x20A8 JUMP JUMPDEST PUSH1 0x40 DUP4 MSTORE PUSH32 0x4142434445464748494A4B4C4D4E4F505152535455565758595A616263646566 PUSH1 0x20 DUP5 ADD MSTORE PUSH32 0x6768696A6B6C6D6E6F707172737475767778797A303132333435363738392B2F PUSH1 0x40 DUP5 ADD MSTORE DUP1 MLOAD PUSH1 0x2 DUP2 ADD DUP1 SWAP2 GT PUSH2 0x1A74 JUMPI PUSH1 0x3 SWAP1 DIV PUSH32 0x3FFFFFFFFFFFFFFFFFFFFFFFFFFFFFFFFFFFFFFFFFFFFFFFFFFFFFFFFFFFFFFF DUP2 AND DUP2 SUB PUSH2 0x1A74 JUMPI PUSH2 0x2AF2 SWAP1 PUSH1 0x2 SHL PUSH2 0x28BF JUMP JUMPDEST SWAP1 PUSH1 0x20 DUP3 ADD SWAP1 DUP1 DUP2 MLOAD DUP3 ADD SWAP6 PUSH1 0x20 DUP8 ADD SWAP1 DUP2 MLOAD SWAP3 PUSH1 0x0 DUP4 MSTORE JUMPDEST DUP9 DUP2 LT PUSH2 0x2B4F JUMPI POP POP PUSH1 0x3 SWAP4 SWAP5 SWAP6 SWAP7 POP MSTORE MLOAD MOD DUP1 PUSH1 0x1 EQ PUSH2 0x2B3C JUMPI PUSH1 0x2 EQ PUSH2 0x2B31 JUMPI POP SWAP1 JUMP JUMPDEST PUSH1 0x3D SWAP1 PUSH1 0x0 NOT ADD MSTORE8 SWAP1 JUMP JUMPDEST POP PUSH1 0x3D SWAP1 DUP2 PUSH1 0x0 NOT DUP3 ADD MSTORE8 PUSH1 0x1 NOT ADD MSTORE8 SWAP1 JUMP JUMPDEST PUSH1 0x3 PUSH1 0x4 SWAP2 SWAP10 SWAP7 SWAP10 ADD SWAP9 PUSH1 0x1 PUSH1 0x3F DUP12 MLOAD DUP3 DUP3 DUP3 PUSH1 0x12 SHR AND DUP8 ADD ADD MLOAD DUP5 MSTORE8 DUP3 DUP3 DUP3 PUSH1 0xC SHR AND DUP8 ADD ADD MLOAD DUP4 DUP6 ADD MSTORE8 DUP3 DUP3 DUP3 PUSH1 0x6 SHR AND DUP8 ADD ADD MLOAD PUSH1 0x2 DUP6 ADD MSTORE8 AND DUP5 ADD ADD MLOAD PUSH1 0x3 DUP3 ADD MSTORE8 ADD SWAP5 SWAP8 PUSH2 0x2B0B JUMP JUMPDEST SWAP1 POP PUSH1 0x40 MLOAD PUSH2 0x2BAD PUSH1 0x20 DUP3 PUSH2 0x20A8 JUMP JUMPDEST PUSH1 0x0 DUP2 MSTORE SWAP1 JUMP JUMPDEST SWAP2 SWAP1 DUP1 EXTCODESIZE ISZERO PUSH2 0x2D51 JUMPI PUSH1 0x1 PUSH1 0x1 PUSH1 0xA0 SHL SUB PUSH1 0x0 DUP2 PUSH1 0x20 SWAP6 PUSH2 0x2C04 PUSH1 0x40 MLOAD SWAP9 DUP10 SWAP8 DUP9 SWAP7 DUP8 SWAP5 PUSH4 0xA85BD01 PUSH1 0xE1 SHL DUP7 MSTORE CALLER PUSH1 0x4 DUP8 ADD MSTORE AND PUSH1 0x24 DUP6 ADD MSTORE PUSH1 0x44 DUP5 ADD MSTORE PUSH1 0x80 PUSH1 0x64 DUP5 ADD MSTORE PUSH1 0x84 DUP4 ADD SWAP1 PUSH2 0x1FD0 JUMP JUMPDEST SUB SWAP4 AND GAS CALL DUP1 SWAP2 PUSH1 0x0 SWAP2 PUSH2 0x2CEF JUMPI JUMPDEST POP SWAP1 PUSH2 0x2CC1 JUMPI RETURNDATASIZE ISZERO PUSH2 0x2CBA JUMPI RETURNDATASIZE PUSH2 0x2C29 DUP2 PUSH2 0x20CA JUMP JUMPDEST SWAP1 PUSH2 0x2C37 PUSH1 0x40 MLOAD SWAP3 DUP4 PUSH2 0x20A8 JUMP JUMPDEST DUP2 MSTORE RETURNDATASIZE PUSH1 0x0 PUSH1 0x20 DUP4 ADD RETURNDATACOPY JUMPDEST DUP1 MLOAD SWAP1 DUP2 PUSH2 0x2CB5 JUMPI PUSH1 0x40 MLOAD PUSH3 0x461BCD PUSH1 0xE5 SHL DUP2 MSTORE PUSH1 0x20 PUSH1 0x4 DUP3 ADD MSTORE PUSH1 0x32 PUSH1 0x24 DUP3 ADD MSTORE PUSH32 0x4552433732313A207472616E7366657220746F206E6F6E204552433732315265 PUSH1 0x44 DUP3 ADD MSTORE PUSH32 0x63656976657220696D706C656D656E7465720000000000000000000000000000 PUSH1 0x64 DUP3 ADD MSTORE PUSH1 0x84 SWAP1 REVERT JUMPDEST PUSH1 0x20 ADD REVERT JUMPDEST PUSH1 0x60 PUSH2 0x2C42 JUMP JUMPDEST PUSH32 0xFFFFFFFF00000000000000000000000000000000000000000000000000000000 AND PUSH4 0xA85BD01 PUSH1 0xE1 SHL EQ SWAP1 JUMP JUMPDEST PUSH1 0x20 DUP2 RETURNDATASIZE PUSH1 0x20 GT PUSH2 0x2D49 JUMPI JUMPDEST DUP2 PUSH2 0x2D08 PUSH1 0x20 SWAP4 DUP4 PUSH2 0x20A8 JUMP JUMPDEST DUP2 ADD SUB SLT PUSH2 0x2D45 JUMPI MLOAD SWAP1 PUSH32 0xFFFFFFFF00000000000000000000000000000000000000000000000000000000 DUP3 AND DUP3 SUB PUSH2 0x2D42 JUMPI POP CODESIZE PUSH2 0x2C13 JUMP JUMPDEST DUP1 REVERT JUMPDEST POP DUP1 REVERT JUMPDEST RETURNDATASIZE SWAP2 POP PUSH2 0x2CFB JUMP JUMPDEST POP POP POP POP PUSH1 0x1 SWAP1 JUMP JUMPDEST PUSH1 0x20 DUP2 MLOAD SWAP2 ADD KECCAK256 PUSH32 0xDB6D55A48C634FDFE68DA24C01559762C293198F8322E1FED7CA8976FC4ED260 DUP2 EQ PUSH2 0x2E24 JUMPI PUSH32 0xE7702D80DFD40CDB266EDB2034D118B91502A9A0F1E86EDA9E13980523A38F96 EQ PUSH2 0x2DE9 JUMPI PUSH1 0x40 MLOAD PUSH2 0x2DBC PUSH1 0x40 DUP3 PUSH2 0x20A8 JUMP JUMPDEST PUSH1 0x7 DUP2 MSTORE PUSH32 0x2336623732383000000000000000000000000000000000000000000000000000 PUSH1 0x20 DUP3 ADD MSTORE SWAP1 JUMP JUMPDEST PUSH1 0x40 MLOAD PUSH2 0x2DF7 PUSH1 0x40 DUP3 PUSH2 0x20A8 JUMP JUMPDEST PUSH1 0x7 DUP2 MSTORE PUSH32 0x2332353633656200000000000000000000000000000000000000000000000000 PUSH1 0x20 DUP3 ADD MSTORE SWAP1 JUMP JUMPDEST POP PUSH1 0x40 MLOAD PUSH2 0x2E33 PUSH1 0x40 DUP3 PUSH2 0x20A8 JUMP JUMPDEST PUSH1 0x7 DUP2 MSTORE PUSH32 0x2331366133346100000000000000000000000000000000000000000000000000 PUSH1 0x20 DUP3 ADD MSTORE SWAP1 JUMP INVALID LOG1 PUSH5 0x736F6C6343 STOP ADDMOD BYTE STOP EXP "},"methodIdentifiers":{"approve(address,uint256)":"095ea7b3","balanceOf(address)":"70a08231","getApproved(uint256)":"081812fc","getOption(uint256)":"1ce5e9a6","isActive(uint256)":"82afd23b","isApprovedForAll(address,address)":"e985e9c5","isPastExpiry(uint256)":"9a709c57","mint(address,(bytes32,string,uint8,uint256,uint256,uint256,uint256,address,address,address,uint8,uint256))":"25d4a65b","name()":"06fdde03","owner()":"8da5cb5b","ownerOf(uint256)":"6352211e","renounceOwnership()":"715018a6","safeTransferFrom(address,address,uint256)":"42842e0e","safeTransferFrom(address,address,uint256,bytes)":"b88d4fde","setApprovalForAll(address,bool)":"a22cb465","setScheduleId(uint256,address)":"710b7c2f","setStatus(uint256,uint8)":"d896dd64","supportsInterface(bytes4)":"01ffc9a7","symbol()":"95d89b41","tokenURI(uint256)":"c87b56dd","totalSupply()":"18160ddd","transferFrom(address,address,uint256)":"23b872dd","transferOwnership(address)":"f2fde38b"}}}}}