{
  "_format": "hh-sol-artifact-1",
  "contractName": "OptionsVault",
  "sourceName": "contracts/OptionsVault.sol",
  "abi": [
    {
      "inputs": [
        {
          "internalType": "address",
          "name": "_pyth",
          "type": "address"
        },
        {
          "internalType": "address",
          "name": "_owner",
          "type": "address"
        },
        {
          "internalType": "uint256",
          "name": "_riskFreeRateWad",
          "type": "uint256"
        }
      ],
      "stateMutability": "nonpayable",
      "type": "constructor"
    },
    {
      "inputs": [
        {
          "internalType": "uint256",
          "name": "expiry",
          "type": "uint256"
        },
        {
          "internalType": "uint256",
          "name": "maxExpiry",
          "type": "uint256"
        }
      ],
      "name": "ExpiryTooFar",
      "type": "error"
    },
    {
      "inputs": [
        {
          "internalType": "uint256",
          "name": "expiry",
          "type": "uint256"
        }
      ],
      "name": "ExpiryTooSoon",
      "type": "error"
    },
    {
      "inputs": [
        {
          "internalType": "uint256",
          "name": "required",
          "type": "uint256"
        },
        {
          "internalType": "uint256",
          "name": "available",
          "type": "uint256"
        }
      ],
      "name": "InsufficientCollateral",
      "type": "error"
    },
    {
      "inputs": [],
      "name": "InvalidSize",
      "type": "error"
    },
    {
      "inputs": [],
      "name": "InvalidStrike",
      "type": "error"
    },
    {
      "inputs": [
        {
          "internalType": "uint256",
          "name": "tokenId",
          "type": "uint256"
        },
        {
          "internalType": "address",
          "name": "caller",
          "type": "address"
        }
      ],
      "name": "NotOptionOwner",
      "type": "error"
    },
    {
      "inputs": [
        {
          "internalType": "uint256",
          "name": "tokenId",
          "type": "uint256"
        }
      ],
      "name": "OptionAlreadySettled",
      "type": "error"
    },
    {
      "inputs": [
        {
          "internalType": "uint256",
          "name": "tokenId",
          "type": "uint256"
        },
        {
          "internalType": "uint256",
          "name": "expiry",
          "type": "uint256"
        }
      ],
      "name": "OptionExpiredAlready",
      "type": "error"
    },
    {
      "inputs": [
        {
          "internalType": "uint256",
          "name": "tokenId",
          "type": "uint256"
        },
        {
          "internalType": "uint256",
          "name": "expiry",
          "type": "uint256"
        }
      ],
      "name": "OptionNotExpired",
      "type": "error"
    },
    {
      "inputs": [
        {
          "internalType": "uint256",
          "name": "premium",
          "type": "uint256"
        },
        {
          "internalType": "uint256",
          "name": "maxAccepted",
          "type": "uint256"
        }
      ],
      "name": "PremiumTooHigh",
      "type": "error"
    },
    {
      "inputs": [
        {
          "internalType": "bytes32",
          "name": "feedId",
          "type": "bytes32"
        },
        {
          "internalType": "uint256",
          "name": "publishTime",
          "type": "uint256"
        }
      ],
      "name": "StalePrice",
      "type": "error"
    },
    {
      "inputs": [
        {
          "internalType": "string",
          "name": "symbol",
          "type": "string"
        }
      ],
      "name": "UnknownSymbol",
      "type": "error"
    },
    {
      "inputs": [
        {
          "internalType": "address",
          "name": "token",
          "type": "address"
        }
      ],
      "name": "UnsupportedCollateral",
      "type": "error"
    },
    {
      "anonymous": false,
      "inputs": [
        {
          "indexed": true,
          "internalType": "address",
          "name": "writer",
          "type": "address"
        },
        {
          "indexed": true,
          "internalType": "address",
          "name": "token",
          "type": "address"
        },
        {
          "indexed": false,
          "internalType": "uint256",
          "name": "amount",
          "type": "uint256"
        }
      ],
      "name": "CollateralDeposited",
      "type": "event"
    },
    {
      "anonymous": false,
      "inputs": [
        {
          "indexed": true,
          "internalType": "address",
          "name": "writer",
          "type": "address"
        },
        {
          "indexed": true,
          "internalType": "address",
          "name": "token",
          "type": "address"
        },
        {
          "indexed": false,
          "internalType": "uint256",
          "name": "amount",
          "type": "uint256"
        }
      ],
      "name": "CollateralWithdrawn",
      "type": "event"
    },
    {
      "anonymous": false,
      "inputs": [
        {
          "indexed": true,
          "internalType": "address",
          "name": "token",
          "type": "address"
        },
        {
          "indexed": false,
          "internalType": "uint256",
          "name": "amount",
          "type": "uint256"
        }
      ],
      "name": "FeeCollected",
      "type": "event"
    },
    {
      "anonymous": false,
      "inputs": [
        {
          "indexed": false,
          "internalType": "string",
          "name": "symbol",
          "type": "string"
        },
        {
          "indexed": false,
          "internalType": "bytes32",
          "name": "feedId",
          "type": "bytes32"
        }
      ],
      "name": "FeedRegistered",
      "type": "event"
    },
    {
      "anonymous": false,
      "inputs": [
        {
          "indexed": true,
          "internalType": "uint256",
          "name": "tokenId",
          "type": "uint256"
        },
        {
          "indexed": true,
          "internalType": "address",
          "name": "exerciser",
          "type": "address"
        },
        {
          "indexed": false,
          "internalType": "uint256",
          "name": "spotWad",
          "type": "uint256"
        },
        {
          "indexed": false,
          "internalType": "uint256",
          "name": "payoutWad",
          "type": "uint256"
        }
      ],
      "name": "OptionExercised",
      "type": "event"
    },
    {
      "anonymous": false,
      "inputs": [
        {
          "indexed": true,
          "internalType": "uint256",
          "name": "tokenId",
          "type": "uint256"
        },
        {
          "indexed": false,
          "internalType": "bool",
          "name": "automated",
          "type": "bool"
        }
      ],
      "name": "OptionExpired",
      "type": "event"
    },
    {
      "anonymous": false,
      "inputs": [
        {
          "indexed": true,
          "internalType": "uint256",
          "name": "tokenId",
          "type": "uint256"
        },
        {
          "indexed": true,
          "internalType": "address",
          "name": "writer",
          "type": "address"
        },
        {
          "indexed": true,
          "internalType": "address",
          "name": "buyer",
          "type": "address"
        },
        {
          "indexed": false,
          "internalType": "string",
          "name": "symbol",
          "type": "string"
        },
        {
          "indexed": false,
          "internalType": "enum OptionsVault.OptionType",
          "name": "optionType",
          "type": "uint8"
        },
        {
          "indexed": false,
          "internalType": "uint256",
          "name": "strikeWad",
          "type": "uint256"
        },
        {
          "indexed": false,
          "internalType": "uint256",
          "name": "sizeWad",
          "type": "uint256"
        },
        {
          "indexed": false,
          "internalType": "uint256",
          "name": "expiry",
          "type": "uint256"
        },
        {
          "indexed": false,
          "internalType": "uint256",
          "name": "premiumWad",
          "type": "uint256"
        },
        {
          "indexed": false,
          "internalType": "address",
          "name": "scheduleId",
          "type": "address"
        }
      ],
      "name": "OptionWritten",
      "type": "event"
    },
    {
      "anonymous": false,
      "inputs": [
        {
          "indexed": true,
          "internalType": "address",
          "name": "previousOwner",
          "type": "address"
        },
        {
          "indexed": true,
          "internalType": "address",
          "name": "newOwner",
          "type": "address"
        }
      ],
      "name": "OwnershipTransferred",
      "type": "event"
    },
    {
      "anonymous": false,
      "inputs": [
        {
          "indexed": false,
          "internalType": "address",
          "name": "account",
          "type": "address"
        }
      ],
      "name": "Paused",
      "type": "event"
    },
    {
      "anonymous": false,
      "inputs": [
        {
          "indexed": false,
          "internalType": "uint256",
          "name": "newRateWad",
          "type": "uint256"
        }
      ],
      "name": "RiskFreeRateUpdated",
      "type": "event"
    },
    {
      "anonymous": false,
      "inputs": [
        {
          "indexed": false,
          "internalType": "address",
          "name": "account",
          "type": "address"
        }
      ],
      "name": "Unpaused",
      "type": "event"
    },
    {
      "inputs": [],
      "name": "MAX_EXPIRY_DAYS",
      "outputs": [
        {
          "internalType": "uint256",
          "name": "",
          "type": "uint256"
        }
      ],
      "stateMutability": "view",
      "type": "function"
    },
    {
      "inputs": [],
      "name": "MIN_EXPIRY_SECS",
      "outputs": [
        {
          "internalType": "uint256",
          "name": "",
          "type": "uint256"
        }
      ],
      "stateMutability": "view",
      "type": "function"
    },
    {
      "inputs": [],
      "name": "PROTOCOL_FEE_WAD",
      "outputs": [
        {
          "internalType": "uint256",
          "name": "",
          "type": "uint256"
        }
      ],
      "stateMutability": "view",
      "type": "function"
    },
    {
      "inputs": [],
      "name": "PYTH_MAX_AGE",
      "outputs": [
        {
          "internalType": "uint256",
          "name": "",
          "type": "uint256"
        }
      ],
      "stateMutability": "view",
      "type": "function"
    },
    {
      "inputs": [],
      "name": "WAD",
      "outputs": [
        {
          "internalType": "uint256",
          "name": "",
          "type": "uint256"
        }
      ],
      "stateMutability": "view",
      "type": "function"
    },
    {
      "inputs": [
        {
          "internalType": "address",
          "name": "",
          "type": "address"
        }
      ],
      "name": "accruedFees",
      "outputs": [
        {
          "internalType": "uint256",
          "name": "",
          "type": "uint256"
        }
      ],
      "stateMutability": "view",
      "type": "function"
    },
    {
      "inputs": [
        {
          "internalType": "address",
          "name": "token",
          "type": "address"
        }
      ],
      "name": "addCollateralToken",
      "outputs": [],
      "stateMutability": "nonpayable",
      "type": "function"
    },
    {
      "inputs": [
        {
          "internalType": "address",
          "name": "writer",
          "type": "address"
        },
        {
          "internalType": "address",
          "name": "token",
          "type": "address"
        }
      ],
      "name": "availableCollateral",
      "outputs": [
        {
          "internalType": "uint256",
          "name": "",
          "type": "uint256"
        }
      ],
      "stateMutability": "view",
      "type": "function"
    },
    {
      "inputs": [
        {
          "internalType": "uint256",
          "name": "",
          "type": "uint256"
        }
      ],
      "name": "collateralTokens",
      "outputs": [
        {
          "internalType": "address",
          "name": "",
          "type": "address"
        }
      ],
      "stateMutability": "view",
      "type": "function"
    },
    {
      "inputs": [
        {
          "internalType": "address",
          "name": "token",
          "type": "address"
        },
        {
          "internalType": "uint256",
          "name": "amount",
          "type": "uint256"
        }
      ],
      "name": "depositERC20",
      "outputs": [],
      "stateMutability": "nonpayable",
      "type": "function"
    },
    {
      "inputs": [],
      "name": "depositHBAR",
      "outputs": [],
      "stateMutability": "payable",
      "type": "function"
    },
    {
      "inputs": [
        {
          "internalType": "uint256",
          "name": "tokenId",
          "type": "uint256"
        },
        {
          "internalType": "bytes[]",
          "name": "pythUpdateData",
          "type": "bytes[]"
        }
      ],
      "name": "exercise",
      "outputs": [],
      "stateMutability": "payable",
      "type": "function"
    },
    {
      "inputs": [
        {
          "internalType": "uint256",
          "name": "tokenId",
          "type": "uint256"
        }
      ],
      "name": "expireOption",
      "outputs": [],
      "stateMutability": "nonpayable",
      "type": "function"
    },
    {
      "inputs": [
        {
          "internalType": "string",
          "name": "",
          "type": "string"
        }
      ],
      "name": "feedIds",
      "outputs": [
        {
          "internalType": "bytes32",
          "name": "",
          "type": "bytes32"
        }
      ],
      "stateMutability": "view",
      "type": "function"
    },
    {
      "inputs": [],
      "name": "getCollateralTokens",
      "outputs": [
        {
          "internalType": "address[]",
          "name": "",
          "type": "address[]"
        }
      ],
      "stateMutability": "view",
      "type": "function"
    },
    {
      "inputs": [
        {
          "internalType": "uint256",
          "name": "tokenId",
          "type": "uint256"
        }
      ],
      "name": "getPosition",
      "outputs": [
        {
          "components": [
            {
              "internalType": "uint256",
              "name": "tokenId",
              "type": "uint256"
            },
            {
              "internalType": "bytes32",
              "name": "feedId",
              "type": "bytes32"
            },
            {
              "internalType": "string",
              "name": "symbol",
              "type": "string"
            },
            {
              "internalType": "enum OptionsVault.OptionType",
              "name": "optionType",
              "type": "uint8"
            },
            {
              "internalType": "uint256",
              "name": "strikeWad",
              "type": "uint256"
            },
            {
              "internalType": "uint256",
              "name": "expiry",
              "type": "uint256"
            },
            {
              "internalType": "uint256",
              "name": "sizeWad",
              "type": "uint256"
            },
            {
              "internalType": "uint256",
              "name": "premiumWad",
              "type": "uint256"
            },
            {
              "internalType": "address",
              "name": "writer",
              "type": "address"
            },
            {
              "internalType": "address",
              "name": "buyer",
              "type": "address"
            },
            {
              "internalType": "address",
              "name": "collateralToken",
              "type": "address"
            },
            {
              "internalType": "uint256",
              "name": "collateralWad",
              "type": "uint256"
            },
            {
              "internalType": "address",
              "name": "scheduleId",
              "type": "address"
            },
            {
              "internalType": "bool",
              "name": "settled",
              "type": "bool"
            }
          ],
          "internalType": "struct OptionsVault.Position",
          "name": "",
          "type": "tuple"
        }
      ],
      "stateMutability": "view",
      "type": "function"
    },
    {
      "inputs": [],
      "name": "getSupportedSymbols",
      "outputs": [
        {
          "internalType": "string[]",
          "name": "",
          "type": "string[]"
        }
      ],
      "stateMutability": "view",
      "type": "function"
    },
    {
      "inputs": [
        {
          "internalType": "uint256",
          "name": "tokenId",
          "type": "uint256"
        },
        {
          "internalType": "uint256",
          "name": "spotWad",
          "type": "uint256"
        }
      ],
      "name": "intrinsicValue",
      "outputs": [
        {
          "internalType": "uint256",
          "name": "",
          "type": "uint256"
        }
      ],
      "stateMutability": "view",
      "type": "function"
    },
    {
      "inputs": [
        {
          "internalType": "address",
          "name": "",
          "type": "address"
        }
      ],
      "name": "isCollateralToken",
      "outputs": [
        {
          "internalType": "bool",
          "name": "",
          "type": "bool"
        }
      ],
      "stateMutability": "view",
      "type": "function"
    },
    {
      "inputs": [],
      "name": "optionToken",
      "outputs": [
        {
          "internalType": "contract OptionToken",
          "name": "",
          "type": "address"
        }
      ],
      "stateMutability": "view",
      "type": "function"
    },
    {
      "inputs": [],
      "name": "owner",
      "outputs": [
        {
          "internalType": "address",
          "name": "",
          "type": "address"
        }
      ],
      "stateMutability": "view",
      "type": "function"
    },
    {
      "inputs": [],
      "name": "pause",
      "outputs": [],
      "stateMutability": "nonpayable",
      "type": "function"
    },
    {
      "inputs": [],
      "name": "paused",
      "outputs": [
        {
          "internalType": "bool",
          "name": "",
          "type": "bool"
        }
      ],
      "stateMutability": "view",
      "type": "function"
    },
    {
      "inputs": [
        {
          "internalType": "uint256",
          "name": "",
          "type": "uint256"
        }
      ],
      "name": "positions",
      "outputs": [
        {
          "internalType": "uint256",
          "name": "tokenId",
          "type": "uint256"
        },
        {
          "internalType": "bytes32",
          "name": "feedId",
          "type": "bytes32"
        },
        {
          "internalType": "string",
          "name": "symbol",
          "type": "string"
        },
        {
          "internalType": "enum OptionsVault.OptionType",
          "name": "optionType",
          "type": "uint8"
        },
        {
          "internalType": "uint256",
          "name": "strikeWad",
          "type": "uint256"
        },
        {
          "internalType": "uint256",
          "name": "expiry",
          "type": "uint256"
        },
        {
          "internalType": "uint256",
          "name": "sizeWad",
          "type": "uint256"
        },
        {
          "internalType": "uint256",
          "name": "premiumWad",
          "type": "uint256"
        },
        {
          "internalType": "address",
          "name": "writer",
          "type": "address"
        },
        {
          "internalType": "address",
          "name": "buyer",
          "type": "address"
        },
        {
          "internalType": "address",
          "name": "collateralToken",
          "type": "address"
        },
        {
          "internalType": "uint256",
          "name": "collateralWad",
          "type": "uint256"
        },
        {
          "internalType": "address",
          "name": "scheduleId",
          "type": "address"
        },
        {
          "internalType": "bool",
          "name": "settled",
          "type": "bool"
        }
      ],
      "stateMutability": "view",
      "type": "function"
    },
    {
      "inputs": [],
      "name": "pyth",
      "outputs": [
        {
          "internalType": "contract IPyth",
          "name": "",
          "type": "address"
        }
      ],
      "stateMutability": "view",
      "type": "function"
    },
    {
      "inputs": [
        {
          "components": [
            {
              "internalType": "string",
              "name": "symbol",
              "type": "string"
            },
            {
              "internalType": "enum OptionsVault.OptionType",
              "name": "optionType",
              "type": "uint8"
            },
            {
              "internalType": "uint256",
              "name": "strikeWad",
              "type": "uint256"
            },
            {
              "internalType": "uint256",
              "name": "expiry",
              "type": "uint256"
            },
            {
              "internalType": "uint256",
              "name": "sizeWad",
              "type": "uint256"
            },
            {
              "internalType": "uint256",
              "name": "sigmaWad",
              "type": "uint256"
            }
          ],
          "internalType": "struct OptionsVault.QuoteParams",
          "name": "q",
          "type": "tuple"
        }
      ],
      "name": "quotePremium",
      "outputs": [
        {
          "internalType": "uint256",
          "name": "premiumWad",
          "type": "uint256"
        },
        {
          "components": [
            {
              "internalType": "uint256",
              "name": "premium",
              "type": "uint256"
            },
            {
              "internalType": "int256",
              "name": "delta",
              "type": "int256"
            },
            {
              "internalType": "uint256",
              "name": "gamma",
              "type": "uint256"
            },
            {
              "internalType": "uint256",
              "name": "vega",
              "type": "uint256"
            },
            {
              "internalType": "int256",
              "name": "theta",
              "type": "int256"
            },
            {
              "internalType": "int256",
              "name": "rho",
              "type": "int256"
            }
          ],
          "internalType": "struct BlackScholes.BSMResult",
          "name": "greeks",
          "type": "tuple"
        }
      ],
      "stateMutability": "view",
      "type": "function"
    },
    {
      "inputs": [
        {
          "internalType": "string",
          "name": "symbol",
          "type": "string"
        },
        {
          "internalType": "bytes32",
          "name": "feedId",
          "type": "bytes32"
        }
      ],
      "name": "registerFeed",
      "outputs": [],
      "stateMutability": "nonpayable",
      "type": "function"
    },
    {
      "inputs": [],
      "name": "renounceOwnership",
      "outputs": [],
      "stateMutability": "nonpayable",
      "type": "function"
    },
    {
      "inputs": [],
      "name": "riskFreeRateWad",
      "outputs": [
        {
          "internalType": "uint256",
          "name": "",
          "type": "uint256"
        }
      ],
      "stateMutability": "view",
      "type": "function"
    },
    {
      "inputs": [
        {
          "internalType": "uint256",
          "name": "rateWad",
          "type": "uint256"
        }
      ],
      "name": "setRiskFreeRate",
      "outputs": [],
      "stateMutability": "nonpayable",
      "type": "function"
    },
    {
      "inputs": [
        {
          "internalType": "uint256",
          "name": "",
          "type": "uint256"
        }
      ],
      "name": "supportedSymbols",
      "outputs": [
        {
          "internalType": "string",
          "name": "",
          "type": "string"
        }
      ],
      "stateMutability": "view",
      "type": "function"
    },
    {
      "inputs": [
        {
          "internalType": "address",
          "name": "newOwner",
          "type": "address"
        }
      ],
      "name": "transferOwnership",
      "outputs": [],
      "stateMutability": "nonpayable",
      "type": "function"
    },
    {
      "inputs": [],
      "name": "unpause",
      "outputs": [],
      "stateMutability": "nonpayable",
      "type": "function"
    },
    {
      "inputs": [
        {
          "internalType": "address",
          "name": "token",
          "type": "address"
        },
        {
          "internalType": "uint256",
          "name": "amount",
          "type": "uint256"
        }
      ],
      "name": "withdrawCollateral",
      "outputs": [],
      "stateMutability": "nonpayable",
      "type": "function"
    },
    {
      "inputs": [
        {
          "internalType": "address",
          "name": "token",
          "type": "address"
        },
        {
          "internalType": "address",
          "name": "to",
          "type": "address"
        }
      ],
      "name": "withdrawFees",
      "outputs": [],
      "stateMutability": "nonpayable",
      "type": "function"
    },
    {
      "inputs": [
        {
          "components": [
            {
              "internalType": "string",
              "name": "symbol",
              "type": "string"
            },
            {
              "internalType": "enum OptionsVault.OptionType",
              "name": "optionType",
              "type": "uint8"
            },
            {
              "internalType": "uint256",
              "name": "strikeWad",
              "type": "uint256"
            },
            {
              "internalType": "uint256",
              "name": "expiry",
              "type": "uint256"
            },
            {
              "internalType": "uint256",
              "name": "sizeWad",
              "type": "uint256"
            },
            {
              "internalType": "uint256",
              "name": "sigmaWad",
              "type": "uint256"
            },
            {
              "internalType": "address",
              "name": "collateralToken",
              "type": "address"
            },
            {
              "internalType": "bytes[]",
              "name": "pythUpdateData",
              "type": "bytes[]"
            }
          ],
          "internalType": "struct OptionsVault.WriteParams",
          "name": "wp",
          "type": "tuple"
        },
        {
          "internalType": "uint256",
          "name": "maxPremium",
          "type": "uint256"
        }
      ],
      "name": "writeOption",
      "outputs": [
        {
          "internalType": "uint256",
          "name": "tokenId",
          "type": "uint256"
        },
        {
          "internalType": "uint256",
          "name": "premiumWad",
          "type": "uint256"
        }
      ],
      "stateMutability": "payable",
      "type": "function"
    },
    {
      "inputs": [
        {
          "internalType": "address",
          "name": "",
          "type": "address"
        },
        {
          "internalType": "address",
          "name": "",
          "type": "address"
        }
      ],
      "name": "writerCollateral",
      "outputs": [
        {
          "internalType": "uint256",
          "name": "",
          "type": "uint256"
        }
      ],
      "stateMutability": "view",
      "type": "function"
    },
    {
      "stateMutability": "payable",
      "type": "receive"
    }
  ],
  "bytecode": "0x60c0346101eb57601f617c3738819003918201601f19168301916001600160401b038311848410176101c9578084926060946040528339810103126101eb57610047816101f0565b906040610056602083016101f0565b91015191600160005561006833610204565b6001805460ff60a01b191690556001600160a01b0316608052604051613246808201906001600160401b038211838310176101c95760209183916149f183393081520301906000f09182156101df576100c69260a052600255610204565b6000805260086020527f5eff886ea0ce6ca488a3d6e336d6c0f75f46d19b42c06ce5ee98e42c96d256c7805460ff19166001179055600954680100000000000000008110156101c95760018101806009558110156101b35760096000527f6e1540171b6c0c960b71a7020d9f60077f6af931a8bbf590da0223dacf75c7af0180546001600160a01b03191690556040516147a3908161024e82396080518181816101dd01528181610f6d01528181611edc015281816128260152612d58015260a0518181816114a3015281816118380152818161189201528181611e71015281816126730152612dd90152f35b634e487b7160e01b600052603260045260246000fd5b634e487b7160e01b600052604160045260246000fd5b6040513d6000823e3d90fd5b600080fd5b51906001600160a01b03821682036101eb57565b600180546001600160a01b039283166001600160a01b0319821681179092559091167f8be0079c531659141344cd1fd0a4f28419497f9722a3daafe3b4186f6b6457e0600080a356fe6080604052600436101561001b575b361561001957600080fd5b005b6000803560e01c806302f126e8146129c7578063073112831461298f578063172c48c71461294c5780632418cfbb146127b457806329918899146126b95780632a83ee3a146126975780632bab754b14612653578063332821f514612635578063350c35e9146124f55780633f4ba83a146124515780634766162c1461241457806356a8299c146123df57806358a2180a146123c35780635c975abb1461239d5780636049ea90146122f15780636a146024146122ce578063715018a614612273578063759b1d7b14611dec5780638456cb5914611d8b5780638678d23f14610e625780638da5cb5b14610e3b578063932d68a614610dd457806397feb92614610d1757806399fbab8814610c0d578063b58eb63f14610b45578063b82112fe14610204578063c57470f714610b28578063ce1c0e4d14610a25578063d751a44f146109b7578063e1ea1cf514610914578063e2b93b84146108f7578063eb02c301146106d2578063eef07b951461044d578063f255527814610333578063f2fde38b14610254578063f4c70407146102045763f98d06f0146101be575061000e565b3461020157806003193601126102015760206040516001600160a01b037f0000000000000000000000000000000000000000000000000000000000000000168152f35b80fd5b5034610201576040366003190112610201576001600160a01b0360406102286129ec565b9282610232612a02565b9416815260046020522091166000526020526020604060002054604051908152f35b5034610201576020366003190112610201576001600160a01b036102766129ec565b61027e614019565b1680156102c8576001600160a01b03600154826001600160a01b0319821617600155167f8be0079c531659141344cd1fd0a4f28419497f9722a3daafe3b4186f6b6457e08380a380f35b60405162461bcd60e51b815260206004820152602660248201527f4f776e61626c653a206e6577206f776e657220697320746865207a65726f206160448201527f64647265737300000000000000000000000000000000000000000000000000006064820152608490fd5b50346102015760403660031901126102015761034d6129ec565b6001600160a01b0361035d612a02565b91610366614019565b16808352600360205260408320548015610408578184928352600360205282604081205580156000146103f957508180936402540be400829304905af16103ab6130d4565b50156103b45780f35b60405162461bcd60e51b815260206004820152601f60248201527f5661756c743a204842415220666565207472616e73666572206661696c6564006044820152606490fd5b61040593919250614071565b80f35b60405162461bcd60e51b815260206004820152600e60248201527f5661756c743a206e6f20666565730000000000000000000000000000000000006044820152606490fd5b5034610201576040366003190112610201576004359067ffffffffffffffff8211610201573660238301121561020157816004013567ffffffffffffffff81116106ce57602483019036602482860101116106ca576024356104ad614019565b801561068557604051828482376020818481016006815203019020541561052d575b7f09b7659089786673db414515809f3cf8f9c448294adeac6b94a4a3cff3da807e9394508060405183858237602081858101600681520301902055610521604051938493604085526040850191613111565b9060208301520390a180f35b60075468010000000000000000811015610671578060016105519201600755612a49565b61065d57610569836105638354612a64565b8361321c565b84601f84116001146105d35783806105ba9288997f09b7659089786673db414515809f3cf8f9c448294adeac6b94a4a3cff3da807e99926105c5575b50508160011b916000199060031b1c19161790565b90555b8493506104cf565b6024925001013538806105a5565b601f198416968287526020872091875b8981106106425750857f09b7659089786673db414515809f3cf8f9c448294adeac6b94a4a3cff3da807e989910610625575b505050600183811b0190556105bd565b0160240135600019600386901b60f8161c19169055388080610615565b909260206001819260248787010135815501940191016105e3565b634e487b7160e01b85526004859052602485fd5b634e487b7160e01b85526041600452602485fd5b60405162461bcd60e51b815260206004820152601260248201527f5661756c743a207a65726f2066656564496400000000000000000000000000006044820152606490fd5b8280fd5b5080fd5b503461020157602036600319011261020157806040516106f181612ad0565b81815281602082015260408101606090528160608201528160808201528160a08201528160c08201528160e082015281610100820152816101208201528161014082015281610160820152816101808201526101a00152600435815260056020526040902060405161076281612ad0565b815481526001820154602082019081529161077f60028201612b0f565b9060408301918252600381015460ff1691606084019261079e81612bfb565b835260048201549160808501928352600581015460a08601908152600682015460c08701908152600783015460e0880190815260088401546001600160a01b031690610100890191825260098501546001600160a01b0316926101208a01938452600a8601546001600160a01b0316946101408b01958652600b870154966101608c01978852600c0154986101808c01986001600160a01b038b168a526101a08d019a60a01c60ff1615158b52604051809e819e602083525160208301525190604001525160608d016101c090526101e08d0161087a91612bd6565b9a5161088581612bfb565b60808d01525160a08c01525160c08b01525160e08a015251610100890152516001600160a01b0316610120880152516001600160a01b0316610140870152516001600160a01b031661016086015251610180850152516001600160a01b03166101a08401525115156101c08301520390f35b5034610201578060031936011261020157602060405161016d8152f35b503461020157602036600319011261020157600435610931614019565b6706f05b59d3b200008111610972576020817fe354ae042550a3c46f95e816e18e02cc106e9507ca5ce4a2f41a4a9ee9d9e8e992600255604051908152a180f35b60405162461bcd60e51b815260206004820152601160248201527f5661756c743a2072617465203e203530250000000000000000000000000000006044820152606490fd5b5034610201576020366003190112610201576004359067ffffffffffffffff82116102015736602383011215610201576020610a12816109ff36600487013560248801612c37565b8160405193828580945193849201612bb3565b8101600681520301902054604051908152f35b503461020157806003193601126102015760075467ffffffffffffffff8111610b1457604051610a5b60208360051b0182612aed565b818152600783526020810191837fa66cc928b5edb82af9bd49922954155ab7b0942694bea4ce44661d9a8736c688845b838310610af757868587604051928392602084019060208552518091526040840160408260051b8601019392905b828210610ac857505050500390f35b91936001919395506020610ae78192603f198a82030186528851612bd6565b9601920192018594939192610ab9565b600160208192610b0685612b0f565b815201920192019190610a8b565b634e487b7160e01b82526041600452602482fd5b50346102015780600319360112610201576020604051610e108152f35b503461020157806003193601126102015760405180602060095491828152018091600985527f6e1540171b6c0c960b71a7020d9f60077f6af931a8bbf590da0223dacf75c7af90855b818110610bee5750505082610ba4910383612aed565b604051928392602084019060208552518091526040840192915b818110610bcc575050500390f35b82516001600160a01b0316845285945060209384019390920191600101610bbe565b82546001600160a01b0316845260209093019260019283019201610b8e565b50346102015760203660031901126102015760043581526005602052604090208054600182015491610c4160028201612b0f565b600382015460ff1691600481015460058201546006830154600784015460088501546001600160a01b03169160098601546001600160a01b031693600a8701546001600160a01b031695600b88015497600c0154986040519c8d9c8d5260208d015260408c016101c090526101c08c01610cba91612bd6565b99610cc481612bfb565b60608c015260808b015260a08a015260c089015260e08801526101008701526101208601526101408501526101608401526001600160a01b03811661018084015260a01c60ff1615156101a08301520390f35b503461020157604036600319011261020157610d316129ec565b6001600160a01b0360243591610d4561326e565b1690818352600860205260ff60408420541615610dc057610d6881303385614133565b338352600460205260408320826000526020526040600020610d8b828254613104565b90556040519081527ff1c0dd7e9b98bbff859029005ef89b127af049cd18df1a8d79f0b7e019911e5660203392a36001815580f35b632762993f60e11b83526004829052602483fd5b5034610201576020366003190112610201576004356007548110156106ce57610dfc90612a49565b919091610e2757610e23610e0f83612b0f565b604051918291602083526020830190612bd6565b0390f35b634e487b7160e01b81526004819052602490fd5b503461020157806003193601126102015760206001600160a01b0360015416604051908152f35b506040366003190112610201576004359067ffffffffffffffff821161020157610100600319833603011261020157602435610e9c61326e565b610ea46140ad565b6020610eb3600485018061304b565b9190826040519384928337810160068152030190205415611d56576001600160a01b03610ee260c485016131fb565b168252600860205260ff60408320541615611d2f57608483013515611d2057604483013515611d1157610e104201804211611cfd576301e13380420190814211611ce957606485013510611cd25780606485013511611cb7575082610f63610f5e610f57610fbd95966004018460040161304b565b3691612c37565b613456565b6001600160a01b037f0000000000000000000000000000000000000000000000000000000000000000168560e484016020610fa182876004016131c5565b60405163d47eed4560e01b8152998a9283929060048401613132565b0381865afa968715611c73578297611c7e575b50610fde90856004016131c5565b90833b156106ca57604051631df3cbc560e31b815291839183918291611008919060048401613132565b03818a875af18015611c7357611c5e575b505060806044916040519283809263052571af60e51b8252866004830152603c60248301525afa801561197c57611065918791611c2f575b506040815160070b91015160030b906132d2565b60025461107e61107942606487013561307e565b6134a6565b600260248601351015611c2b57670de0b6b3a764000091611115916110a66024880135612bfb565b6110b660ff602489013516612bfb565b604051916110c383612a9e565b8583526044880135602084015260a48801356040840152606083015260808201526110f460ff602488013516612bfb565b60ff60248701351660a082015261110f608487013591613699565b516130a1565b0493808511611c1457506111449061112f60c485016131fb565b50608484013560448501356024860135614101565b933386526004602052604086206001600160a01b0361116560c486016131fb565b16600052602052604060002054858110611bfd57503386526004602052604086206001600160a01b0361119a60c486016131fb565b1660005260205260406000206111b186825461307e565b9055660aa87bee5380008402848104660aa87bee5380001485151715611be957670de0b6b3a76400009004906111e7828661307e565b906001600160a01b036111fc60c487016131fb565b16611b5b576402540be40034023481046402540be4001434151715611b47576402540be4008202918083046402540be4001490151715611b47576112408783613104565b8110611b02578187611253818c95613104565b8311611a7b575b505050503387526004602052611280604080892060009081805260205220918254613104565b9055858052600360205260408620611299828254613104565b90555b7f06c5efeff5c320943d265dc4e5f1af95ad523555ce0c1957e367dda5514572df60206001600160a01b036112d360c487016131fb565b1692604051908152a26112e9600483018061304b565b94906112f86024850135612bfb565b61130860ff602486013516612bfb565b61131460c485016131fb565b90604051968761018081011067ffffffffffffffff6101808a011117611a67576001600160a01b039291611354916101808a01604052868a523691612c37565b602088015261136960ff602487013516612bfb565b60ff60248601351660408801526044850135606088015260648501356080880152608485013560a08801528560c08801523360e08801521661010086015285610120860152856101408601524261016086015260206040518080976325d4a65b60e01b825233600483015260406024830152805160448301526101606113ff8583015161018060648601526101c4850190612bd6565b91604081015161140e81612bfb565b6084850152606081015160a4850152608081015160c485015260a081015160e485015260c08101516101048501526001600160a01b0360e0820151166101248501526001600160a01b03610100820151166101448501526001600160a01b036101208201511661016485015261148e61014082015161018486019061320f565b01516101a48301520381896001600160a01b037f0000000000000000000000000000000000000000000000000000000000000000165af194851561197c578695611a2e575b506001600160a01b036115176114ec600486018061304b565b91906114fa60c488016131fb565b926040519661150888612ad0565b8a885260208801523691612c37565b60408501526115296024860135612bfb565b6024850135606085015260448501356080850152606485013560a0850152608485013560c08501528560e085015233610100850152336101208501521661014083015261016082015284610180820152846101a08201528385526005602052604085208151815560208201516001820155604082015180519067ffffffffffffffff8211611a1a576115cb826115c26002860154612a64565b6002860161321c565b602090601f83116001146119a85782600c936101a09593611601938c9261199d5750508160011b916000199060031b1c19161790565b60028201555b60038101606085015161161981612bfb565b61162281612bfb565b60ff801983541691161790556080840151600482015560a0840151600582015560c0840151600682015560e084015160078201556001600160a01b03610100850151166001600160a01b036008830191166001600160a01b03198254161790556001600160a01b03610120850151166001600160a01b036009830191166001600160a01b03198254161790556001600160a01b03610140850151166001600160a01b03600a830191166001600160a01b0319825416179055610160840151600b82015501916001600160a01b038061018083015116166001600160a01b03198454161783550151151560ff60a01b1974ff000000000000000000000000000000000000000083549260a01b1691161790558380604051625e24dd60e31b602082015285602482015260248152611759604482612aed565b6040516117b0816117a26020820194630deb7fbd60e31b865230602484015260648901356044840152620493e0606484015286608484015260a060a484015260c4830190612bd6565b03601f198101835282612aed565b51908261016b5af16117c06130d4565b9015611992576040818051810103126119785760406117e160208301612c6e565b910151906001600160a01b03821680920361198e5760169060070b5b60070b03611987575b8385526005602052600c60408620016001600160a01b0382166001600160a01b03198254161790556001600160a01b037f0000000000000000000000000000000000000000000000000000000000000000163b15611978576001600160a01b036040519163710b7c2f60e01b835285600484015216908160248201528581604481836001600160a01b037f0000000000000000000000000000000000000000000000000000000000000000165af1801561197c57611963575b50936118ef8260409660646118dc6001966004018460040161304b565b94908a519560e0875260e0870191613111565b926118fd6024820135612bfb565b6024810135602086015260448101358a86015260848101356060860152013560808401528560a084015260c0830152857ff71390c9ff0d8745cbbe26f8658f1259edfc5405bafb12e4bcdc3718492ab00a33938033940390a45582519182526020820152f35b61196e868092612aed565b61197857386118bf565b8480fd5b6040513d88823e3d90fd5b5083611806565b8580fd5b5083601660156117fd565b0151905038806105a5565b9060028401895280892091895b601f1985168110611a025750926101a09492600192600c9583601f198116106119e9575b505050811b016002820155611607565b015160001960f88460031b161c191690553880806119d9565b919260206001819286850151815501940192016119b5565b634e487b7160e01b88526041600452602488fd5b9094506020813d602011611a5f575b81611a4a60209383612aed565b81010312611a5a575193386114d3565b600080fd5b3d9150611a3d565b634e487b7160e01b89526041600452602489fd5b611a8e611a93926402540be4009461307e565b61307e565b0480611aa1575b808761125a565b81808092335af1611ab06130d4565b5015611abd578638611a9a565b60405162461bcd60e51b815260206004820152601960248201527f5661756c743a204842415220726566756e64206661696c6564000000000000006044820152606490fd5b60405162461bcd60e51b815260206004820152601860248201527f5661756c743a20696e73756666696369656e74204842415200000000000000006044820152606490fd5b634e487b7160e01b89526011600452602489fd5b50611b7e856001600160a01b03611b7460c488016131fb565b1630903390614133565b3387526004602052604087206001600160a01b03611b9e60c487016131fb565b16600052602052611bb56040600020918254613104565b90556001600160a01b03611bcb60c485016131fb565b168652600360205260408620611be2828254613104565b905561129c565b634e487b7160e01b87526011600452602487fd5b632c1f8ef160e21b87526004869052602452604486fd5b632f06628b60e01b87526004859052602452604486fd5b8780fd5b611c51915060803d608011611c57575b611c498183612aed565b810190612c7c565b38611051565b503d611c3f565b81611c6891612aed565b61198e578538611019565b6040513d84823e3d90fd5b915095506020813d602011611caf575b81611c9b60209383612aed565b81010312611a5a5751948690610fde610fd0565b3d9150611c8e565b90506064604493632368fc7760e11b84520135600452602452fd5b63ef855aef60e01b83526064840135600452602483fd5b634e487b7160e01b84526011600452602484fd5b634e487b7160e01b83526011600452602483fd5b63134b031b60e31b8252600482fd5b630ffd11ad60e01b8252600482fd5b506001600160a01b03611d4660c4602494016131fb565b632762993f60e11b835216600452fd5b611d63600484018061304b565b611d876040519283926306fad28d60e31b8452602060048501526024840191613111565b0390fd5b5034610201578060031936011261020157611da4614019565b611dac6140ad565b600160a01b60ff60a01b1960015416176001557f62e78cea01bee320cd4e420270b5ea74000d11b0c9f74754ebdbfc544b05a2586020604051338152a180f35b5060403660031901126102015760243560043567ffffffffffffffff82116106ca57366023830112156106ca57816004013567ffffffffffffffff811161226f576024830192602436918360051b01011161226f57611e4961326e565b81845260056020526040842092600c84019160ff835460a01c1661225b576001600160a01b037f000000000000000000000000000000000000000000000000000000000000000016916040516331a9108f60e11b8152856004820152602081602481875afa90811561225057889161220e575b506001600160a01b03339116036121f65760405163d47eed4560e01b81527f00000000000000000000000000000000000000000000000000000000000000006001600160a01b031692889160208180611f19858860048401613132565b0381885afa9081156121eb5783916121b9575b50843b156106ca57604051631df3cbc560e31b815293849283918291611f559160048401613132565b0391865af180156121ae5761219a575b506080600186015460446040518094819363052571af60e51b83526004830152603c60248301525afa801561197c57611fb2918791611c2f57506040815160070b91015160030b906132d2565b93611fbd85826133ae565b835460ff60a01b1916600160a01b17909355821580159287916121935760015b813b156106ca5761200e60448492836040519586948593633625b75960e21b85528d6004860152602485019061320f565b5af18015611c735761217e575b50508161202c84600b84015461307e565b80612137575b506120a9575b50156120775760405192835260208301527f0d6bb44fa70c7c0ae5c2c12bd210c4a9d4f91e262e7fee1bff7efb4896d3b4d660403393a35b6001815580f35b5090507f04c168839fc9657badb834a2ffa05b1fd2183137d236eca931aab0710c8b33fe6020604051848152a2612070565b600a01546001600160a01b031682816121275786808093506402540be400819304335af16120d56130d4565b50156120e2575b38612038565b60405162461bcd60e51b815260206004820152601960248201527f5661756c743a2048424152207061796f7574206661696c6564000000000000006044820152606490fd5b612132913390614071565b6120dc565b6001600160a01b0360088401541688526004602052604088206001600160a01b0380600a86015416166000526020526121766040600020918254613104565b905538612032565b8161218891612aed565b61198e57853861201b565b6002611fdd565b866121a791979297612aed565b9438611f65565b6040513d89823e3d90fd5b90506020813d6020116121e3575b816121d460209383612aed565b810103126106ca575138611f2c565b3d91506121c7565b6040513d85823e3d90fd5b63f73513f160e01b8752600485905233602452604487fd5b90506020813d602011612248575b8161222960209383612aed565b81010312611c2b57516001600160a01b0381168103611c2b5738611ebc565b3d915061221c565b6040513d8a823e3d90fd5b634734d18760e01b86526004849052602486fd5b8380fd5b503461020157806003193601126102015761228c614019565b806001600160a01b036001546001600160a01b03198116600155167f8be0079c531659141344cd1fd0a4f28419497f9722a3daafe3b4186f6b6457e08280a380f35b50346102015780600319360112610201576020604051670de0b6b3a76400008152f35b50806003193601126102015761230561326e565b3415612358576402540be40034023481046402540be4000361234457819033825260046020526040822082805260205260408220610d8b828254613104565b634e487b7160e01b82526011600452602482fd5b60405162461bcd60e51b815260206004820152601360248201527f5661756c743a207a65726f206465706f736974000000000000000000000000006044820152606490fd5b5034610201578060031936011261020157602060ff60015460a01c166040519015158152f35b50346102015780600319360112610201576020604051603c8152f35b50346102015760403660031901126102015761240c602091600435815260058352604060243591206133ae565b604051908152f35b50346102015760203660031901126102015760ff60406020926001600160a01b0361243d6129ec565b168152600884522054166040519015158152f35b503461020157806003193601126102015761246a614019565b60015460ff8160a01c16156124b05760ff60a01b19166001557f5db9ee0a495bf2e6ff9c91a7834c1ba4fdd244a5e8aa4e537bd38aeae4b073aa6020604051338152a180f35b60405162461bcd60e51b815260206004820152601460248201527f5061757361626c653a206e6f74207061757365640000000000000000000000006044820152606490fd5b50346102015760403660031901126102015761250f6129ec565b6024359061251b61326e565b3383526004602052604083206001600160a01b0382168452602052604083205482811061261e57506001600160a01b039033845260046020526040842082821685526020526040842061256f84825461307e565b905516908161260e57828080806402540be4008504335af161258f6130d4565b50156125c9575b6040519081527f45892a46e6cef329bb642da6d69846d324db43d19008edc141ed82382eda1bee60203392a36001815580f35b60405162461bcd60e51b815260206004820152601b60248201527f5661756c743a2048424152207472616e73666572206661696c656400000000006044820152606490fd5b612619813384614071565b612596565b632c1f8ef160e21b84526004839052602452604483fd5b50346102015780600319360112610201576020600254604051908152f35b503461020157806003193601126102015760206040516001600160a01b037f0000000000000000000000000000000000000000000000000000000000000000168152f35b50346102015780600319360112610201576020604051660aa87bee5380008152f35b5034610201576020366003190112610201576001600160a01b036126db6129ec565b6126e3614019565b16801561276f57808252600860205260ff60408320541615612703575080f35b808252600860205260408220805460ff191660011790556009546801000000000000000081101561275b5780600161273e9201600955612a18565b6001600160a01b03829392549160031b92831b921b191617905580f35b634e487b7160e01b83526041600452602483fd5b60405162461bcd60e51b815260206004820152601e60248201527f5661756c743a20757365206164647265737328302920666f72204842415200006044820152606490fd5b50346102015760203660031901126102015760043567ffffffffffffffff81116106ce578060040160c060031983360301126106ca57610f5e610f57612803926127fc61301a565b508061304b565b604051906396834ad360e01b825260048201526080816024816001600160a01b037f0000000000000000000000000000000000000000000000000000000000000000165afa80156121eb5761286c918491611c2f57506040815160070b91015160030b906132d2565b916002549061288261107942606486013561307e565b90602484013590600282101561020157506128ff60e09560a094670de0b6b3a76400009460ff856128b561290d97612bfb565b16916128c083612bfb565b604051936128cd85612a9e565b84526044890135602085015260a48901356040850152606084015260808301526128f681612bfb565b85820152613699565b9360848551910135906130a1565b049160405192835280516020840152602081015160408401526040810151606084015260608101516080840152608081015182840152015160c0820152f35b503461020157602036600319011261020157600435906009548210156102015760206001600160a01b0361297f84612a18565b90549060031b1c16604051908152f35b50346102015760203660031901126102015760406020916001600160a01b036129b66129ec565b168152600383522054604051908152f35b5034610201576020366003190112610201576129e161326e565b612070600435612cf1565b600435906001600160a01b0382168203611a5a57565b602435906001600160a01b0382168203611a5a57565b600954811015612a3357600960005260206000200190600090565b634e487b7160e01b600052603260045260246000fd5b600754811015612a3357600760005260206000200190600090565b90600182811c92168015612a94575b6020831014612a7e57565b634e487b7160e01b600052602260045260246000fd5b91607f1691612a73565b60c0810190811067ffffffffffffffff821117612aba57604052565b634e487b7160e01b600052604160045260246000fd5b6101c0810190811067ffffffffffffffff821117612aba57604052565b90601f8019910116810190811067ffffffffffffffff821117612aba57604052565b9060405191826000825492612b2384612a64565b8084529360018116908115612b915750600114612b4a575b50612b4892500383612aed565b565b90506000929192526020600020906000915b818310612b75575050906020612b489282010138612b3b565b6020919350806001915483858901015201910190918492612b5c565b905060209250612b4894915060ff191682840152151560051b82010138612b3b565b60005b838110612bc65750506000910152565b8181015183820152602001612bb6565b90602091612bef81518092818552858086019101612bb3565b601f01601f1916010190565b60021115612c0557565b634e487b7160e01b600052602160045260246000fd5b67ffffffffffffffff8111612aba57601f01601f191660200190565b929192612c4382612c1b565b91612c516040519384612aed565b829481845281830111611a5a578281602093846000960137010152565b51908160070b8203611a5a57565b90816080910312611a5a576040519060006080830167ffffffffffffffff811184821017610b1457604052612cb082612c6e565b8352602082015167ffffffffffffffff811681036106ce5760208401526040820151908160030b820361020157509060609160408401520151606082015290565b61016b33148015613006575b15612fc15760009080825260056020526040822091600c83019060ff825460a01c16612fbb576005840154804210612fa357506001840154604051906396834ad360e01b825260048201526080816024816001600160a01b037f0000000000000000000000000000000000000000000000000000000000000000165afa908115611c735790612da0918391611c2f57506040815160070b91015160030b906132d2565b93612dab85826133ae565b91821580159290612f8f576001600160a01b03600982015416945b805460ff60a01b1916600160a01b1790557f00000000000000000000000000000000000000000000000000000000000000006001600160a01b03168315612f87576001905b803b1561226f57612e3d916044898680946040519687958694633625b75960e21b86526004860152602485019061320f565b5af180156121eb579186918693612f73575b5084612e5f84600b84015461307e565b80612f2c575b50612ee3575b50505050600014612eb2576001600160a01b037f0d6bb44fa70c7c0ae5c2c12bd210c4a9d4f91e262e7fee1bff7efb4896d3b4d692604092835196875260208701521693a3565b505090507f04c168839fc9657badb834a2ffa05b1fd2183137d236eca931aab0710c8b33fe602060405160018152a2565b600a01546001600160a01b031680612f1d57505081806402540be400819304875af1612f0d6130d4565b50156120e2575b38828482612e6b565b612f279350614071565b612f14565b6001600160a01b0360088401541686526004602052604086206001600160a01b0380600a8601541616600052602052612f6b6040600020918254613104565b905538612e65565b84612f8091959295612aed565b9238612e4f565b600290612e0b565b6001600160a01b0360088201541694612dc6565b6323af3e9f60e01b8252600484905260245260449150fd5b50505050565b60405162461bcd60e51b815260206004820152601860248201527f5661756c743a206f6e6c7920485353206f72206f776e657200000000000000006044820152606490fd5b506001600160a01b03600154163314612cfd565b6040519061302782612a9e565b600060a0838281528260208201528260408201528260608201528260808201520152565b903590601e1981360301821215611a5a570180359067ffffffffffffffff8211611a5a57602001918136038313611a5a57565b9190820391821161308b57565b634e487b7160e01b600052601160045260246000fd5b8181029291811591840414171561308b57565b81156130be570490565b634e487b7160e01b600052601260045260246000fd5b3d156130ff573d906130e582612c1b565b916130f36040519384612aed565b82523d6000602084013e565b606090565b9190820180921161308b57565b908060209392818452848401376000828201840152601f01601f1916010190565b9180602084016020855252604083019060408160051b8501019383600091601e1982360301905b84841061316a575050505050505090565b90919293949596603f19828203018752873583811215611a5a578401906020823592019167ffffffffffffffff8111611a5a578036038313611a5a576131b66020928392600195613111565b99019701959401929190613159565b903590601e1981360301821215611a5a570180359067ffffffffffffffff8211611a5a57602001918160051b36038313611a5a57565b356001600160a01b0381168103611a5a5790565b906003821015612c055752565b601f821161322957505050565b6000526020600020906020601f840160051c83019310613264575b601f0160051c01905b818110613258575050565b6000815560010161324d565b9091508190613244565b60026000541461327f576002600055565b60405162461bcd60e51b815260206004820152601f60248201527f5265656e7472616e637947756172643a207265656e7472616e742063616c6c006044820152606490fd5b604d811161308b57600a0a90565b60070b9060008213156133695760030b6000811261332157906132f76132fd926132c4565b906130a1565b670de0b6b3a7640000810290808204670de0b6b3a7640000149015171561308b5790565b637fffffff19811461308b5761333c9060000360030b6132c4565b670de0b6b3a7640000820291808304670de0b6b3a7640000149015171561308b57613366916130b4565b90565b60405162461bcd60e51b815260206004820152601360248201527f46504d3a206e65676174697665207072696365000000000000000000000000006044820152606490fd5b6003810154600093929060ff166133c481612bfb565b61341b576004820154908181116133ec575b5050600b905b01548083116133e85750565b9150565b600b929450613407670de0b6b3a7640000926134129261307e565b6006860154906130a1565b049290386133d6565b6004820154818111613432575b5050600b906133dc565b600b929450613407670de0b6b3a76400009261344d9261307e565b04929038613428565b90604051602081845161346c8183858901612bb3565b81016006815203019020549182156134815750565b6040516306fad28d60e31b815260206004820152908190611d87906024830190612bd6565b670de0b6b3a7640000810290808204670de0b6b3a7640000149015171561308b576301e13380900490565b90670de0b6b3a763ffff19820191821360011661308b57565b90600082670de0b6b3a7640000039212670de0b6b3a76400008312811690670de0b6b3a764000084139015161761308b57565b8181039291600013801582851316918412161761308b57565b600160ff1b811461308b5760000390565b81156130be57600160ff1b811460001983141661308b570590565b90670de0b6b3a7640000820291808305670de0b6b3a7640000149015171561308b57565b9067099e8db03256ce5d82029180830567099e8db03256ce5d149015171561308b57565b9067058953e3ed36306682029180830567058953e3ed363066149015171561308b57565b818102929160008212600160ff1b82141661308b57818405149015171561308b57565b906004820191600060048412911290801582169115161761308b57565b906003820191600060038412911290801582169115161761308b57565b906002820191600060028412911290801582169115161761308b57565b906001820191600060018412911290801582169115161761308b57565b9081670de0b6b3a76400000191821260011661308b57565b9190916000838201938412911290801582169115161761308b57565b906136a261301a565b90825115613fd457602083015115613f8f57604083015115613f4a57608083015115613f05576040516060810181811067ffffffffffffffff821117612aba576040526000815260208101906000825260006040820152670de0b6b3a764000061371c6137126080880151614584565b60408801516135ce565b05604082015284516020860151670de0b6b3a7640000820291808304670de0b6b3a7640000149015171561308b57613753916130b4565b916000831315613ec0576000836806f05b59d3b20000009485811215613eb2575b5060009467de0b6b3a7640000080831215613e9d575b676f05b59d3b20000080841215613e88575b673782dace9d9000009182851215613e73575b671bc16d674ec800009384861215613e5e575b670de0b6b3a76400008612613e43575b670de0b6b3a76400008612613e28575b670de0b6b3a76400008612613e0d575b670de0b6b3a76400008612613ddf575b851215613dba575b841215613da5575b831215613d90575b821215613d7b575b811215613d68575b613833816134d1565b670de0b6b3a764000082019186670de0b6b3a764000084129112908015821691151617613cca5761386390613562565b9061386d91613547565b61387781806135ce565b670de0b6b3a76400009005808080846138918280976135ce565b670de0b6b3a7640000900590600382056138aa9161367d565b916138b4916135ce565b670de0b6b3a7640000900590600582056138cd9161367d565b916138d7916135ce565b670de0b6b3a7640000900590600782056138f09161367d565b916138fa916135ce565b670de0b6b3a7640000900590600982056139139161367d565b9161391d916135ce565b670de0b6b3a7640000900590600b82056139369161367d565b91613940916135ce565b670de0b6b3a76400009005600d90056139589161367d565b908160011b9180830560021490151715613d54579061397961397e92613586565b61367d565b670de0b6b3a76400006139b56139aa60028361399e60408d0151806130a1565b040560608b015161367d565b60808a0151906135ce565b0584604085015113600014613d49576139d46139e7916139f59361367d565b6139e2604086015191613562565b613547565b80845260408401519061351d565b815285613a0c613a058451614174565b9251614174565b92613a16836134ea565b85613a20866134ea565b92670de0b6b3a7640000613a5c613a52613a4d83613a4760608b015160808c0151906135ce565b05613536565b614350565b60208801516135ce565b059a8b9681519c8d958760a0850151613a7481612bfb565b613a7d81612bfb565b613d1057505050613ab5670de0b6b3a7640000613a9a83886135ce565b05670de0b6b3a7640000613aae8c8c6135ce565b059061351d565b84811315613d09575b8c525b8b835180613ace916135ce565b670de0b6b3a76400009005613ae290613536565b60029005613aef90614350565b613af8906135aa565b670de0b6b3a7640000900593849260a0850151613b1481612bfb565b613b1d81612bfb565b1560001497670de0b6b3a7640000613bb998613b8b829b99613b856080613bad9b60649a879e613b6260408a9d613b939d8c94613cfb575b602086015201518b6135ce565b0587811315613cf157613b7a6040916139e288613562565b915b01520151614584565b946135ce565b9050056135ce565b050460608d0152613ba76080880151614584565b9c6135ce565b056040850151906135ce565b0585891315613cde578860011b9860028a0503613cca57613c35613bef613bea6064999a9b6139e261016d95613562565b613536565b60a0850151613bfd81612bfb565b613c0681612bfb565b613ca757613c2f670de0b6b3a7640000613a478982613c298b60608c01516135ce565b056135ce565b9061367d565b05608089015260a0820151613c4981612bfb565b613c5281612bfb565b613c80575091670de0b6b3a7640000613c29613c7493608083960151906135ce565b05905b500560a0830152565b613ca19350670de0b6b3a7640000613c2981946080613a47950151906135ce565b90613c77565b670de0b6b3a7640000613cc38582613c298a60608b01516135ce565b059061367d565b634e487b7160e01b86526011600452602486fd5b5060649596975061016d613c3586613bef565b5060408791613b7c565b613d04906134d1565b613b55565b5083613abe565b613aae670de0b6b3a7640000613d2a8193613d32966135ce565b0592896135ce565b84811315613d42575b8c52613ac1565b5083613d3b565b50506139f5836139e7565b634e487b7160e01b85526011600452602485fd5b613d759060011d91613648565b9061382a565b9190613d8a9060021d9161362b565b91613822565b9291613d9f9060031d9261360e565b9261381a565b9392613db49060041d936135f1565b93613812565b949360071d93600781019089600783129112908015821691151617611b47579461380a565b95600195861b95600019820191821316613df95795613802565b634e487b7160e01b8a52601160045260248afd5b959460021b946001198101908113600116613df957956137f2565b959460041b946003198101908113600116613df957956137e2565b959460071b946006198101908113600116613df957956137d2565b9594613e6d9060011d95613648565b956137c2565b9493613e829060021d9461362b565b946137af565b9392613e979060031d9361360e565b9361379c565b9291613eac9060041d926135f1565b9261378a565b60079250821d905038613774565b60405162461bcd60e51b815260206004820152600d60248201527f46504d3a206c6e28783c3d3029000000000000000000000000000000000000006044820152606490fd5b60405162461bcd60e51b815260206004820152600760248201527f42533a20543d30000000000000000000000000000000000000000000000000006044820152606490fd5b60405162461bcd60e51b815260206004820152600b60248201527f42533a207369676d613d300000000000000000000000000000000000000000006044820152606490fd5b60405162461bcd60e51b815260206004820152600c60248201527f42533a20737472696b653d3000000000000000000000000000000000000000006044820152606490fd5b60405162461bcd60e51b815260206004820152600a60248201527f42533a2073706f743d30000000000000000000000000000000000000000000006044820152606490fd5b6001600160a01b0360015416330361402d57565b606460405162461bcd60e51b815260206004820152602060248201527f4f776e61626c653a2063616c6c6572206973206e6f7420746865206f776e65726044820152fd5b612b48926001600160a01b036040519363a9059cbb60e01b60208601521660248401526044830152604482526140a8606483612aed565b6145ae565b60ff60015460a01c166140bc57565b60405162461bcd60e51b815260206004820152601060248201527f5061757361626c653a20706175736564000000000000000000000000000000006044820152606490fd5b90670de0b6b3a764000093929161411781612bfb565b6141295750614125916130a1565b0490565b61412592506130a1565b9091926001600160a01b03612b489481604051956323b872dd60e01b60208801521660248601521660448401526064830152606482526140a8608483612aed565b600090676f05b59d3b20000081121561434257676f05b59d3b1fffff1981131561433e578181129081614330575b80670336f514ac98b80002670336f514ac98b80081058203611ce9576141d4670de0b6b3a76400006141e99205613665565b6ec097ce7bc90715b34b9f1000000000613547565b671276158b8a54a2008102818105671276158b8a54a2001482151715613d5457670de0b6b3a764000090058067194666a99dbf23ff190190811215600116613d545761423e670de0b6b3a764000091836135ce565b05806718b914beba14aa0001908112600116613d5457614267670de0b6b3a764000091836135ce565b05806704f2c4dedde13bff190190811215600116613d5457614292670de0b6b3a764000091836135ce565b05908167046eabcf3378840001918212600116613d54576142f092670de0b6b3a7640000613c296142e560026142df84613a47818d6142d5829c6142ea9c6135ce565b90500597806135ce565b05614350565b6135aa565b056134ea565b91808312614328575b670de0b6b3a76400008313614318575b501561336657613366906134ea565b670de0b6b3a76400009250614309565b9150816142f9565b61433990613536565b6141a2565b5090565b5050670de0b6b3a764000090565b68023f2fa8f6da5b9d281981131561457e57680755bf798b4a1bf1e5811215614559576143856704cf46d8192b672e8261367d565b67099e8db03256ce5d90059061439a82613586565b6143a39161351d565b8080808080808080806143b581613665565b6143bf82806135ce565b670de0b6b3a764000090056002900590816143d99161367d565b916143e3916135ce565b670de0b6b3a764000090056003900590816143fd9161367d565b91614407916135ce565b670de0b6b3a764000090056004900590816144219161367d565b9161442b916135ce565b670de0b6b3a764000090056005900590816144459161367d565b9161444f916135ce565b670de0b6b3a764000090056006900590816144699161367d565b91614473916135ce565b670de0b6b3a7640000900560079005908161448d9161367d565b91614497916135ce565b670de0b6b3a764000090056008900590816144b19161367d565b916144bb916135ce565b670de0b6b3a764000090056009900590816144d59161367d565b916144df916135ce565b670de0b6b3a76400009005600a900590816144f99161367d565b91614503916135ce565b670de0b6b3a76400009005600b9005908161451d9161367d565b91614527916135ce565b670de0b6b3a76400009005600c900561453f9161367d565b906000811261454c571b90565b61455590613536565b1d90565b507f7fffffffffffffffffffffffffffffffffffffffffffffffffffffffffffffff90565b50600090565b670de0b6b3a7640000810290808204670de0b6b3a7640000149015171561308b57613366906146b4565b6001600160a01b036146119116916040926000808551936145cf8786612aed565b602085527f5361666545524332303a206c6f772d6c6576656c2063616c6c206661696c6564602086015260208151910182855af161460b6130d4565b916146fd565b8051908115918215614691575b5050156146285750565b5162461bcd60e51b815260206004820152602a60248201527f5361666545524332303a204552433230206f7065726174696f6e20646964206e60448201527f6f742073756363656564000000000000000000000000000000000000000000006064820152608490fd5b8192509060209181010312611a5a57602001518015158103611a5a57388061461e565b9081156146f757818060011c6001810180911161308b57905b8382106146d8575050565b9092506146ee836146e981846130b4565b613104565b60011c906146cd565b60009150565b9192901561475f5750815115614711575090565b3b1561471a5790565b60405162461bcd60e51b815260206004820152601d60248201527f416464726573733a2063616c6c20746f206e6f6e2d636f6e74726163740000006044820152606490fd5b8251909150156147725750805190602001fd5b60405162461bcd60e51b815260206004820152908190611d87906024830190612bd656fea164736f6c634300081a000a608060405234610365576132466020813803918261001c8161036a565b93849283398101031261036557516001600160a01b038116810361036557610044604061036a565b90601382527f486564657261204f7074696f6e20546f6b656e000000000000000000000000006020830152610079604061036a565b60048152631213d41560e21b602082015282519091906001600160401b03811161027057600054600181811c9116801561035b575b602082101461025057601f81116102f7575b506020601f82116001146102915781929394600092610286575b50508160011b916000199060031b1c1916176000555b8151916001600160401b03831161027057600154600181811c91168015610266575b602082101461025057601f81116101eb575b50602090601f841160011461017f57610165939160009183610174575b50508160011b916000199060031b1c1916176001555b6101603361038f565b61038f565b604051612e6d90816103d98239f35b015190503880610141565b90601f198416916001600052816000209260005b8181106101d357509160019391866101659794106101ba575b505050811b01600155610157565b015160001960f88460031b161c191690553880806101ac565b92936020600181928786015181550195019301610193565b60016000527fb10e2d527612073b26eecdfd717e6a320cf44b4afac2b0732d9fcbe2b7fa0cf6601f850160051c81019160208610610246575b601f0160051c01905b81811061023a5750610124565b6000815560010161022d565b9091508190610224565b634e487b7160e01b600052602260045260246000fd5b90607f1690610112565b634e487b7160e01b600052604160045260246000fd5b0151905038806100da565b601f1982169060008052806000209160005b8181106102df575095836001959697106102c6575b505050811b016000556100f0565b015160001960f88460031b161c191690553880806102b8565b9192602060018192868b0151815501940192016102a3565b600080527f290decd9548b62a8d60345a988386fc84ba6bc95484008f6362f93160ef3e563601f830160051c81019160208410610351575b601f0160051c01905b81811061034557506100c0565b60008155600101610338565b909150819061032f565b90607f16906100ae565b600080fd5b6040519190601f01601f191682016001600160401b0381118382101761027057604052565b600780546001600160a01b039283166001600160a01b0319821681179092559091167f8be0079c531659141344cd1fd0a4f28419497f9722a3daafe3b4186f6b6457e0600080a356fe608080604052600436101561001357600080fd5b60003560e01c90816301ffc9a714611f285750806306fdde0314611e83578063081812fc14611e65578063095ea7b314611cdb57806318160ddd14611cbd5780631ce5e9a614611ab357806323b872dd14611a8a57806325d4a65b1461164057806342842e0e146116165780636352211e146115e757806370a082311461153c578063710b7c2f146114ea578063715018a61461148f57806382afd23b146114355780638da5cb5b1461140e57806395d89b411461132d5780639a709c57146112fb578063a22cb46514611229578063b88d4fde1461119e578063c87b56dd146102f2578063d896dd641461025c578063e985e9c5146101ff5763f2fde38b1461011c57600080fd5b346101fa5760203660031901126101fa576001600160a01b0361013d611ff5565b610145612685565b16801561018f576001600160a01b03600754826001600160a01b0319821617600755167f8be0079c531659141344cd1fd0a4f28419497f9722a3daafe3b4186f6b6457e0600080a3005b60405162461bcd60e51b815260206004820152602660248201527f4f776e61626c653a206e6577206f776e657220697320746865207a65726f206160448201527f64647265737300000000000000000000000000000000000000000000000000006064820152608490fd5b600080fd5b346101fa5760403660031901126101fa57610218611ff5565b6001600160a01b0361022861200b565b911660005260056020526001600160a01b0360406000209116600052602052602060ff604060002054166040519015158152f35b346101fa5760403660031901126101fa5760043560243560038110156101fa5760207f4d7918f94f73bc22769a0715065536d0e7720e8fb22a5af2fccff8e4d6d89a0c916102a8612685565b83600052600282526102c96001600160a01b03604060002054161515612206565b83600052600982526102e28160096040600020016122d8565b6102ef604051809261202e565ba2005b346101fa5760203660031901126101fa576004358060005260026020526103286001600160a01b03604060002054161515612206565b806000526009602052604060002060ff6002820154166002811015611188571560008115611163575060405161035f6040826120a8565b600481526310d0531360e21b6020820152915b61038560ff600983015460a01c16612729565b9061039360038201546127f6565b6103a060058301546127f6565b6103ad60068401546127f6565b91600095600014611125576040516103c66040826120a8565b600781527f23323263353565000000000000000000000000000000000000000000000000006020820152965b60048501549861040460018701612120565b9861040e826128f1565b6104178c6128f1565b6104208a612d5a565b916040519c8d94602086017f3c73766720786d6c6e733d22687474703a2f2f7777772e77332e6f72672f32309052604086017f30302f737667222076696577426f783d223020302034303020323530222073749052606086017f796c653d22666f6e742d66616d696c793a6d6f6e6f7370616365223e000000009052607c86017f3c726563742077696474683d2234303022206865696768743d223235302220729052609c86017f783d223136222066696c6c3d2223306631373261222f3e000000000000000000905260b386017f3c7265637420783d2231362220793d223136222077696474683d223336382220905260d386017f6865696768743d22323138222072783d223132222066696c6c3d222331653239905260f386017f336222207374726f6b653d220000000000000000000000000000000000000000905280519060208101918060ff8901906105779185611fad565b7f22207374726f6b652d77696474683d2232222f3e00000000000000000000000060ff918901918201527f3c7465787420783d2233302220793d223530222066696c6c3d222339346133626101138201527f382220666f6e742d73697a653d223131223e484544455241204f5054494f4e536101338201527f205641554c543c2f746578743e000000000000000000000000000000000000006101538201527f3c7465787420783d2233302220793d223738222066696c6c3d2200000000000061016082015290519161065190839061017a840190611fad565b0160ff01607b81017f2220666f6e742d73697a653d2232322220666f6e742d7765696768743d22626f9052633632111f60e11b609b82015281519182609f8301916020019161069f92611fad565b01607b0160248101600160fd1b9052865190602581018260208a01916106c492611fad565b016024016001810161202360f01b9052815191826003830191602001916106ea92611fad565b0160010160028101661e17ba32bc3a1f60c91b9052600981017f3c7465787420783d2233302220793d22313038222066696c6c3d2223653265389052602981017f66302220666f6e742d73697a653d223134223e537472696b653a2024000000009052865190604581018260208a019161076392611fad565b01600201604381017f205553443c2f746578743e0000000000000000000000000000000000000000009052604e81017f3c7465787420783d2233302220793d22313332222066696c6c3d2223653265389052606e81017f66302220666f6e742d73697a653d223134223e53697a653a20202000000000009052875190608981018260208b01916107f292611fad565b01604301604681017f20756e6974733c2f746578743e000000000000000000000000000000000000009052605381017f3c7465787420783d2233302220793d22313536222066696c6c3d2223653265389052607381017f66302220666f6e742d73697a653d223134223e5072656d69756d3a20240000009052885190609081018260208c019161088192611fad565b01604601604a8101661e17ba32bc3a1f60c91b9052605181017f3c7465787420783d2233302220793d22313830222066696c6c3d2223363437349052607181017f38622220666f6e742d73697a653d223131223e4578706972793a200000000000905281519182608c830191602001916108fa92611fad565b661e17ba32bc3a1f60c91b608c92909101918201527f3c7465787420783d2233302220793d22323030222066696c6c3d22233634373460938201527f38622220666f6e742d73697a653d223131223e536574746c656420766961204860b38201527f49502d313231352050726f746f636f6c204175746f6d6174696f6e3c2f74657860d3820152613a1f60f11b60f38201527f3c7265637420783d223239302220793d223138222077696474683d223930222060f58201527f6865696768743d223232222072783d2236222066696c6c3d2200000000000000610115820152815191604a8201916109f491849161012e0190602001611fad565b016042016211179f60e91b60a282015260a581017f3c7465787420783d223333352220793d223333222066696c6c3d222366666622905260c581017f20666f6e742d73697a653d2231302220746578742d616e63686f723d226d6964905260e581017f646c65223e000000000000000000000000000000000000000000000000000000905288519060ea81018260208c0191610a8f92611fad565b0160a20160488101661e17ba32bc3a1f60c91b9052604f81017f3c2f7376673e000000000000000000000000000000000000000000000000000090520360480160121981018a52600d01610ae3908a6120a8565b610aec906128f1565b97610af690612a45565b98610b00906128f1565b9460078101546001600160a01b031660405198610b1e60608b6120a8565b602a8a5260403660208c013789511561111157603060208b015389516001101561111157607860218b01536029905b6001821161109e57505061105a576040517f7b226e616d65223a2200000000000000000000000000000000000000000000006020820152998a99610b9760298c0160018501612413565b600160fd1b8152845190610bb2826001830160208901611fad565b016001810161080960f21b905285519060038101826020890191610bd592611fad565b01600101600281017f204f7074696f6e20230000000000000000000000000000000000000000000000905281519182600b83019160200191610c1692611fad565b61088b60f21b600b92909101918201527f226465736372697074696f6e223a22486564657261204f7074696f6e73205661600d8201527f756c74202d204167656e74696320446546692e204578657263697361626c6520602d8201527f766961204849502d31323135206175746f6e6f6d6f757320736574746c656d65604d8201527f6e742e222c000000000000000000000000000000000000000000000000000000606d8201527f22696d616765223a22646174613a696d6167652f7376672b786d6c3b626173656072820152620d8d0b60ea1b60928201528151916002820191610d0a91849160950190602001611fad565b61088b60f21b609392909101918201527f2261747472696275746573223a5b00000000000000000000000000000000000060958201527f7b2274726169745f74797065223a22556e6465726c79696e67222c2276616c7560a38201526332911d1160e11b60c3820152610d859160c790910190600101612413565b62089f4b60ea1b81527f7b2274726169745f74797065223a2254797065222c2276616c7565223a2200006003820152815191610dca9083906021840190602001611fad565b62089f4b60ea1b602192909101918201527f7b2274726169745f74797065223a22537472696b6520555344222c2276616c7560248201526332911d1160e11b6044820152815191610e249083906048840190602001611fad565b0160210162089f4b60ea1b6027820152602a81017f7b2274726169745f74797065223a2253697a65222c2276616c7565223a220000905281519182604883019160200191610e7192611fad565b0160270162089f4b60ea1b6021820152602481017f7b2274726169745f74797065223a225072656d69756d222c2276616c7565223a9052601160f91b604482015281519182604583019160200191610ec892611fad565b0160210162089f4b60ea1b6024820152602781017f7b2274726169745f74797065223a22457870697279222c2276616c7565223a00905281519182604683019160200191610f1592611fad565b0160240160228101611f4b60f21b9052602481017f7b2274726169745f74797065223a22537461747573222c2276616c7565223a22905281519182604483019160200191610f6292611fad565b0160220162089f4b60ea1b6022820152602581017f7b2274726169745f74797065223a22577269746572222c2276616c7565223a22905281519182604583019160200191610faf92611fad565b61227d60f01b91016045810191909152615d7d60f01b604782015203602981018252610fde90604901826120a8565b610fe790612a45565b6040518091602082017f646174613a6170706c69636174696f6e2f6a736f6e3b6261736536342c000000905280519081603d8401916020019161102992611fad565b810103603d01601f198101825261104090826120a8565b6040518091602082526020820161105691611fd0565b0390f35b606460405162461bcd60e51b815260206004820152602060248201527f537472696e67733a20686578206c656e67746820696e73756666696369656e746044820152fd5b90916010600f821610156110fd578a518310156110fd576f181899199a1a9b1b9c1cb0b131b232b360811b600f82161a8b84016020015360041c9180156110e9576000190190610b4d565b634e487b7160e01b82526011600452602482fd5b634e487b7160e01b82526032600452602482fd5b634e487b7160e01b81526032600452602490fd5b6040516111336040826120a8565b600781527f23656634343434000000000000000000000000000000000000000000000000006020820152966103f2565b506040516111726040826120a8565b600381526214155560ea1b602082015291610372565b634e487b7160e01b600052602160045260246000fd5b346101fa5760803660031901126101fa576111b7611ff5565b6111bf61200b565b6064359167ffffffffffffffff83116101fa57366023840112156101fa578260040135916111ec836120ca565b926111fa60405194856120a8565b80845236602482870101116101fa576020816000926024611227980183880137850101526044359161237d565b005b346101fa5760403660031901126101fa57611242611ff5565b602435908115158092036101fa576001600160a01b0316908133146112b657336000526005602052604060002082600052602052604060002060ff1981541660ff83161790556040519081527f17307eab39ab6107e8899845ad3d59bd9653f200f220920489ca2b5937696c3160203392a3005b60405162461bcd60e51b815260206004820152601960248201527f4552433732313a20617070726f766520746f2063616c6c6572000000000000006044820152606490fd5b346101fa5760203660031901126101fa5760043560005260096020526020600460406000200154421015604051908152f35b346101fa5760003660031901126101fa57604051600060015461134f816120e6565b80845290600181169081156113ea575060011461138b575b61105683611377818503826120a8565b604051918291602083526020830190611fd0565b600160009081527fb10e2d527612073b26eecdfd717e6a320cf44b4afac2b0732d9fcbe2b7fa0cf6939250905b8082106113d057509091508101602001611377611367565b9192600181602092548385880101520191019092916113b8565b60ff191660208086019190915291151560051b840190910191506113779050611367565b346101fa5760003660031901126101fa5760206001600160a01b0360075416604051908152f35b346101fa5760203660031901126101fa576004356000526009602052604060002060ff600982015460a01c1690600382101561118857602091159081611481575b506040519015158152f35b600491500154421082611476565b346101fa5760003660031901126101fa576114a8612685565b60006001600160a01b036007546001600160a01b03198116600755167f8be0079c531659141344cd1fd0a4f28419497f9722a3daafe3b4186f6b6457e08280a3005b346101fa5760403660031901126101fa5761150361200b565b61150b612685565b60043560005260096020526001600160a01b03600960406000200191166001600160a01b0319825416179055600080f35b346101fa5760203660031901126101fa576001600160a01b0361155d611ff5565b16801561157c5760005260036020526020604060002054604051908152f35b60405162461bcd60e51b815260206004820152602960248201527f4552433732313a2061646472657373207a65726f206973206e6f74206120766160448201527f6c6964206f776e657200000000000000000000000000000000000000000000006064820152608490fd5b346101fa5760203660031901126101fa576020611605600435612358565b6001600160a01b0360405191168152f35b346101fa576112276116273661203b565b90604051926116376020856120a8565b6000845261237d565b346101fa5760403660031901126101fa57611659611ff5565b6024359067ffffffffffffffff82116101fa57813603916101806003198401126101fa57611685612685565b600854916000198314611a745760018301600855826000526009602052604060002090826004013582556001820194602484013590602219018112156101fa57830194600486013567ffffffffffffffff81116101fa5780360360248801136101fa57806000976116f684546120e6565b601f8111611a24575b508890601f83116001146119b75789926119a9575b50508160011b916000199060031b1c19161790555b6002820160448401359060028210156119a55760ff1981541660ff831617905560648401359081600385015560848501359485600486015560a48101359384600587015560c4820135600687015560e4820195611785876122c4565b6001600160a01b036007830191166001600160a01b03198254161790556117af61010484016122c4565b6001600160a01b036008830191166001600160a01b0319825416179055600981016001600160a01b036117e561012486016122c4565b166001600160a01b031982541617815561014484013560038110156119a1576001600160a01b039461181c61016492600a946122d8565b01359101558789526009602052600960408a200160ff60a01b198154169055878952600960205242600a60408b2001551693841561195d57602097879687957f1a38693d3505d88c2704f6bbb47e5a2dd7a1a37e3b012511eabd416032f0d846956119448960809761193d6001600160a01b03986118dc6118ba8e6118c06118ba8260005260026020526001600160a01b0360406000205416151590565b156126dd565b60005260026020526001600160a01b0360406000205416151590565b83895260206003905260408920600181540190558c895260206002905260408920846001600160a01b03198254161790556040519e8f948a7fddf252ad1be2c89b69c2b068fc378daa952ba7f163c4a11628f55a4df523b3ef8180a46122c4565b9650612021565b8b8a0152604089015260608801521694a4604051908152f35b606460405162461bcd60e51b815260206004820152602060248201527f4552433732313a206d696e7420746f20746865207a65726f20616464726573736044820152fd5b8b80fd5b8680fd5b016024013590508880611714565b848a5260208a20925090601f1984168a5b818110611a0957509084600195949392106119eb575b505050811b019055611729565b602491010135600019600384901b60f8161c191690558880806119de565b602484840101358555600190940193602092830192016119c8565b90915083895260208920601f840160051c81019160208510611a6a575b90601f859493920160051c01905b818110611a5c57506116ff565b8a8155849350600101611a4f565b9091508190611a41565b634e487b7160e01b600052601160045260246000fd5b346101fa57611227611a9b3661203b565b91611aae611aa98433612481565b612252565b612561565b346101fa5760203660031901126101fa576004356000610160604051611ad881612075565b828152606060208201528260408201528260608201528260808201528260a08201528260c08201528260e08201528261010082015282610120820152826101408201520152806000526002602052611b3f6001600160a01b03604060002054161515612206565b60005260096020526040600020604051611b5881612075565b81548152611b6860018301612120565b916020820192835260ff600282015416906040830191600281101561118857825260038101549060608401918252600481015460808501908152600582015460a08601908152600683015460c087019081526001600160a01b036007850154169060e088019182526001600160a01b0360088601541692610100890193845260098601549460ff6101208b01966001600160a01b038116885260a01c16966101408b01976003811015611188578852600a0154976101608b019889526040519b8c9b60208d525160208d01525160408c0161018090526101a08c01611c4c91611fd0565b995160608c01611c5b91612021565b5160808b01525160a08a01525160c08901525160e0880152516001600160a01b0316610100870152516001600160a01b0316610120860152516001600160a01b0316610140850152516101608401611cb29161202e565b516101808301520390f35b346101fa5760003660031901126101fa576020600854604051908152f35b346101fa5760403660031901126101fa57611cf4611ff5565b602435906001600160a01b0380611d0a84612358565b16911690808214611e1657803314908115611de8575b5015611d7d578160005260046020526040600020816001600160a01b03198254161790556001600160a01b03611d5583612358565b167f8c5be1e5ebec7d5bd14f71427d1e84f3dd0314c0f7b2291e5b200ac8c7c3b925600080a4005b60405162461bcd60e51b815260206004820152603d60248201527f4552433732313a20617070726f76652063616c6c6572206973206e6f7420746f60448201527f6b656e206f776e6572206f7220617070726f76656420666f7220616c6c0000006064820152608490fd5b9050600052600560205260406000206001600160a01b03331660005260205260ff6040600020541683611d20565b60405162461bcd60e51b815260206004820152602160248201527f4552433732313a20617070726f76616c20746f2063757272656e74206f776e656044820152603960f91b6064820152608490fd5b346101fa5760203660031901126101fa5760206116056004356121c4565b346101fa5760003660031901126101fa5760405160008054611ea4816120e6565b80845290600181169081156113ea5750600114611ecb5761105683611377818503826120a8565b60008080527f290decd9548b62a8d60345a988386fc84ba6bc95484008f6362f93160ef3e563939250905b808210611f0e57509091508101602001611377611367565b919260018160209254838588010152019101909291611ef6565b346101fa5760203660031901126101fa576004359063ffffffff60e01b82168092036101fa57602091632483248360e11b8114908115611f6a575b5015158152f35b6380ac58cd60e01b811491508115611f9c575b8115611f8b575b5083611f63565b6301ffc9a760e01b14905083611f84565b635b5e139f60e01b81149150611f7d565b60005b838110611fc05750506000910152565b8181015183820152602001611fb0565b90602091611fe981518092818552858086019101611fad565b601f01601f1916010190565b600435906001600160a01b03821682036101fa57565b602435906001600160a01b03821682036101fa57565b9060028210156111885752565b9060038210156111885752565b60609060031901126101fa576004356001600160a01b03811681036101fa57906024356001600160a01b03811681036101fa579060443590565b610180810190811067ffffffffffffffff82111761209257604052565b634e487b7160e01b600052604160045260246000fd5b90601f8019910116810190811067ffffffffffffffff82111761209257604052565b67ffffffffffffffff811161209257601f01601f191660200190565b90600182811c92168015612116575b602083101461210057565b634e487b7160e01b600052602260045260246000fd5b91607f16916120f5565b9060405191826000825492612134846120e6565b80845293600181169081156121a2575060011461215b575b50612159925003836120a8565b565b90506000929192526020600020906000915b818310612186575050906020612159928201013861214c565b602091935080600191548385890101520191019091849261216d565b90506020925061215994915060ff191682840152151560051b8201013861214c565b6121ec6121e78260005260026020526001600160a01b0360406000205416151590565b61230c565b60005260046020526001600160a01b036040600020541690565b1561220d57565b60405162461bcd60e51b815260206004820152601860248201527f4f7074696f6e546f6b656e3a206e6f6e6578697374656e7400000000000000006044820152606490fd5b1561225957565b60405162461bcd60e51b815260206004820152602d60248201527f4552433732313a2063616c6c6572206973206e6f7420746f6b656e206f776e6560448201527f72206f7220617070726f766564000000000000000000000000000000000000006064820152608490fd5b356001600160a01b03811681036101fa5790565b9060038110156111885760ff60a01b1974ff000000000000000000000000000000000000000083549260a01b169116179055565b1561231357565b60405162461bcd60e51b815260206004820152601860248201527f4552433732313a20696e76616c696420746f6b656e20494400000000000000006044820152606490fd5b60005260026020526001600160a01b036040600020541661237a81151561230c565b90565b906123a1939291612391611aa98433612481565b61239c838383612561565b612bb4565b156123a857565b60405162461bcd60e51b815260206004820152603260248201527f4552433732313a207472616e7366657220746f206e6f6e20455243373231526560448201527f63656976657220696d706c656d656e74657200000000000000000000000000006064820152608490fd5b60009291815491612423836120e6565b926001811690811561246e575060011461243c57505050565b909192935060005260206000206000905b83821061245a5750500190565b60018160209254848601520191019061244d565b60ff191683525050811515909102019150565b906001600160a01b038061249483612358565b169216908282149283156124c8575b5082156124af57505090565b6001600160a01b039192506124c3906121c4565b161490565b909250600052600560205260406000208160005260205260ff6040600020541691386124a3565b156124f657565b60405162461bcd60e51b815260206004820152602560248201527f4552433732313a207472616e736665722066726f6d20696e636f72726563742060448201527f6f776e65720000000000000000000000000000000000000000000000000000006064820152608490fd5b6001600160a01b039161258483928361257987612358565b9116941684146124ef565b16908115612634576125a8816001600160a01b036125a186612358565b16146124ef565b82600052600460205260406000206001600160a01b03198154169055806000526003602052604060002060001981540190558160005260036020526040600020600181540190558260005260026020526040600020826001600160a01b03198254161790557fddf252ad1be2c89b69c2b068fc378daa952ba7f163c4a11628f55a4df523b3ef600080a4565b60405162461bcd60e51b8152602060048201526024808201527f4552433732313a207472616e7366657220746f20746865207a65726f206164646044820152637265737360e01b6064820152608490fd5b6001600160a01b0360075416330361269957565b606460405162461bcd60e51b815260206004820152602060248201527f4f776e61626c653a2063616c6c6572206973206e6f7420746865206f776e65726044820152fd5b156126e457565b60405162461bcd60e51b815260206004820152601c60248201527f4552433732313a20746f6b656e20616c7265616479206d696e746564000000006044820152606490fd5b60038110156111885780156127ba5760016000911461277e57506040516127516040826120a8565b600781527f4558504952454400000000000000000000000000000000000000000000000000602082015290565b5060405161278d6040826120a8565b600981527f4558455243495345440000000000000000000000000000000000000000000000602082015290565b506040516127c96040826120a8565b600681527f4143544956450000000000000000000000000000000000000000000000000000602082015290565b61237a600161281a670de0b6b3a7640000662386f26fc100008186060494046128f1565b92600a8110156128b05761282d906128f1565b61286560216040518093600360fc1b60208301526128548151809260208686019101611fad565b81010301601f1981018352826120a8565b925b602060405194826128818794518092858088019101611fad565b8301601760f91b8382015261289f8251809385602185019101611fad565b01010301601f1981018352826120a8565b6128b9906128f1565b92612867565b906128c9826120ca565b6128d660405191826120a8565b82815280926128e7601f19916120ca565b0190602036910137565b806000917a184f03e93ff9f4daa797ed6e38ed64bf6a1f010000000000000000821015612a1d575b806d04ee2d6d415b85acef8100000000600a921015612a02575b662386f26fc100008110156129ee575b6305f5e1008110156129dd575b6127108110156129ce575b60648110156129c0575b10156129b5575b600a602161297c600185016128bf565b938401015b60001901916f181899199a1a9b1b9c1cb0b131b232b360811b8282061a83530480156129b057600a9091612981565b505090565b60019091019061296c565b606460029104930192612965565b6127106004910493019261295b565b6305f5e10060089104930192612950565b662386f26fc1000060109104930192612943565b6d04ee2d6d415b85acef810000000060209104930192612933565b50604091507a184f03e93ff9f4daa797ed6e38ed64bf6a1f0100000000000000008104612919565b90815115612b9d5760405191612a5c6060846120a8565b604083527f4142434445464748494a4b4c4d4e4f505152535455565758595a61626364656660208401527f6768696a6b6c6d6e6f707172737475767778797a303132333435363738392b2f6040840152805160028101809111611a7457600390047f3fffffffffffffffffffffffffffffffffffffffffffffffffffffffffffffff81168103611a7457612af29060021b6128bf565b9060208201908081518201956020870190815192600083525b888110612b4f5750506003939495965052510680600114612b3c57600214612b31575090565b603d90600019015390565b50603d9081600019820153600119015390565b600360049199969901986001603f8b5182828260121c16870101518453828282600c1c16870101518385015382828260061c1687010151600285015316840101516003820153019497612b0b565b9050604051612bad6020826120a8565b6000815290565b9190803b15612d51576001600160a01b03600081602095612c0460405198899788968794630a85bd0160e11b86523360048701521660248501526044840152608060648401526084830190611fd0565b0393165af18091600091612cef575b5090612cc1573d15612cba573d612c29816120ca565b90612c3760405192836120a8565b81523d6000602083013e5b80519081612cb55760405162461bcd60e51b815260206004820152603260248201527f4552433732313a207472616e7366657220746f206e6f6e20455243373231526560448201527f63656976657220696d706c656d656e74657200000000000000000000000000006064820152608490fd5b602001fd5b6060612c42565b7fffffffff0000000000000000000000000000000000000000000000000000000016630a85bd0160e11b1490565b6020813d602011612d49575b81612d08602093836120a8565b81010312612d455751907fffffffff0000000000000000000000000000000000000000000000000000000082168203612d42575038612c13565b80fd5b5080fd5b3d9150612cfb565b50505050600190565b602081519101207fdb6d55a48c634fdfe68da24c01559762c293198f8322e1fed7ca8976fc4ed2608114612e24577fe7702d80dfd40cdb266edb2034d118b91502a9a0f1e86eda9e13980523a38f9614612de957604051612dbc6040826120a8565b600781527f2336623732383000000000000000000000000000000000000000000000000000602082015290565b604051612df76040826120a8565b600781527f2332353633656200000000000000000000000000000000000000000000000000602082015290565b50604051612e336040826120a8565b600781527f233136613334610000000000000000000000000000000000000000000000000060208201529056fea164736f6c634300081a000a",
  "linkReferences": {},
  "deployedLinkReferences": {}
}