{
  "_format": "hh-sol-artifact-1",
  "contractName": "MockPyth",
  "sourceName": "contracts/test/MockPyth.sol",
  "abi": [
    {
      "inputs": [
        {
          "internalType": "uint256",
          "name": "_validTimePeriod",
          "type": "uint256"
        },
        {
          "internalType": "uint256",
          "name": "_singleUpdateFee",
          "type": "uint256"
        }
      ],
      "stateMutability": "nonpayable",
      "type": "constructor"
    },
    {
      "anonymous": false,
      "inputs": [
        {
          "indexed": true,
          "internalType": "bytes32",
          "name": "id",
          "type": "bytes32"
        },
        {
          "indexed": false,
          "internalType": "uint64",
          "name": "publishTime",
          "type": "uint64"
        },
        {
          "indexed": false,
          "internalType": "int64",
          "name": "price",
          "type": "int64"
        },
        {
          "indexed": false,
          "internalType": "uint64",
          "name": "conf",
          "type": "uint64"
        }
      ],
      "name": "PriceFeedUpdate",
      "type": "event"
    },
    {
      "inputs": [
        {
          "internalType": "bytes32",
          "name": "id",
          "type": "bytes32"
        },
        {
          "internalType": "uint256",
          "name": "age",
          "type": "uint256"
        }
      ],
      "name": "getEmaPriceNoOlderThan",
      "outputs": [
        {
          "components": [
            {
              "internalType": "int64",
              "name": "price",
              "type": "int64"
            },
            {
              "internalType": "uint64",
              "name": "conf",
              "type": "uint64"
            },
            {
              "internalType": "int32",
              "name": "expo",
              "type": "int32"
            },
            {
              "internalType": "uint256",
              "name": "publishTime",
              "type": "uint256"
            }
          ],
          "internalType": "struct IPyth.Price",
          "name": "",
          "type": "tuple"
        }
      ],
      "stateMutability": "view",
      "type": "function"
    },
    {
      "inputs": [
        {
          "internalType": "bytes32",
          "name": "id",
          "type": "bytes32"
        }
      ],
      "name": "getEmaPriceUnsafe",
      "outputs": [
        {
          "components": [
            {
              "internalType": "int64",
              "name": "price",
              "type": "int64"
            },
            {
              "internalType": "uint64",
              "name": "conf",
              "type": "uint64"
            },
            {
              "internalType": "int32",
              "name": "expo",
              "type": "int32"
            },
            {
              "internalType": "uint256",
              "name": "publishTime",
              "type": "uint256"
            }
          ],
          "internalType": "struct IPyth.Price",
          "name": "",
          "type": "tuple"
        }
      ],
      "stateMutability": "view",
      "type": "function"
    },
    {
      "inputs": [
        {
          "internalType": "bytes32[]",
          "name": "ids",
          "type": "bytes32[]"
        }
      ],
      "name": "getPriceFeeds",
      "outputs": [
        {
          "components": [
            {
              "internalType": "bytes32",
              "name": "id",
              "type": "bytes32"
            },
            {
              "components": [
                {
                  "internalType": "int64",
                  "name": "price",
                  "type": "int64"
                },
                {
                  "internalType": "uint64",
                  "name": "conf",
                  "type": "uint64"
                },
                {
                  "internalType": "int32",
                  "name": "expo",
                  "type": "int32"
                },
                {
                  "internalType": "uint256",
                  "name": "publishTime",
                  "type": "uint256"
                }
              ],
              "internalType": "struct IPyth.Price",
              "name": "price",
              "type": "tuple"
            },
            {
              "components": [
                {
                  "internalType": "int64",
                  "name": "price",
                  "type": "int64"
                },
                {
                  "internalType": "uint64",
                  "name": "conf",
                  "type": "uint64"
                },
                {
                  "internalType": "int32",
                  "name": "expo",
                  "type": "int32"
                },
                {
                  "internalType": "uint256",
                  "name": "publishTime",
                  "type": "uint256"
                }
              ],
              "internalType": "struct IPyth.Price",
              "name": "emaPrice",
              "type": "tuple"
            }
          ],
          "internalType": "struct IPyth.PriceFeed[]",
          "name": "feeds",
          "type": "tuple[]"
        }
      ],
      "stateMutability": "view",
      "type": "function"
    },
    {
      "inputs": [
        {
          "internalType": "bytes32",
          "name": "id",
          "type": "bytes32"
        },
        {
          "internalType": "uint256",
          "name": "age",
          "type": "uint256"
        }
      ],
      "name": "getPriceNoOlderThan",
      "outputs": [
        {
          "components": [
            {
              "internalType": "int64",
              "name": "price",
              "type": "int64"
            },
            {
              "internalType": "uint64",
              "name": "conf",
              "type": "uint64"
            },
            {
              "internalType": "int32",
              "name": "expo",
              "type": "int32"
            },
            {
              "internalType": "uint256",
              "name": "publishTime",
              "type": "uint256"
            }
          ],
          "internalType": "struct IPyth.Price",
          "name": "",
          "type": "tuple"
        }
      ],
      "stateMutability": "view",
      "type": "function"
    },
    {
      "inputs": [
        {
          "internalType": "bytes32",
          "name": "id",
          "type": "bytes32"
        }
      ],
      "name": "getPriceUnsafe",
      "outputs": [
        {
          "components": [
            {
              "internalType": "int64",
              "name": "price",
              "type": "int64"
            },
            {
              "internalType": "uint64",
              "name": "conf",
              "type": "uint64"
            },
            {
              "internalType": "int32",
              "name": "expo",
              "type": "int32"
            },
            {
              "internalType": "uint256",
              "name": "publishTime",
              "type": "uint256"
            }
          ],
          "internalType": "struct IPyth.Price",
          "name": "",
          "type": "tuple"
        }
      ],
      "stateMutability": "view",
      "type": "function"
    },
    {
      "inputs": [
        {
          "internalType": "bytes[]",
          "name": "updateData",
          "type": "bytes[]"
        }
      ],
      "name": "getUpdateFee",
      "outputs": [
        {
          "internalType": "uint256",
          "name": "feeAmount",
          "type": "uint256"
        }
      ],
      "stateMutability": "view",
      "type": "function"
    },
    {
      "inputs": [
        {
          "internalType": "bytes32",
          "name": "id",
          "type": "bytes32"
        }
      ],
      "name": "priceFeedExists",
      "outputs": [
        {
          "internalType": "bool",
          "name": "",
          "type": "bool"
        }
      ],
      "stateMutability": "view",
      "type": "function"
    },
    {
      "inputs": [
        {
          "internalType": "bytes32",
          "name": "feedId",
          "type": "bytes32"
        },
        {
          "internalType": "int64",
          "name": "price",
          "type": "int64"
        },
        {
          "internalType": "uint64",
          "name": "conf",
          "type": "uint64"
        },
        {
          "internalType": "int32",
          "name": "expo",
          "type": "int32"
        },
        {
          "internalType": "uint256",
          "name": "publishTime",
          "type": "uint256"
        }
      ],
      "name": "setPrice",
      "outputs": [],
      "stateMutability": "nonpayable",
      "type": "function"
    },
    {
      "inputs": [],
      "name": "singleUpdateFeeInWei",
      "outputs": [
        {
          "internalType": "uint256",
          "name": "",
          "type": "uint256"
        }
      ],
      "stateMutability": "view",
      "type": "function"
    },
    {
      "inputs": [
        {
          "internalType": "bytes[]",
          "name": "updateData",
          "type": "bytes[]"
        }
      ],
      "name": "updatePriceFeeds",
      "outputs": [],
      "stateMutability": "payable",
      "type": "function"
    },
    {
      "inputs": [
        {
          "internalType": "bytes[]",
          "name": "",
          "type": "bytes[]"
        },
        {
          "internalType": "bytes32[]",
          "name": "",
          "type": "bytes32[]"
        },
        {
          "internalType": "uint64[]",
          "name": "",
          "type": "uint64[]"
        }
      ],
      "name": "updatePriceFeedsIfNecessary",
      "outputs": [],
      "stateMutability": "payable",
      "type": "function"
    },
    {
      "inputs": [],
      "name": "validTimePeriod",
      "outputs": [
        {
          "internalType": "uint256",
          "name": "",
          "type": "uint256"
        }
      ],
      "stateMutability": "view",
      "type": "function"
    }
  ],
  "bytecode": "0x60c034607057601f610af338819003918201601f19168301916001600160401b038311848410176075578084926040948552833981010312607057602081519101519060805260a052604051610a67908161008c82396080518161056e015260a05181818161028d015261087d0152f35b600080fd5b634e487b7160e01b600052604160045260246000fdfe608080604052600436101561001357600080fd5b60003560e01c90816348b6404d1461086757508063711a2e28146107ba5780639474f45b1461076c57806396834ad31461071e578063a4ae35e014610634578063b5ec026114610603578063b9256d2814610591578063cbdaeaba14610556578063d47eed4514610518578063d727e660146102fe578063ef9e5e281461025a5763fe02dfd6146100a357600080fd5b346102555760a0366003190112610255576004356024358060070b809103610255576044359067ffffffffffffffff8216809203610255576064358060030b809103610255577fd06a6b7f4918494b3719217d1802786c1f5112a6c1d88fe2cfec00b4584f6aec926060926084359261011a610907565b8281526001602082018581526040830190848252888401918883528b6000526000602052604060002094519173ffffffffffffffffffffffffffffffffffffffff1967ffffffffffffffff6fffffffffffffffff00000000000000008854935160401b16935160801b63ffffffff60801b169416911617171783555191015560016101a3610907565b918383526020830185815260408401918252878401918783528a60005283602052604060002094519173ffffffffffffffffffffffffffffffffffffffff1967ffffffffffffffff6fffffffffffffffff00000000000000008854935160401b16935160801b63ffffffff60801b16941691161717178355519101558560005260026020526040600020600160ff1982541617905567ffffffffffffffff6040519316835260208301526040820152a2005b600080fd5b60203660031901126102555760043567ffffffffffffffff8111610255576102896102b19136906004016108b6565b90507f00000000000000000000000000000000000000000000000000000000000000006109f5565b34106102b957005b60405162461bcd60e51b815260206004820152601a60248201527f4d6f636b507974683a20696e73756666696369656e74206665650000000000006044820152606490fd5b346102555760203660031901126102555760043567ffffffffffffffff81116102555761032f9036906004016108b6565b9061033982610a08565b6040519290601f01601f1916830167ffffffffffffffff81118482101761050257604052808352601f1961036c82610a08565b0160005b8181106104ce57505060005b81811061044c578360405180916020820160208352815180915260206040840192019060005b8181106103b0575050500390f35b91935091602061012060019261043e6040885180518452610405868201518786019060608091805160070b845267ffffffffffffffff6020820151166020850152604081015160030b60408501520151910152565b0151805160070b60a0840152602081015167ffffffffffffffff1660c0840152604081015160030b60e084015260600151610100830152565b0194019101918493926103a2565b8061045a6001928486610a20565b35610466828587610a20565b3560005260006020526104ad6040600020610482848789610a20565b35600052846020526104a360406000209161049b6108e7565b9485526109ba565b60208401526109ba565b60408201526104bc8287610a46565b526104c78186610a46565b500161037c565b6020906104d96108e7565b600081526104e5610927565b838201526104f1610927565b604082015282828801015201610370565b634e487b7160e01b600052604160045260246000fd5b346102555760203660031901126102555760043567ffffffffffffffff81116102555761054e61028960209236906004016108b6565b604051908152f35b346102555760003660031901126102555760206040517f00000000000000000000000000000000000000000000000000000000000000008152f35b60603660031901126102555760043567ffffffffffffffff8111610255576105bd9036906004016108b6565b505060243567ffffffffffffffff8111610255576105df9036906004016108b6565b505060443567ffffffffffffffff8111610255576106019036906004016108b6565b005b34610255576020366003190112610255576004356000526002602052602060ff604060002054166040519015158152f35b3461025557610642366108a0565b61064a610927565b5081600052600260205261066560ff6040600020541661094b565b81600052600060205261068060016040600020015442610997565b116106d9576000526000602052608061069c60406000206109ba565b6106d7604051809260608091805160070b845267ffffffffffffffff6020820151166020850152604081015160030b60408501520151910152565bf35b60405162461bcd60e51b815260206004820152601560248201527f4d6f636b507974683a207374616c6520707269636500000000000000000000006044820152606490fd5b346102555760203660031901126102555760043561073a610927565b5080600052600260205261075560ff6040600020541661094b565b6000526000602052608061069c60406000206109ba565b3461025557602036600319011261025557600435610788610927565b508060005260026020526107a360ff6040600020541661094b565b6000526001602052608061069c60406000206109ba565b34610255576107c8366108a0565b6107d0610927565b508160005260026020526107eb60ff6040600020541661094b565b81600052600160205261080660016040600020015442610997565b11610822576000526001602052608061069c60406000206109ba565b60405162461bcd60e51b815260206004820152601960248201527f4d6f636b507974683a207374616c6520454d41207072696365000000000000006044820152606490fd5b34610255576000366003190112610255576020907f00000000000000000000000000000000000000000000000000000000000000008152f35b6040906003190112610255576004359060243590565b9181601f840112156102555782359167ffffffffffffffff8311610255576020808501948460051b01011161025557565b604051906060820182811067ffffffffffffffff82111761050257604052565b604051906080820182811067ffffffffffffffff82111761050257604052565b61092f610907565b9060008252600060208301526000604083015260006060830152565b1561095257565b60405162461bcd60e51b815260206004820152601860248201527f4d6f636b507974683a2066656564206e6f7420666f756e6400000000000000006044820152606490fd5b919082039182116109a457565b634e487b7160e01b600052601160045260246000fd5b9060016109c5610907565b9280548060070b855267ffffffffffffffff8160401c16602086015260801c60030b604085015201546060830152565b818102929181159184041417156109a457565b67ffffffffffffffff81116105025760051b60200190565b9190811015610a305760051b0190565b634e487b7160e01b600052603260045260246000fd5b8051821015610a305760209160051b01019056fea164736f6c634300081a000a",
  "linkReferences": {},
  "deployedLinkReferences": {}
}